{
  "contractName": "AltCrowdsale",
  "abi": [
    {
      "constant": true,
      "inputs": [
        {
          "name": "",
          "type": "address"
        }
      ],
      "name": "claimRefundAllowance",
      "outputs": [
        {
          "name": "",
          "type": "bool"
        }
      ],
      "payable": false,
      "stateMutability": "view",
      "type": "function"
    },
    {
      "constant": true,
      "inputs": [
        {
          "name": "",
          "type": "uint256"
        }
      ],
      "name": "timeSlices",
      "outputs": [
        {
          "name": "",
          "type": "uint256"
        }
      ],
      "payable": false,
      "stateMutability": "view",
      "type": "function"
    },
    {
      "constant": false,
      "inputs": [
        {
          "name": "_timeSlices",
          "type": "uint256[]"
        },
        {
          "name": "_prices",
          "type": "uint256[]"
        }
      ],
      "name": "setTimeBonuses",
      "outputs": [],
      "payable": false,
      "stateMutability": "nonpayable",
      "type": "function"
    },
    {
      "constant": true,
      "inputs": [],
      "name": "temporalTotalSupply",
      "outputs": [
        {
          "name": "",
          "type": "uint256"
        }
      ],
      "payable": false,
      "stateMutability": "view",
      "type": "function"
    },
    {
      "constant": true,
      "inputs": [],
      "name": "isMintingShipment",
      "outputs": [
        {
          "name": "",
          "type": "bool"
        }
      ],
      "payable": false,
      "stateMutability": "view",
      "type": "function"
    },
    {
      "constant": true,
      "inputs": [],
      "name": "isRefundable",
      "outputs": [
        {
          "name": "",
          "type": "bool"
        }
      ],
      "payable": false,
      "stateMutability": "view",
      "type": "function"
    },
    {
      "constant": false,
      "inputs": [
        {
          "name": "_token",
          "type": "address"
        },
        {
          "name": "_value",
          "type": "uint256"
        }
      ],
      "name": "updateTokenValue",
      "outputs": [],
      "payable": false,
      "stateMutability": "nonpayable",
      "type": "function"
    },
    {
      "constant": true,
      "inputs": [],
      "name": "endTime",
      "outputs": [
        {
          "name": "",
          "type": "uint256"
        }
      ],
      "payable": false,
      "stateMutability": "view",
      "type": "function"
    },
    {
      "constant": false,
      "inputs": [
        {
          "name": "_amountSlices",
          "type": "uint256[]"
        },
        {
          "name": "_prices",
          "type": "uint256[]"
        }
      ],
      "name": "setAmountBonuses",
      "outputs": [],
      "payable": false,
      "stateMutability": "nonpayable",
      "type": "function"
    },
    {
      "constant": true,
      "inputs": [],
      "name": "tokenDecimals",
      "outputs": [
        {
          "name": "",
          "type": "uint256"
        }
      ],
      "payable": false,
      "stateMutability": "view",
      "type": "function"
    },
    {
      "constant": true,
      "inputs": [
        {
          "name": "",
          "type": "uint256"
        }
      ],
      "name": "whitelisted",
      "outputs": [
        {
          "name": "",
          "type": "address"
        }
      ],
      "payable": false,
      "stateMutability": "view",
      "type": "function"
    },
    {
      "constant": true,
      "inputs": [],
      "name": "weiRaised",
      "outputs": [
        {
          "name": "",
          "type": "uint256"
        }
      ],
      "payable": false,
      "stateMutability": "view",
      "type": "function"
    },
    {
      "constant": true,
      "inputs": [
        {
          "name": "",
          "type": "address"
        },
        {
          "name": "",
          "type": "address"
        }
      ],
      "name": "altDeposit",
      "outputs": [
        {
          "name": "",
          "type": "uint256"
        }
      ],
      "payable": false,
      "stateMutability": "view",
      "type": "function"
    },
    {
      "constant": true,
      "inputs": [],
      "name": "wallet",
      "outputs": [
        {
          "name": "",
          "type": "address"
        }
      ],
      "payable": false,
      "stateMutability": "view",
      "type": "function"
    },
    {
      "constant": true,
      "inputs": [],
      "name": "isAllowToIssue",
      "outputs": [
        {
          "name": "",
          "type": "bool"
        }
      ],
      "payable": false,
      "stateMutability": "view",
      "type": "function"
    },
    {
      "constant": true,
      "inputs": [
        {
          "name": "_beneficiary",
          "type": "address"
        },
        {
          "name": "_weiAmount",
          "type": "uint256"
        },
        {
          "name": "_tokenAmount",
          "type": "uint256"
        },
        {
          "name": "_extraAmount",
          "type": "uint256"
        },
        {
          "name": "_totalAmount",
          "type": "uint256"
        }
      ],
      "name": "validPurchase",
      "outputs": [
        {
          "name": "",
          "type": "bool"
        }
      ],
      "payable": false,
      "stateMutability": "view",
      "type": "function"
    },
    {
      "constant": true,
      "inputs": [],
      "name": "userRegistry",
      "outputs": [
        {
          "name": "",
          "type": "address"
        }
      ],
      "payable": false,
      "stateMutability": "view",
      "type": "function"
    },
    {
      "constant": true,
      "inputs": [
        {
          "name": "",
          "type": "uint256"
        }
      ],
      "name": "amountSlices",
      "outputs": [
        {
          "name": "",
          "type": "uint256"
        }
      ],
      "payable": false,
      "stateMutability": "view",
      "type": "function"
    },
    {
      "constant": true,
      "inputs": [],
      "name": "isWhitelisted",
      "outputs": [
        {
          "name": "",
          "type": "bool"
        }
      ],
      "payable": false,
      "stateMutability": "view",
      "type": "function"
    },
    {
      "constant": false,
      "inputs": [
        {
          "name": "_owner",
          "type": "address"
        }
      ],
      "name": "grant",
      "outputs": [],
      "payable": false,
      "stateMutability": "nonpayable",
      "type": "function"
    },
    {
      "constant": false,
      "inputs": [
        {
          "name": "_beneficiaries",
          "type": "address[]"
        },
        {
          "name": "_min",
          "type": "uint256[]"
        },
        {
          "name": "_max",
          "type": "uint256[]"
        }
      ],
      "name": "setWhitelistThem",
      "outputs": [],
      "payable": false,
      "stateMutability": "nonpayable",
      "type": "function"
    },
    {
      "constant": false,
      "inputs": [
        {
          "name": "_owner",
          "type": "address"
        }
      ],
      "name": "revoke",
      "outputs": [],
      "payable": false,
      "stateMutability": "nonpayable",
      "type": "function"
    },
    {
      "constant": true,
      "inputs": [],
      "name": "timeSlicesCount",
      "outputs": [
        {
          "name": "",
          "type": "uint256"
        }
      ],
      "payable": false,
      "stateMutability": "view",
      "type": "function"
    },
    {
      "constant": false,
      "inputs": [],
      "name": "saneIt",
      "outputs": [],
      "payable": false,
      "stateMutability": "nonpayable",
      "type": "function"
    },
    {
      "constant": true,
      "inputs": [
        {
          "name": "_at",
          "type": "uint256"
        }
      ],
      "name": "calculateTimeBonus",
      "outputs": [
        {
          "name": "",
          "type": "uint256"
        }
      ],
      "payable": false,
      "stateMutability": "view",
      "type": "function"
    },
    {
      "constant": true,
      "inputs": [],
      "name": "startTime",
      "outputs": [
        {
          "name": "",
          "type": "uint256"
        }
      ],
      "payable": false,
      "stateMutability": "view",
      "type": "function"
    },
    {
      "constant": true,
      "inputs": [
        {
          "name": "_changeAmount",
          "type": "uint256"
        }
      ],
      "name": "calculateAmountBonus",
      "outputs": [
        {
          "name": "",
          "type": "uint256"
        }
      ],
      "payable": false,
      "stateMutability": "view",
      "type": "function"
    },
    {
      "constant": true,
      "inputs": [],
      "name": "publisher",
      "outputs": [
        {
          "name": "",
          "type": "address"
        }
      ],
      "payable": false,
      "stateMutability": "view",
      "type": "function"
    },
    {
      "constant": true,
      "inputs": [],
      "name": "isOwner",
      "outputs": [
        {
          "name": "",
          "type": "bool"
        }
      ],
      "payable": false,
      "stateMutability": "view",
      "type": "function"
    },
    {
      "constant": false,
      "inputs": [
        {
          "name": "_from",
          "type": "address"
        },
        {
          "name": "_value",
          "type": "uint256"
        },
        {
          "name": "_token",
          "type": "address"
        },
        {
          "name": "_extraData",
          "type": "bytes"
        }
      ],
      "name": "receiveApproval",
      "outputs": [],
      "payable": false,
      "stateMutability": "nonpayable",
      "type": "function"
    },
    {
      "constant": false,
      "inputs": [
        {
          "name": "_beneficiary",
          "type": "address"
        },
        {
          "name": "_amount",
          "type": "uint256"
        },
        {
          "name": "_hash",
          "type": "bytes32"
        }
      ],
      "name": "buyWithBitcoin",
      "outputs": [],
      "payable": false,
      "stateMutability": "nonpayable",
      "type": "function"
    },
    {
      "constant": true,
      "inputs": [],
      "name": "isAmountBonus",
      "outputs": [
        {
          "name": "",
          "type": "bool"
        }
      ],
      "payable": false,
      "stateMutability": "view",
      "type": "function"
    },
    {
      "constant": false,
      "inputs": [
        {
          "name": "_holder",
          "type": "address"
        }
      ],
      "name": "setExtraTokensHolder",
      "outputs": [],
      "payable": false,
      "stateMutability": "nonpayable",
      "type": "function"
    },
    {
      "constant": true,
      "inputs": [
        {
          "name": "",
          "type": "address"
        }
      ],
      "name": "whitelist",
      "outputs": [
        {
          "name": "",
          "type": "address"
        }
      ],
      "payable": false,
      "stateMutability": "view",
      "type": "function"
    },
    {
      "constant": true,
      "inputs": [],
      "name": "price",
      "outputs": [
        {
          "name": "",
          "type": "uint256"
        }
      ],
      "payable": false,
      "stateMutability": "view",
      "type": "function"
    },
    {
      "constant": false,
      "inputs": [
        {
          "name": "_registry",
          "type": "address"
        }
      ],
      "name": "setRegistry",
      "outputs": [],
      "payable": false,
      "stateMutability": "nonpayable",
      "type": "function"
    },
    {
      "constant": true,
      "inputs": [],
      "name": "whitelistedCount",
      "outputs": [
        {
          "name": "",
          "type": "uint256"
        }
      ],
      "payable": false,
      "stateMutability": "view",
      "type": "function"
    },
    {
      "constant": true,
      "inputs": [
        {
          "name": "",
          "type": "address"
        }
      ],
      "name": "temporalBalances",
      "outputs": [
        {
          "name": "",
          "type": "uint256"
        }
      ],
      "payable": false,
      "stateMutability": "view",
      "type": "function"
    },
    {
      "constant": true,
      "inputs": [],
      "name": "isTokenExcange",
      "outputs": [
        {
          "name": "",
          "type": "bool"
        }
      ],
      "payable": false,
      "stateMutability": "view",
      "type": "function"
    },
    {
      "constant": false,
      "inputs": [
        {
          "name": "_beneficiary",
          "type": "address"
        }
      ],
      "name": "claimRefund",
      "outputs": [
        {
          "name": "",
          "type": "bool"
        }
      ],
      "payable": false,
      "stateMutability": "nonpayable",
      "type": "function"
    },
    {
      "constant": true,
      "inputs": [],
      "name": "state",
      "outputs": [
        {
          "name": "",
          "type": "uint8"
        }
      ],
      "payable": false,
      "stateMutability": "view",
      "type": "function"
    },
    {
      "constant": true,
      "inputs": [],
      "name": "isExtraDistribution",
      "outputs": [
        {
          "name": "",
          "type": "bool"
        }
      ],
      "payable": false,
      "stateMutability": "view",
      "type": "function"
    },
    {
      "constant": false,
      "inputs": [
        {
          "name": "_token",
          "type": "address"
        },
        {
          "name": "_value",
          "type": "uint256"
        }
      ],
      "name": "setTokenExcange",
      "outputs": [],
      "payable": false,
      "stateMutability": "nonpayable",
      "type": "function"
    },
    {
      "constant": true,
      "inputs": [
        {
          "name": "",
          "type": "uint256"
        }
      ],
      "name": "amountBonuses",
      "outputs": [
        {
          "name": "",
          "type": "uint256"
        }
      ],
      "payable": false,
      "stateMutability": "view",
      "type": "function"
    },
    {
      "constant": true,
      "inputs": [
        {
          "name": "",
          "type": "address"
        }
      ],
      "name": "weiDeposit",
      "outputs": [
        {
          "name": "",
          "type": "uint256"
        }
      ],
      "payable": false,
      "stateMutability": "view",
      "type": "function"
    },
    {
      "constant": true,
      "inputs": [],
      "name": "extraDistributionPart",
      "outputs": [
        {
          "name": "",
          "type": "uint256"
        }
      ],
      "payable": false,
      "stateMutability": "view",
      "type": "function"
    },
    {
      "constant": true,
      "inputs": [
        {
          "name": "_weiAmount",
          "type": "uint256"
        },
        {
          "name": "_time",
          "type": "uint256"
        },
        {
          "name": "_totalSupply",
          "type": "uint256"
        }
      ],
      "name": "calculateEthAmount",
      "outputs": [
        {
          "name": "",
          "type": "uint256"
        },
        {
          "name": "",
          "type": "uint256"
        },
        {
          "name": "",
          "type": "uint256"
        }
      ],
      "payable": false,
      "stateMutability": "view",
      "type": "function"
    },
    {
      "constant": true,
      "inputs": [
        {
          "name": "",
          "type": "uint256"
        }
      ],
      "name": "timeBonuses",
      "outputs": [
        {
          "name": "",
          "type": "uint256"
        }
      ],
      "payable": false,
      "stateMutability": "view",
      "type": "function"
    },
    {
      "constant": false,
      "inputs": [
        {
          "name": "_wallet",
          "type": "address"
        }
      ],
      "name": "setWallet",
      "outputs": [],
      "payable": false,
      "stateMutability": "nonpayable",
      "type": "function"
    },
    {
      "constant": true,
      "inputs": [
        {
          "name": "maybe_owner",
          "type": "address"
        }
      ],
      "name": "checkOwner",
      "outputs": [
        {
          "name": "",
          "type": "bool"
        }
      ],
      "payable": false,
      "stateMutability": "view",
      "type": "function"
    },
    {
      "constant": true,
      "inputs": [],
      "name": "isPullingTokens",
      "outputs": [
        {
          "name": "",
          "type": "bool"
        }
      ],
      "payable": false,
      "stateMutability": "view",
      "type": "function"
    },
    {
      "constant": true,
      "inputs": [],
      "name": "amountSlicesCount",
      "outputs": [
        {
          "name": "",
          "type": "uint256"
        }
      ],
      "payable": false,
      "stateMutability": "view",
      "type": "function"
    },
    {
      "constant": true,
      "inputs": [],
      "name": "isKnownOnly",
      "outputs": [
        {
          "name": "",
          "type": "bool"
        }
      ],
      "payable": false,
      "stateMutability": "view",
      "type": "function"
    },
    {
      "constant": true,
      "inputs": [
        {
          "name": "",
          "type": "address"
        }
      ],
      "name": "allowedTokens",
      "outputs": [
        {
          "name": "",
          "type": "address"
        }
      ],
      "payable": false,
      "stateMutability": "view",
      "type": "function"
    },
    {
      "constant": true,
      "inputs": [],
      "name": "extraTokensHolder",
      "outputs": [
        {
          "name": "",
          "type": "address"
        }
      ],
      "payable": false,
      "stateMutability": "view",
      "type": "function"
    },
    {
      "constant": false,
      "inputs": [
        {
          "name": "_beneficiary",
          "type": "address"
        }
      ],
      "name": "buyTokens",
      "outputs": [],
      "payable": true,
      "stateMutability": "payable",
      "type": "function"
    },
    {
      "constant": true,
      "inputs": [],
      "name": "isEarlyBonus",
      "outputs": [
        {
          "name": "",
          "type": "bool"
        }
      ],
      "payable": false,
      "stateMutability": "view",
      "type": "function"
    },
    {
      "constant": true,
      "inputs": [
        {
          "name": "",
          "type": "address"
        }
      ],
      "name": "tokensValues",
      "outputs": [
        {
          "name": "",
          "type": "uint256"
        }
      ],
      "payable": false,
      "stateMutability": "view",
      "type": "function"
    },
    {
      "constant": false,
      "inputs": [
        {
          "name": "_beneficiary",
          "type": "address"
        }
      ],
      "name": "refund",
      "outputs": [],
      "payable": false,
      "stateMutability": "nonpayable",
      "type": "function"
    },
    {
      "constant": true,
      "inputs": [],
      "name": "hardCap",
      "outputs": [
        {
          "name": "",
          "type": "uint256"
        }
      ],
      "payable": false,
      "stateMutability": "view",
      "type": "function"
    },
    {
      "constant": true,
      "inputs": [],
      "name": "token",
      "outputs": [
        {
          "name": "",
          "type": "address"
        }
      ],
      "payable": false,
      "stateMutability": "view",
      "type": "function"
    },
    {
      "constant": true,
      "inputs": [],
      "name": "VERSION",
      "outputs": [
        {
          "name": "",
          "type": "uint256"
        }
      ],
      "payable": false,
      "stateMutability": "view",
      "type": "function"
    },
    {
      "inputs": [
        {
          "name": "_registry",
          "type": "address"
        },
        {
          "name": "_token",
          "type": "address"
        }
      ],
      "payable": false,
      "stateMutability": "nonpayable",
      "type": "constructor"
    },
    {
      "payable": true,
      "stateMutability": "payable",
      "type": "fallback"
    },
    {
      "anonymous": false,
      "inputs": [
        {
          "indexed": true,
          "name": "purchaser",
          "type": "address"
        },
        {
          "indexed": true,
          "name": "beneficiary",
          "type": "address"
        },
        {
          "indexed": false,
          "name": "value",
          "type": "uint256"
        },
        {
          "indexed": false,
          "name": "amount",
          "type": "uint256"
        }
      ],
      "name": "TokenPurchase",
      "type": "event"
    },
    {
      "anonymous": false,
      "inputs": [
        {
          "indexed": true,
          "name": "beneficiary",
          "type": "address"
        },
        {
          "indexed": false,
          "name": "value",
          "type": "uint256"
        },
        {
          "indexed": false,
          "name": "amount",
          "type": "uint256"
        },
        {
          "indexed": true,
          "name": "bitcoinHash",
          "type": "bytes32"
        }
      ],
      "name": "BitcoinSale",
      "type": "event"
    },
    {
      "anonymous": false,
      "inputs": [
        {
          "indexed": true,
          "name": "beneficiary",
          "type": "address"
        },
        {
          "indexed": true,
          "name": "allowedToken",
          "type": "address"
        },
        {
          "indexed": false,
          "name": "allowedTokenValue",
          "type": "uint256"
        },
        {
          "indexed": false,
          "name": "ethValue",
          "type": "uint256"
        },
        {
          "indexed": false,
          "name": "shipAmount",
          "type": "uint256"
        }
      ],
      "name": "TokenSell",
      "type": "event"
    },
    {
      "anonymous": false,
      "inputs": [
        {
          "indexed": true,
          "name": "owner",
          "type": "address"
        },
        {
          "indexed": true,
          "name": "amount",
          "type": "uint256"
        }
      ],
      "name": "ShipTokens",
      "type": "event"
    },
    {
      "anonymous": false,
      "inputs": [
        {
          "indexed": true,
          "name": "owner",
          "type": "address"
        }
      ],
      "name": "AccessGrant",
      "type": "event"
    },
    {
      "anonymous": false,
      "inputs": [
        {
          "indexed": true,
          "name": "owner",
          "type": "address"
        }
      ],
      "name": "AccessRevoke",
      "type": "event"
    }
  ],
  "bytecode": "0x606060405234156200001057600080fd5b60405160408062002b14833981016040528080519190602001805190602001909190505060006001600060016000806001600060016000662386f26fc100004242620d2f000167016345785d8a00008e600160008033600160a060020a0316600160a060020a0316815260200190815260200160002060006101000a81548160ff02191690831515021790555033600160006101000a815481600160a060020a030219169083600160a060020a031602179055506000601860006101000a81548160ff02191690836004811115620000e457fe5b02179055508e600160146101000a81548160ff0219169083151502179055508d600160156101000a81548160ff0219169083151502179055508c600160166101000a81548160ff0219169083151502179055508b600160176101000a81548160ff0219169083151502179055508a600160186101000a81548160ff02191690831515021790555089600160196101000a81548160ff021916908315150217905550886001601a6101000a81548160ff021916908315150217905550876001601b6101000a81548160ff021916908315150217905550866001601c6101000a81548160ff021916908315150217905550600160189054906101000a900460ff1680620001ec5750855b600180549115157d0100000000000000000000000000000000000000000000000000000000000260e860020a60ff02199092169190911790554283116200023257600080fd5b601084905560118390556014829055600c8054600160a060020a031916600160a060020a0383811691909117918290551663313ce5676000604051602001526040518163ffffffff167c0100000000000000000000000000000000000000000000000000000000028152600401602060405180830381600087803b1515620002b957600080fd5b6102c65a03f11515620002cb57600080fd5b5050506040518051600d5550505060139290925550620003079a508c99505064010000000062001b5a6200032882021704975050505050505050565b620003203364010000000062001ef2620003ad82021704565b505062000432565b60008060185460ff1660048111156200033d57fe5b146200034857600080fd5b600160a060020a03331660009081526020819052604090205460ff1615156001146200037357600080fd5b600554600160a060020a0316156200038a57600080fd5b5060058054600160a060020a031916600160a060020a0392909216919091179055565b60008060185460ff166004811115620003c257fe5b14620003cd57600080fd5b600160a060020a03331660009081526020819052604090205460ff161515600114620003f857600080fd5b601254600160a060020a0316156200040f57600080fd5b5060128054600160a060020a031916600160a060020a0392909216919091179055565b6126d280620004426000396000f3006060604052600436106102c65763ffffffff60e060020a60003504166317d8614481146102d1578063205513f31461030457806321309ae31461032c57806327937160146103bb5780632a03156a146103ce5780632c1fecfe146103e15780632cdb8eec146103f45780633197cbb6146104165780633647b084146104295780633b97e856146104b85780633d4efe09146104cb5780634042b66f146104fd57806341593ae914610510578063521eb273146105355780635551d1b71461054857806355e229561461055b5780635c7460d6146105865780635ce8ec2414610599578063611b4095146105af57806370284d19146105c257806372bd0700146105e157806374a8f103146106b0578063756abb98146106cf57806375f7e6f0146106e25780637862affa146106f557806378e979251461070b5780638727b7fc1461071e5780638c72c54e146107345780638f32d59b146107475780638f4ffcb11461075a5780639044494f146107c657806393545a79146107eb5780639728cead146107fe5780639b19251a1461081d578063a035b1fe1461083c578063a91ee0dc1461084f578063b2a1de221461086e578063b761abf314610881578063b8dd488e146108a0578063bffa55d5146108b3578063c19d93fb146108d2578063c448fa8514610909578063c6a7d3af1461091c578063d036261f1461093e578063d256630314610954578063d69c927514610973578063dabba26414610986578063de7682a8146109c6578063deaa59df146109dc578063e0e3671c146109fb578063e17c3a0814610a1a578063e3b6040e14610a2d578063e56f381514610a40578063e744092e14610a53578063e75bf82014610a72578063ec8ac4d814610a85578063ef11e55b14610a99578063f967c9eb14610aac578063fa89401a14610acb578063fb86a40414610aea578063fc0c546a14610afd578063ffa1ad7414610b10575b6102cf33610b23565b005b34156102dc57600080fd5b6102f0600160a060020a0360043516610b69565b604051901515815260200160405180910390f35b341561030f57600080fd5b61031a600435610b7e565b60405190815260200160405180910390f35b341561033757600080fd5b6102cf600460248135818101908301358060208181020160405190810160405280939291908181526020018383602002808284378201915050505050509190803590602001908201803590602001908080602002602001604051908101604052809392919081815260200183836020028082843750949650610b9d95505050505050565b34156103c657600080fd5b61031a610cbc565b34156103d957600080fd5b6102f0610cc2565b34156103ec57600080fd5b6102f0610cd2565b34156103ff57600080fd5b6102cf600160a060020a0360043516602435610ce2565b341561042157600080fd5b61031a610d28565b341561043457600080fd5b6102cf600460248135818101908301358060208181020160405190810160405280939291908181526020018383602002808284378201915050505050509190803590602001908201803590602001908080602002602001604051908101604052809392919081815260200183836020028082843750949650610d2e95505050505050565b34156104c357600080fd5b61031a610e4d565b34156104d657600080fd5b6104e1600435610e53565b604051600160a060020a03909116815260200160405180910390f35b341561050857600080fd5b61031a610e7b565b341561051b57600080fd5b61031a600160a060020a0360043581169060243516610e81565b341561054057600080fd5b6104e1610e9e565b341561055357600080fd5b6102f0610ead565b341561056657600080fd5b6102f0600160a060020a0360043516602435604435606435608435610ed4565b341561059157600080fd5b6104e1611157565b34156105a457600080fd5b61031a600435611166565b34156105ba57600080fd5b6102f0611174565b34156105cd57600080fd5b6102cf600160a060020a0360043516611195565b34156105ec57600080fd5b6102cf6004602481358181019083013580602081810201604051908101604052809392919081815260200183836020028082843782019150505050505091908035906020019082018035906020019080806020026020016040519081016040528093929190818152602001838360200280828437820191505050505050919080359060200190820180359060200190808060200260200160405190810160405280939291908181526020018383602002808284375094965061121295505050505050565b34156106bb57600080fd5b6102cf600160a060020a03600435166113b6565b34156106da57600080fd5b61031a61146c565b34156106ed57600080fd5b6102cf611472565b341561070057600080fd5b61031a600435611740565b341561071657600080fd5b61031a6117ab565b341561072957600080fd5b61031a6004356117b1565b341561073f57600080fd5b6104e1611820565b341561075257600080fd5b6102f061182f565b341561076557600080fd5b6102cf60048035600160a060020a0390811691602480359260443516919060849060643590810190830135806020601f8201819004810201604051908101604052818152929190602084018383808284375094965061185f95505050505050565b34156107d157600080fd5b6102cf600160a060020a03600435166024356044356119b8565b34156107f657600080fd5b6102f0611a89565b341561080957600080fd5b6102cf600160a060020a0360043516611aac565b341561082857600080fd5b6104e1600160a060020a0360043516611b39565b341561084757600080fd5b61031a611b54565b341561085a57600080fd5b6102cf600160a060020a0360043516611b5a565b341561087957600080fd5b61031a611be8565b341561088c57600080fd5b61031a600160a060020a0360043516611bee565b34156108ab57600080fd5b6102f0611c00565b34156108be57600080fd5b6102f0600160a060020a0360043516611c26565b34156108dd57600080fd5b6108e5611cc8565b604051808260048111156108f557fe5b60ff16815260200191505060405180910390f35b341561091457600080fd5b6102f0611cd1565b341561092757600080fd5b6102cf600160a060020a0360043516602435611ce1565b341561094957600080fd5b61031a600435611d69565b341561095f57600080fd5b61031a600160a060020a0360043516611d7b565b341561097e57600080fd5b61031a611d8d565b341561099157600080fd5b6109a2600435602435604435611d93565b60405180848152602001838152602001828152602001935050505060405180910390f35b34156109d157600080fd5b61031a600435611ee0565b34156109e757600080fd5b6102cf600160a060020a0360043516611ef2565b3415610a0657600080fd5b6102f0600160a060020a0360043516611f80565b3415610a2557600080fd5b6102f0611fb0565b3415610a3857600080fd5b61031a611fda565b3415610a4b57600080fd5b6102f0611fe0565b3415610a5e57600080fd5b6104e1600160a060020a0360043516612002565b3415610a7d57600080fd5b6104e161201d565b6102cf600160a060020a0360043516610b23565b3415610aa457600080fd5b6102f061202c565b3415610ab757600080fd5b61031a600160a060020a0360043516612050565b3415610ad657600080fd5b6102cf600160a060020a0360043516612062565b3415610af557600080fd5b61031a6120c8565b3415610b0857600080fd5b6104e16120ce565b3415610b1b57600080fd5b61031a6120dd565b600060018060185460ff166004811115610b3957fe5b14610b4357600080fd5b610b4d83346120e2565b915060008211610b5c57600080fd5b610b646122a7565b505050565b601d6020526000908152604090205460ff1681565b600a805482908110610b8c57fe5b600091825260209091200154905081565b600080808060185460ff166004811115610bb357fe5b14610bbd57600080fd5b600160a060020a03331660009081526020819052604090205460ff161515600114610be757600080fd5b600b5415610bf457600080fd5b6001855111610c0257600080fd5b8451845114610c1057600080fd5b60009250600091505b8451821015610caf5782858381518110610c2f57fe5b906020019060200201511015610c4457600080fd5b848281518110610c5057fe5b906020019060200201519250600a8054806001018281610c709190612516565b506000918252602090912001839055838281518110610c8b57fe5b90602001906020020151600084815260096020526040902055600190910190610c19565b5050600a54600b55505050565b601a5481565b60015460e060020a900460ff1681565b60015460c060020a900460ff1681565b600160a060020a03331660009081526020819052604090205460ff161515600114610d0c57600080fd5b600160a060020a039091166000908152600f6020526040902055565b60115481565b600080808060185460ff166004811115610d4457fe5b14610d4e57600080fd5b600160a060020a03331660009081526020819052604090205460ff161515600114610d7857600080fd5b60085415610d8557600080fd5b6001855111610d9357600080fd5b8451845114610da157600080fd5b60009250600091505b8451821015610e405782858381518110610dc057fe5b906020019060200201511015610dd557600080fd5b848281518110610de157fe5b90602001906020020151925060078054806001018281610e019190612516565b506000918252602090912001839055838281518110610e1c57fe5b90602001906020020151600084815260066020526040902055600190910190610daa565b5050600754600855505050565b600d5481565b6003805482908110610e6157fe5b600091825260209091200154600160a060020a0316905081565b60175481565b601c60209081526000928352604080842090915290825290205481565b601254600160a060020a031681565b6001547a010000000000000000000000000000000000000000000000000000900460ff1681565b600080600080600160159054906101000a900460ff168015610f675750600554600160a060020a031663a75df8148a60006040516020015260405160e060020a63ffffffff8416028152600160a060020a039091166004820152602401602060405180830381600087803b1515610f4a57600080fd5b6102c65a03f11515610f5b57600080fd5b50505060405180519050155b15610f75576000935061114b565b600160a060020a038916600090815260196020526040902054610f9e908863ffffffff61230f16565b601a54909350610fb4908663ffffffff61230f16565b60015490925074010000000000000000000000000000000000000000900460ff16156111335750600160a060020a038089166000908152600260205260408082205490921691829163b1b3d3f69151602001526040518163ffffffff1660e060020a028152600401602060405180830381600087803b151561103557600080fd5b6102c65a03f1151561104657600080fd5b5050506040518051905015806110bb57508281600160a060020a031663f88979456000604051602001526040518163ffffffff1660e060020a028152600401602060405180830381600087803b151561109e57600080fd5b6102c65a03f115156110af57600080fd5b50505060405180519050115b8061112557508281600160a060020a0316636ac5db196000604051602001526040518163ffffffff1660e060020a028152600401602060405180830381600087803b151561110857600080fd5b6102c65a03f1151561111957600080fd5b50505060405180519050105b15611133576000935061114b565b816014541015611146576000935061114b565b600193505b50505095945050505050565b600554600160a060020a031681565b6007805482908110610b8c57fe5b60015474010000000000000000000000000000000000000000900460ff1681565b600160a060020a03331660009081526020819052604090205460ff1615156001146111bf57600080fd5b600160a060020a03811660008181526020819052604090819020805460ff191660011790557f1350a997c6c86bcc51dd7e51f7ef618d620e6a85d8fdabb82a980c149ad88d47905160405180910390a250565b6000808060185460ff16600481111561122757fe5b1461123157600080fd5b600160a060020a03331660009081526020819052604090205460ff16151560011461125b57600080fd5b600085511161126957600080fd5b835185511461127757600080fd5b835183511461128557600080fd5b600091505b84518210156113af5783828151811061129f57fe5b906020019060200201518383815181106112b557fe5b906020019060200201516112c761253a565b918252602082015260409081019051809103906000f08015156112e957600080fd5b600260008785815181106112f957fe5b90602001906020020151600160a060020a0390811682526020820192909252604001600020805473ffffffffffffffffffffffffffffffffffffffff19169290911691909117905560038054600181016113538382612516565b9160005260206000209001600087858151811061136c57fe5b906020019060200201518254600160a060020a039182166101009390930a928302919092021990911617905550600480546001908101909155919091019061128a565b5050505050565b600160a060020a03331660009081526020819052604090205460ff1615156001146113e057600080fd5b600154600160a060020a03828116911614156113fb57600080fd5b80600160a060020a031633600160a060020a03161415151561141c57600080fd5b600160a060020a03811660008181526020819052604090819020805460ff191690557f1d1eff42eefbeecfca7e39f8adb5d7f19a7ebbb4c3e82c51f2500d7d76ab2468905160405180910390a250565b600b5481565b60008060185460ff16600481111561148657fe5b1461149057600080fd5b600160a060020a03331660009081526020819052604090205460ff1615156001146114ba57600080fd5b601054429011156114ca57600080fd5b6011544290116114d957600080fd5b601354600090116114e957600080fd5b601254600160a060020a0316151561150057600080fd5b600c54600160a060020a0316151561151757600080fd5b60015474010000000000000000000000000000000000000000900460ff161561154a576004546000901161154a57600080fd5b6001547501000000000000000000000000000000000000000000900460ff161561158557600554600160a060020a0316151561158557600080fd5b600154760100000000000000000000000000000000000000000000900460ff16156115ba57600854600090116115ba57600080fd5b60015477010000000000000000000000000000000000000000000000900460ff16156115f057600b54600090116115f057600080fd5b60015460d860020a900460ff161561161957601554600160a060020a0316151561161957600080fd5b60015460e060020a900460ff16156116ac57600c54600160a060020a033081169116638da5cb5b6000604051602001526040518163ffffffff1660e060020a028152600401602060405180830381600087803b151561167757600080fd5b6102c65a03f1151561168857600080fd5b50505060405180519050600160a060020a03161415156116a757600080fd5b611730565b601454600c54600160a060020a03166370a082313060006040516020015260405160e060020a63ffffffff8416028152600160a060020a039091166004820152602401602060405180830381600087803b151561170857600080fd5b6102c65a03f1151561171957600080fd5b505050604051805190501015151561173057600080fd5b506018805460ff19166001179055565b600080805b600a548110156117a4576000818152600960205260409020548490111561176b576117a4565b60096000600a8381548110151561177e57fe5b600091825260208083209091015483528201929092526040019020549150600101611745565b5092915050565b60105481565b600080805b6007548110156117a457836007828154811015156117d057fe5b90600052602060002090015411156117e7576117a4565b600660006007838154811015156117fa57fe5b6000918252602080832090910154835282019290925260400190205491506001016117b6565b600154600160a060020a031681565b600160a060020a03331660009081526020819052604081205460ff16611856576000611859565b60015b90505b90565b600160a060020a038281166000908152600e60205260408120549091829116151561188957600080fd5b600160a060020a038085166000908152600e60205260408082205461193a93169163313ce5679151602001526040518163ffffffff1660e060020a028152600401602060405180830381600087803b15156118e357600080fd5b6102c65a03f115156118f457600080fd5b5050506040518051600160a060020a0387166000908152600f6020526040902054600a9190910a915061192e90889063ffffffff61232516565b9063ffffffff61235016565b915061194686836120e2565b90506000811161195557600080fd5b83600160a060020a031686600160a060020a03167f8f9e1c6f80a0fd25dc246f3b0a51422fce2a5f211d4f9877c7ec20b6499c939f87858560405180848152602001838152602001828152602001935050505060405180910390a3505050505050565b60008060018060185460ff1660048111156119cf57fe5b146119d957600080fd5b600160a060020a03331660009081526020819052604090205460ff161515600114611a0357600080fd5b611a21600d54600a0a61192e6013548861232590919063ffffffff16565b9250611a2d86846120e2565b915060008211611a3c57600080fd5b83600160a060020a0387167f84074171d59486f3a6c7bd7f6cc5391298c118a01f1789e3a3c759bac1cb275f858860405191825260208201526040908101905180910390a3505050505050565b600154760100000000000000000000000000000000000000000000900460ff1681565b60008060185460ff166004811115611ac057fe5b14611aca57600080fd5b600160a060020a03331660009081526020819052604090205460ff161515600114611af457600080fd5b600160a060020a0382161515611b0957600080fd5b506015805473ffffffffffffffffffffffffffffffffffffffff1916600160a060020a0392909216919091179055565b600260205260009081526040902054600160a060020a031681565b60135481565b60008060185460ff166004811115611b6e57fe5b14611b7857600080fd5b600160a060020a03331660009081526020819052604090205460ff161515600114611ba257600080fd5b600554600160a060020a031615611bb857600080fd5b506005805473ffffffffffffffffffffffffffffffffffffffff1916600160a060020a0392909216919091179055565b60045481565b60196020526000908152604090205481565b600154790100000000000000000000000000000000000000000000000000900460ff1681565b60015460009060c060020a900460ff161515611c4157600080fd5b600160a060020a0382166000908152601d602052604090205460ff1680611c785750600360185460ff166004811115611c7657fe5b145b1515611c8357600080fd5b600160a060020a0382166000818152601b6020526040908190205480156108fc029151600060405180830381858888f193505050501515611cc357600080fd5b919050565b60185460ff1681565b60015460d860020a900460ff1681565b60008060185460ff166004811115611cf557fe5b14611cff57600080fd5b600160a060020a03331660009081526020819052604090205460ff161515600114611d2957600080fd5b600160a060020a0383166000818152600e60205260409020805473ffffffffffffffffffffffffffffffffffffffff19169091179055610b648383610ce2565b60066020526000908152604090205481565b601b6020526000908152604090205481565b60165481565b6000806000806000806000601054891080611daf575060115489115b15611dc35760009650869550859450611ed3565b600154760100000000000000000000000000000000000000000000900460ff1615611e0457611e01611df48b6117b1565b839063ffffffff61230f16565b91505b60015477010000000000000000000000000000000000000000000000900460ff1615611e3d57611e3a611df46010548b03611740565b91505b611e5c61271061192e846127100360135461232590919063ffffffff16565b9250611e7a8361192e600d54600a0a8d61232590919063ffffffff16565b60015490945060d860020a900460ff1615611eba57601654611eb790611eab866103e883900363ffffffff61232516565b9063ffffffff61232516565b90505b611eca848263ffffffff61230f16565b84829650965096505b5050505093509350939050565b60096020526000908152604090205481565b60008060185460ff166004811115611f0657fe5b14611f1057600080fd5b600160a060020a03331660009081526020819052604090205460ff161515600114611f3a57600080fd5b601254600160a060020a031615611f5057600080fd5b506012805473ffffffffffffffffffffffffffffffffffffffff1916600160a060020a0392909216919091179055565b600160a060020a03811660009081526020819052604081205460ff16611fa7576000611faa565b60015b92915050565b6001547d010000000000000000000000000000000000000000000000000000000000900460ff1681565b60085481565b6001547501000000000000000000000000000000000000000000900460ff1681565b600e60205260009081526040902054600160a060020a031681565b601554600160a060020a031681565b60015477010000000000000000000000000000000000000000000000900460ff1681565b600f6020526000908152604090205481565b600160a060020a03331660009081526020819052604090205460ff16151560011461208c57600080fd5b60015460c060020a900460ff1615156120a457600080fd5b600160a060020a03166000908152601d60205260409020805460ff19166001179055565b60145481565b600c54600160a060020a031681565b600181565b600080808060018060185460ff1660048111156120fb57fe5b1461210557600080fd5b600c546121759087904290600160a060020a03166318160ddd6000604051602001526040518163ffffffff1660e060020a028152600401602060405180830381600087803b151561215557600080fd5b6102c65a03f1151561216657600080fd5b50505060405180519050611d93565b909550935091506121898787868686610ed4565b151561219457600080fd5b6017546121a7908763ffffffff61230f16565b6017556121b48785612367565b86600160a060020a031633600160a060020a03167f623b3804fa71d67900d064613da8f94b9617215ee90799290593e1745087ad18888760405191825260208201526040908101905180910390a38387600160a060020a03167f67066453570687eaa7bbfb5d6a5a6d901a7473f72563021e81204001241e7af760405160405180910390a360015460d860020a900460ff161561229c5760155461226190600160a060020a031684612367565b6015548390600160a060020a03167f67066453570687eaa7bbfb5d6a5a6d901a7473f72563021e81204001241e7af760405160405180910390a35b509195945050505050565b60015460c060020a900460ff16156122d957600160a060020a0333166000908152601b6020526040902034905561230d565b601254600160a060020a03163480156108fc0290604051600060405180830381858888f19350505050151561230d57600080fd5b565b60008282018381101561231e57fe5b9392505050565b60008083151561233857600091506117a4565b5082820282848281151561234857fe5b041461231e57fe5b600080828481151561235e57fe5b04949350505050565b60018060185460ff16600481111561237b57fe5b1461238557600080fd5b6001547d010000000000000000000000000000000000000000000000000000000000900460ff1615156124cc5760015460e060020a900460ff161561244457600c54600160a060020a03166340c10f19848460006040516020015260405160e060020a63ffffffff8516028152600160a060020a0390921660048301526024820152604401602060405180830381600087803b151561242357600080fd5b6102c65a03f1151561243457600080fd5b50505060405180519050506124cc565b600c54600160a060020a03166323b872dd30858560006040516020015260405160e060020a63ffffffff8616028152600160a060020a0393841660048201529190921660248201526044810191909152606401602060405180830381600087803b15156124b057600080fd5b6102c65a03f115156124c157600080fd5b505050604051805150505b600160a060020a0383166000908152601960205260409020546124f5908363ffffffff61230f16565b600160a060020a039093166000908152601960205260409020929092555050565b815481835581811511610b6457600083815260209020610b6491810190830161254a565b60405161013e8061256983390190565b61185c91905b808211156125645760008155600101612550565b509056006060604052341561000f57600080fd5b60405160408061013e83398101604052808051919060200180516000805460ff1916600190811790915593909355505060025560ee806100506000396000f30060606040526004361060525763ffffffff7c01000000000000000000000000000000000000000000000000000000006000350416636ac5db1981146057578063b1b3d3f6146079578063f889794514609d575b600080fd5b3415606157600080fd5b606760ad565b60405190815260200160405180910390f35b3415608357600080fd5b608960b3565b604051901515815260200160405180910390f35b341560a757600080fd5b606760bc565b60025481565b60005460ff1681565b600154815600a165627a7a723058204b648c5b3d3429f4efcd3b1c2ea941f589feb0c4df18b93a64da9697e5352fe50029a165627a7a723058204e73bf5b92be37e1e75ca9533ce1e56396ee0d654c68e30d79c46a793d9936a50029",
  "source": "pragma solidity ^0.4.15;\n\nimport './base/Crowdsale.sol';\n\ncontract AltCrowdsale is Crowdsale {\n  function AltCrowdsale(\n    address _registry,\n    address _token\n  )\n    Crowdsale(\n      // Should be whitelisted to buy tokens\n      false, // bool _isWhitelisted,\n      // Should be known user to buy tokens\n      true, //bool _isKnownOnly,\n      // Enable amount bonuses in crowdsale?\n      false, //bool _isAmountBonus,\n      // Enable early bird bonus in crowdsale?\n      true, //bool _isEarlyBonus,\n      // Allow to refund money?\n      false, //bool _isRefundable,\n      // Allow to buy tokens for another tokens?\n      false, //bool _isTokenExcange,\n      // Allow to issue tokens with tx hash (ex bitcoin)\n      true, //bool _isAllowToIssue,\n      // Should mint extra tokens for future distribution?\n      false, //bool _isExtraDistribution,\n      // Will ship token via minting? \n      true, //bool _isMintingShipment,\n      // Should beneficiaries pull their tokens? \n      false, //bool _isPullingTokens,\n\n      // 100 ALT per 1 ETH\n      10 ** 16, //uint _price,\n      block.timestamp, block.timestamp + 10 days,\n      10 ** 17, //uint _hardCap,\n      _token // address _token\n    )\n  {\n    setRegistry(_registry);\n    setWallet(msg.sender);\n  }  \n}",
  "sourcePath": "/Users/aler/crypto/altestate-3/contracts/AltCrowdsale.sol",
  "compiler": {
    "name": "solc",
    "version": "0.4.18+commit.9cf6e910.Emscripten.clang"
  },
  "schemaVersion": "1.0.1",
  "updatedAt": "2017-11-26T15:54:35.390Z"
}