{
  "contractName": "AltCrowdsalePhaseOne",
  "abi": [
    {
      "constant": false,
      "inputs": [
        {
          "name": "_tokenAddress",
          "type": "address"
        }
      ],
      "name": "setToken",
      "outputs": [],
      "payable": false,
      "stateMutability": "nonpayable",
      "type": "function"
    },
    {
      "constant": true,
      "inputs": [
        {
          "name": "",
          "type": "address"
        }
      ],
      "name": "claimRefundAllowance",
      "outputs": [
        {
          "name": "",
          "type": "bool"
        }
      ],
      "payable": false,
      "stateMutability": "view",
      "type": "function"
    },
    {
      "constant": true,
      "inputs": [
        {
          "name": "",
          "type": "uint256"
        }
      ],
      "name": "timeSlices",
      "outputs": [
        {
          "name": "",
          "type": "uint256"
        }
      ],
      "payable": false,
      "stateMutability": "view",
      "type": "function"
    },
    {
      "constant": false,
      "inputs": [
        {
          "name": "_timeSlices",
          "type": "uint256[]"
        },
        {
          "name": "_prices",
          "type": "uint256[]"
        }
      ],
      "name": "setTimeBonuses",
      "outputs": [],
      "payable": false,
      "stateMutability": "nonpayable",
      "type": "function"
    },
    {
      "constant": true,
      "inputs": [],
      "name": "temporalTotalSupply",
      "outputs": [
        {
          "name": "",
          "type": "uint256"
        }
      ],
      "payable": false,
      "stateMutability": "view",
      "type": "function"
    },
    {
      "constant": false,
      "inputs": [
        {
          "name": "_beneficiary",
          "type": "address"
        },
        {
          "name": "_value",
          "type": "uint256"
        },
        {
          "name": "_timestamp",
          "type": "uint256"
        },
        {
          "name": "_hash",
          "type": "bytes32"
        }
      ],
      "name": "buyWithHash",
      "outputs": [],
      "payable": false,
      "stateMutability": "nonpayable",
      "type": "function"
    },
    {
      "constant": true,
      "inputs": [],
      "name": "isRefundable",
      "outputs": [
        {
          "name": "",
          "type": "bool"
        }
      ],
      "payable": false,
      "stateMutability": "view",
      "type": "function"
    },
    {
      "constant": false,
      "inputs": [
        {
          "name": "_token",
          "type": "address"
        },
        {
          "name": "_value",
          "type": "uint256"
        }
      ],
      "name": "updateTokenValue",
      "outputs": [],
      "payable": false,
      "stateMutability": "nonpayable",
      "type": "function"
    },
    {
      "constant": true,
      "inputs": [],
      "name": "endTime",
      "outputs": [
        {
          "name": "",
          "type": "uint256"
        }
      ],
      "payable": false,
      "stateMutability": "view",
      "type": "function"
    },
    {
      "constant": false,
      "inputs": [
        {
          "name": "_amountSlices",
          "type": "uint256[]"
        },
        {
          "name": "_prices",
          "type": "uint256[]"
        }
      ],
      "name": "setAmountBonuses",
      "outputs": [],
      "payable": false,
      "stateMutability": "nonpayable",
      "type": "function"
    },
    {
      "constant": true,
      "inputs": [
        {
          "name": "_beneficiary",
          "type": "address"
        },
        {
          "name": "_weiAmount",
          "type": "uint256"
        },
        {
          "name": "_time",
          "type": "uint256"
        },
        {
          "name": "_totalSupply",
          "type": "uint256"
        }
      ],
      "name": "calculateEthAmount",
      "outputs": [
        {
          "name": "",
          "type": "uint256"
        },
        {
          "name": "",
          "type": "uint256"
        },
        {
          "name": "",
          "type": "uint256"
        }
      ],
      "payable": false,
      "stateMutability": "view",
      "type": "function"
    },
    {
      "constant": true,
      "inputs": [],
      "name": "tokenDecimals",
      "outputs": [
        {
          "name": "",
          "type": "uint256"
        }
      ],
      "payable": false,
      "stateMutability": "view",
      "type": "function"
    },
    {
      "constant": true,
      "inputs": [
        {
          "name": "",
          "type": "uint256"
        }
      ],
      "name": "whitelisted",
      "outputs": [
        {
          "name": "",
          "type": "address"
        }
      ],
      "payable": false,
      "stateMutability": "view",
      "type": "function"
    },
    {
      "constant": true,
      "inputs": [],
      "name": "weiRaised",
      "outputs": [
        {
          "name": "",
          "type": "uint256"
        }
      ],
      "payable": false,
      "stateMutability": "view",
      "type": "function"
    },
    {
      "constant": true,
      "inputs": [
        {
          "name": "",
          "type": "address"
        },
        {
          "name": "",
          "type": "address"
        }
      ],
      "name": "altDeposit",
      "outputs": [
        {
          "name": "",
          "type": "uint256"
        }
      ],
      "payable": false,
      "stateMutability": "view",
      "type": "function"
    },
    {
      "constant": true,
      "inputs": [],
      "name": "wallet",
      "outputs": [
        {
          "name": "",
          "type": "address"
        }
      ],
      "payable": false,
      "stateMutability": "view",
      "type": "function"
    },
    {
      "constant": true,
      "inputs": [],
      "name": "isAllowToIssue",
      "outputs": [
        {
          "name": "",
          "type": "bool"
        }
      ],
      "payable": false,
      "stateMutability": "view",
      "type": "function"
    },
    {
      "constant": true,
      "inputs": [],
      "name": "isCappedInEther",
      "outputs": [
        {
          "name": "",
          "type": "bool"
        }
      ],
      "payable": false,
      "stateMutability": "view",
      "type": "function"
    },
    {
      "constant": true,
      "inputs": [
        {
          "name": "_beneficiary",
          "type": "address"
        },
        {
          "name": "_weiAmount",
          "type": "uint256"
        },
        {
          "name": "_tokenAmount",
          "type": "uint256"
        },
        {
          "name": "_extraAmount",
          "type": "uint256"
        },
        {
          "name": "_totalAmount",
          "type": "uint256"
        }
      ],
      "name": "validPurchase",
      "outputs": [
        {
          "name": "",
          "type": "bool"
        }
      ],
      "payable": false,
      "stateMutability": "view",
      "type": "function"
    },
    {
      "constant": true,
      "inputs": [],
      "name": "userRegistry",
      "outputs": [
        {
          "name": "",
          "type": "address"
        }
      ],
      "payable": false,
      "stateMutability": "view",
      "type": "function"
    },
    {
      "constant": true,
      "inputs": [
        {
          "name": "",
          "type": "uint256"
        }
      ],
      "name": "amountSlices",
      "outputs": [
        {
          "name": "",
          "type": "uint256"
        }
      ],
      "payable": false,
      "stateMutability": "view",
      "type": "function"
    },
    {
      "constant": false,
      "inputs": [
        {
          "name": "x",
          "type": "address"
        }
      ],
      "name": "addressToString",
      "outputs": [
        {
          "name": "",
          "type": "string"
        }
      ],
      "payable": false,
      "stateMutability": "nonpayable",
      "type": "function"
    },
    {
      "constant": true,
      "inputs": [],
      "name": "isWhitelisted",
      "outputs": [
        {
          "name": "",
          "type": "bool"
        }
      ],
      "payable": false,
      "stateMutability": "view",
      "type": "function"
    },
    {
      "constant": true,
      "inputs": [],
      "name": "isTokenExchange",
      "outputs": [
        {
          "name": "",
          "type": "bool"
        }
      ],
      "payable": false,
      "stateMutability": "view",
      "type": "function"
    },
    {
      "constant": false,
      "inputs": [
        {
          "name": "b",
          "type": "bytes1"
        }
      ],
      "name": "char",
      "outputs": [
        {
          "name": "c",
          "type": "bytes1"
        }
      ],
      "payable": false,
      "stateMutability": "nonpayable",
      "type": "function"
    },
    {
      "constant": false,
      "inputs": [
        {
          "name": "_owner",
          "type": "address"
        }
      ],
      "name": "grant",
      "outputs": [],
      "payable": false,
      "stateMutability": "nonpayable",
      "type": "function"
    },
    {
      "constant": false,
      "inputs": [
        {
          "name": "_owner",
          "type": "address"
        }
      ],
      "name": "revoke",
      "outputs": [],
      "payable": false,
      "stateMutability": "nonpayable",
      "type": "function"
    },
    {
      "constant": true,
      "inputs": [],
      "name": "timeSlicesCount",
      "outputs": [
        {
          "name": "",
          "type": "uint256"
        }
      ],
      "payable": false,
      "stateMutability": "view",
      "type": "function"
    },
    {
      "constant": false,
      "inputs": [],
      "name": "saneIt",
      "outputs": [],
      "payable": false,
      "stateMutability": "nonpayable",
      "type": "function"
    },
    {
      "constant": true,
      "inputs": [
        {
          "name": "_at",
          "type": "uint256"
        }
      ],
      "name": "calculateTimeBonus",
      "outputs": [
        {
          "name": "",
          "type": "uint256"
        }
      ],
      "payable": false,
      "stateMutability": "view",
      "type": "function"
    },
    {
      "constant": true,
      "inputs": [],
      "name": "startTime",
      "outputs": [
        {
          "name": "",
          "type": "uint256"
        }
      ],
      "payable": false,
      "stateMutability": "view",
      "type": "function"
    },
    {
      "constant": true,
      "inputs": [
        {
          "name": "",
          "type": "address"
        }
      ],
      "name": "personalBonuses",
      "outputs": [
        {
          "name": "",
          "type": "address"
        }
      ],
      "payable": false,
      "stateMutability": "view",
      "type": "function"
    },
    {
      "constant": true,
      "inputs": [],
      "name": "isPersonalBonuses",
      "outputs": [
        {
          "name": "",
          "type": "bool"
        }
      ],
      "payable": false,
      "stateMutability": "view",
      "type": "function"
    },
    {
      "constant": true,
      "inputs": [
        {
          "name": "",
          "type": "address"
        }
      ],
      "name": "beneficiaryInvest",
      "outputs": [
        {
          "name": "",
          "type": "uint256"
        }
      ],
      "payable": false,
      "stateMutability": "view",
      "type": "function"
    },
    {
      "constant": false,
      "inputs": [
        {
          "name": "_holder",
          "type": "address"
        },
        {
          "name": "_extraPart",
          "type": "uint256"
        }
      ],
      "name": "setExtraDistribution",
      "outputs": [],
      "payable": false,
      "stateMutability": "nonpayable",
      "type": "function"
    },
    {
      "constant": true,
      "inputs": [
        {
          "name": "_changeAmount",
          "type": "uint256"
        }
      ],
      "name": "calculateAmountBonus",
      "outputs": [
        {
          "name": "",
          "type": "uint256"
        }
      ],
      "payable": false,
      "stateMutability": "view",
      "type": "function"
    },
    {
      "constant": true,
      "inputs": [],
      "name": "publisher",
      "outputs": [
        {
          "name": "",
          "type": "address"
        }
      ],
      "payable": false,
      "stateMutability": "view",
      "type": "function"
    },
    {
      "constant": true,
      "inputs": [],
      "name": "isOwner",
      "outputs": [
        {
          "name": "",
          "type": "bool"
        }
      ],
      "payable": false,
      "stateMutability": "view",
      "type": "function"
    },
    {
      "constant": false,
      "inputs": [
        {
          "name": "_from",
          "type": "address"
        },
        {
          "name": "_value",
          "type": "uint256"
        },
        {
          "name": "_token",
          "type": "address"
        },
        {
          "name": "_extraData",
          "type": "bytes"
        }
      ],
      "name": "receiveApproval",
      "outputs": [],
      "payable": false,
      "stateMutability": "nonpayable",
      "type": "function"
    },
    {
      "constant": true,
      "inputs": [],
      "name": "softCap",
      "outputs": [
        {
          "name": "",
          "type": "uint256"
        }
      ],
      "payable": false,
      "stateMutability": "view",
      "type": "function"
    },
    {
      "constant": false,
      "inputs": [
        {
          "name": "_price",
          "type": "uint256"
        }
      ],
      "name": "setPrice",
      "outputs": [],
      "payable": false,
      "stateMutability": "nonpayable",
      "type": "function"
    },
    {
      "constant": true,
      "inputs": [],
      "name": "isAmountBonus",
      "outputs": [
        {
          "name": "",
          "type": "bool"
        }
      ],
      "payable": false,
      "stateMutability": "view",
      "type": "function"
    },
    {
      "constant": true,
      "inputs": [
        {
          "name": "",
          "type": "address"
        }
      ],
      "name": "whitelist",
      "outputs": [
        {
          "name": "",
          "type": "address"
        }
      ],
      "payable": false,
      "stateMutability": "view",
      "type": "function"
    },
    {
      "constant": false,
      "inputs": [
        {
          "name": "_start",
          "type": "uint256"
        },
        {
          "name": "_end",
          "type": "uint256"
        }
      ],
      "name": "setTime",
      "outputs": [],
      "payable": false,
      "stateMutability": "nonpayable",
      "type": "function"
    },
    {
      "constant": true,
      "inputs": [],
      "name": "price",
      "outputs": [
        {
          "name": "",
          "type": "uint256"
        }
      ],
      "payable": false,
      "stateMutability": "view",
      "type": "function"
    },
    {
      "constant": false,
      "inputs": [
        {
          "name": "_registry",
          "type": "address"
        }
      ],
      "name": "setRegistry",
      "outputs": [],
      "payable": false,
      "stateMutability": "nonpayable",
      "type": "function"
    },
    {
      "constant": true,
      "inputs": [],
      "name": "whitelistedCount",
      "outputs": [
        {
          "name": "",
          "type": "uint256"
        }
      ],
      "payable": false,
      "stateMutability": "view",
      "type": "function"
    },
    {
      "constant": false,
      "inputs": [
        {
          "name": "_beneficiary",
          "type": "address"
        },
        {
          "name": "_min",
          "type": "uint256"
        },
        {
          "name": "_max",
          "type": "uint256"
        }
      ],
      "name": "addToWhitelist",
      "outputs": [],
      "payable": false,
      "stateMutability": "nonpayable",
      "type": "function"
    },
    {
      "constant": true,
      "inputs": [],
      "name": "isTransferShipment",
      "outputs": [
        {
          "name": "",
          "type": "bool"
        }
      ],
      "payable": false,
      "stateMutability": "view",
      "type": "function"
    },
    {
      "constant": false,
      "inputs": [
        {
          "name": "_beneficiary",
          "type": "address"
        }
      ],
      "name": "claimRefund",
      "outputs": [
        {
          "name": "",
          "type": "bool"
        }
      ],
      "payable": false,
      "stateMutability": "nonpayable",
      "type": "function"
    },
    {
      "constant": true,
      "inputs": [],
      "name": "state",
      "outputs": [
        {
          "name": "",
          "type": "uint8"
        }
      ],
      "payable": false,
      "stateMutability": "view",
      "type": "function"
    },
    {
      "constant": true,
      "inputs": [],
      "name": "isExtraDistribution",
      "outputs": [
        {
          "name": "",
          "type": "bool"
        }
      ],
      "payable": false,
      "stateMutability": "view",
      "type": "function"
    },
    {
      "constant": false,
      "inputs": [
        {
          "name": "_token",
          "type": "address"
        },
        {
          "name": "_value",
          "type": "uint256"
        }
      ],
      "name": "setTokenExcange",
      "outputs": [],
      "payable": false,
      "stateMutability": "nonpayable",
      "type": "function"
    },
    {
      "constant": true,
      "inputs": [
        {
          "name": "inStr",
          "type": "string"
        },
        {
          "name": "v",
          "type": "uint256"
        }
      ],
      "name": "appendUintToString",
      "outputs": [
        {
          "name": "str",
          "type": "string"
        }
      ],
      "payable": false,
      "stateMutability": "pure",
      "type": "function"
    },
    {
      "constant": false,
      "inputs": [
        {
          "name": "_softCap",
          "type": "uint256"
        },
        {
          "name": "_hardCap",
          "type": "uint256"
        }
      ],
      "name": "setSoftHardCaps",
      "outputs": [],
      "payable": false,
      "stateMutability": "nonpayable",
      "type": "function"
    },
    {
      "constant": false,
      "inputs": [
        {
          "name": "_isWhitelisted",
          "type": "bool"
        },
        {
          "name": "_isKnownOnly",
          "type": "bool"
        },
        {
          "name": "_isAmountBonus",
          "type": "bool"
        },
        {
          "name": "_isEarlyBonus",
          "type": "bool"
        },
        {
          "name": "_isRefundable",
          "type": "bool"
        },
        {
          "name": "_isTokenExchange",
          "type": "bool"
        },
        {
          "name": "_isAllowToIssue",
          "type": "bool"
        },
        {
          "name": "_isExtraDistribution",
          "type": "bool"
        },
        {
          "name": "_isMintingShipment",
          "type": "bool"
        },
        {
          "name": "_isCappedInEther",
          "type": "bool"
        },
        {
          "name": "_isPullingTokens",
          "type": "bool"
        },
        {
          "name": "_isPersonalBonuses",
          "type": "bool"
        }
      ],
      "name": "setFlags",
      "outputs": [],
      "payable": false,
      "stateMutability": "nonpayable",
      "type": "function"
    },
    {
      "constant": true,
      "inputs": [
        {
          "name": "",
          "type": "uint256"
        }
      ],
      "name": "amountBonuses",
      "outputs": [
        {
          "name": "",
          "type": "uint256"
        }
      ],
      "payable": false,
      "stateMutability": "view",
      "type": "function"
    },
    {
      "constant": true,
      "inputs": [
        {
          "name": "",
          "type": "address"
        }
      ],
      "name": "weiDeposit",
      "outputs": [
        {
          "name": "",
          "type": "uint256"
        }
      ],
      "payable": false,
      "stateMutability": "view",
      "type": "function"
    },
    {
      "constant": true,
      "inputs": [],
      "name": "extraDistributionPart",
      "outputs": [
        {
          "name": "",
          "type": "uint256"
        }
      ],
      "payable": false,
      "stateMutability": "view",
      "type": "function"
    },
    {
      "constant": true,
      "inputs": [
        {
          "name": "",
          "type": "uint256"
        }
      ],
      "name": "timeBonuses",
      "outputs": [
        {
          "name": "",
          "type": "uint256"
        }
      ],
      "payable": false,
      "stateMutability": "view",
      "type": "function"
    },
    {
      "constant": false,
      "inputs": [
        {
          "name": "_wallet",
          "type": "address"
        }
      ],
      "name": "setWallet",
      "outputs": [],
      "payable": false,
      "stateMutability": "nonpayable",
      "type": "function"
    },
    {
      "constant": true,
      "inputs": [
        {
          "name": "maybe_owner",
          "type": "address"
        }
      ],
      "name": "checkOwner",
      "outputs": [
        {
          "name": "",
          "type": "bool"
        }
      ],
      "payable": false,
      "stateMutability": "view",
      "type": "function"
    },
    {
      "constant": true,
      "inputs": [],
      "name": "isPullingTokens",
      "outputs": [
        {
          "name": "",
          "type": "bool"
        }
      ],
      "payable": false,
      "stateMutability": "view",
      "type": "function"
    },
    {
      "constant": true,
      "inputs": [],
      "name": "amountSlicesCount",
      "outputs": [
        {
          "name": "",
          "type": "uint256"
        }
      ],
      "payable": false,
      "stateMutability": "view",
      "type": "function"
    },
    {
      "constant": true,
      "inputs": [],
      "name": "isKnownOnly",
      "outputs": [
        {
          "name": "",
          "type": "bool"
        }
      ],
      "payable": false,
      "stateMutability": "view",
      "type": "function"
    },
    {
      "constant": true,
      "inputs": [
        {
          "name": "",
          "type": "address"
        }
      ],
      "name": "allowedTokens",
      "outputs": [
        {
          "name": "",
          "type": "address"
        }
      ],
      "payable": false,
      "stateMutability": "view",
      "type": "function"
    },
    {
      "constant": true,
      "inputs": [],
      "name": "extraTokensHolder",
      "outputs": [
        {
          "name": "",
          "type": "address"
        }
      ],
      "payable": false,
      "stateMutability": "view",
      "type": "function"
    },
    {
      "constant": true,
      "inputs": [
        {
          "name": "v",
          "type": "uint256"
        }
      ],
      "name": "uintToString",
      "outputs": [
        {
          "name": "str",
          "type": "string"
        }
      ],
      "payable": false,
      "stateMutability": "pure",
      "type": "function"
    },
    {
      "constant": false,
      "inputs": [
        {
          "name": "_beneficiary",
          "type": "address"
        }
      ],
      "name": "buyTokens",
      "outputs": [],
      "payable": true,
      "stateMutability": "payable",
      "type": "function"
    },
    {
      "constant": true,
      "inputs": [],
      "name": "isEarlyBonus",
      "outputs": [
        {
          "name": "",
          "type": "bool"
        }
      ],
      "payable": false,
      "stateMutability": "view",
      "type": "function"
    },
    {
      "constant": false,
      "inputs": [
        {
          "name": "_beneficiary",
          "type": "address"
        },
        {
          "name": "_bonus",
          "type": "uint256"
        },
        {
          "name": "_referalAddress",
          "type": "address"
        },
        {
          "name": "_referalBonus",
          "type": "uint256"
        }
      ],
      "name": "setPersonalBonus",
      "outputs": [],
      "payable": false,
      "stateMutability": "nonpayable",
      "type": "function"
    },
    {
      "constant": true,
      "inputs": [
        {
          "name": "",
          "type": "address"
        }
      ],
      "name": "tokensValues",
      "outputs": [
        {
          "name": "",
          "type": "uint256"
        }
      ],
      "payable": false,
      "stateMutability": "view",
      "type": "function"
    },
    {
      "constant": false,
      "inputs": [
        {
          "name": "_beneficiary",
          "type": "address"
        }
      ],
      "name": "refund",
      "outputs": [],
      "payable": false,
      "stateMutability": "nonpayable",
      "type": "function"
    },
    {
      "constant": true,
      "inputs": [],
      "name": "hardCap",
      "outputs": [
        {
          "name": "",
          "type": "uint256"
        }
      ],
      "payable": false,
      "stateMutability": "view",
      "type": "function"
    },
    {
      "constant": true,
      "inputs": [],
      "name": "token",
      "outputs": [
        {
          "name": "",
          "type": "address"
        }
      ],
      "payable": false,
      "stateMutability": "view",
      "type": "function"
    },
    {
      "constant": true,
      "inputs": [],
      "name": "VERSION",
      "outputs": [
        {
          "name": "",
          "type": "uint256"
        }
      ],
      "payable": false,
      "stateMutability": "view",
      "type": "function"
    },
    {
      "inputs": [
        {
          "name": "_registry",
          "type": "address"
        },
        {
          "name": "_token",
          "type": "address"
        },
        {
          "name": "_extraTokensHolder",
          "type": "address"
        },
        {
          "name": "_extraTokensPart",
          "type": "uint256"
        },
        {
          "name": "_timeSlices",
          "type": "uint256[]"
        },
        {
          "name": "_timePrices",
          "type": "uint256[]"
        }
      ],
      "payable": false,
      "stateMutability": "nonpayable",
      "type": "constructor"
    },
    {
      "payable": true,
      "stateMutability": "payable",
      "type": "fallback"
    },
    {
      "anonymous": false,
      "inputs": [
        {
          "indexed": true,
          "name": "purchaser",
          "type": "address"
        },
        {
          "indexed": true,
          "name": "beneficiary",
          "type": "address"
        },
        {
          "indexed": false,
          "name": "value",
          "type": "uint256"
        },
        {
          "indexed": false,
          "name": "amount",
          "type": "uint256"
        }
      ],
      "name": "TokenPurchase",
      "type": "event"
    },
    {
      "anonymous": false,
      "inputs": [
        {
          "indexed": true,
          "name": "beneficiary",
          "type": "address"
        },
        {
          "indexed": false,
          "name": "value",
          "type": "uint256"
        },
        {
          "indexed": false,
          "name": "amount",
          "type": "uint256"
        },
        {
          "indexed": false,
          "name": "timestamp",
          "type": "uint256"
        },
        {
          "indexed": true,
          "name": "bitcoinHash",
          "type": "bytes32"
        }
      ],
      "name": "HashSale",
      "type": "event"
    },
    {
      "anonymous": false,
      "inputs": [
        {
          "indexed": true,
          "name": "beneficiary",
          "type": "address"
        },
        {
          "indexed": true,
          "name": "allowedToken",
          "type": "address"
        },
        {
          "indexed": false,
          "name": "allowedTokenValue",
          "type": "uint256"
        },
        {
          "indexed": false,
          "name": "ethValue",
          "type": "uint256"
        },
        {
          "indexed": false,
          "name": "shipAmount",
          "type": "uint256"
        }
      ],
      "name": "TokenSell",
      "type": "event"
    },
    {
      "anonymous": false,
      "inputs": [
        {
          "indexed": true,
          "name": "owner",
          "type": "address"
        },
        {
          "indexed": false,
          "name": "amount",
          "type": "uint256"
        }
      ],
      "name": "ShipTokens",
      "type": "event"
    },
    {
      "anonymous": false,
      "inputs": [
        {
          "indexed": true,
          "name": "sender",
          "type": "address"
        },
        {
          "indexed": false,
          "name": "message",
          "type": "string"
        }
      ],
      "name": "Debug",
      "type": "event"
    },
    {
      "anonymous": false,
      "inputs": [
        {
          "indexed": true,
          "name": "owner",
          "type": "address"
        }
      ],
      "name": "AccessGrant",
      "type": "event"
    },
    {
      "anonymous": false,
      "inputs": [
        {
          "indexed": true,
          "name": "owner",
          "type": "address"
        }
      ],
      "name": "AccessRevoke",
      "type": "event"
    }
  ],
  "bytecode": "0x606060405234156200001057600080fd5b604051620057ae380380620057ae8339810160405280805191906020018051919060200180519190602001805191906020018051820191906020018051600160a060020a0333166000818152602081905260408120805460ff191660019081179091558054600160a060020a03191690921782559190930192620000af925090819081818082818180828164010000000062003114620001c782021704565b620000c88564010000000062000e72620003ad82021704565b620000f0600142034262278d00016200059c6401000000000262002939176401000000009004565b620001098664010000000062002acb620007d082021704565b620001223364010000000062003313620008da82021704565b6200013c84846401000000006200240a620009e482021704565b62000166674563918244f40000678ac7230489e8000064010000000062002fa062000bd382021704565b620001a16200018d670de0b6b3a7640000606464010000000062003c1f62000d6f82021704565b6401000000006200284b62000d8782021704565b620001bb82826401000000006200106262000e4c82021704565b50505050505062001665565b600080601a5460ff166004811115620001dc57fe5b14620001e757600080fd5b600160a060020a03331660009081526020819052604090205460ff1615156001146200021257600080fd5b8c600160146101000a81548160ff0219169083151502179055508b600160156101000a81548160ff0219169083151502179055508a600160166101000a81548160ff02191690831515021790555089600160176101000a81548160ff02191690831515021790555088600160186101000a81548160ff02191690831515021790555087600160196101000a81548160ff021916908315150217905550866001601a6101000a81548160ff021916908315150217905550856001601b6101000a81548160ff021916908315150217905550846001601c6101000a81548160ff021916908315150217905550836001601d6101000a81548160ff021916908315150217905550600160189054906101000a900460ff16806200032f5750825b600180549315157f010000000000000000000000000000000000000000000000000000000000000002600160f860020a039215157e010000000000000000000000000000000000000000000000000000000000000260f060020a60ff0219909516949094179190911692909217909155505050505050505050505050565b600080601a5460ff166004811115620003c257fe5b14620003cd57600080fd5b600160a060020a03331660009081526020819052604090205460ff161515600114620003f857600080fd5b600d8054600160a060020a031916600160a060020a0384811691909117918290551663313ce5676000604051602001526040518163ffffffff167c0100000000000000000000000000000000000000000000000000000000028152600401602060405180830381600087803b15156200047057600080fd5b6102c65a03f115156200048257600080fd5b5050506040518051600e5550600160a060020a0333166000805160206200578e83398151915260405160208082526009908201527f4e657720546f6b656e00000000000000000000000000000000000000000000006040808301919091526060909101905180910390a2600160a060020a0333166000805160206200578e8339815191526200051f8464010000000062001d396200114f82021704565b60405160208082528190810183818151815260200191508051906020019080838360005b838110156200055d57808201518382015260200162000543565b50505050905090810190601f1680156200058b5780820380516001836020036101000a031916815260200191505b509250505060405180910390a25050565b600080601a5460ff166004811115620005b157fe5b14620005bc57600080fd5b600160a060020a03331660009081526020819052604090205460ff161515600114620005e757600080fd5b818310620005f457600080fd5b4282116200060157600080fd5b60118390556012829055600160a060020a0333166000805160206200578e8339815191526200067260408051908101604052600c81527f53746172742054696d653a20000000000000000000000000000000000000000060208201528664010000000062002e12620012e582021704565b60405160208082528190810183818151815260200191508051906020019080838360005b83811015620006b057808201518382015260200162000696565b50505050905090810190601f168015620006de5780820380516001836020036101000a031916815260200191505b509250505060405180910390a233600160a060020a03166000805160206200578e8339815191526200075260408051908101604052600a81527f456e642054696d653a200000000000000000000000000000000000000000000060208201528564010000000062002e12620012e582021704565b60405160208082528190810183818151815260200191508051906020019080838360005b838110156200079057808201518382015260200162000776565b50505050905090810190601f168015620007be5780820380516001836020036101000a031916815260200191505b509250505060405180910390a2505050565b600080601a5460ff166004811115620007e557fe5b14620007f057600080fd5b600160a060020a03331660009081526020819052604090205460ff1615156001146200081b57600080fd5b600160a060020a03821615156200083157600080fd5b60058054600160a060020a031916600160a060020a038481169190911790915533166000805160206200578e8339815191526040516020808252600c908201527f4e657720526567697374727900000000000000000000000000000000000000006040808301919091526060909101905180910390a2600160a060020a0333166000805160206200578e8339815191526200051f8464010000000062001d396200114f82021704565b600080601a5460ff166004811115620008ef57fe5b14620008fa57600080fd5b600160a060020a03331660009081526020819052604090205460ff1615156001146200092557600080fd5b600160a060020a03821615156200093b57600080fd5b60138054600160a060020a031916600160a060020a038481169190911790915533166000805160206200578e8339815191526040516020808252600a908201527f4e65772057616c6c6574000000000000000000000000000000000000000000006040808301919091526060909101905180910390a2600160a060020a0333166000805160206200578e8339815191526200051f8464010000000062001d396200114f82021704565b600080601a5460ff166004811115620009f957fe5b1462000a0457600080fd5b600160a060020a03331660009081526020819052604090205460ff16151560011462000a2f57600080fd5b600160a060020a038316151562000a4557600080fd5b60178054600160a060020a031916600160a060020a0385811691909117909155601883905533166000805160206200578e83398151915260405160208082526017908201527f4e657720457874726120546f6b656e7320486f6c6465720000000000000000006040808301919091526060909101905180910390a2600160a060020a0333166000805160206200578e83398151915262000af38564010000000062001d396200114f82021704565b60405160208082528190810183818151815260200191508051906020019080838360005b8381101562000b3157808201518382015260200162000b17565b50505050905090810190601f16801562000b5f5780820380516001836020036101000a031916815260200191505b509250505060405180910390a233600160a060020a03166000805160206200578e8339815191526200075260408051908101604052601781527f4e657720457874726120546f6b656e7320506172743a2000000000000000000060208201528564010000000062002e12620012e582021704565b600080601a5460ff16600481111562000be857fe5b1462000bf357600080fd5b600160a060020a03331660009081526020819052604090205460ff16151560011462000c1e57600080fd5b60158290556016839055600160a060020a0333166000805160206200578e83398151915262000c8f60408051908101604052600a81527f536f6674204361703a200000000000000000000000000000000000000000000060208201528664010000000062002e12620012e582021704565b60405160208082528190810183818151815260200191508051906020019080838360005b8381101562000ccd57808201518382015260200162000cb3565b50505050905090810190601f16801562000cfb5780820380516001836020036101000a031916815260200191505b509250505060405180910390a233600160a060020a03166000805160206200578e8339815191526200075260408051908101604052600a81527f48617264204361703a200000000000000000000000000000000000000000000060208201528564010000000062002e12620012e582021704565b600080828481151562000d7e57fe5b04949350505050565b600080601a5460ff16600481111562000d9c57fe5b1462000da757600080fd5b600160a060020a03331660009081526020819052604090205460ff16151560011462000dd257600080fd5b6000821162000de057600080fd5b6014829055600160a060020a0333166000805160206200578e8339815191526200051f60408051908101604052600b81527f4e65772050726963653a2000000000000000000000000000000000000000000060208201528564010000000062002e12620012e582021704565b6000808080601a5460ff16600481111562000e6357fe5b1462000e6e57600080fd5b600160a060020a03331660009081526020819052604090205460ff16151560011462000e9957600080fd5b600b541562000ea757600080fd5b600185511162000eb657600080fd5b845184511462000ec557600080fd5b60009250600091505b845182101562001142578285838151811062000ee657fe5b90602001906020020151101562000efc57600080fd5b84828151811062000f0957fe5b906020019060200201519250600a805480600101828162000f2b919062001603565b50600091825260209091200183905583828151811062000f4757fe5b90602001906020020151600960008581526020019081526020016000208190555033600160a060020a03166000805160206200578e83398151915262000fe560408051908101604052601081527f4164642074696d6520626f6e75733a2000000000000000000000000000000000602082015287868151811062000fc757fe5b9060200190602002015164010000000062002e12620012e582021704565b60405160208082528190810183818151815260200191508051906020019080838360005b838110156200102357808201518382015260200162001009565b50505050905090810190601f168015620010515780820380516001836020036101000a031916815260200191505b509250505060405180910390a233600160a060020a03166000805160206200578e833981519152620010bd60408051908101604052600a81527f417420736c6963653a2000000000000000000000000000000000000000000000602082015288868151811062000fc757fe5b60405160208082528190810183818151815260200191508051906020019080838360005b83811015620010fb578082015183820152602001620010e1565b50505050905090810190601f168015620011295780820380516001836020036101000a031916815260200191505b509250505060405180910390a260019091019062000ece565b5050600a54600b55505050565b620011596200162f565b620011636200162f565b6000806000806028604051805910620011795750595b818152601f19601f830116810160200160405290509450600093505b6014841015620012da578360130360080260020a87600160a060020a0316811515620011bd57fe5b047f01000000000000000000000000000000000000000000000000000000000000000292506010837f0100000000000000000000000000000000000000000000000000000000000000900460ff168115156200121557fe5b047f0100000000000000000000000000000000000000000000000000000000000000908102925080830460100281850403029050620012628264010000000062001514810262001ea41704565b8585600202815181106200127257fe5b906020010190600160f860020a031916908160001a905350620012a38164010000000062001ea46200151482021704565b858560020260010181518110620012b657fe5b906020010190600160f860020a031916908160001a90535060019093019262001195565b509295945050505050565b620012ef6200162f565b6000620012fb6200162f565b600080620013086200162f565b620013126200162f565b60006064965086604051805910620013275750595b818152601f19601f830116810160200160405290509550600094505b8815620013ad57600a89069350600a89049850836030017f0100000000000000000000000000000000000000000000000000000000000000028686806001019750815181106200138f57fe5b906020010190600160f860020a031916908160001a90535062001343565b89925084835101604051805910620013c25750595b818152601f19601f830116810160200160405290509150600090505b82518110156200146d57828181518110620013f557fe5b01602001517f010000000000000000000000000000000000000000000000000000000000000090047f0100000000000000000000000000000000000000000000000000000000000000028282815181106200144c57fe5b906020010190600160f860020a031916908160001a905350600101620013de565b5060005b84811015620015075785816001870303815181106200148c57fe5b01602001517f010000000000000000000000000000000000000000000000000000000000000090047f010000000000000000000000000000000000000000000000000000000000000002828451830181518110620014e657fe5b906020010190600160f860020a031916908160001a90535060010162001471565b5098975050505050505050565b60007f0a000000000000000000000000000000000000000000000000000000000000007fff0000000000000000000000000000000000000000000000000000000000000083161015620015b257817f010000000000000000000000000000000000000000000000000000000000000090046030017f0100000000000000000000000000000000000000000000000000000000000000029050620015fe565b817f010000000000000000000000000000000000000000000000000000000000000090046057017f01000000000000000000000000000000000000000000000000000000000000000290505b919050565b8154818355818115116200162a576000838152602090206200162a91810190830162001641565b505050565b60206040519081016040526000815290565b6200166291905b808211156200165e576000815560010162001648565b5090565b90565b61411980620016756000396000f3006060604052600436106103605763ffffffff60e060020a600035041663144fa6d7811461036b57806317d861441461038a578063205513f3146103bd57806321309ae3146103e557806327937160146104745780632a37eaea146104875780632c1fecfe146104af5780632cdb8eec146104c25780633197cbb6146104e45780633647b084146104f757806338a1187d146105865780633b97e856146105d25780633d4efe09146105e55780634042b66f1461061757806341593ae91461062a578063521eb2731461064f5780635551d1b7146106625780635581800c1461067557806355e22956146106885780635c7460d6146106b35780635ce8ec24146106c65780635e57966d146106dc578063611b409514610772578063641f3b461461078557806369f9ad2f1461079857806370284d191461080557806374a8f10314610824578063756abb981461084357806375f7e6f0146108565780637862affa1461086957806378e979251461087f57806380c2cc381461089257806382fa9c0d146108b157806384b9bc2f146108c4578063852a7d6c146108e35780638727b7fc146109055780638c72c54e1461091b5780638f32d59b1461092e5780638f4ffcb114610941578063906a26e0146109ad57806391b7f5ed146109c057806393545a79146109d65780639b19251a146109e9578063a0355eca14610a08578063a035b1fe14610a21578063a91ee0dc14610a34578063b2a1de2214610a53578063b47be3e414610a66578063bf7f10fe14610a8b578063bffa55d514610a9e578063c19d93fb14610abd578063c448fa8514610af4578063c6a7d3af14610b07578063c80667e314610b29578063c82829e014610b7c578063ca30e67d14610b95578063d036261f14610be8578063d256630314610bfe578063d69c927514610c1d578063de7682a814610c30578063deaa59df14610c46578063e0e3671c14610c65578063e17c3a0814610c84578063e3b6040e14610c97578063e56f381514610caa578063e744092e14610cbd578063e75bf82014610cdc578063e939567914610cef578063ec8ac4d814610d05578063ef11e55b14610d19578063f45b4fba14610d2c578063f967c9eb14610d58578063fa89401a14610d77578063fb86a40414610d96578063fc0c546a14610da9578063ffa1ad7414610dbc575b61036933610dcf565b005b341561037657600080fd5b610369600160a060020a0360043516610e72565b341561039557600080fd5b6103a9600160a060020a036004351661102e565b604051901515815260200160405180910390f35b34156103c857600080fd5b6103d3600435611043565b60405190815260200160405180910390f35b34156103f057600080fd5b61036960046024813581810190830135806020818102016040519081016040528093929190818152602001838360200280828437820191505050505050919080359060200190820180359060200190808060200260200160405190810160405280939291908181526020018383602002808284375094965061106295505050505050565b341561047f57600080fd5b6103d361133c565b341561049257600080fd5b610369600160a060020a0360043516602435604435606435611342565b34156104ba57600080fd5b6103a96113ff565b34156104cd57600080fd5b610369600160a060020a036004351660243561140f565b34156104ef57600080fd5b6103d3611455565b341561050257600080fd5b61036960046024813581810190830135806020818102016040519081016040528093929190818152602001838360200280828437820191505050505050919080359060200190820180359060200190808060200260200160405190810160405280939291908181526020018383602002808284375094965061145b95505050505050565b341561059157600080fd5b6105ae600160a060020a0360043516602435604435606435611719565b60405180848152602001838152602001828152602001935050505060405180910390f35b34156105dd57600080fd5b6103d3611992565b34156105f057600080fd5b6105fb600435611998565b604051600160a060020a03909116815260200160405180910390f35b341561062257600080fd5b6103d36119c0565b341561063557600080fd5b6103d3600160a060020a03600435811690602435166119c6565b341561065a57600080fd5b6105fb6119e3565b341561066d57600080fd5b6103a96119f2565b341561068057600080fd5b6103a9611a19565b341561069357600080fd5b6103a9600160a060020a0360043516602435604435606435608435611a43565b34156106be57600080fd5b6105fb611d1c565b34156106d157600080fd5b6103d3600435611d2b565b34156106e757600080fd5b6106fb600160a060020a0360043516611d39565b60405160208082528190810183818151815260200191508051906020019080838360005b8381101561073757808201518382015260200161071f565b50505050905090810190601f1680156107645780820380516001836020036101000a031916815260200191505b509250505060405180910390f35b341561077d57600080fd5b6103a9611e5d565b341561079057600080fd5b6103a9611e7e565b34156107a357600080fd5b6107d07fff0000000000000000000000000000000000000000000000000000000000000060043516611ea4565b6040517fff00000000000000000000000000000000000000000000000000000000000000909116815260200160405180910390f35b341561081057600080fd5b610369600160a060020a0360043516611f21565b341561082f57600080fd5b610369600160a060020a0360043516611f9e565b341561084e57600080fd5b6103d3612054565b341561086157600080fd5b61036961205a565b341561087457600080fd5b6103d3600435612352565b341561088a57600080fd5b6103d36123c7565b341561089d57600080fd5b6105fb600160a060020a03600435166123cd565b34156108bc57600080fd5b6103a96123e8565b34156108cf57600080fd5b6103d3600160a060020a03600435166123f8565b34156108ee57600080fd5b610369600160a060020a036004351660243561240a565b341561091057600080fd5b6103d360043561264a565b341561092657600080fd5b6105fb6126b9565b341561093957600080fd5b6103a96126c8565b341561094c57600080fd5b61036960048035600160a060020a0390811691602480359260443516919060849060643590810190830135806020601f820181900481020160405190810160405281815292919060208401838380828437509496506126f895505050505050565b34156109b857600080fd5b6103d3612845565b34156109cb57600080fd5b61036960043561284b565b34156109e157600080fd5b6103a96128fb565b34156109f457600080fd5b6105fb600160a060020a036004351661291e565b3415610a1357600080fd5b610369600435602435612939565b3415610a2c57600080fd5b6103d3612ac5565b3415610a3f57600080fd5b610369600160a060020a0360043516612acb565b3415610a5e57600080fd5b6103d3612bbf565b3415610a7157600080fd5b610369600160a060020a0360043516602435604435612bc5565b3415610a9657600080fd5b6103a9612cd1565b3415610aa957600080fd5b6103a9600160a060020a0360043516612ce1565b3415610ac857600080fd5b610ad0612d7e565b60405180826004811115610ae057fe5b60ff16815260200191505060405180910390f35b3415610aff57600080fd5b6103a9612d87565b3415610b1257600080fd5b610369600160a060020a0360043516602435612d97565b3415610b3457600080fd5b6106fb60046024813581810190830135806020601f820181900481020160405190810160405281815292919060208401838380828437509496505093359350612e1292505050565b3415610b8757600080fd5b610369600435602435612fa0565b3415610ba057600080fd5b6103696004351515602435151560443515156064351515608435151560a435151560c435151560e4351515610104351515610124351515610144351515610164351515613114565b3415610bf357600080fd5b6103d36004356132d7565b3415610c0957600080fd5b6103d3600160a060020a03600435166132e9565b3415610c2857600080fd5b6103d36132fb565b3415610c3b57600080fd5b6103d3600435613301565b3415610c5157600080fd5b610369600160a060020a0360043516613313565b3415610c7057600080fd5b6103a9600160a060020a0360043516613407565b3415610c8f57600080fd5b6103a9613437565b3415610ca257600080fd5b6103d3613447565b3415610cb557600080fd5b6103a961344d565b3415610cc857600080fd5b6105fb600160a060020a036004351661346f565b3415610ce757600080fd5b6105fb61348a565b3415610cfa57600080fd5b6106fb600435613499565b610369600160a060020a0360043516610dcf565b3415610d2457600080fd5b6103a96135bd565b3415610d3757600080fd5b610369600160a060020a0360043581169060243590604435166064356135e1565b3415610d6357600080fd5b6103d3600160a060020a036004351661367e565b3415610d8257600080fd5b610369600160a060020a0360043516613690565b3415610da157600080fd5b6103d36136f6565b3415610db457600080fd5b6105fb6136fc565b3415610dc757600080fd5b6103d361370b565b6000600180601a5460ff166004811115610de557fe5b14610def57600080fd5b33600160a060020a03166000805160206140ce83398151915260405160208082526010908201527f53746172742062757920746f6b656e73000000000000000000000000000000006040808301919091526060909101905180910390a2610e568334613710565b915060008211610e6557600080fd5b610e6d613b76565b505050565b600080601a5460ff166004811115610e8657fe5b14610e9057600080fd5b600160a060020a03331660009081526020819052604090205460ff161515600114610eba57600080fd5b600d8054600160a060020a031916600160a060020a0384811691909117918290551663313ce5676000604051602001526040518163ffffffff1660e060020a028152600401602060405180830381600087803b1515610f1857600080fd5b6102c65a03f11515610f2957600080fd5b5050506040518051600e5550600160a060020a0333166000805160206140ce83398151915260405160208082526009908201527f4e657720546f6b656e00000000000000000000000000000000000000000000006040808301919091526060909101905180910390a233600160a060020a03166000805160206140ce833981519152610fb484611d39565b60405160208082528190810183818151815260200191508051906020019080838360005b83811015610ff0578082015183820152602001610fd8565b50505050905090810190601f16801561101d5780820380516001836020036101000a031916815260200191505b509250505060405180910390a25050565b601f6020526000908152604090205460ff1681565b600a80548290811061105157fe5b600091825260209091200154905081565b6000808080601a5460ff16600481111561107857fe5b1461108257600080fd5b600160a060020a03331660009081526020819052604090205460ff1615156001146110ac57600080fd5b600b54156110b957600080fd5b60018551116110c757600080fd5b84518451146110d557600080fd5b60009250600091505b845182101561132f57828583815181106110f457fe5b90602001906020020151101561110957600080fd5b84828151811061111557fe5b906020019060200201519250600a80548060010182816111359190613d9c565b50600091825260209091200183905583828151811061115057fe5b90602001906020020151600960008581526020019081526020016000208190555033600160a060020a03166000805160206140ce8339815191526111dc60408051908101604052601081527f4164642074696d6520626f6e75733a200000000000000000000000000000000060208201528786815181106111cd57fe5b90602001906020020151612e12565b60405160208082528190810183818151815260200191508051906020019080838360005b83811015611218578082015183820152602001611200565b50505050905090810190601f1680156112455780820380516001836020036101000a031916815260200191505b509250505060405180910390a233600160a060020a03166000805160206140ce8339815191526112ae60408051908101604052600a81527f417420736c6963653a200000000000000000000000000000000000000000000060208201528886815181106111cd57fe5b60405160208082528190810183818151815260200191508051906020019080838360005b838110156112ea5780820151838201526020016112d2565b50505050905090810190601f1680156113175780820380516001836020036101000a031916815260200191505b509250505060405180910390a26001909101906110de565b5050600a54600b55505050565b601c5481565b6000600180601a5460ff16600481111561135857fe5b1461136257600080fd5b600160a060020a03331660009081526020819052604090205460ff16151560011461138c57600080fd5b6113968686613710565b9150600082116113a557600080fd5b82600160a060020a0387167f7c8f7476d7c48fb598c2faeaa38296073548801f143f6a518170ba5d957ceb0487858860405180848152602001838152602001828152602001935050505060405180910390a3505050505050565b60015460c060020a900460ff1681565b600160a060020a03331660009081526020819052604090205460ff16151560011461143957600080fd5b600160a060020a03909116600090815260106020526040902055565b60125481565b6000808080601a5460ff16600481111561147157fe5b1461147b57600080fd5b600160a060020a03331660009081526020819052604090205460ff1615156001146114a557600080fd5b60018551116114b357600080fd5b84518451146114c157600080fd5b60009250600091505b845182101561170c57828583815181106114e057fe5b9060200190602002015110156114f557600080fd5b84828151811061150157fe5b906020019060200201519250600780548060010182816115219190613d9c565b50600091825260209091200183905583828151811061153c57fe5b90602001906020020151600660008581526020019081526020016000208190555033600160a060020a03166000805160206140ce8339815191526115b960408051908101604052601281527f41646420616d6f756e7420626f6e75733a20000000000000000000000000000060208201528786815181106111cd57fe5b60405160208082528190810183818151815260200191508051906020019080838360005b838110156115f55780820151838201526020016115dd565b50505050905090810190601f1680156116225780820380516001836020036101000a031916815260200191505b509250505060405180910390a233600160a060020a03166000805160206140ce83398151915261168b60408051908101604052600a81527f417420736c6963653a200000000000000000000000000000000000000000000060208201528886815181106111cd57fe5b60405160208082528190810183818151815260200191508051906020019080838360005b838110156116c75780820151838201526020016116af565b50505050905090810190601f1680156116f45780820380516001836020036101000a031916815260200191505b509250505060405180910390a26001909101906114ca565b5050600754600855505050565b6000806000806000806000809150601154891080611738575060125489115b1561174c5760009650869550859450611984565b600154760100000000000000000000000000000000000000000000900460ff161561178d5761178a61177d8b61264a565b839063ffffffff613bde16565b91505b60015477010000000000000000000000000000000000000000000000900460ff16156117c6576117c361177d6011548b03612352565b91505b60015460f860020a900460ff1680156118545750600160a060020a03808c166000908152600c602052604080822054919291909116906375b4d78c90839051602001526040518163ffffffff1660e060020a028152600401602060405180830381600087803b151561183757600080fd5b6102c65a03f1151561184857600080fd5b50505060405180519050115b156118dd57600160a060020a03808c166000908152600c6020526040808220546118da9316916375b4d78c9151602001526040518163ffffffff1660e060020a028152600401602060405180830381600087803b15156118b357600080fd5b6102c65a03f115156118c457600080fd5b505050604051805184915063ffffffff613bde16565b91505b6119076014546118fb600e54600a0a8d613bf490919063ffffffff16565b9063ffffffff613c1f16565b9350600082111561193b5761193861192b6127106118fb878663ffffffff613bf416565b859063ffffffff613bde16565b93505b60015460d860020a900460ff161561196b576119686127106118fb60185487613bf490919063ffffffff16565b90505b61197b848263ffffffff613bde16565b84829650965096505b505050509450945094915050565b600e5481565b60038054829081106119a657fe5b600091825260209091200154600160a060020a0316905081565b60195481565b601e60209081526000928352604080842090915290825290205481565b601354600160a060020a031681565b6001547a010000000000000000000000000000000000000000000000000000900460ff1681565b6001547d010000000000000000000000000000000000000000000000000000000000900460ff1681565b600080600080600160159054906101000a900460ff168015611ad65750600554600160a060020a031663a75df8148a60006040516020015260405160e060020a63ffffffff8416028152600160a060020a039091166004820152602401602060405180830381600087803b1515611ab957600080fd5b6102c65a03f11515611aca57600080fd5b50505060405180519050155b15611ae45760009350611d10565b600160a060020a0389166000908152601b6020526040902054611b0d908963ffffffff613bde16565b601c54909350611b23908663ffffffff613bde16565b60015490925074010000000000000000000000000000000000000000900460ff1615611ca25750600160a060020a038089166000908152600260205260408082205490921691829163b1b3d3f69151602001526040518163ffffffff1660e060020a028152600401602060405180830381600087803b1515611ba457600080fd5b6102c65a03f11515611bb557600080fd5b505050604051805190501580611c2a57508281600160a060020a031663f88979456000604051602001526040518163ffffffff1660e060020a028152600401602060405180830381600087803b1515611c0d57600080fd5b6102c65a03f11515611c1e57600080fd5b50505060405180519050115b80611c9457508281600160a060020a0316636ac5db196000604051602001526040518163ffffffff1660e060020a028152600401602060405180830381600087803b1515611c7757600080fd5b6102c65a03f11515611c8857600080fd5b50505060405180519050105b15611ca25760009350611d10565b6001547d010000000000000000000000000000000000000000000000000000000000900460ff1615611cf857601554601954611ce4908a63ffffffff613bde16565b1115611cf35760009350611d10565b611d0b565b601554821115611d0b5760009350611d10565b600193505b50505095945050505050565b600554600160a060020a031681565b600780548290811061105157fe5b611d41613dc0565b611d49613dc0565b6000806000806028604051805910611d5e5750595b818152601f19601f830116810160200160405290509450600093505b6014841015611e52578360130360080260020a87600160a060020a0316811515611da057fe5b0460f860020a02925060108360f860020a900460ff16811515611dbf57fe5b0460f860020a0291508160f860020a90046010028360f860020a90040360f860020a029050611ded82611ea4565b858560020281518110611dfc57fe5b906020010190600160f860020a031916908160001a905350611e1d81611ea4565b858560020260010181518110611e2f57fe5b906020010190600160f860020a031916908160001a905350600190930192611d7a565b509295945050505050565b60015474010000000000000000000000000000000000000000900460ff1681565b600154790100000000000000000000000000000000000000000000000000900460ff1681565b60007f0a000000000000000000000000000000000000000000000000000000000000007fff0000000000000000000000000000000000000000000000000000000000000083161015611f08578160f860020a900460300160f860020a029050611f1c565b8160f860020a900460570160f860020a0290505b919050565b600160a060020a03331660009081526020819052604090205460ff161515600114611f4b57600080fd5b600160a060020a03811660008181526020819052604090819020805460ff191660011790557f1350a997c6c86bcc51dd7e51f7ef618d620e6a85d8fdabb82a980c149ad88d47905160405180910390a250565b600160a060020a03331660009081526020819052604090205460ff161515600114611fc857600080fd5b600154600160a060020a0382811691161415611fe357600080fd5b80600160a060020a031633600160a060020a03161415151561200457600080fd5b600160a060020a03811660008181526020819052604090819020805460ff191690557f1d1eff42eefbeecfca7e39f8adb5d7f19a7ebbb4c3e82c51f2500d7d76ab2468905160405180910390a250565b600b5481565b600080601a5460ff16600481111561206e57fe5b1461207857600080fd5b600160a060020a03331660009081526020819052604090205460ff1615156001146120a257600080fd5b601254601154106120b257600080fd5b6012544290116120c157600080fd5b601454600090116120d157600080fd5b601354600160a060020a031615156120e857600080fd5b600d54600160a060020a031615156120ff57600080fd5b6001547501000000000000000000000000000000000000000000900460ff161561213a57600554600160a060020a0316151561213a57600080fd5b600154760100000000000000000000000000000000000000000000900460ff161561216f576008546000901161216f57600080fd5b60015477010000000000000000000000000000000000000000000000900460ff16156121a557600b54600090116121a557600080fd5b60015460d860020a900460ff16156121ce57601754600160a060020a031615156121ce57600080fd5b60015460e060020a900460ff161561226957601554600d54600160a060020a03166370a082313060006040516020015260405160e060020a63ffffffff8416028152600160a060020a039091166004820152602401602060405180830381600087803b151561223c57600080fd5b6102c65a03f1151561224d57600080fd5b505050604051805190501015151561226457600080fd5b6122e5565b600d54600160a060020a033081169116638da5cb5b6000604051602001526040518163ffffffff1660e060020a028152600401602060405180830381600087803b15156122b557600080fd5b6102c65a03f115156122c657600080fd5b50505060405180519050600160a060020a03161415156122e557600080fd5b601a805460ff19166001179055600160a060020a0333166000805160206140ce83398151915260405160208082526007908201527f53616e65206974000000000000000000000000000000000000000000000000006040808301919091526060909101905180910390a250565b600080805b600a548110156123c05760096000600a8381548110151561237457fe5b906000526020600020900154815260200190815260200160002054915083600a828154811015156123a157fe5b90600052602060002090015411156123b8576123c0565b600101612357565b5092915050565b60115481565b600c60205260009081526040902054600160a060020a031681565b60015460f860020a900460ff1681565b601b6020526000908152604090205481565b600080601a5460ff16600481111561241e57fe5b1461242857600080fd5b600160a060020a03331660009081526020819052604090205460ff16151560011461245257600080fd5b600160a060020a038316151561246757600080fd5b60178054600160a060020a031916600160a060020a0385811691909117909155601883905533166000805160206140ce83398151915260405160208082526017908201527f4e657720457874726120546f6b656e7320486f6c6465720000000000000000006040808301919091526060909101905180910390a233600160a060020a03166000805160206140ce83398151915261250385611d39565b60405160208082528190810183818151815260200191508051906020019080838360005b8381101561253f578082015183820152602001612527565b50505050905090810190601f16801561256c5780820380516001836020036101000a031916815260200191505b509250505060405180910390a233600160a060020a03166000805160206140ce8339815191526125cf60408051908101604052601781527f4e657720457874726120546f6b656e7320506172743a20000000000000000000602082015285612e12565b60405160208082528190810183818151815260200191508051906020019080838360005b8381101561260b5780820151838201526020016125f3565b50505050905090810190601f1680156126385780820380516001836020036101000a031916815260200191505b509250505060405180910390a2505050565b600080805b6007548110156123c0578360078281548110151561266957fe5b9060005260206000209001541115612680576123c0565b6006600060078381548110151561269357fe5b60009182526020808320909101548352820192909252604001902054915060010161264f565b600154600160a060020a031681565b600160a060020a03331660009081526020819052604081205460ff166126ef5760006126f2565b60015b90505b90565b600160a060020a038281166000908152600f60205260408120549091829116151561272257600080fd5b600160a060020a038085166000908152600f6020526040808220546127c793169163313ce5679151602001526040518163ffffffff1660e060020a028152600401602060405180830381600087803b151561277c57600080fd5b6102c65a03f1151561278d57600080fd5b5050506040518051600160a060020a038716600090815260106020526040902054600a9190910a91506118fb90889063ffffffff613bf416565b91506127d38683613710565b9050600081116127e257600080fd5b83600160a060020a031686600160a060020a03167f8f9e1c6f80a0fd25dc246f3b0a51422fce2a5f211d4f9877c7ec20b6499c939f87858560405180848152602001838152602001828152602001935050505060405180910390a3505050505050565b60165481565b600080601a5460ff16600481111561285f57fe5b1461286957600080fd5b600160a060020a03331660009081526020819052604090205460ff16151560011461289357600080fd5b600082116128a057600080fd5b6014829055600160a060020a0333166000805160206140ce833981519152610fb460408051908101604052600b81527f4e65772050726963653a20000000000000000000000000000000000000000000602082015285612e12565b600154760100000000000000000000000000000000000000000000900460ff1681565b600260205260009081526040902054600160a060020a031681565b600080601a5460ff16600481111561294d57fe5b1461295757600080fd5b600160a060020a03331660009081526020819052604090205460ff16151560011461298157600080fd5b81831061298d57600080fd5b42821161299957600080fd5b60118390556012829055600160a060020a0333166000805160206140ce8339815191526129f960408051908101604052600c81527f53746172742054696d653a200000000000000000000000000000000000000000602082015286612e12565b60405160208082528190810183818151815260200191508051906020019080838360005b83811015612a35578082015183820152602001612a1d565b50505050905090810190601f168015612a625780820380516001836020036101000a031916815260200191505b509250505060405180910390a233600160a060020a03166000805160206140ce8339815191526125cf60408051908101604052600a81527f456e642054696d653a2000000000000000000000000000000000000000000000602082015285612e12565b60145481565b600080601a5460ff166004811115612adf57fe5b14612ae957600080fd5b600160a060020a03331660009081526020819052604090205460ff161515600114612b1357600080fd5b600160a060020a0382161515612b2857600080fd5b60058054600160a060020a031916600160a060020a038481169190911790915533166000805160206140ce8339815191526040516020808252600c908201527f4e657720526567697374727900000000000000000000000000000000000000006040808301919091526060909101905180910390a233600160a060020a03166000805160206140ce833981519152610fb484611d39565b60045481565b600160a060020a03331660009081526020819052604090205460ff161515600114612bef57600080fd5b600160a060020a0383161515612c0457600080fd5b80821115612c1157600080fd5b801515612c2c5750701d6329f1c35ca4bfabb9f56100000000005b8181612c36613dd2565b918252602082015260409081019051809103906000f0801515612c5857600080fd5b600160a060020a0384811660009081526002602052604090208054600160a060020a031916929091169190911790556003805460018101612c998382613d9c565b5060009182526020909120018054600160a060020a031916600160a060020a0394909416939093179092555050600480546001019055565b60015460e060020a900460ff1681565b60015460009060c060020a900460ff161515612cfc57600080fd5b600160a060020a0382166000908152601f602052604090205460ff1680612d3357506003601a5460ff166004811115612d3157fe5b145b1515612d3e57600080fd5b600160a060020a0382166000818152601d6020526040908190205480156108fc029151600060405180830381858888f193505050501515611f1c57600080fd5b601a5460ff1681565b60015460d860020a900460ff1681565b600080601a5460ff166004811115612dab57fe5b14612db557600080fd5b600160a060020a03331660009081526020819052604090205460ff161515600114612ddf57600080fd5b600160a060020a0383166000818152600f602052604090208054600160a060020a0319169091179055610e6d838361140f565b612e1a613dc0565b6000612e24613dc0565b600080612e2f613dc0565b612e37613dc0565b60006064965086604051805910612e4b5750595b818152601f19601f830116810160200160405290509550600094505b8815612eb257600a89069350600a890498508360300160f860020a02868680600101975081518110612e9557fe5b906020010190600160f860020a031916908160001a905350612e67565b89925084835101604051805910612ec65750595b818152601f19601f830116810160200160405290509150600090505b8251811015612f3557828181518110612ef757fe5b016020015160f860020a900460f860020a02828281518110612f1557fe5b906020010190600160f860020a031916908160001a905350600101612ee2565b5060005b84811015612f93578581600187030381518110612f5257fe5b016020015160f860020a900460f860020a02828451830181518110612f7357fe5b906020010190600160f860020a031916908160001a905350600101612f39565b5098975050505050505050565b600080601a5460ff166004811115612fb457fe5b14612fbe57600080fd5b600160a060020a03331660009081526020819052604090205460ff161515600114612fe857600080fd5b60158290556016839055600160a060020a0333166000805160206140ce83398151915261304860408051908101604052600a81527f536f6674204361703a2000000000000000000000000000000000000000000000602082015286612e12565b60405160208082528190810183818151815260200191508051906020019080838360005b8381101561308457808201518382015260200161306c565b50505050905090810190601f1680156130b15780820380516001836020036101000a031916815260200191505b509250505060405180910390a233600160a060020a03166000805160206140ce8339815191526125cf60408051908101604052600a81527f48617264204361703a2000000000000000000000000000000000000000000000602082015285612e12565b600080601a5460ff16600481111561312857fe5b1461313257600080fd5b600160a060020a03331660009081526020819052604090205460ff16151560011461315c57600080fd5b8c600160146101000a81548160ff0219169083151502179055508b600160156101000a81548160ff0219169083151502179055508a600160166101000a81548160ff02191690831515021790555089600160176101000a81548160ff02191690831515021790555088600160186101000a81548160ff02191690831515021790555087600160196101000a81548160ff021916908315150217905550866001601a6101000a81548160ff021916908315150217905550856001601b6101000a81548160ff021916908315150217905550846001601c6101000a81548160ff021916908315150217905550836001601d6101000a81548160ff021916908315150217905550600160189054906101000a900460ff16806132785750825b6001805493151560f860020a02600160f860020a0392151560f060020a027fff00ffffffffffffffffffffffffffffffffffffffffffffffffffffffffffff909516949094179190911692909217909155505050505050505050505050565b60066020526000908152604090205481565b601d6020526000908152604090205481565b60185481565b60096020526000908152604090205481565b600080601a5460ff16600481111561332757fe5b1461333157600080fd5b600160a060020a03331660009081526020819052604090205460ff16151560011461335b57600080fd5b600160a060020a038216151561337057600080fd5b60138054600160a060020a031916600160a060020a038481169190911790915533166000805160206140ce8339815191526040516020808252600a908201527f4e65772057616c6c6574000000000000000000000000000000000000000000006040808301919091526060909101905180910390a233600160a060020a03166000805160206140ce833981519152610fb484611d39565b600160a060020a03811660009081526020819052604081205460ff1661342e576000613431565b60015b92915050565b60015460f060020a900460ff1681565b60085481565b6001547501000000000000000000000000000000000000000000900460ff1681565b600f60205260009081526040902054600160a060020a031681565b601754600160a060020a031681565b6134a1613dc0565b60006134ab613dc0565b6000806134b6613dc0565b600060649550856040518059106134ca5750595b818152601f19601f830116810160200160405290509450600093505b871561353157600a88069250600a880497508260300160f860020a0285858060010196508151811061351457fe5b906020010190600160f860020a031916908160001a9053506134e6565b8360405180591061353f5750595b818152601f19601f830116810160200160405290509150600090505b838110156135b257848160018603038151811061357457fe5b016020015160f860020a900460f860020a0282828151811061359257fe5b906020010190600160f860020a031916908160001a90535060010161355b565b509695505050505050565b60015477010000000000000000000000000000000000000000000000900460ff1681565b600160a060020a03331660009081526020819052604090205460ff16151560011461360b57600080fd5b828282613616613de2565b928352600160a060020a03909116602083015260408083019190915260609091019051809103906000f080151561364c57600080fd5b600160a060020a039485166000908152600c602052604090208054600160a060020a0319169190951617909355505050565b60106020526000908152604090205481565b600160a060020a03331660009081526020819052604090205460ff1615156001146136ba57600080fd5b60015460c060020a900460ff1615156136d257600080fd5b600160a060020a03166000908152601f60205260409020805460ff19166001179055565b60155481565b600d54600160a060020a031681565b600181565b6000808080600180601a5460ff16600481111561372957fe5b1461373357600080fd5b33600160a060020a03166000805160206140ce83398151915260405160208082526011908201527f53746172742073656c6c20746f6b656e730000000000000000000000000000006040808301919091526060909101905180910390a2600d5461380290889088904290600160a060020a03166318160ddd6000604051602001526040518163ffffffff1660e060020a028152600401602060405180830381600087803b15156137e257600080fd5b6102c65a03f115156137f357600080fd5b50505060405180519050611719565b90955093509150600160a060020a0333166000805160206140ce83398151915260405160208082526010908201527f43616c63756c61746520616d6f756e74000000000000000000000000000000006040808301919091526060909101905180910390a233600160a060020a03166000805160206140ce8339815191526138bc60408051908101604052600781527f546f74616c3a2000000000000000000000000000000000000000000000000000602082015285612e12565b60405160208082528190810183818151815260200191508051906020019080838360005b838110156138f85780820151838201526020016138e0565b50505050905090810190601f1680156139255780820380516001836020036101000a031916815260200191505b509250505060405180910390a233600160a060020a03166000805160206140ce83398151915261398860408051908101604052600d81527f42656e65666963696172793a2000000000000000000000000000000000000000602082015287612e12565b60405160208082528190810183818151815260200191508051906020019080838360005b838110156139c45780820151838201526020016139ac565b50505050905090810190601f1680156139f15780820380516001836020036101000a031916815260200191505b509250505060405180910390a2613a0b8787868686611a43565b1515613a1657600080fd5b601954613a29908763ffffffff613bde16565b601955600160a060020a0387166000908152601b6020526040902054613a55908763ffffffff613bde16565b600160a060020a0388166000908152601b6020526040902055613a788785613c36565b86600160a060020a031633600160a060020a03167f623b3804fa71d67900d064613da8f94b9617215ee90799290593e1745087ad18888760405191825260208201526040908101905180910390a386600160a060020a03167f67066453570687eaa7bbfb5d6a5a6d901a7473f72563021e81204001241e7af78560405190815260200160405180910390a260015460d860020a900460ff1615613b6b57601754613b2b90600160a060020a031684613c36565b601754600160a060020a03167f67066453570687eaa7bbfb5d6a5a6d901a7473f72563021e81204001241e7af78460405190815260200160405180910390a25b509195945050505050565b60015460c060020a900460ff1615613ba857600160a060020a0333166000908152601d60205260409020349055613bdc565b601354600160a060020a03163480156108fc0290604051600060405180830381858888f193505050501515613bdc57600080fd5b565b600082820183811015613bed57fe5b9392505050565b600080831515613c0757600091506123c0565b50828202828482811515613c1757fe5b0414613bed57fe5b6000808284811515613c2d57fe5b04949350505050565b600180601a5460ff166004811115613c4a57fe5b14613c5457600080fd5b60015460f060020a900460ff161515613d815760015460e060020a900460ff1615613d0657600d54600160a060020a03166323b872dd30858560006040516020015260405160e060020a63ffffffff8616028152600160a060020a0393841660048201529190921660248201526044810191909152606401602060405180830381600087803b1515613ce557600080fd5b6102c65a03f11515613cf657600080fd5b5050506040518051905050613d81565b600d54600160a060020a03166340c10f19848460006040516020015260405160e060020a63ffffffff8516028152600160a060020a0390921660048301526024820152604401602060405180830381600087803b1515613d6557600080fd5b6102c65a03f11515613d7657600080fd5b505050604051805150505b601c54613d94908363ffffffff613bde16565b601c55505050565b815481835581811511610e6d57600083815260209020610e6d918101908301613df2565b60206040519081016040526000815290565b60405161013e80613e1183390190565b60405161017f80613f4f83390190565b6126f591905b80821115613e0c5760008155600101613df8565b509056006060604052341561000f57600080fd5b60405160408061013e83398101604052808051919060200180516000805460ff1916600190811790915593909355505060025560ee806100506000396000f30060606040526004361060525763ffffffff7c01000000000000000000000000000000000000000000000000000000006000350416636ac5db1981146057578063b1b3d3f6146079578063f889794514609d575b600080fd5b3415606157600080fd5b606760ad565b60405190815260200160405180910390f35b3415608357600080fd5b608960b3565b604051901515815260200160405180910390f35b341560a757600080fd5b606760bc565b60025481565b60005460ff1681565b600154815600a165627a7a72305820d8b4243f236f1d7199c39f429c7ae7d23c4ab92938c5529c515903509952d17200296060604052341561000f57600080fd5b60405160608061017f83398101604052808051919060200180519190602001805160008054600160a060020a03909516600160a060020a0319909516949094179093555050600255600155610116806100696000396000f30060606040526004361060525763ffffffff7c010000000000000000000000000000000000000000000000000000000060003504166329176e638114605757806363e0f8c714609057806375b4d78c1460b2575b600080fd5b3415606157600080fd5b606760c2565b60405173ffffffffffffffffffffffffffffffffffffffff909116815260200160405180910390f35b3415609a57600080fd5b60a060de565b60405190815260200160405180910390f35b341560bc57600080fd5b60a060e4565b60005473ffffffffffffffffffffffffffffffffffffffff1681565b60025481565b600154815600a165627a7a723058207c5a7ce2584c06fa3dd4afbe5a0b5b8d040fa889ad77ad327dc36a6f6a8ac8de0029043dde8a406bae2ac5a8f7a1abfb5836a348f2563d30428c735f5c2cc64ee7d6a165627a7a72305820970697bc6d180fe74543439dc202a5a8a78c6288951bfaffedb055063d1def990029043dde8a406bae2ac5a8f7a1abfb5836a348f2563d30428c735f5c2cc64ee7d6",
  "source": "pragma solidity ^0.4.15;\n\nimport './base/Crowdsale.sol';\n\ncontract AltCrowdsalePhaseOne is Crowdsale {\n  function AltCrowdsalePhaseOne(\n    address _registry,\n    address _token,\n    address _extraTokensHolder,\n    uint _extraTokensPart,\n    uint[] _timeSlices,\n    uint[] _timePrices\n  ) public\n  {\n    setFlags(\n      // Should be whitelisted to buy tokens\n      // _isWhitelisted,\n      true,\n      // Should be known user to buy tokens\n      // _isKnownOnly,\n      true,\n      // Enable amount bonuses in crowdsale? \n      // _isAmountBonus,\n      false,\n      // Enable early bird bonus in crowdsale?\n      // _isEarlyBonus,\n      true,\n      // Allow to refund money?\n      // _isRefundable,\n      false,\n      // Allow to buy tokens for another tokens?\n      // _isTokenExcange,\n      false,\n      // Allow to issue tokens with tx hash (ex bitcoin)\n      // _isAllowToIssue,\n      true,\n      // Should mint extra tokens for future distribution?\n      // _isExtraDistribution,\n      false,\n      // Will ship token via minting? \n      // _isMintingShipment,\n      true,\n      // Should be capped in ether\n      // bool _isCappedInEther,\n      true,\n      // Should beneficiaries pull their tokens? \n      // _isPullingTokens\n      false,\n      // Should check personal bonuses?\n      // _isPersonalBonuses\n      true\n    );\n\n    setToken(_token); \n \n    setTime(block.timestamp - 1 seconds, block.timestamp + 30 days);\n\n    setRegistry(_registry);\n    setWallet(msg.sender);\n    setExtraDistribution(_extraTokensHolder, _extraTokensPart);\n\n    setSoftHardCaps(\n      5 ether, // soft\n      10 ether  // hard\n    );\n\n    // 200 ALT per 1 ETH\n    setPrice(uint(1 ether).div(100));\n\n    setTimeBonuses(_timeSlices, _timePrices);\n  }  \n} ",
  "sourcePath": "/Users/aler/crypto/altestate-3/contracts/AltCrowdsale.sol",
  "compiler": {
    "name": "solc",
    "version": "0.4.18+commit.9cf6e910.Emscripten.clang"
  },
  "schemaVersion": "1.0.1",
  "updatedAt": "2017-12-04T13:47:15.866Z"
}