{
  "contractName": "AltCrowdsalePhaseOne",
  "abi": [
    {
      "constant": false,
      "inputs": [
        {
          "name": "_tokenAddress",
          "type": "address"
        }
      ],
      "name": "setToken",
      "outputs": [],
      "payable": false,
      "stateMutability": "nonpayable",
      "type": "function"
    },
    {
      "constant": true,
      "inputs": [
        {
          "name": "",
          "type": "address"
        }
      ],
      "name": "claimRefundAllowance",
      "outputs": [
        {
          "name": "",
          "type": "bool"
        }
      ],
      "payable": false,
      "stateMutability": "view",
      "type": "function"
    },
    {
      "constant": true,
      "inputs": [
        {
          "name": "",
          "type": "uint256"
        }
      ],
      "name": "timeSlices",
      "outputs": [
        {
          "name": "",
          "type": "uint256"
        }
      ],
      "payable": false,
      "stateMutability": "view",
      "type": "function"
    },
    {
      "constant": false,
      "inputs": [
        {
          "name": "_timeSlices",
          "type": "uint256[]"
        },
        {
          "name": "_prices",
          "type": "uint256[]"
        }
      ],
      "name": "setTimeBonuses",
      "outputs": [],
      "payable": false,
      "stateMutability": "nonpayable",
      "type": "function"
    },
    {
      "constant": true,
      "inputs": [],
      "name": "temporalTotalSupply",
      "outputs": [
        {
          "name": "",
          "type": "uint256"
        }
      ],
      "payable": false,
      "stateMutability": "view",
      "type": "function"
    },
    {
      "constant": false,
      "inputs": [
        {
          "name": "_beneficiary",
          "type": "address"
        },
        {
          "name": "_value",
          "type": "uint256"
        },
        {
          "name": "_timestamp",
          "type": "uint256"
        },
        {
          "name": "_hash",
          "type": "bytes32"
        }
      ],
      "name": "buyWithHash",
      "outputs": [],
      "payable": false,
      "stateMutability": "nonpayable",
      "type": "function"
    },
    {
      "constant": true,
      "inputs": [],
      "name": "isRefundable",
      "outputs": [
        {
          "name": "",
          "type": "bool"
        }
      ],
      "payable": false,
      "stateMutability": "view",
      "type": "function"
    },
    {
      "constant": false,
      "inputs": [
        {
          "name": "_token",
          "type": "address"
        },
        {
          "name": "_value",
          "type": "uint256"
        }
      ],
      "name": "updateTokenValue",
      "outputs": [],
      "payable": false,
      "stateMutability": "nonpayable",
      "type": "function"
    },
    {
      "constant": true,
      "inputs": [],
      "name": "endTime",
      "outputs": [
        {
          "name": "",
          "type": "uint256"
        }
      ],
      "payable": false,
      "stateMutability": "view",
      "type": "function"
    },
    {
      "constant": false,
      "inputs": [
        {
          "name": "_amountSlices",
          "type": "uint256[]"
        },
        {
          "name": "_prices",
          "type": "uint256[]"
        }
      ],
      "name": "setAmountBonuses",
      "outputs": [],
      "payable": false,
      "stateMutability": "nonpayable",
      "type": "function"
    },
    {
      "constant": false,
      "inputs": [
        {
          "name": "_beneficiary",
          "type": "address"
        },
        {
          "name": "_weiAmount",
          "type": "uint256"
        },
        {
          "name": "_time",
          "type": "uint256"
        },
        {
          "name": "_totalSupply",
          "type": "uint256"
        }
      ],
      "name": "calculateEthAmount",
      "outputs": [
        {
          "name": "",
          "type": "uint256"
        },
        {
          "name": "",
          "type": "uint256"
        },
        {
          "name": "",
          "type": "uint256"
        }
      ],
      "payable": false,
      "stateMutability": "nonpayable",
      "type": "function"
    },
    {
      "constant": true,
      "inputs": [],
      "name": "tokenDecimals",
      "outputs": [
        {
          "name": "",
          "type": "uint256"
        }
      ],
      "payable": false,
      "stateMutability": "view",
      "type": "function"
    },
    {
      "constant": true,
      "inputs": [
        {
          "name": "",
          "type": "uint256"
        }
      ],
      "name": "whitelisted",
      "outputs": [
        {
          "name": "",
          "type": "address"
        }
      ],
      "payable": false,
      "stateMutability": "view",
      "type": "function"
    },
    {
      "constant": true,
      "inputs": [],
      "name": "weiRaised",
      "outputs": [
        {
          "name": "",
          "type": "uint256"
        }
      ],
      "payable": false,
      "stateMutability": "view",
      "type": "function"
    },
    {
      "constant": true,
      "inputs": [
        {
          "name": "",
          "type": "address"
        },
        {
          "name": "",
          "type": "address"
        }
      ],
      "name": "altDeposit",
      "outputs": [
        {
          "name": "",
          "type": "uint256"
        }
      ],
      "payable": false,
      "stateMutability": "view",
      "type": "function"
    },
    {
      "constant": false,
      "inputs": [
        {
          "name": "_isWhitelisted",
          "type": "bool"
        },
        {
          "name": "_isKnownOnly",
          "type": "bool"
        },
        {
          "name": "_isAmountBonus",
          "type": "bool"
        },
        {
          "name": "_isEarlyBonus",
          "type": "bool"
        },
        {
          "name": "_isRefundable",
          "type": "bool"
        },
        {
          "name": "_isTokenExchange",
          "type": "bool"
        },
        {
          "name": "_isAllowToIssue",
          "type": "bool"
        },
        {
          "name": "_isExtraDistribution",
          "type": "bool"
        },
        {
          "name": "_isMintingShipment",
          "type": "bool"
        },
        {
          "name": "_isCappedInEther",
          "type": "bool"
        },
        {
          "name": "_isPullingTokens",
          "type": "bool"
        }
      ],
      "name": "setFlags",
      "outputs": [],
      "payable": false,
      "stateMutability": "nonpayable",
      "type": "function"
    },
    {
      "constant": true,
      "inputs": [],
      "name": "wallet",
      "outputs": [
        {
          "name": "",
          "type": "address"
        }
      ],
      "payable": false,
      "stateMutability": "view",
      "type": "function"
    },
    {
      "constant": true,
      "inputs": [],
      "name": "isAllowToIssue",
      "outputs": [
        {
          "name": "",
          "type": "bool"
        }
      ],
      "payable": false,
      "stateMutability": "view",
      "type": "function"
    },
    {
      "constant": true,
      "inputs": [],
      "name": "isCappedInEther",
      "outputs": [
        {
          "name": "",
          "type": "bool"
        }
      ],
      "payable": false,
      "stateMutability": "view",
      "type": "function"
    },
    {
      "constant": true,
      "inputs": [
        {
          "name": "_beneficiary",
          "type": "address"
        },
        {
          "name": "_weiAmount",
          "type": "uint256"
        },
        {
          "name": "_tokenAmount",
          "type": "uint256"
        },
        {
          "name": "_extraAmount",
          "type": "uint256"
        },
        {
          "name": "_totalAmount",
          "type": "uint256"
        }
      ],
      "name": "validPurchase",
      "outputs": [
        {
          "name": "",
          "type": "bool"
        }
      ],
      "payable": false,
      "stateMutability": "view",
      "type": "function"
    },
    {
      "constant": true,
      "inputs": [],
      "name": "userRegistry",
      "outputs": [
        {
          "name": "",
          "type": "address"
        }
      ],
      "payable": false,
      "stateMutability": "view",
      "type": "function"
    },
    {
      "constant": true,
      "inputs": [
        {
          "name": "",
          "type": "uint256"
        }
      ],
      "name": "amountSlices",
      "outputs": [
        {
          "name": "",
          "type": "uint256"
        }
      ],
      "payable": false,
      "stateMutability": "view",
      "type": "function"
    },
    {
      "constant": false,
      "inputs": [
        {
          "name": "x",
          "type": "address"
        }
      ],
      "name": "addressToString",
      "outputs": [
        {
          "name": "",
          "type": "string"
        }
      ],
      "payable": false,
      "stateMutability": "nonpayable",
      "type": "function"
    },
    {
      "constant": true,
      "inputs": [],
      "name": "isWhitelisted",
      "outputs": [
        {
          "name": "",
          "type": "bool"
        }
      ],
      "payable": false,
      "stateMutability": "view",
      "type": "function"
    },
    {
      "constant": true,
      "inputs": [],
      "name": "isTokenExchange",
      "outputs": [
        {
          "name": "",
          "type": "bool"
        }
      ],
      "payable": false,
      "stateMutability": "view",
      "type": "function"
    },
    {
      "constant": false,
      "inputs": [
        {
          "name": "b",
          "type": "bytes1"
        }
      ],
      "name": "char",
      "outputs": [
        {
          "name": "c",
          "type": "bytes1"
        }
      ],
      "payable": false,
      "stateMutability": "nonpayable",
      "type": "function"
    },
    {
      "constant": false,
      "inputs": [
        {
          "name": "_owner",
          "type": "address"
        }
      ],
      "name": "grant",
      "outputs": [],
      "payable": false,
      "stateMutability": "nonpayable",
      "type": "function"
    },
    {
      "constant": false,
      "inputs": [
        {
          "name": "_owner",
          "type": "address"
        }
      ],
      "name": "revoke",
      "outputs": [],
      "payable": false,
      "stateMutability": "nonpayable",
      "type": "function"
    },
    {
      "constant": true,
      "inputs": [],
      "name": "timeSlicesCount",
      "outputs": [
        {
          "name": "",
          "type": "uint256"
        }
      ],
      "payable": false,
      "stateMutability": "view",
      "type": "function"
    },
    {
      "constant": false,
      "inputs": [],
      "name": "saneIt",
      "outputs": [],
      "payable": false,
      "stateMutability": "nonpayable",
      "type": "function"
    },
    {
      "constant": true,
      "inputs": [
        {
          "name": "_at",
          "type": "uint256"
        }
      ],
      "name": "calculateTimeBonus",
      "outputs": [
        {
          "name": "",
          "type": "uint256"
        }
      ],
      "payable": false,
      "stateMutability": "view",
      "type": "function"
    },
    {
      "constant": true,
      "inputs": [],
      "name": "startTime",
      "outputs": [
        {
          "name": "",
          "type": "uint256"
        }
      ],
      "payable": false,
      "stateMutability": "view",
      "type": "function"
    },
    {
      "constant": true,
      "inputs": [
        {
          "name": "",
          "type": "address"
        }
      ],
      "name": "personalBonuses",
      "outputs": [
        {
          "name": "",
          "type": "address"
        }
      ],
      "payable": false,
      "stateMutability": "view",
      "type": "function"
    },
    {
      "constant": false,
      "inputs": [
        {
          "name": "_holder",
          "type": "address"
        },
        {
          "name": "_extraPart",
          "type": "uint256"
        }
      ],
      "name": "setExtraDistribution",
      "outputs": [],
      "payable": false,
      "stateMutability": "nonpayable",
      "type": "function"
    },
    {
      "constant": true,
      "inputs": [
        {
          "name": "_changeAmount",
          "type": "uint256"
        }
      ],
      "name": "calculateAmountBonus",
      "outputs": [
        {
          "name": "",
          "type": "uint256"
        }
      ],
      "payable": false,
      "stateMutability": "view",
      "type": "function"
    },
    {
      "constant": true,
      "inputs": [],
      "name": "publisher",
      "outputs": [
        {
          "name": "",
          "type": "address"
        }
      ],
      "payable": false,
      "stateMutability": "view",
      "type": "function"
    },
    {
      "constant": true,
      "inputs": [],
      "name": "isOwner",
      "outputs": [
        {
          "name": "",
          "type": "bool"
        }
      ],
      "payable": false,
      "stateMutability": "view",
      "type": "function"
    },
    {
      "constant": false,
      "inputs": [
        {
          "name": "_from",
          "type": "address"
        },
        {
          "name": "_value",
          "type": "uint256"
        },
        {
          "name": "_token",
          "type": "address"
        },
        {
          "name": "_extraData",
          "type": "bytes"
        }
      ],
      "name": "receiveApproval",
      "outputs": [],
      "payable": false,
      "stateMutability": "nonpayable",
      "type": "function"
    },
    {
      "constant": true,
      "inputs": [],
      "name": "softCap",
      "outputs": [
        {
          "name": "",
          "type": "uint256"
        }
      ],
      "payable": false,
      "stateMutability": "view",
      "type": "function"
    },
    {
      "constant": false,
      "inputs": [
        {
          "name": "_price",
          "type": "uint256"
        }
      ],
      "name": "setPrice",
      "outputs": [],
      "payable": false,
      "stateMutability": "nonpayable",
      "type": "function"
    },
    {
      "constant": true,
      "inputs": [],
      "name": "isAmountBonus",
      "outputs": [
        {
          "name": "",
          "type": "bool"
        }
      ],
      "payable": false,
      "stateMutability": "view",
      "type": "function"
    },
    {
      "constant": true,
      "inputs": [
        {
          "name": "",
          "type": "address"
        }
      ],
      "name": "whitelist",
      "outputs": [
        {
          "name": "",
          "type": "address"
        }
      ],
      "payable": false,
      "stateMutability": "view",
      "type": "function"
    },
    {
      "constant": false,
      "inputs": [
        {
          "name": "_start",
          "type": "uint256"
        },
        {
          "name": "_end",
          "type": "uint256"
        }
      ],
      "name": "setTime",
      "outputs": [],
      "payable": false,
      "stateMutability": "nonpayable",
      "type": "function"
    },
    {
      "constant": true,
      "inputs": [],
      "name": "price",
      "outputs": [
        {
          "name": "",
          "type": "uint256"
        }
      ],
      "payable": false,
      "stateMutability": "view",
      "type": "function"
    },
    {
      "constant": false,
      "inputs": [
        {
          "name": "_registry",
          "type": "address"
        }
      ],
      "name": "setRegistry",
      "outputs": [],
      "payable": false,
      "stateMutability": "nonpayable",
      "type": "function"
    },
    {
      "constant": true,
      "inputs": [],
      "name": "whitelistedCount",
      "outputs": [
        {
          "name": "",
          "type": "uint256"
        }
      ],
      "payable": false,
      "stateMutability": "view",
      "type": "function"
    },
    {
      "constant": false,
      "inputs": [
        {
          "name": "_beneficiary",
          "type": "address"
        },
        {
          "name": "_min",
          "type": "uint256"
        },
        {
          "name": "_max",
          "type": "uint256"
        }
      ],
      "name": "addToWhitelist",
      "outputs": [],
      "payable": false,
      "stateMutability": "nonpayable",
      "type": "function"
    },
    {
      "constant": true,
      "inputs": [
        {
          "name": "",
          "type": "address"
        }
      ],
      "name": "temporalBalances",
      "outputs": [
        {
          "name": "",
          "type": "uint256"
        }
      ],
      "payable": false,
      "stateMutability": "view",
      "type": "function"
    },
    {
      "constant": true,
      "inputs": [],
      "name": "isTransferShipment",
      "outputs": [
        {
          "name": "",
          "type": "bool"
        }
      ],
      "payable": false,
      "stateMutability": "view",
      "type": "function"
    },
    {
      "constant": false,
      "inputs": [
        {
          "name": "_beneficiary",
          "type": "address"
        }
      ],
      "name": "claimRefund",
      "outputs": [
        {
          "name": "",
          "type": "bool"
        }
      ],
      "payable": false,
      "stateMutability": "nonpayable",
      "type": "function"
    },
    {
      "constant": true,
      "inputs": [],
      "name": "state",
      "outputs": [
        {
          "name": "",
          "type": "uint8"
        }
      ],
      "payable": false,
      "stateMutability": "view",
      "type": "function"
    },
    {
      "constant": true,
      "inputs": [],
      "name": "isExtraDistribution",
      "outputs": [
        {
          "name": "",
          "type": "bool"
        }
      ],
      "payable": false,
      "stateMutability": "view",
      "type": "function"
    },
    {
      "constant": false,
      "inputs": [
        {
          "name": "_token",
          "type": "address"
        },
        {
          "name": "_value",
          "type": "uint256"
        }
      ],
      "name": "setTokenExcange",
      "outputs": [],
      "payable": false,
      "stateMutability": "nonpayable",
      "type": "function"
    },
    {
      "constant": true,
      "inputs": [
        {
          "name": "inStr",
          "type": "string"
        },
        {
          "name": "v",
          "type": "uint256"
        }
      ],
      "name": "appendUintToString",
      "outputs": [
        {
          "name": "str",
          "type": "string"
        }
      ],
      "payable": false,
      "stateMutability": "pure",
      "type": "function"
    },
    {
      "constant": false,
      "inputs": [
        {
          "name": "_softCap",
          "type": "uint256"
        },
        {
          "name": "_hardCap",
          "type": "uint256"
        }
      ],
      "name": "setSoftHardCaps",
      "outputs": [],
      "payable": false,
      "stateMutability": "nonpayable",
      "type": "function"
    },
    {
      "constant": true,
      "inputs": [
        {
          "name": "",
          "type": "uint256"
        }
      ],
      "name": "amountBonuses",
      "outputs": [
        {
          "name": "",
          "type": "uint256"
        }
      ],
      "payable": false,
      "stateMutability": "view",
      "type": "function"
    },
    {
      "constant": true,
      "inputs": [
        {
          "name": "",
          "type": "address"
        }
      ],
      "name": "weiDeposit",
      "outputs": [
        {
          "name": "",
          "type": "uint256"
        }
      ],
      "payable": false,
      "stateMutability": "view",
      "type": "function"
    },
    {
      "constant": true,
      "inputs": [],
      "name": "extraDistributionPart",
      "outputs": [
        {
          "name": "",
          "type": "uint256"
        }
      ],
      "payable": false,
      "stateMutability": "view",
      "type": "function"
    },
    {
      "constant": true,
      "inputs": [
        {
          "name": "",
          "type": "uint256"
        }
      ],
      "name": "timeBonuses",
      "outputs": [
        {
          "name": "",
          "type": "uint256"
        }
      ],
      "payable": false,
      "stateMutability": "view",
      "type": "function"
    },
    {
      "constant": false,
      "inputs": [
        {
          "name": "_wallet",
          "type": "address"
        }
      ],
      "name": "setWallet",
      "outputs": [],
      "payable": false,
      "stateMutability": "nonpayable",
      "type": "function"
    },
    {
      "constant": true,
      "inputs": [
        {
          "name": "maybe_owner",
          "type": "address"
        }
      ],
      "name": "checkOwner",
      "outputs": [
        {
          "name": "",
          "type": "bool"
        }
      ],
      "payable": false,
      "stateMutability": "view",
      "type": "function"
    },
    {
      "constant": true,
      "inputs": [],
      "name": "isPullingTokens",
      "outputs": [
        {
          "name": "",
          "type": "bool"
        }
      ],
      "payable": false,
      "stateMutability": "view",
      "type": "function"
    },
    {
      "constant": true,
      "inputs": [],
      "name": "amountSlicesCount",
      "outputs": [
        {
          "name": "",
          "type": "uint256"
        }
      ],
      "payable": false,
      "stateMutability": "view",
      "type": "function"
    },
    {
      "constant": true,
      "inputs": [],
      "name": "isKnownOnly",
      "outputs": [
        {
          "name": "",
          "type": "bool"
        }
      ],
      "payable": false,
      "stateMutability": "view",
      "type": "function"
    },
    {
      "constant": true,
      "inputs": [
        {
          "name": "",
          "type": "address"
        }
      ],
      "name": "allowedTokens",
      "outputs": [
        {
          "name": "",
          "type": "address"
        }
      ],
      "payable": false,
      "stateMutability": "view",
      "type": "function"
    },
    {
      "constant": true,
      "inputs": [],
      "name": "extraTokensHolder",
      "outputs": [
        {
          "name": "",
          "type": "address"
        }
      ],
      "payable": false,
      "stateMutability": "view",
      "type": "function"
    },
    {
      "constant": true,
      "inputs": [
        {
          "name": "v",
          "type": "uint256"
        }
      ],
      "name": "uintToString",
      "outputs": [
        {
          "name": "str",
          "type": "string"
        }
      ],
      "payable": false,
      "stateMutability": "pure",
      "type": "function"
    },
    {
      "constant": false,
      "inputs": [
        {
          "name": "_beneficiary",
          "type": "address"
        }
      ],
      "name": "buyTokens",
      "outputs": [],
      "payable": true,
      "stateMutability": "payable",
      "type": "function"
    },
    {
      "constant": true,
      "inputs": [],
      "name": "isEarlyBonus",
      "outputs": [
        {
          "name": "",
          "type": "bool"
        }
      ],
      "payable": false,
      "stateMutability": "view",
      "type": "function"
    },
    {
      "constant": false,
      "inputs": [
        {
          "name": "_beneficiary",
          "type": "address"
        },
        {
          "name": "_bonus",
          "type": "uint256"
        },
        {
          "name": "_referalAddress",
          "type": "address"
        },
        {
          "name": "_referalBonus",
          "type": "uint256"
        }
      ],
      "name": "setPersonalBonus",
      "outputs": [],
      "payable": false,
      "stateMutability": "nonpayable",
      "type": "function"
    },
    {
      "constant": true,
      "inputs": [
        {
          "name": "",
          "type": "address"
        }
      ],
      "name": "tokensValues",
      "outputs": [
        {
          "name": "",
          "type": "uint256"
        }
      ],
      "payable": false,
      "stateMutability": "view",
      "type": "function"
    },
    {
      "constant": false,
      "inputs": [
        {
          "name": "_beneficiary",
          "type": "address"
        }
      ],
      "name": "refund",
      "outputs": [],
      "payable": false,
      "stateMutability": "nonpayable",
      "type": "function"
    },
    {
      "constant": true,
      "inputs": [],
      "name": "hardCap",
      "outputs": [
        {
          "name": "",
          "type": "uint256"
        }
      ],
      "payable": false,
      "stateMutability": "view",
      "type": "function"
    },
    {
      "constant": true,
      "inputs": [],
      "name": "token",
      "outputs": [
        {
          "name": "",
          "type": "address"
        }
      ],
      "payable": false,
      "stateMutability": "view",
      "type": "function"
    },
    {
      "constant": true,
      "inputs": [],
      "name": "VERSION",
      "outputs": [
        {
          "name": "",
          "type": "uint256"
        }
      ],
      "payable": false,
      "stateMutability": "view",
      "type": "function"
    },
    {
      "inputs": [
        {
          "name": "_registry",
          "type": "address"
        },
        {
          "name": "_token",
          "type": "address"
        },
        {
          "name": "_extraTokensHolder",
          "type": "address"
        },
        {
          "name": "_extraTokensPart",
          "type": "uint256"
        },
        {
          "name": "_timeSlices",
          "type": "uint256[]"
        },
        {
          "name": "_timePrices",
          "type": "uint256[]"
        }
      ],
      "payable": false,
      "stateMutability": "nonpayable",
      "type": "constructor"
    },
    {
      "payable": true,
      "stateMutability": "payable",
      "type": "fallback"
    },
    {
      "anonymous": false,
      "inputs": [
        {
          "indexed": true,
          "name": "purchaser",
          "type": "address"
        },
        {
          "indexed": true,
          "name": "beneficiary",
          "type": "address"
        },
        {
          "indexed": false,
          "name": "value",
          "type": "uint256"
        },
        {
          "indexed": false,
          "name": "amount",
          "type": "uint256"
        }
      ],
      "name": "TokenPurchase",
      "type": "event"
    },
    {
      "anonymous": false,
      "inputs": [
        {
          "indexed": true,
          "name": "beneficiary",
          "type": "address"
        },
        {
          "indexed": false,
          "name": "value",
          "type": "uint256"
        },
        {
          "indexed": false,
          "name": "amount",
          "type": "uint256"
        },
        {
          "indexed": false,
          "name": "timestamp",
          "type": "uint256"
        },
        {
          "indexed": true,
          "name": "bitcoinHash",
          "type": "bytes32"
        }
      ],
      "name": "HashSale",
      "type": "event"
    },
    {
      "anonymous": false,
      "inputs": [
        {
          "indexed": true,
          "name": "beneficiary",
          "type": "address"
        },
        {
          "indexed": true,
          "name": "allowedToken",
          "type": "address"
        },
        {
          "indexed": false,
          "name": "allowedTokenValue",
          "type": "uint256"
        },
        {
          "indexed": false,
          "name": "ethValue",
          "type": "uint256"
        },
        {
          "indexed": false,
          "name": "shipAmount",
          "type": "uint256"
        }
      ],
      "name": "TokenSell",
      "type": "event"
    },
    {
      "anonymous": false,
      "inputs": [
        {
          "indexed": true,
          "name": "owner",
          "type": "address"
        },
        {
          "indexed": false,
          "name": "amount",
          "type": "uint256"
        }
      ],
      "name": "ShipTokens",
      "type": "event"
    },
    {
      "anonymous": false,
      "inputs": [
        {
          "indexed": true,
          "name": "sender",
          "type": "address"
        },
        {
          "indexed": false,
          "name": "message",
          "type": "string"
        }
      ],
      "name": "Debug",
      "type": "event"
    },
    {
      "anonymous": false,
      "inputs": [
        {
          "indexed": true,
          "name": "owner",
          "type": "address"
        }
      ],
      "name": "AccessGrant",
      "type": "event"
    },
    {
      "anonymous": false,
      "inputs": [
        {
          "indexed": true,
          "name": "owner",
          "type": "address"
        }
      ],
      "name": "AccessRevoke",
      "type": "event"
    }
  ],
  "bytecode": "0x606060405234156200001057600080fd5b604051620058b0380380620058b08339810160405280805191906020018051919060200180519190602001805191906020018051820191906020018051600160a060020a0333166000818152602081905260408120805460ff191660019081179091558054600160a060020a03191690921782559190930192620000ae9250908190818180828181808264010000000062001b71620001c682021704565b620000c78564010000000062000e4e6200037682021704565b620000ef600142034262278d0001620005656401000000000262002c4e176401000000009004565b620001088664010000000062002de06200079982021704565b62000121336401000000006200344d620008a382021704565b6200013b84846401000000006200271f620009ad82021704565b62000165674563918244f40000678ac7230489e800006401000000006200329d62000b9c82021704565b620001a06200018c670de0b6b3a7640000606464010000000062003d2962000d3882021704565b64010000000062002b6062000d5082021704565b620001ba82826401000000006200103e62000e1582021704565b5050505050506200162e565b600080601a5460ff166004811115620001db57fe5b14620001e657600080fd5b600160a060020a03331660009081526020819052604090205460ff1615156001146200021157600080fd5b8b600160146101000a81548160ff0219169083151502179055508a600160156101000a81548160ff02191690831515021790555089600160166101000a81548160ff02191690831515021790555088600160176101000a81548160ff02191690831515021790555087600160186101000a81548160ff02191690831515021790555086600160196101000a81548160ff021916908315150217905550856001601a6101000a81548160ff021916908315150217905550846001601b6101000a81548160ff021916908315150217905550836001601c6101000a81548160ff021916908315150217905550826001601d6101000a81548160ff021916908315150217905550600160189054906101000a900460ff16806200032e5750815b600180549115157e010000000000000000000000000000000000000000000000000000000000000260f060020a60ff0219909216919091179055505050505050505050505050565b600080601a5460ff1660048111156200038b57fe5b146200039657600080fd5b600160a060020a03331660009081526020819052604090205460ff161515600114620003c157600080fd5b600d8054600160a060020a031916600160a060020a0384811691909117918290551663313ce5676000604051602001526040518163ffffffff167c0100000000000000000000000000000000000000000000000000000000028152600401602060405180830381600087803b15156200043957600080fd5b6102c65a03f115156200044b57600080fd5b5050506040518051600e5550600160a060020a0333166000805160206200589083398151915260405160208082526009908201527f4e657720546f6b656e00000000000000000000000000000000000000000000006040808301919091526060909101905180910390a2600160a060020a03331660008051602062005890833981519152620004e884640100000000620020706200111882021704565b60405160208082528190810183818151815260200191508051906020019080838360005b83811015620005265780820151838201526020016200050c565b50505050905090810190601f168015620005545780820380516001836020036101000a031916815260200191505b509250505060405180910390a25050565b600080601a5460ff1660048111156200057a57fe5b146200058557600080fd5b600160a060020a03331660009081526020819052604090205460ff161515600114620005b057600080fd5b818310620005bd57600080fd5b428211620005ca57600080fd5b60118390556012829055600160a060020a033316600080516020620058908339815191526200063b60408051908101604052600c81527f53746172742054696d653a2000000000000000000000000000000000000000006020820152866401000000006200310f620012ae82021704565b60405160208082528190810183818151815260200191508051906020019080838360005b83811015620006795780820151838201526020016200065f565b50505050905090810190601f168015620006a75780820380516001836020036101000a031916815260200191505b509250505060405180910390a233600160a060020a0316600080516020620058908339815191526200071b60408051908101604052600a81527f456e642054696d653a20000000000000000000000000000000000000000000006020820152856401000000006200310f620012ae82021704565b60405160208082528190810183818151815260200191508051906020019080838360005b83811015620007595780820151838201526020016200073f565b50505050905090810190601f168015620007875780820380516001836020036101000a031916815260200191505b509250505060405180910390a2505050565b600080601a5460ff166004811115620007ae57fe5b14620007b957600080fd5b600160a060020a03331660009081526020819052604090205460ff161515600114620007e457600080fd5b600160a060020a0382161515620007fa57600080fd5b60058054600160a060020a031916600160a060020a03848116919091179091553316600080516020620058908339815191526040516020808252600c908201527f4e657720526567697374727900000000000000000000000000000000000000006040808301919091526060909101905180910390a2600160a060020a03331660008051602062005890833981519152620004e884640100000000620020706200111882021704565b600080601a5460ff166004811115620008b857fe5b14620008c357600080fd5b600160a060020a03331660009081526020819052604090205460ff161515600114620008ee57600080fd5b600160a060020a03821615156200090457600080fd5b60138054600160a060020a031916600160a060020a03848116919091179091553316600080516020620058908339815191526040516020808252600a908201527f4e65772057616c6c6574000000000000000000000000000000000000000000006040808301919091526060909101905180910390a2600160a060020a03331660008051602062005890833981519152620004e884640100000000620020706200111882021704565b600080601a5460ff166004811115620009c257fe5b14620009cd57600080fd5b600160a060020a03331660009081526020819052604090205460ff161515600114620009f857600080fd5b600160a060020a038316151562000a0e57600080fd5b60178054600160a060020a031916600160a060020a0385811691909117909155601883905533166000805160206200589083398151915260405160208082526017908201527f4e657720457874726120546f6b656e7320486f6c6465720000000000000000006040808301919091526060909101905180910390a2600160a060020a0333166000805160206200589083398151915262000abc85640100000000620020706200111882021704565b60405160208082528190810183818151815260200191508051906020019080838360005b8381101562000afa57808201518382015260200162000ae0565b50505050905090810190601f16801562000b285780820380516001836020036101000a031916815260200191505b509250505060405180910390a233600160a060020a0316600080516020620058908339815191526200071b60408051908101604052601781527f4e657720457874726120546f6b656e7320506172743a200000000000000000006020820152856401000000006200310f620012ae82021704565b600080601a5460ff16600481111562000bb157fe5b1462000bbc57600080fd5b600160a060020a03331660009081526020819052604090205460ff16151560011462000be757600080fd5b60158290556016839055600160a060020a0333166000805160206200589083398151915262000c5860408051908101604052600a81527f536f6674204361703a20000000000000000000000000000000000000000000006020820152866401000000006200310f620012ae82021704565b60405160208082528190810183818151815260200191508051906020019080838360005b8381101562000c9657808201518382015260200162000c7c565b50505050905090810190601f16801562000cc45780820380516001836020036101000a031916815260200191505b509250505060405180910390a233600160a060020a0316600080516020620058908339815191526200071b60408051908101604052600a81527f48617264204361703a20000000000000000000000000000000000000000000006020820152856401000000006200310f620012ae82021704565b600080828481151562000d4757fe5b04949350505050565b600080601a5460ff16600481111562000d6557fe5b1462000d7057600080fd5b600160a060020a03331660009081526020819052604090205460ff16151560011462000d9b57600080fd5b6000821162000da957600080fd5b6014829055600160a060020a03331660008051602062005890833981519152620004e860408051908101604052600b81527f4e65772050726963653a200000000000000000000000000000000000000000006020820152856401000000006200310f620012ae82021704565b6000808080601a5460ff16600481111562000e2c57fe5b1462000e3757600080fd5b600160a060020a03331660009081526020819052604090205460ff16151560011462000e6257600080fd5b600b541562000e7057600080fd5b600185511162000e7f57600080fd5b845184511462000e8e57600080fd5b60009250600091505b84518210156200110b578285838151811062000eaf57fe5b90602001906020020151101562000ec557600080fd5b84828151811062000ed257fe5b906020019060200201519250600a805480600101828162000ef49190620015cc565b50600091825260209091200183905583828151811062000f1057fe5b90602001906020020151600960008581526020019081526020016000208190555033600160a060020a03166000805160206200589083398151915262000fae60408051908101604052601081527f4164642074696d6520626f6e75733a2000000000000000000000000000000000602082015287868151811062000f9057fe5b906020019060200201516401000000006200310f620012ae82021704565b60405160208082528190810183818151815260200191508051906020019080838360005b8381101562000fec57808201518382015260200162000fd2565b50505050905090810190601f1680156200101a5780820380516001836020036101000a031916815260200191505b509250505060405180910390a233600160a060020a0316600080516020620058908339815191526200108660408051908101604052600a81527f417420736c6963653a2000000000000000000000000000000000000000000000602082015288868151811062000f9057fe5b60405160208082528190810183818151815260200191508051906020019080838360005b83811015620010c4578082015183820152602001620010aa565b50505050905090810190601f168015620010f25780820380516001836020036101000a031916815260200191505b509250505060405180910390a260019091019062000e97565b5050600a54600b55505050565b62001122620015f8565b6200112c620015f8565b6000806000806028604051805910620011425750595b818152601f19601f830116810160200160405290509450600093505b6014841015620012a3578360130360080260020a87600160a060020a03168115156200118657fe5b047f01000000000000000000000000000000000000000000000000000000000000000292506010837f0100000000000000000000000000000000000000000000000000000000000000900460ff16811515620011de57fe5b047f01000000000000000000000000000000000000000000000000000000000000009081029250808304601002818504030290506200122b82640100000000620014dd8102620021db1704565b8585600202815181106200123b57fe5b906020010190600160f860020a031916908160001a9053506200126c81640100000000620021db620014dd82021704565b8585600202600101815181106200127f57fe5b906020010190600160f860020a031916908160001a9053506001909301926200115e565b509295945050505050565b620012b8620015f8565b6000620012c4620015f8565b600080620012d1620015f8565b620012db620015f8565b60006064965086604051805910620012f05750595b818152601f19601f830116810160200160405290509550600094505b88156200137657600a89069350600a89049850836030017f0100000000000000000000000000000000000000000000000000000000000000028686806001019750815181106200135857fe5b906020010190600160f860020a031916908160001a9053506200130c565b899250848351016040518059106200138b5750595b818152601f19601f830116810160200160405290509150600090505b82518110156200143657828181518110620013be57fe5b01602001517f010000000000000000000000000000000000000000000000000000000000000090047f0100000000000000000000000000000000000000000000000000000000000000028282815181106200141557fe5b906020010190600160f860020a031916908160001a905350600101620013a7565b5060005b84811015620014d05785816001870303815181106200145557fe5b01602001517f010000000000000000000000000000000000000000000000000000000000000090047f010000000000000000000000000000000000000000000000000000000000000002828451830181518110620014af57fe5b906020010190600160f860020a031916908160001a9053506001016200143a565b5098975050505050505050565b60007f0a000000000000000000000000000000000000000000000000000000000000007fff00000000000000000000000000000000000000000000000000000000000000831610156200157b57817f010000000000000000000000000000000000000000000000000000000000000090046030017f0100000000000000000000000000000000000000000000000000000000000000029050620015c7565b817f010000000000000000000000000000000000000000000000000000000000000090046057017f01000000000000000000000000000000000000000000000000000000000000000290505b919050565b815481835581811511620015f357600083815260209020620015f39181019083016200160a565b505050565b60206040519081016040526000815290565b6200162b91905b8082111562001627576000815560010162001611565b5090565b90565b614252806200163e6000396000f3006060604052600436106103555763ffffffff60e060020a600035041663144fa6d7811461036057806317d861441461037f578063205513f3146103b257806321309ae3146103da57806327937160146104695780632a37eaea1461047c5780632c1fecfe146104a45780632cdb8eec146104b75780633197cbb6146104d95780633647b084146104ec57806338a1187d1461057b5780633b97e856146105c75780633d4efe09146105da5780634042b66f1461060c57806341593ae91461061f5780634b77156214610644578063521eb273146106915780635551d1b7146106a45780635581800c146106b757806355e22956146106ca5780635c7460d6146106f55780635ce8ec24146107085780635e57966d1461071e578063611b4095146107b4578063641f3b46146107c757806369f9ad2f146107da57806370284d191461084757806374a8f10314610866578063756abb981461088557806375f7e6f0146108985780637862affa146108ab57806378e97925146108c157806380c2cc38146108d4578063852a7d6c146108f35780638727b7fc146109155780638c72c54e1461092b5780638f32d59b1461093e5780638f4ffcb114610951578063906a26e0146109bd57806391b7f5ed146109d057806393545a79146109e65780639b19251a146109f9578063a0355eca14610a18578063a035b1fe14610a31578063a91ee0dc14610a44578063b2a1de2214610a63578063b47be3e414610a76578063b761abf314610a9b578063bf7f10fe14610aba578063bffa55d514610acd578063c19d93fb14610aec578063c448fa8514610b23578063c6a7d3af14610b36578063c80667e314610b58578063c82829e014610bab578063d036261f14610bc4578063d256630314610bda578063d69c927514610bf9578063de7682a814610c0c578063deaa59df14610c22578063e0e3671c14610c41578063e17c3a0814610c60578063e3b6040e14610c73578063e56f381514610c86578063e744092e14610c99578063e75bf82014610cb8578063e939567914610ccb578063ec8ac4d814610ce1578063ef11e55b14610cf5578063f45b4fba14610d08578063f967c9eb14610d34578063fa89401a14610d53578063fb86a40414610d72578063fc0c546a14610d85578063ffa1ad7414610d98575b61035e33610dab565b005b341561036b57600080fd5b61035e600160a060020a0360043516610e4e565b341561038a57600080fd5b61039e600160a060020a036004351661100a565b604051901515815260200160405180910390f35b34156103bd57600080fd5b6103c860043561101f565b60405190815260200160405180910390f35b34156103e557600080fd5b61035e60046024813581810190830135806020818102016040519081016040528093929190818152602001838360200280828437820191505050505050919080359060200190820180359060200190808060200260200160405190810160405280939291908181526020018383602002808284375094965061103e95505050505050565b341561047457600080fd5b6103c8611318565b341561048757600080fd5b61035e600160a060020a036004351660243560443560643561131e565b34156104af57600080fd5b61039e6113db565b34156104c257600080fd5b61035e600160a060020a03600435166024356113eb565b34156104e457600080fd5b6103c8611431565b34156104f757600080fd5b61035e60046024813581810190830135806020818102016040519081016040528093929190818152602001838360200280828437820191505050505050919080359060200190820180359060200190808060200260200160405190810160405280939291908181526020018383602002808284375094965061143795505050505050565b341561058657600080fd5b6105a3600160a060020a03600435166024356044356064356116f5565b60405180848152602001838152602001828152602001935050505060405180910390f35b34156105d257600080fd5b6103c8611b20565b34156105e557600080fd5b6105f0600435611b26565b604051600160a060020a03909116815260200160405180910390f35b341561061757600080fd5b6103c8611b4e565b341561062a57600080fd5b6103c8600160a060020a0360043581169060243516611b54565b341561064f57600080fd5b61035e6004351515602435151560443515156064351515608435151560a435151560c435151560e4351515610104351515610124351515610144351515611b71565b341561069c57600080fd5b6105f0611d1a565b34156106af57600080fd5b61039e611d29565b34156106c257600080fd5b61039e611d50565b34156106d557600080fd5b61039e600160a060020a0360043516602435604435606435608435611d7a565b341561070057600080fd5b6105f0612053565b341561071357600080fd5b6103c8600435612062565b341561072957600080fd5b61073d600160a060020a0360043516612070565b60405160208082528190810183818151815260200191508051906020019080838360005b83811015610779578082015183820152602001610761565b50505050905090810190601f1680156107a65780820380516001836020036101000a031916815260200191505b509250505060405180910390f35b34156107bf57600080fd5b61039e612194565b34156107d257600080fd5b61039e6121b5565b34156107e557600080fd5b6108127fff00000000000000000000000000000000000000000000000000000000000000600435166121db565b6040517fff00000000000000000000000000000000000000000000000000000000000000909116815260200160405180910390f35b341561085257600080fd5b61035e600160a060020a0360043516612258565b341561087157600080fd5b61035e600160a060020a03600435166122d5565b341561089057600080fd5b6103c861238b565b34156108a357600080fd5b61035e612391565b34156108b657600080fd5b6103c8600435612689565b34156108cc57600080fd5b6103c86126fe565b34156108df57600080fd5b6105f0600160a060020a0360043516612704565b34156108fe57600080fd5b61035e600160a060020a036004351660243561271f565b341561092057600080fd5b6103c860043561295f565b341561093657600080fd5b6105f06129ce565b341561094957600080fd5b61039e6129dd565b341561095c57600080fd5b61035e60048035600160a060020a0390811691602480359260443516919060849060643590810190830135806020601f82018190048102016040519081016040528181529291906020840183838082843750949650612a0d95505050505050565b34156109c857600080fd5b6103c8612b5a565b34156109db57600080fd5b61035e600435612b60565b34156109f157600080fd5b61039e612c10565b3415610a0457600080fd5b6105f0600160a060020a0360043516612c33565b3415610a2357600080fd5b61035e600435602435612c4e565b3415610a3c57600080fd5b6103c8612dda565b3415610a4f57600080fd5b61035e600160a060020a0360043516612de0565b3415610a6e57600080fd5b6103c8612ed4565b3415610a8157600080fd5b61035e600160a060020a0360043516602435604435612eda565b3415610aa657600080fd5b6103c8600160a060020a0360043516612fbc565b3415610ac557600080fd5b61039e612fce565b3415610ad857600080fd5b61039e600160a060020a0360043516612fde565b3415610af757600080fd5b610aff61307b565b60405180826004811115610b0f57fe5b60ff16815260200191505060405180910390f35b3415610b2e57600080fd5b61039e613084565b3415610b4157600080fd5b61035e600160a060020a0360043516602435613094565b3415610b6357600080fd5b61073d60046024813581810190830135806020601f82018190048102016040519081016040528181529291906020840183838082843750949650509335935061310f92505050565b3415610bb657600080fd5b61035e60043560243561329d565b3415610bcf57600080fd5b6103c8600435613411565b3415610be557600080fd5b6103c8600160a060020a0360043516613423565b3415610c0457600080fd5b6103c8613435565b3415610c1757600080fd5b6103c860043561343b565b3415610c2d57600080fd5b61035e600160a060020a036004351661344d565b3415610c4c57600080fd5b61039e600160a060020a0360043516613541565b3415610c6b57600080fd5b61039e613571565b3415610c7e57600080fd5b6103c8613581565b3415610c9157600080fd5b61039e613587565b3415610ca457600080fd5b6105f0600160a060020a03600435166135a9565b3415610cc357600080fd5b6105f06135c4565b3415610cd657600080fd5b61073d6004356135d3565b61035e600160a060020a0360043516610dab565b3415610d0057600080fd5b61039e6136f7565b3415610d1357600080fd5b61035e600160a060020a03600435811690602435906044351660643561371b565b3415610d3f57600080fd5b6103c8600160a060020a03600435166137b8565b3415610d5e57600080fd5b61035e600160a060020a03600435166137ca565b3415610d7d57600080fd5b6103c8613830565b3415610d9057600080fd5b6105f0613836565b3415610da357600080fd5b6103c8613845565b6000600180601a5460ff166004811115610dc157fe5b14610dcb57600080fd5b33600160a060020a031660008051602061420783398151915260405160208082526010908201527f53746172742062757920746f6b656e73000000000000000000000000000000006040808301919091526060909101905180910390a2610e32833461384a565b915060008211610e4157600080fd5b610e49613c6e565b505050565b600080601a5460ff166004811115610e6257fe5b14610e6c57600080fd5b600160a060020a03331660009081526020819052604090205460ff161515600114610e9657600080fd5b600d8054600160a060020a031916600160a060020a0384811691909117918290551663313ce5676000604051602001526040518163ffffffff1660e060020a028152600401602060405180830381600087803b1515610ef457600080fd5b6102c65a03f11515610f0557600080fd5b5050506040518051600e5550600160a060020a03331660008051602061420783398151915260405160208082526009908201527f4e657720546f6b656e00000000000000000000000000000000000000000000006040808301919091526060909101905180910390a233600160a060020a0316600080516020614207833981519152610f9084612070565b60405160208082528190810183818151815260200191508051906020019080838360005b83811015610fcc578082015183820152602001610fb4565b50505050905090810190601f168015610ff95780820380516001836020036101000a031916815260200191505b509250505060405180910390a25050565b601f6020526000908152604090205460ff1681565b600a80548290811061102d57fe5b600091825260209091200154905081565b6000808080601a5460ff16600481111561105457fe5b1461105e57600080fd5b600160a060020a03331660009081526020819052604090205460ff16151560011461108857600080fd5b600b541561109557600080fd5b60018551116110a357600080fd5b84518451146110b157600080fd5b60009250600091505b845182101561130b57828583815181106110d057fe5b9060200190602002015110156110e557600080fd5b8482815181106110f157fe5b906020019060200201519250600a80548060010182816111119190613ed5565b50600091825260209091200183905583828151811061112c57fe5b90602001906020020151600960008581526020019081526020016000208190555033600160a060020a03166000805160206142078339815191526111b860408051908101604052601081527f4164642074696d6520626f6e75733a200000000000000000000000000000000060208201528786815181106111a957fe5b9060200190602002015161310f565b60405160208082528190810183818151815260200191508051906020019080838360005b838110156111f45780820151838201526020016111dc565b50505050905090810190601f1680156112215780820380516001836020036101000a031916815260200191505b509250505060405180910390a233600160a060020a031660008051602061420783398151915261128a60408051908101604052600a81527f417420736c6963653a200000000000000000000000000000000000000000000060208201528886815181106111a957fe5b60405160208082528190810183818151815260200191508051906020019080838360005b838110156112c65780820151838201526020016112ae565b50505050905090810190601f1680156112f35780820380516001836020036101000a031916815260200191505b509250505060405180910390a26001909101906110ba565b5050600a54600b55505050565b601c5481565b6000600180601a5460ff16600481111561133457fe5b1461133e57600080fd5b600160a060020a03331660009081526020819052604090205460ff16151560011461136857600080fd5b611372868661384a565b91506000821161138157600080fd5b82600160a060020a0387167f7c8f7476d7c48fb598c2faeaa38296073548801f143f6a518170ba5d957ceb0487858860405180848152602001838152602001828152602001935050505060405180910390a3505050505050565b60015460c060020a900460ff1681565b600160a060020a03331660009081526020819052604090205460ff16151560011461141557600080fd5b600160a060020a03909116600090815260106020526040902055565b60125481565b6000808080601a5460ff16600481111561144d57fe5b1461145757600080fd5b600160a060020a03331660009081526020819052604090205460ff16151560011461148157600080fd5b600185511161148f57600080fd5b845184511461149d57600080fd5b60009250600091505b84518210156116e857828583815181106114bc57fe5b9060200190602002015110156114d157600080fd5b8482815181106114dd57fe5b906020019060200201519250600780548060010182816114fd9190613ed5565b50600091825260209091200183905583828151811061151857fe5b90602001906020020151600660008581526020019081526020016000208190555033600160a060020a031660008051602061420783398151915261159560408051908101604052601281527f41646420616d6f756e7420626f6e75733a20000000000000000000000000000060208201528786815181106111a957fe5b60405160208082528190810183818151815260200191508051906020019080838360005b838110156115d15780820151838201526020016115b9565b50505050905090810190601f1680156115fe5780820380516001836020036101000a031916815260200191505b509250505060405180910390a233600160a060020a031660008051602061420783398151915261166760408051908101604052600a81527f417420736c6963653a200000000000000000000000000000000000000000000060208201528886815181106111a957fe5b60405160208082528190810183818151815260200191508051906020019080838360005b838110156116a357808201518382015260200161168b565b50505050905090810190601f1680156116d05780820380516001836020036101000a031916815260200191505b509250505060405180910390a26001909101906114a6565b5050600754600855505050565b6000806000806000806000809150601154891080611714575060125489115b156117285760009650869550859450611b12565b600154760100000000000000000000000000000000000000000000900460ff161561185e576117666117598b61295f565b839063ffffffff613cd616565b915033600160a060020a03166000805160206142078339815191526117e7606060405190810160405280602381526020017f43616c63756c6174656420616d6f756e7420646570656e64656e7420626f6e7581526020017f733a2000000000000000000000000000000000000000000000000000000000008152508561310f565b60405160208082528190810183818151815260200191508051906020019080838360005b8381101561182357808201518382015260200161180b565b50505050905090810190601f1680156118505780820380516001836020036101000a031916815260200191505b509250505060405180910390a25b60015477010000000000000000000000000000000000000000000000900460ff1615611a6b5733600160a060020a03166000805160206142078339815191526118ed60408051908101604052601981527f43616c63756c6174652074696d6520626f6e75732061743a200000000000000060208201526011546118e8908e9063ffffffff613cec16565b61310f565b60405160208082528190810183818151815260200191508051906020019080838360005b83811015611929578082015183820152602001611911565b50505050905090810190601f1680156119565780820380516001836020036101000a031916815260200191505b509250505060405180910390a26119736117596011548b03612689565b915033600160a060020a03166000805160206142078339815191526119f4606060405190810160405280602181526020017f43616c63756c617465642074696d6520646570656e64656e7420626f6e75733a81526020017f20000000000000000000000000000000000000000000000000000000000000008152508561310f565b60405160208082528190810183818151815260200191508051906020019080838360005b83811015611a30578082015183820152602001611a18565b50505050905090810190601f168015611a5d5780820380516001836020036101000a031916815260200191505b509250505060405180910390a25b611a95601454611a89600e54600a0a8d613cfe90919063ffffffff16565b9063ffffffff613d2916565b93506000821115611ac957611ac6611ab9612710611a89878663ffffffff613cfe16565b859063ffffffff613cd616565b93505b60015460d860020a900460ff1615611af957611af6612710611a8960185487613cfe90919063ffffffff16565b90505b611b09848263ffffffff613cd616565b84829650965096505b505050509450945094915050565b600e5481565b6003805482908110611b3457fe5b600091825260209091200154600160a060020a0316905081565b60195481565b601e60209081526000928352604080842090915290825290205481565b600080601a5460ff166004811115611b8557fe5b14611b8f57600080fd5b600160a060020a03331660009081526020819052604090205460ff161515600114611bb957600080fd5b8b600160146101000a81548160ff0219169083151502179055508a600160156101000a81548160ff02191690831515021790555089600160166101000a81548160ff02191690831515021790555088600160176101000a81548160ff02191690831515021790555087600160186101000a81548160ff02191690831515021790555086600160196101000a81548160ff021916908315150217905550856001601a6101000a81548160ff021916908315150217905550846001601b6101000a81548160ff021916908315150217905550836001601c6101000a81548160ff021916908315150217905550826001601d6101000a81548160ff021916908315150217905550600160189054906101000a900460ff1680611cd55750815b6001805491151560f060020a027fff00ffffffffffffffffffffffffffffffffffffffffffffffffffffffffffff909216919091179055505050505050505050505050565b601354600160a060020a031681565b6001547a010000000000000000000000000000000000000000000000000000900460ff1681565b6001547d010000000000000000000000000000000000000000000000000000000000900460ff1681565b600080600080600160159054906101000a900460ff168015611e0d5750600554600160a060020a031663a75df8148a60006040516020015260405160e060020a63ffffffff8416028152600160a060020a039091166004820152602401602060405180830381600087803b1515611df057600080fd5b6102c65a03f11515611e0157600080fd5b50505060405180519050155b15611e1b5760009350612047565b600160a060020a0389166000908152601b6020526040902054611e44908863ffffffff613cd616565b601c54909350611e5a908663ffffffff613cd616565b60015490925074010000000000000000000000000000000000000000900460ff1615611fd95750600160a060020a038089166000908152600260205260408082205490921691829163b1b3d3f69151602001526040518163ffffffff1660e060020a028152600401602060405180830381600087803b1515611edb57600080fd5b6102c65a03f11515611eec57600080fd5b505050604051805190501580611f6157508281600160a060020a031663f88979456000604051602001526040518163ffffffff1660e060020a028152600401602060405180830381600087803b1515611f4457600080fd5b6102c65a03f11515611f5557600080fd5b50505060405180519050115b80611fcb57508281600160a060020a0316636ac5db196000604051602001526040518163ffffffff1660e060020a028152600401602060405180830381600087803b1515611fae57600080fd5b6102c65a03f11515611fbf57600080fd5b50505060405180519050105b15611fd95760009350612047565b6001547d010000000000000000000000000000000000000000000000000000000000900460ff161561202f5760155460195461201b908a63ffffffff613cd616565b111561202a5760009350612047565b612042565b6015548211156120425760009350612047565b600193505b50505095945050505050565b600554600160a060020a031681565b600780548290811061102d57fe5b612078613ef9565b612080613ef9565b60008060008060286040518059106120955750595b818152601f19601f830116810160200160405290509450600093505b6014841015612189578360130360080260020a87600160a060020a03168115156120d757fe5b0460f860020a02925060108360f860020a900460ff168115156120f657fe5b0460f860020a0291508160f860020a90046010028360f860020a90040360f860020a029050612124826121db565b85856002028151811061213357fe5b906020010190600160f860020a031916908160001a905350612154816121db565b85856002026001018151811061216657fe5b906020010190600160f860020a031916908160001a9053506001909301926120b1565b509295945050505050565b60015474010000000000000000000000000000000000000000900460ff1681565b600154790100000000000000000000000000000000000000000000000000900460ff1681565b60007f0a000000000000000000000000000000000000000000000000000000000000007fff000000000000000000000000000000000000000000000000000000000000008316101561223f578160f860020a900460300160f860020a029050612253565b8160f860020a900460570160f860020a0290505b919050565b600160a060020a03331660009081526020819052604090205460ff16151560011461228257600080fd5b600160a060020a03811660008181526020819052604090819020805460ff191660011790557f1350a997c6c86bcc51dd7e51f7ef618d620e6a85d8fdabb82a980c149ad88d47905160405180910390a250565b600160a060020a03331660009081526020819052604090205460ff1615156001146122ff57600080fd5b600154600160a060020a038281169116141561231a57600080fd5b80600160a060020a031633600160a060020a03161415151561233b57600080fd5b600160a060020a03811660008181526020819052604090819020805460ff191690557f1d1eff42eefbeecfca7e39f8adb5d7f19a7ebbb4c3e82c51f2500d7d76ab2468905160405180910390a250565b600b5481565b600080601a5460ff1660048111156123a557fe5b146123af57600080fd5b600160a060020a03331660009081526020819052604090205460ff1615156001146123d957600080fd5b601254601154106123e957600080fd5b6012544290116123f857600080fd5b6014546000901161240857600080fd5b601354600160a060020a0316151561241f57600080fd5b600d54600160a060020a0316151561243657600080fd5b6001547501000000000000000000000000000000000000000000900460ff161561247157600554600160a060020a0316151561247157600080fd5b600154760100000000000000000000000000000000000000000000900460ff16156124a657600854600090116124a657600080fd5b60015477010000000000000000000000000000000000000000000000900460ff16156124dc57600b54600090116124dc57600080fd5b60015460d860020a900460ff161561250557601754600160a060020a0316151561250557600080fd5b60015460e060020a900460ff16156125a057601554600d54600160a060020a03166370a082313060006040516020015260405160e060020a63ffffffff8416028152600160a060020a039091166004820152602401602060405180830381600087803b151561257357600080fd5b6102c65a03f1151561258457600080fd5b505050604051805190501015151561259b57600080fd5b61261c565b600d54600160a060020a033081169116638da5cb5b6000604051602001526040518163ffffffff1660e060020a028152600401602060405180830381600087803b15156125ec57600080fd5b6102c65a03f115156125fd57600080fd5b50505060405180519050600160a060020a031614151561261c57600080fd5b601a805460ff19166001179055600160a060020a03331660008051602061420783398151915260405160208082526007908201527f53616e65206974000000000000000000000000000000000000000000000000006040808301919091526060909101905180910390a250565b600080805b600a548110156126f75760096000600a838154811015156126ab57fe5b906000526020600020900154815260200190815260200160002054915083600a828154811015156126d857fe5b90600052602060002090015411156126ef576126f7565b60010161268e565b5092915050565b60115481565b600c60205260009081526040902054600160a060020a031681565b600080601a5460ff16600481111561273357fe5b1461273d57600080fd5b600160a060020a03331660009081526020819052604090205460ff16151560011461276757600080fd5b600160a060020a038316151561277c57600080fd5b60178054600160a060020a031916600160a060020a03858116919091179091556018839055331660008051602061420783398151915260405160208082526017908201527f4e657720457874726120546f6b656e7320486f6c6465720000000000000000006040808301919091526060909101905180910390a233600160a060020a031660008051602061420783398151915261281885612070565b60405160208082528190810183818151815260200191508051906020019080838360005b8381101561285457808201518382015260200161283c565b50505050905090810190601f1680156128815780820380516001836020036101000a031916815260200191505b509250505060405180910390a233600160a060020a03166000805160206142078339815191526128e460408051908101604052601781527f4e657720457874726120546f6b656e7320506172743a2000000000000000000060208201528561310f565b60405160208082528190810183818151815260200191508051906020019080838360005b83811015612920578082015183820152602001612908565b50505050905090810190601f16801561294d5780820380516001836020036101000a031916815260200191505b509250505060405180910390a2505050565b600080805b6007548110156126f7578360078281548110151561297e57fe5b9060005260206000209001541115612995576126f7565b600660006007838154811015156129a857fe5b600091825260208083209091015483528201929092526040019020549150600101612964565b600154600160a060020a031681565b600160a060020a03331660009081526020819052604081205460ff16612a04576000612a07565b60015b90505b90565b600160a060020a038281166000908152600f602052604081205490918291161515612a3757600080fd5b600160a060020a038085166000908152600f602052604080822054612adc93169163313ce5679151602001526040518163ffffffff1660e060020a028152600401602060405180830381600087803b1515612a9157600080fd5b6102c65a03f11515612aa257600080fd5b5050506040518051600160a060020a038716600090815260106020526040902054600a9190910a9150611a8990889063ffffffff613cfe16565b9150612ae8868361384a565b905060008111612af757600080fd5b83600160a060020a031686600160a060020a03167f8f9e1c6f80a0fd25dc246f3b0a51422fce2a5f211d4f9877c7ec20b6499c939f87858560405180848152602001838152602001828152602001935050505060405180910390a3505050505050565b60165481565b600080601a5460ff166004811115612b7457fe5b14612b7e57600080fd5b600160a060020a03331660009081526020819052604090205460ff161515600114612ba857600080fd5b60008211612bb557600080fd5b6014829055600160a060020a033316600080516020614207833981519152610f9060408051908101604052600b81527f4e65772050726963653a2000000000000000000000000000000000000000000060208201528561310f565b600154760100000000000000000000000000000000000000000000900460ff1681565b600260205260009081526040902054600160a060020a031681565b600080601a5460ff166004811115612c6257fe5b14612c6c57600080fd5b600160a060020a03331660009081526020819052604090205460ff161515600114612c9657600080fd5b818310612ca257600080fd5b428211612cae57600080fd5b60118390556012829055600160a060020a033316600080516020614207833981519152612d0e60408051908101604052600c81527f53746172742054696d653a20000000000000000000000000000000000000000060208201528661310f565b60405160208082528190810183818151815260200191508051906020019080838360005b83811015612d4a578082015183820152602001612d32565b50505050905090810190601f168015612d775780820380516001836020036101000a031916815260200191505b509250505060405180910390a233600160a060020a03166000805160206142078339815191526128e460408051908101604052600a81527f456e642054696d653a200000000000000000000000000000000000000000000060208201528561310f565b60145481565b600080601a5460ff166004811115612df457fe5b14612dfe57600080fd5b600160a060020a03331660009081526020819052604090205460ff161515600114612e2857600080fd5b600160a060020a0382161515612e3d57600080fd5b60058054600160a060020a031916600160a060020a038481169190911790915533166000805160206142078339815191526040516020808252600c908201527f4e657720526567697374727900000000000000000000000000000000000000006040808301919091526060909101905180910390a233600160a060020a0316600080516020614207833981519152610f9084612070565b60045481565b600160a060020a0383161515612eef57600080fd5b80821115612efc57600080fd5b801515612f175750701d6329f1c35ca4bfabb9f56100000000005b8181612f21613f0b565b918252602082015260409081019051809103906000f0801515612f4357600080fd5b600160a060020a0384811660009081526002602052604090208054600160a060020a031916929091169190911790556003805460018101612f848382613ed5565b5060009182526020909120018054600160a060020a031916600160a060020a0394909416939093179092555050600480546001019055565b601b6020526000908152604090205481565b60015460e060020a900460ff1681565b60015460009060c060020a900460ff161515612ff957600080fd5b600160a060020a0382166000908152601f602052604090205460ff168061303057506003601a5460ff16600481111561302e57fe5b145b151561303b57600080fd5b600160a060020a0382166000818152601d6020526040908190205480156108fc029151600060405180830381858888f19350505050151561225357600080fd5b601a5460ff1681565b60015460d860020a900460ff1681565b600080601a5460ff1660048111156130a857fe5b146130b257600080fd5b600160a060020a03331660009081526020819052604090205460ff1615156001146130dc57600080fd5b600160a060020a0383166000818152600f602052604090208054600160a060020a0319169091179055610e4983836113eb565b613117613ef9565b6000613121613ef9565b60008061312c613ef9565b613134613ef9565b600060649650866040518059106131485750595b818152601f19601f830116810160200160405290509550600094505b88156131af57600a89069350600a890498508360300160f860020a0286868060010197508151811061319257fe5b906020010190600160f860020a031916908160001a905350613164565b899250848351016040518059106131c35750595b818152601f19601f830116810160200160405290509150600090505b8251811015613232578281815181106131f457fe5b016020015160f860020a900460f860020a0282828151811061321257fe5b906020010190600160f860020a031916908160001a9053506001016131df565b5060005b8481101561329057858160018703038151811061324f57fe5b016020015160f860020a900460f860020a0282845183018151811061327057fe5b906020010190600160f860020a031916908160001a905350600101613236565b5098975050505050505050565b600080601a5460ff1660048111156132b157fe5b146132bb57600080fd5b600160a060020a03331660009081526020819052604090205460ff1615156001146132e557600080fd5b60158290556016839055600160a060020a03331660008051602061420783398151915261334560408051908101604052600a81527f536f6674204361703a200000000000000000000000000000000000000000000060208201528661310f565b60405160208082528190810183818151815260200191508051906020019080838360005b83811015613381578082015183820152602001613369565b50505050905090810190601f1680156133ae5780820380516001836020036101000a031916815260200191505b509250505060405180910390a233600160a060020a03166000805160206142078339815191526128e460408051908101604052600a81527f48617264204361703a200000000000000000000000000000000000000000000060208201528561310f565b60066020526000908152604090205481565b601d6020526000908152604090205481565b60185481565b60096020526000908152604090205481565b600080601a5460ff16600481111561346157fe5b1461346b57600080fd5b600160a060020a03331660009081526020819052604090205460ff16151560011461349557600080fd5b600160a060020a03821615156134aa57600080fd5b60138054600160a060020a031916600160a060020a038481169190911790915533166000805160206142078339815191526040516020808252600a908201527f4e65772057616c6c6574000000000000000000000000000000000000000000006040808301919091526060909101905180910390a233600160a060020a0316600080516020614207833981519152610f9084612070565b600160a060020a03811660009081526020819052604081205460ff1661356857600061356b565b60015b92915050565b60015460f060020a900460ff1681565b60085481565b6001547501000000000000000000000000000000000000000000900460ff1681565b600f60205260009081526040902054600160a060020a031681565b601754600160a060020a031681565b6135db613ef9565b60006135e5613ef9565b6000806135f0613ef9565b600060649550856040518059106136045750595b818152601f19601f830116810160200160405290509450600093505b871561366b57600a88069250600a880497508260300160f860020a0285858060010196508151811061364e57fe5b906020010190600160f860020a031916908160001a905350613620565b836040518059106136795750595b818152601f19601f830116810160200160405290509150600090505b838110156136ec5784816001860303815181106136ae57fe5b016020015160f860020a900460f860020a028282815181106136cc57fe5b906020010190600160f860020a031916908160001a905350600101613695565b509695505050505050565b60015477010000000000000000000000000000000000000000000000900460ff1681565b600160a060020a03331660009081526020819052604090205460ff16151560011461374557600080fd5b828282613750613f1b565b928352600160a060020a03909116602083015260408083019190915260609091019051809103906000f080151561378657600080fd5b600160a060020a039485166000908152600c602052604090208054600160a060020a0319169190951617909355505050565b60106020526000908152604090205481565b600160a060020a03331660009081526020819052604090205460ff1615156001146137f457600080fd5b60015460c060020a900460ff16151561380c57600080fd5b600160a060020a03166000908152601f60205260409020805460ff19166001179055565b60155481565b600d54600160a060020a031681565b600181565b6000808080600180601a5460ff16600481111561386357fe5b1461386d57600080fd5b33600160a060020a031660008051602061420783398151915260405160208082526011908201527f53746172742073656c6c20746f6b656e730000000000000000000000000000006040808301919091526060909101905180910390a2600d5461393c90889088904290600160a060020a03166318160ddd6000604051602001526040518163ffffffff1660e060020a028152600401602060405180830381600087803b151561391c57600080fd5b6102c65a03f1151561392d57600080fd5b505050604051805190506116f5565b90955093509150600160a060020a03331660008051602061420783398151915260405160208082526010908201527f43616c63756c61746520616d6f756e74000000000000000000000000000000006040808301919091526060909101905180910390a233600160a060020a03166000805160206142078339815191526139f660408051908101604052600781527f546f74616c3a200000000000000000000000000000000000000000000000000060208201528561310f565b60405160208082528190810183818151815260200191508051906020019080838360005b83811015613a32578082015183820152602001613a1a565b50505050905090810190601f168015613a5f5780820380516001836020036101000a031916815260200191505b509250505060405180910390a233600160a060020a0316600080516020614207833981519152613ac260408051908101604052600d81527f42656e65666963696172793a200000000000000000000000000000000000000060208201528761310f565b60405160208082528190810183818151815260200191508051906020019080838360005b83811015613afe578082015183820152602001613ae6565b50505050905090810190601f168015613b2b5780820380516001836020036101000a031916815260200191505b509250505060405180910390a2613b458787868686611d7a565b1515613b5057600080fd5b601954613b63908763ffffffff613cd616565b601955613b708785613d40565b86600160a060020a031633600160a060020a03167f623b3804fa71d67900d064613da8f94b9617215ee90799290593e1745087ad18888760405191825260208201526040908101905180910390a386600160a060020a03167f67066453570687eaa7bbfb5d6a5a6d901a7473f72563021e81204001241e7af78560405190815260200160405180910390a260015460d860020a900460ff1615613c6357601754613c2390600160a060020a031684613d40565b601754600160a060020a03167f67066453570687eaa7bbfb5d6a5a6d901a7473f72563021e81204001241e7af78460405190815260200160405180910390a25b509195945050505050565b60015460c060020a900460ff1615613ca057600160a060020a0333166000908152601d60205260409020349055613cd4565b601354600160a060020a03163480156108fc0290604051600060405180830381858888f193505050501515613cd457600080fd5b565b600082820183811015613ce557fe5b9392505050565b600082821115613cf857fe5b50900390565b600080831515613d1157600091506126f7565b50828202828482811515613d2157fe5b0414613ce557fe5b6000808284811515613d3757fe5b04949350505050565b600180601a5460ff166004811115613d5457fe5b14613d5e57600080fd5b60015460f060020a900460ff161515613e8b5760015460e060020a900460ff1615613e1057600d54600160a060020a03166323b872dd30858560006040516020015260405160e060020a63ffffffff8616028152600160a060020a0393841660048201529190921660248201526044810191909152606401602060405180830381600087803b1515613def57600080fd5b6102c65a03f11515613e0057600080fd5b5050506040518051905050613e8b565b600d54600160a060020a03166340c10f19848460006040516020015260405160e060020a63ffffffff8516028152600160a060020a0390921660048301526024820152604401602060405180830381600087803b1515613e6f57600080fd5b6102c65a03f11515613e8057600080fd5b505050604051805150505b600160a060020a0383166000908152601b6020526040902054613eb4908363ffffffff613cd616565b600160a060020a039093166000908152601b60205260409020929092555050565b815481835581811511610e4957600083815260209020610e49918101908301613f2b565b60206040519081016040526000815290565b60405161013e80613f4a83390190565b60405161017f8061408883390190565b612a0a91905b80821115613f455760008155600101613f31565b509056006060604052341561000f57600080fd5b60405160408061013e83398101604052808051919060200180516000805460ff1916600190811790915593909355505060025560ee806100506000396000f30060606040526004361060525763ffffffff7c01000000000000000000000000000000000000000000000000000000006000350416636ac5db1981146057578063b1b3d3f6146079578063f889794514609d575b600080fd5b3415606157600080fd5b606760ad565b60405190815260200160405180910390f35b3415608357600080fd5b608960b3565b604051901515815260200160405180910390f35b341560a757600080fd5b606760bc565b60025481565b60005460ff1681565b600154815600a165627a7a723058203d5da90037cf4bf34dd29bccc46e628d72d02782dcb995b1512726b8fd4c620600296060604052341561000f57600080fd5b60405160608061017f83398101604052808051919060200180519190602001805160008054600160a060020a03909516600160a060020a0319909516949094179093555050600255600155610116806100696000396000f30060606040526004361060525763ffffffff7c010000000000000000000000000000000000000000000000000000000060003504166329176e638114605757806363e0f8c714609057806375b4d78c1460b2575b600080fd5b3415606157600080fd5b606760c2565b60405173ffffffffffffffffffffffffffffffffffffffff909116815260200160405180910390f35b3415609a57600080fd5b60a060de565b60405190815260200160405180910390f35b341560bc57600080fd5b60a060e4565b60005473ffffffffffffffffffffffffffffffffffffffff1681565b60025481565b600154815600a165627a7a723058209d515ba69eeb76386c800fe61a95fa7f70729935affeb1e21013b78256f26afe0029043dde8a406bae2ac5a8f7a1abfb5836a348f2563d30428c735f5c2cc64ee7d6a165627a7a72305820c74344f1a6c6997353e69aa4b77418a0115d778b8ae889fe2cfff39884cd60950029043dde8a406bae2ac5a8f7a1abfb5836a348f2563d30428c735f5c2cc64ee7d6",
  "source": "pragma solidity ^0.4.15;\n\nimport './base/Crowdsale.sol';\n\ncontract AltCrowdsalePhaseOne is Crowdsale {\n  function AltCrowdsalePhaseOne(\n    address _registry,\n    address _token,\n    address _extraTokensHolder,\n    uint _extraTokensPart,\n    uint[] _timeSlices,\n    uint[] _timePrices\n  ) public\n  {\n    setFlags(\n      // Should be whitelisted to buy tokens\n      // _isWhitelisted,\n      true,\n      // Should be known user to buy tokens\n      // _isKnownOnly,\n      true,\n      // Enable amount bonuses in crowdsale? \n      // _isAmountBonus,\n      false,\n      // Enable early bird bonus in crowdsale?\n      // _isEarlyBonus,\n      true,\n      // Allow to refund money?\n      // _isRefundable,\n      false,\n      // Allow to buy tokens for another tokens?\n      // _isTokenExcange,\n      false,\n      // Allow to issue tokens with tx hash (ex bitcoin)\n      // _isAllowToIssue,\n      true,\n      // Should mint extra tokens for future distribution?\n      // _isExtraDistribution,\n      false,\n      // Will ship token via minting? \n      // _isMintingShipment,\n      true,\n      // Should be capped in ether\n      // bool _isCappedInEther,\n      true,\n      // Should beneficiaries pull their tokens? \n      // _isPullingTokens\n      false\n    );\n\n    setToken(_token); \n \n    setTime(block.timestamp - 1 seconds, block.timestamp + 30 days);\n\n    setRegistry(_registry);\n    setWallet(msg.sender);\n    setExtraDistribution(_extraTokensHolder, _extraTokensPart);\n\n    setSoftHardCaps(\n      5 ether, // soft\n      10 ether  // hard\n    );\n\n    // 200 ALT per 1 ETH\n    setPrice(uint(1 ether).div(100));\n\n    setTimeBonuses(_timeSlices, _timePrices);\n  }  \n} ",
  "sourcePath": "/Users/aler/crypto/altestate-3/contracts/AltCrowdsale.sol",
  "compiler": {
    "name": "solc",
    "version": "0.4.18+commit.9cf6e910.Emscripten.clang"
  },
  "schemaVersion": "1.0.1",
  "updatedAt": "2017-12-04T00:54:20.421Z"
}