{
  "contractName": "AltCrowdsalePhaseOne",
  "abi": [
    {
      "constant": false,
      "inputs": [
        {
          "name": "_tokenAddress",
          "type": "address"
        }
      ],
      "name": "setToken",
      "outputs": [],
      "payable": false,
      "stateMutability": "nonpayable",
      "type": "function"
    },
    {
      "constant": true,
      "inputs": [
        {
          "name": "",
          "type": "address"
        }
      ],
      "name": "claimRefundAllowance",
      "outputs": [
        {
          "name": "",
          "type": "bool"
        }
      ],
      "payable": false,
      "stateMutability": "view",
      "type": "function"
    },
    {
      "constant": true,
      "inputs": [
        {
          "name": "",
          "type": "uint256"
        }
      ],
      "name": "timeSlices",
      "outputs": [
        {
          "name": "",
          "type": "uint256"
        }
      ],
      "payable": false,
      "stateMutability": "view",
      "type": "function"
    },
    {
      "constant": false,
      "inputs": [
        {
          "name": "_timeSlices",
          "type": "uint256[]"
        },
        {
          "name": "_prices",
          "type": "uint256[]"
        }
      ],
      "name": "setTimeBonuses",
      "outputs": [],
      "payable": false,
      "stateMutability": "nonpayable",
      "type": "function"
    },
    {
      "constant": true,
      "inputs": [],
      "name": "temporalTotalSupply",
      "outputs": [
        {
          "name": "",
          "type": "uint256"
        }
      ],
      "payable": false,
      "stateMutability": "view",
      "type": "function"
    },
    {
      "constant": true,
      "inputs": [],
      "name": "isMintingShipment",
      "outputs": [
        {
          "name": "",
          "type": "bool"
        }
      ],
      "payable": false,
      "stateMutability": "view",
      "type": "function"
    },
    {
      "constant": false,
      "inputs": [
        {
          "name": "_beneficiary",
          "type": "address"
        },
        {
          "name": "_value",
          "type": "uint256"
        },
        {
          "name": "_timestamp",
          "type": "uint256"
        },
        {
          "name": "_hash",
          "type": "bytes32"
        }
      ],
      "name": "buyWithHash",
      "outputs": [],
      "payable": false,
      "stateMutability": "nonpayable",
      "type": "function"
    },
    {
      "constant": true,
      "inputs": [],
      "name": "isRefundable",
      "outputs": [
        {
          "name": "",
          "type": "bool"
        }
      ],
      "payable": false,
      "stateMutability": "view",
      "type": "function"
    },
    {
      "constant": false,
      "inputs": [
        {
          "name": "_token",
          "type": "address"
        },
        {
          "name": "_value",
          "type": "uint256"
        }
      ],
      "name": "updateTokenValue",
      "outputs": [],
      "payable": false,
      "stateMutability": "nonpayable",
      "type": "function"
    },
    {
      "constant": true,
      "inputs": [],
      "name": "endTime",
      "outputs": [
        {
          "name": "",
          "type": "uint256"
        }
      ],
      "payable": false,
      "stateMutability": "view",
      "type": "function"
    },
    {
      "constant": false,
      "inputs": [
        {
          "name": "_amountSlices",
          "type": "uint256[]"
        },
        {
          "name": "_prices",
          "type": "uint256[]"
        }
      ],
      "name": "setAmountBonuses",
      "outputs": [],
      "payable": false,
      "stateMutability": "nonpayable",
      "type": "function"
    },
    {
      "constant": false,
      "inputs": [
        {
          "name": "_beneficiary",
          "type": "address"
        },
        {
          "name": "_weiAmount",
          "type": "uint256"
        },
        {
          "name": "_time",
          "type": "uint256"
        },
        {
          "name": "_totalSupply",
          "type": "uint256"
        }
      ],
      "name": "calculateEthAmount",
      "outputs": [
        {
          "name": "",
          "type": "uint256"
        },
        {
          "name": "",
          "type": "uint256"
        },
        {
          "name": "",
          "type": "uint256"
        }
      ],
      "payable": false,
      "stateMutability": "nonpayable",
      "type": "function"
    },
    {
      "constant": true,
      "inputs": [],
      "name": "tokenDecimals",
      "outputs": [
        {
          "name": "",
          "type": "uint256"
        }
      ],
      "payable": false,
      "stateMutability": "view",
      "type": "function"
    },
    {
      "constant": true,
      "inputs": [
        {
          "name": "",
          "type": "uint256"
        }
      ],
      "name": "whitelisted",
      "outputs": [
        {
          "name": "",
          "type": "address"
        }
      ],
      "payable": false,
      "stateMutability": "view",
      "type": "function"
    },
    {
      "constant": true,
      "inputs": [],
      "name": "weiRaised",
      "outputs": [
        {
          "name": "",
          "type": "uint256"
        }
      ],
      "payable": false,
      "stateMutability": "view",
      "type": "function"
    },
    {
      "constant": true,
      "inputs": [
        {
          "name": "",
          "type": "address"
        },
        {
          "name": "",
          "type": "address"
        }
      ],
      "name": "altDeposit",
      "outputs": [
        {
          "name": "",
          "type": "uint256"
        }
      ],
      "payable": false,
      "stateMutability": "view",
      "type": "function"
    },
    {
      "constant": false,
      "inputs": [
        {
          "name": "_isWhitelisted",
          "type": "bool"
        },
        {
          "name": "_isKnownOnly",
          "type": "bool"
        },
        {
          "name": "_isAmountBonus",
          "type": "bool"
        },
        {
          "name": "_isEarlyBonus",
          "type": "bool"
        },
        {
          "name": "_isRefundable",
          "type": "bool"
        },
        {
          "name": "_isTokenExcange",
          "type": "bool"
        },
        {
          "name": "_isAllowToIssue",
          "type": "bool"
        },
        {
          "name": "_isExtraDistribution",
          "type": "bool"
        },
        {
          "name": "_isMintingShipment",
          "type": "bool"
        },
        {
          "name": "_isCappedInEther",
          "type": "bool"
        },
        {
          "name": "_isPullingTokens",
          "type": "bool"
        }
      ],
      "name": "setFlags",
      "outputs": [],
      "payable": false,
      "stateMutability": "nonpayable",
      "type": "function"
    },
    {
      "constant": true,
      "inputs": [],
      "name": "wallet",
      "outputs": [
        {
          "name": "",
          "type": "address"
        }
      ],
      "payable": false,
      "stateMutability": "view",
      "type": "function"
    },
    {
      "constant": true,
      "inputs": [],
      "name": "isAllowToIssue",
      "outputs": [
        {
          "name": "",
          "type": "bool"
        }
      ],
      "payable": false,
      "stateMutability": "view",
      "type": "function"
    },
    {
      "constant": true,
      "inputs": [],
      "name": "isCappedInEther",
      "outputs": [
        {
          "name": "",
          "type": "bool"
        }
      ],
      "payable": false,
      "stateMutability": "view",
      "type": "function"
    },
    {
      "constant": true,
      "inputs": [
        {
          "name": "_beneficiary",
          "type": "address"
        },
        {
          "name": "_weiAmount",
          "type": "uint256"
        },
        {
          "name": "_tokenAmount",
          "type": "uint256"
        },
        {
          "name": "_extraAmount",
          "type": "uint256"
        },
        {
          "name": "_totalAmount",
          "type": "uint256"
        }
      ],
      "name": "validPurchase",
      "outputs": [
        {
          "name": "",
          "type": "bool"
        }
      ],
      "payable": false,
      "stateMutability": "view",
      "type": "function"
    },
    {
      "constant": true,
      "inputs": [],
      "name": "userRegistry",
      "outputs": [
        {
          "name": "",
          "type": "address"
        }
      ],
      "payable": false,
      "stateMutability": "view",
      "type": "function"
    },
    {
      "constant": true,
      "inputs": [
        {
          "name": "",
          "type": "uint256"
        }
      ],
      "name": "amountSlices",
      "outputs": [
        {
          "name": "",
          "type": "uint256"
        }
      ],
      "payable": false,
      "stateMutability": "view",
      "type": "function"
    },
    {
      "constant": true,
      "inputs": [],
      "name": "isWhitelisted",
      "outputs": [
        {
          "name": "",
          "type": "bool"
        }
      ],
      "payable": false,
      "stateMutability": "view",
      "type": "function"
    },
    {
      "constant": false,
      "inputs": [
        {
          "name": "_owner",
          "type": "address"
        }
      ],
      "name": "grant",
      "outputs": [],
      "payable": false,
      "stateMutability": "nonpayable",
      "type": "function"
    },
    {
      "constant": false,
      "inputs": [
        {
          "name": "_owner",
          "type": "address"
        }
      ],
      "name": "revoke",
      "outputs": [],
      "payable": false,
      "stateMutability": "nonpayable",
      "type": "function"
    },
    {
      "constant": true,
      "inputs": [],
      "name": "timeSlicesCount",
      "outputs": [
        {
          "name": "",
          "type": "uint256"
        }
      ],
      "payable": false,
      "stateMutability": "view",
      "type": "function"
    },
    {
      "constant": false,
      "inputs": [],
      "name": "saneIt",
      "outputs": [],
      "payable": false,
      "stateMutability": "nonpayable",
      "type": "function"
    },
    {
      "constant": true,
      "inputs": [
        {
          "name": "_at",
          "type": "uint256"
        }
      ],
      "name": "calculateTimeBonus",
      "outputs": [
        {
          "name": "",
          "type": "uint256"
        }
      ],
      "payable": false,
      "stateMutability": "view",
      "type": "function"
    },
    {
      "constant": true,
      "inputs": [],
      "name": "startTime",
      "outputs": [
        {
          "name": "",
          "type": "uint256"
        }
      ],
      "payable": false,
      "stateMutability": "view",
      "type": "function"
    },
    {
      "constant": true,
      "inputs": [
        {
          "name": "",
          "type": "address"
        }
      ],
      "name": "personalBonuses",
      "outputs": [
        {
          "name": "",
          "type": "address"
        }
      ],
      "payable": false,
      "stateMutability": "view",
      "type": "function"
    },
    {
      "constant": false,
      "inputs": [
        {
          "name": "_holder",
          "type": "address"
        },
        {
          "name": "_extraPart",
          "type": "uint256"
        }
      ],
      "name": "setExtraDistribution",
      "outputs": [],
      "payable": false,
      "stateMutability": "nonpayable",
      "type": "function"
    },
    {
      "constant": true,
      "inputs": [
        {
          "name": "_changeAmount",
          "type": "uint256"
        }
      ],
      "name": "calculateAmountBonus",
      "outputs": [
        {
          "name": "",
          "type": "uint256"
        }
      ],
      "payable": false,
      "stateMutability": "view",
      "type": "function"
    },
    {
      "constant": true,
      "inputs": [],
      "name": "publisher",
      "outputs": [
        {
          "name": "",
          "type": "address"
        }
      ],
      "payable": false,
      "stateMutability": "view",
      "type": "function"
    },
    {
      "constant": true,
      "inputs": [],
      "name": "isOwner",
      "outputs": [
        {
          "name": "",
          "type": "bool"
        }
      ],
      "payable": false,
      "stateMutability": "view",
      "type": "function"
    },
    {
      "constant": false,
      "inputs": [
        {
          "name": "_from",
          "type": "address"
        },
        {
          "name": "_value",
          "type": "uint256"
        },
        {
          "name": "_token",
          "type": "address"
        },
        {
          "name": "_extraData",
          "type": "bytes"
        }
      ],
      "name": "receiveApproval",
      "outputs": [],
      "payable": false,
      "stateMutability": "nonpayable",
      "type": "function"
    },
    {
      "constant": true,
      "inputs": [],
      "name": "softCap",
      "outputs": [
        {
          "name": "",
          "type": "uint256"
        }
      ],
      "payable": false,
      "stateMutability": "view",
      "type": "function"
    },
    {
      "constant": false,
      "inputs": [
        {
          "name": "_price",
          "type": "uint256"
        }
      ],
      "name": "setPrice",
      "outputs": [],
      "payable": false,
      "stateMutability": "nonpayable",
      "type": "function"
    },
    {
      "constant": true,
      "inputs": [],
      "name": "isAmountBonus",
      "outputs": [
        {
          "name": "",
          "type": "bool"
        }
      ],
      "payable": false,
      "stateMutability": "view",
      "type": "function"
    },
    {
      "constant": true,
      "inputs": [
        {
          "name": "",
          "type": "address"
        }
      ],
      "name": "whitelist",
      "outputs": [
        {
          "name": "",
          "type": "address"
        }
      ],
      "payable": false,
      "stateMutability": "view",
      "type": "function"
    },
    {
      "constant": false,
      "inputs": [
        {
          "name": "_start",
          "type": "uint256"
        },
        {
          "name": "_end",
          "type": "uint256"
        }
      ],
      "name": "setTime",
      "outputs": [],
      "payable": false,
      "stateMutability": "nonpayable",
      "type": "function"
    },
    {
      "constant": true,
      "inputs": [],
      "name": "price",
      "outputs": [
        {
          "name": "",
          "type": "uint256"
        }
      ],
      "payable": false,
      "stateMutability": "view",
      "type": "function"
    },
    {
      "constant": false,
      "inputs": [
        {
          "name": "_registry",
          "type": "address"
        }
      ],
      "name": "setRegistry",
      "outputs": [],
      "payable": false,
      "stateMutability": "nonpayable",
      "type": "function"
    },
    {
      "constant": true,
      "inputs": [],
      "name": "whitelistedCount",
      "outputs": [
        {
          "name": "",
          "type": "uint256"
        }
      ],
      "payable": false,
      "stateMutability": "view",
      "type": "function"
    },
    {
      "constant": false,
      "inputs": [
        {
          "name": "_beneficiary",
          "type": "address"
        },
        {
          "name": "_min",
          "type": "uint256"
        },
        {
          "name": "_max",
          "type": "uint256"
        }
      ],
      "name": "addToWhitelist",
      "outputs": [],
      "payable": false,
      "stateMutability": "nonpayable",
      "type": "function"
    },
    {
      "constant": true,
      "inputs": [
        {
          "name": "",
          "type": "address"
        }
      ],
      "name": "temporalBalances",
      "outputs": [
        {
          "name": "",
          "type": "uint256"
        }
      ],
      "payable": false,
      "stateMutability": "view",
      "type": "function"
    },
    {
      "constant": true,
      "inputs": [],
      "name": "isTokenExcange",
      "outputs": [
        {
          "name": "",
          "type": "bool"
        }
      ],
      "payable": false,
      "stateMutability": "view",
      "type": "function"
    },
    {
      "constant": false,
      "inputs": [
        {
          "name": "_beneficiary",
          "type": "address"
        }
      ],
      "name": "claimRefund",
      "outputs": [
        {
          "name": "",
          "type": "bool"
        }
      ],
      "payable": false,
      "stateMutability": "nonpayable",
      "type": "function"
    },
    {
      "constant": true,
      "inputs": [],
      "name": "state",
      "outputs": [
        {
          "name": "",
          "type": "uint8"
        }
      ],
      "payable": false,
      "stateMutability": "view",
      "type": "function"
    },
    {
      "constant": true,
      "inputs": [],
      "name": "isExtraDistribution",
      "outputs": [
        {
          "name": "",
          "type": "bool"
        }
      ],
      "payable": false,
      "stateMutability": "view",
      "type": "function"
    },
    {
      "constant": false,
      "inputs": [
        {
          "name": "_token",
          "type": "address"
        },
        {
          "name": "_value",
          "type": "uint256"
        }
      ],
      "name": "setTokenExcange",
      "outputs": [],
      "payable": false,
      "stateMutability": "nonpayable",
      "type": "function"
    },
    {
      "constant": true,
      "inputs": [
        {
          "name": "inStr",
          "type": "string"
        },
        {
          "name": "v",
          "type": "uint256"
        }
      ],
      "name": "appendUintToString",
      "outputs": [
        {
          "name": "str",
          "type": "string"
        }
      ],
      "payable": false,
      "stateMutability": "pure",
      "type": "function"
    },
    {
      "constant": false,
      "inputs": [
        {
          "name": "_softCap",
          "type": "uint256"
        },
        {
          "name": "_hardCap",
          "type": "uint256"
        }
      ],
      "name": "setSoftHardCaps",
      "outputs": [],
      "payable": false,
      "stateMutability": "nonpayable",
      "type": "function"
    },
    {
      "constant": true,
      "inputs": [
        {
          "name": "",
          "type": "uint256"
        }
      ],
      "name": "amountBonuses",
      "outputs": [
        {
          "name": "",
          "type": "uint256"
        }
      ],
      "payable": false,
      "stateMutability": "view",
      "type": "function"
    },
    {
      "constant": true,
      "inputs": [
        {
          "name": "",
          "type": "address"
        }
      ],
      "name": "weiDeposit",
      "outputs": [
        {
          "name": "",
          "type": "uint256"
        }
      ],
      "payable": false,
      "stateMutability": "view",
      "type": "function"
    },
    {
      "constant": true,
      "inputs": [],
      "name": "extraDistributionPart",
      "outputs": [
        {
          "name": "",
          "type": "uint256"
        }
      ],
      "payable": false,
      "stateMutability": "view",
      "type": "function"
    },
    {
      "constant": true,
      "inputs": [
        {
          "name": "",
          "type": "uint256"
        }
      ],
      "name": "timeBonuses",
      "outputs": [
        {
          "name": "",
          "type": "uint256"
        }
      ],
      "payable": false,
      "stateMutability": "view",
      "type": "function"
    },
    {
      "constant": false,
      "inputs": [
        {
          "name": "_wallet",
          "type": "address"
        }
      ],
      "name": "setWallet",
      "outputs": [],
      "payable": false,
      "stateMutability": "nonpayable",
      "type": "function"
    },
    {
      "constant": true,
      "inputs": [
        {
          "name": "maybe_owner",
          "type": "address"
        }
      ],
      "name": "checkOwner",
      "outputs": [
        {
          "name": "",
          "type": "bool"
        }
      ],
      "payable": false,
      "stateMutability": "view",
      "type": "function"
    },
    {
      "constant": true,
      "inputs": [],
      "name": "isPullingTokens",
      "outputs": [
        {
          "name": "",
          "type": "bool"
        }
      ],
      "payable": false,
      "stateMutability": "view",
      "type": "function"
    },
    {
      "constant": true,
      "inputs": [],
      "name": "amountSlicesCount",
      "outputs": [
        {
          "name": "",
          "type": "uint256"
        }
      ],
      "payable": false,
      "stateMutability": "view",
      "type": "function"
    },
    {
      "constant": true,
      "inputs": [],
      "name": "isKnownOnly",
      "outputs": [
        {
          "name": "",
          "type": "bool"
        }
      ],
      "payable": false,
      "stateMutability": "view",
      "type": "function"
    },
    {
      "constant": true,
      "inputs": [
        {
          "name": "",
          "type": "address"
        }
      ],
      "name": "allowedTokens",
      "outputs": [
        {
          "name": "",
          "type": "address"
        }
      ],
      "payable": false,
      "stateMutability": "view",
      "type": "function"
    },
    {
      "constant": true,
      "inputs": [],
      "name": "extraTokensHolder",
      "outputs": [
        {
          "name": "",
          "type": "address"
        }
      ],
      "payable": false,
      "stateMutability": "view",
      "type": "function"
    },
    {
      "constant": true,
      "inputs": [
        {
          "name": "v",
          "type": "uint256"
        }
      ],
      "name": "uintToString",
      "outputs": [
        {
          "name": "str",
          "type": "string"
        }
      ],
      "payable": false,
      "stateMutability": "pure",
      "type": "function"
    },
    {
      "constant": false,
      "inputs": [
        {
          "name": "_beneficiary",
          "type": "address"
        }
      ],
      "name": "buyTokens",
      "outputs": [],
      "payable": true,
      "stateMutability": "payable",
      "type": "function"
    },
    {
      "constant": true,
      "inputs": [],
      "name": "isEarlyBonus",
      "outputs": [
        {
          "name": "",
          "type": "bool"
        }
      ],
      "payable": false,
      "stateMutability": "view",
      "type": "function"
    },
    {
      "constant": false,
      "inputs": [
        {
          "name": "_beneficiary",
          "type": "address"
        },
        {
          "name": "_bonus",
          "type": "uint256"
        },
        {
          "name": "_referalAddress",
          "type": "address"
        },
        {
          "name": "_referalBonus",
          "type": "uint256"
        }
      ],
      "name": "setPersonalBonus",
      "outputs": [],
      "payable": false,
      "stateMutability": "nonpayable",
      "type": "function"
    },
    {
      "constant": true,
      "inputs": [
        {
          "name": "",
          "type": "address"
        }
      ],
      "name": "tokensValues",
      "outputs": [
        {
          "name": "",
          "type": "uint256"
        }
      ],
      "payable": false,
      "stateMutability": "view",
      "type": "function"
    },
    {
      "constant": false,
      "inputs": [
        {
          "name": "_beneficiary",
          "type": "address"
        }
      ],
      "name": "refund",
      "outputs": [],
      "payable": false,
      "stateMutability": "nonpayable",
      "type": "function"
    },
    {
      "constant": true,
      "inputs": [],
      "name": "hardCap",
      "outputs": [
        {
          "name": "",
          "type": "uint256"
        }
      ],
      "payable": false,
      "stateMutability": "view",
      "type": "function"
    },
    {
      "constant": true,
      "inputs": [],
      "name": "token",
      "outputs": [
        {
          "name": "",
          "type": "address"
        }
      ],
      "payable": false,
      "stateMutability": "view",
      "type": "function"
    },
    {
      "constant": true,
      "inputs": [],
      "name": "VERSION",
      "outputs": [
        {
          "name": "",
          "type": "uint256"
        }
      ],
      "payable": false,
      "stateMutability": "view",
      "type": "function"
    },
    {
      "inputs": [
        {
          "name": "_registry",
          "type": "address"
        },
        {
          "name": "_token",
          "type": "address"
        },
        {
          "name": "_extraTokensHolder",
          "type": "address"
        },
        {
          "name": "_extraTokensPart",
          "type": "uint256"
        },
        {
          "name": "_timeSlices",
          "type": "uint256[]"
        },
        {
          "name": "_timePrices",
          "type": "uint256[]"
        }
      ],
      "payable": false,
      "stateMutability": "nonpayable",
      "type": "constructor"
    },
    {
      "payable": true,
      "stateMutability": "payable",
      "type": "fallback"
    },
    {
      "anonymous": false,
      "inputs": [
        {
          "indexed": true,
          "name": "purchaser",
          "type": "address"
        },
        {
          "indexed": true,
          "name": "beneficiary",
          "type": "address"
        },
        {
          "indexed": false,
          "name": "value",
          "type": "uint256"
        },
        {
          "indexed": false,
          "name": "amount",
          "type": "uint256"
        }
      ],
      "name": "TokenPurchase",
      "type": "event"
    },
    {
      "anonymous": false,
      "inputs": [
        {
          "indexed": true,
          "name": "beneficiary",
          "type": "address"
        },
        {
          "indexed": false,
          "name": "value",
          "type": "uint256"
        },
        {
          "indexed": false,
          "name": "amount",
          "type": "uint256"
        },
        {
          "indexed": false,
          "name": "timestamp",
          "type": "uint256"
        },
        {
          "indexed": true,
          "name": "bitcoinHash",
          "type": "bytes32"
        }
      ],
      "name": "HashSale",
      "type": "event"
    },
    {
      "anonymous": false,
      "inputs": [
        {
          "indexed": true,
          "name": "beneficiary",
          "type": "address"
        },
        {
          "indexed": true,
          "name": "allowedToken",
          "type": "address"
        },
        {
          "indexed": false,
          "name": "allowedTokenValue",
          "type": "uint256"
        },
        {
          "indexed": false,
          "name": "ethValue",
          "type": "uint256"
        },
        {
          "indexed": false,
          "name": "shipAmount",
          "type": "uint256"
        }
      ],
      "name": "TokenSell",
      "type": "event"
    },
    {
      "anonymous": false,
      "inputs": [
        {
          "indexed": true,
          "name": "owner",
          "type": "address"
        },
        {
          "indexed": true,
          "name": "amount",
          "type": "uint256"
        }
      ],
      "name": "ShipTokens",
      "type": "event"
    },
    {
      "anonymous": false,
      "inputs": [
        {
          "indexed": true,
          "name": "sender",
          "type": "address"
        },
        {
          "indexed": false,
          "name": "message",
          "type": "string"
        }
      ],
      "name": "Debug",
      "type": "event"
    },
    {
      "anonymous": false,
      "inputs": [
        {
          "indexed": true,
          "name": "owner",
          "type": "address"
        }
      ],
      "name": "AccessGrant",
      "type": "event"
    },
    {
      "anonymous": false,
      "inputs": [
        {
          "indexed": true,
          "name": "owner",
          "type": "address"
        }
      ],
      "name": "AccessRevoke",
      "type": "event"
    }
  ],
  "bytecode": "0x606060405234156200001057600080fd5b60405162003ee038038062003ee08339810160405280805191906020018051919060200180519190602001805191906020018051820191906020018051600160a060020a0333166000818152602081905260408120805460ff191660019081179091558054600160a060020a03191690921782559190930192620000ae925090819081818082818180826401000000006200169c620001c682021704565b620000c78564010000000062000dac6200037682021704565b620000ef600142034262278d0001620004716401000000000262002337176401000000009004565b6200010886640100000000620023a9620004e282021704565b62000121336401000000006200289b6200056782021704565b6200013b848464010000000062002026620005ec82021704565b62000165674563918244f40000678ac7230489e800006401000000006200280e6200067482021704565b620001a06200018c670de0b6b3a76400006064640100000000620030f9620006c882021704565b640100000000620022ab620006e082021704565b620001ba828264010000000062000ebc6200073182021704565b505050505050620008ae565b600080601a5460ff166004811115620001db57fe5b14620001e657600080fd5b600160a060020a03331660009081526020819052604090205460ff1615156001146200021157600080fd5b8b600160146101000a81548160ff0219169083151502179055508a600160156101000a81548160ff02191690831515021790555089600160166101000a81548160ff02191690831515021790555088600160176101000a81548160ff02191690831515021790555087600160186101000a81548160ff02191690831515021790555086600160196101000a81548160ff021916908315150217905550856001601a6101000a81548160ff021916908315150217905550846001601b6101000a81548160ff021916908315150217905550836001601c6101000a81548160ff021916908315150217905550826001601d6101000a81548160ff021916908315150217905550600160189054906101000a900460ff16806200032e5750815b600180549115157e010000000000000000000000000000000000000000000000000000000000000260f060020a60ff0219909216919091179055505050505050505050505050565b600080601a5460ff1660048111156200038b57fe5b146200039657600080fd5b600160a060020a03331660009081526020819052604090205460ff161515600114620003c157600080fd5b600160a060020a0382161515620003d757600080fd5b600d8054600160a060020a031916600160a060020a0384811691909117918290551663313ce5676000604051602001526040518163ffffffff167c0100000000000000000000000000000000000000000000000000000000028152600401602060405180830381600087803b15156200044f57600080fd5b6102c65a03f115156200046157600080fd5b5050506040518051600e55505050565b600080601a5460ff1660048111156200048657fe5b146200049157600080fd5b600160a060020a03331660009081526020819052604090205460ff161515600114620004bc57600080fd5b818310620004c957600080fd5b428211620004d657600080fd5b50601191909155601255565b600080601a5460ff166004811115620004f757fe5b146200050257600080fd5b600160a060020a03331660009081526020819052604090205460ff1615156001146200052d57600080fd5b600554600160a060020a0316156200054457600080fd5b5060058054600160a060020a031916600160a060020a0392909216919091179055565b600080601a5460ff1660048111156200057c57fe5b146200058757600080fd5b600160a060020a03331660009081526020819052604090205460ff161515600114620005b257600080fd5b601354600160a060020a031615620005c957600080fd5b5060138054600160a060020a031916600160a060020a0392909216919091179055565b600080601a5460ff1660048111156200060157fe5b146200060c57600080fd5b600160a060020a03331660009081526020819052604090205460ff1615156001146200063757600080fd5b600160a060020a03831615156200064d57600080fd5b5060178054600160a060020a031916600160a060020a039390931692909217909155601855565b600080601a5460ff1660048111156200068957fe5b146200069457600080fd5b600160a060020a03331660009081526020819052604090205460ff161515600114620006bf57600080fd5b50601555601655565b6000808284811515620006d757fe5b04949350505050565b600080601a5460ff166004811115620006f557fe5b146200070057600080fd5b600160a060020a03331660009081526020819052604090205460ff1615156001146200072b57600080fd5b50601455565b6000808080601a5460ff1660048111156200074857fe5b146200075357600080fd5b600160a060020a03331660009081526020819052604090205460ff1615156001146200077e57600080fd5b600b54156200078c57600080fd5b60018551116200079b57600080fd5b8451845114620007aa57600080fd5b60009250600091505b8451821015620008515782858381518110620007cb57fe5b906020019060200201511015620007e157600080fd5b848281518110620007ee57fe5b906020019060200201519250600a80548060010182816200081091906200085e565b5060009182526020909120018390558382815181106200082c57fe5b90602001906020020151600084815260096020526040902055600190910190620007b3565b5050600a54600b55505050565b8154818355818115116200088557600083815260209020620008859181019083016200088a565b505050565b620008ab91905b80821115620008a7576000815560010162000891565b5090565b90565b61362280620008be6000396000f30060606040526004361061033f5763ffffffff60e060020a600035041663144fa6d7811461034a57806317d8614414610369578063205513f31461039c57806321309ae3146103c457806327937160146104535780632a03156a146104665780632a37eaea146104795780632c1fecfe146104a15780632cdb8eec146104b45780633197cbb6146104d65780633647b084146104e957806338a1187d146105785780633b97e856146105c45780633d4efe09146105d75780634042b66f1461060957806341593ae91461061c5780634b77156214610641578063521eb2731461068e5780635551d1b7146106a15780635581800c146106b457806355e22956146106c75780635c7460d6146106f25780635ce8ec2414610705578063611b40951461071b57806370284d191461072e57806374a8f1031461074d578063756abb981461076c57806375f7e6f01461077f5780637862affa1461079257806378e97925146107a857806380c2cc38146107bb578063852a7d6c146107da5780638727b7fc146107fc5780638c72c54e146108125780638f32d59b146108255780638f4ffcb114610838578063906a26e0146108a457806391b7f5ed146108b757806393545a79146108cd5780639b19251a146108e0578063a0355eca146108ff578063a035b1fe14610918578063a91ee0dc1461092b578063b2a1de221461094a578063b47be3e41461095d578063b761abf314610982578063b8dd488e146109a1578063bffa55d5146109b4578063c19d93fb146109d3578063c448fa8514610a0a578063c6a7d3af14610a1d578063c80667e314610a3f578063c82829e014610b09578063d036261f14610b22578063d256630314610b38578063d69c927514610b57578063de7682a814610b6a578063deaa59df14610b80578063e0e3671c14610b9f578063e17c3a0814610bbe578063e3b6040e14610bd1578063e56f381514610be4578063e744092e14610bf7578063e75bf82014610c16578063e939567914610c29578063ec8ac4d814610c3f578063ef11e55b14610c53578063f45b4fba14610c66578063f967c9eb14610c92578063fa89401a14610cb1578063fb86a40414610cd0578063fc0c546a14610ce3578063ffa1ad7414610cf6575b61034833610d09565b005b341561035557600080fd5b610348600160a060020a0360043516610dac565b341561037457600080fd5b610388600160a060020a0360043516610e88565b604051901515815260200160405180910390f35b34156103a757600080fd5b6103b2600435610e9d565b60405190815260200160405180910390f35b34156103cf57600080fd5b610348600460248135818101908301358060208181020160405190810160405280939291908181526020018383602002808284378201915050505050509190803590602001908201803590602001908080602002602001604051908101604052809392919081815260200183836020028082843750949650610ebc95505050505050565b341561045e57600080fd5b6103b2610fdb565b341561047157600080fd5b610388610fe1565b341561048457600080fd5b610348600160a060020a0360043516602435604435606435610ff1565b34156104ac57600080fd5b6103886110ae565b34156104bf57600080fd5b610348600160a060020a03600435166024356110be565b34156104e157600080fd5b6103b2611104565b34156104f457600080fd5b61034860046024813581810190830135806020818102016040519081016040528093929190818152602001838360200280828437820191505050505050919080359060200190820180359060200190808060200260200160405190810160405280939291908181526020018383602002808284375094965061110a95505050505050565b341561058357600080fd5b6105a0600160a060020a0360043516602435604435606435611229565b60405180848152602001838152602001828152602001935050505060405180910390f35b34156105cf57600080fd5b6103b261164b565b34156105e257600080fd5b6105ed600435611651565b604051600160a060020a03909116815260200160405180910390f35b341561061457600080fd5b6103b2611679565b341561062757600080fd5b6103b2600160a060020a036004358116906024351661167f565b341561064c57600080fd5b6103486004351515602435151560443515156064351515608435151560a435151560c435151560e435151561010435151561012435151561014435151561169c565b341561069957600080fd5b6105ed611845565b34156106ac57600080fd5b610388611854565b34156106bf57600080fd5b61038861187b565b34156106d257600080fd5b610388600160a060020a03600435166024356044356064356084356118a5565b34156106fd57600080fd5b6105ed611b7e565b341561071057600080fd5b6103b2600435611b8d565b341561072657600080fd5b610388611b9b565b341561073957600080fd5b610348600160a060020a0360043516611bbc565b341561075857600080fd5b610348600160a060020a0360043516611c39565b341561077757600080fd5b6103b2611cef565b341561078a57600080fd5b610348611cf5565b341561079d57600080fd5b6103b2600435611f90565b34156107b357600080fd5b6103b2612005565b34156107c657600080fd5b6105ed600160a060020a036004351661200b565b34156107e557600080fd5b610348600160a060020a0360043516602435612026565b341561080757600080fd5b6103b26004356120aa565b341561081d57600080fd5b6105ed612119565b341561083057600080fd5b610388612128565b341561084357600080fd5b61034860048035600160a060020a0390811691602480359260443516919060849060643590810190830135806020601f8201819004810201604051908101604052818152929190602084018383808284375094965061215895505050505050565b34156108af57600080fd5b6103b26122a5565b34156108c257600080fd5b6103486004356122ab565b34156108d857600080fd5b6103886122f9565b34156108eb57600080fd5b6105ed600160a060020a036004351661231c565b341561090a57600080fd5b610348600435602435612337565b341561092357600080fd5b6103b26123a3565b341561093657600080fd5b610348600160a060020a03600435166123a9565b341561095557600080fd5b6103b261242a565b341561096857600080fd5b610348600160a060020a0360043516602435604435612430565b341561098d57600080fd5b6103b2600160a060020a0360043516612512565b34156109ac57600080fd5b610388612524565b34156109bf57600080fd5b610388600160a060020a036004351661254a565b34156109de57600080fd5b6109e66125ec565b604051808260048111156109f657fe5b60ff16815260200191505060405180910390f35b3415610a1557600080fd5b6103886125f5565b3415610a2857600080fd5b610348600160a060020a0360043516602435612605565b3415610a4a57600080fd5b610a9260046024813581810190830135806020601f82018190048102016040519081016040528181529291906020840183838082843750949650509335935061268092505050565b60405160208082528190810183818151815260200191508051906020019080838360005b83811015610ace578082015183820152602001610ab6565b50505050905090810190601f168015610afb5780820380516001836020036101000a031916815260200191505b509250505060405180910390f35b3415610b1457600080fd5b61034860043560243561280e565b3415610b2d57600080fd5b6103b260043561285f565b3415610b4357600080fd5b6103b2600160a060020a0360043516612871565b3415610b6257600080fd5b6103b2612883565b3415610b7557600080fd5b6103b2600435612889565b3415610b8b57600080fd5b610348600160a060020a036004351661289b565b3415610baa57600080fd5b610388600160a060020a036004351661291c565b3415610bc957600080fd5b61038861294c565b3415610bdc57600080fd5b6103b261295c565b3415610bef57600080fd5b610388612962565b3415610c0257600080fd5b6105ed600160a060020a0360043516612984565b3415610c2157600080fd5b6105ed61299f565b3415610c3457600080fd5b610a926004356129ae565b610348600160a060020a0360043516610d09565b3415610c5e57600080fd5b610388612ad2565b3415610c7157600080fd5b610348600160a060020a036004358116906024359060443516606435612af6565b3415610c9d57600080fd5b6103b2600160a060020a0360043516612b93565b3415610cbc57600080fd5b610348600160a060020a0360043516612ba5565b3415610cdb57600080fd5b6103b2612c0b565b3415610cee57600080fd5b6105ed612c11565b3415610d0157600080fd5b6103b2612c20565b6000600180601a5460ff166004811115610d1f57fe5b14610d2957600080fd5b33600160a060020a03166000805160206135d783398151915260405160208082526010908201527f53746172742062757920746f6b656e73000000000000000000000000000000006040808301919091526060909101905180910390a2610d908334612c25565b915060008211610d9f57600080fd5b610da761303e565b505050565b600080601a5460ff166004811115610dc057fe5b14610dca57600080fd5b600160a060020a03331660009081526020819052604090205460ff161515600114610df457600080fd5b600160a060020a0382161515610e0957600080fd5b600d8054600160a060020a031916600160a060020a0384811691909117918290551663313ce5676000604051602001526040518163ffffffff1660e060020a028152600401602060405180830381600087803b1515610e6757600080fd5b6102c65a03f11515610e7857600080fd5b5050506040518051600e55505050565b601f6020526000908152604090205460ff1681565b600a805482908110610eab57fe5b600091825260209091200154905081565b6000808080601a5460ff166004811115610ed257fe5b14610edc57600080fd5b600160a060020a03331660009081526020819052604090205460ff161515600114610f0657600080fd5b600b5415610f1357600080fd5b6001855111610f2157600080fd5b8451845114610f2f57600080fd5b60009250600091505b8451821015610fce5782858381518110610f4e57fe5b906020019060200201511015610f6357600080fd5b848281518110610f6f57fe5b906020019060200201519250600a8054806001018281610f8f91906132a5565b506000918252602090912001839055838281518110610faa57fe5b90602001906020020151600084815260096020526040902055600190910190610f38565b5050600a54600b55505050565b601c5481565b60015460e060020a900460ff1681565b6000600180601a5460ff16600481111561100757fe5b1461101157600080fd5b600160a060020a03331660009081526020819052604090205460ff16151560011461103b57600080fd5b6110458686612c25565b91506000821161105457600080fd5b82600160a060020a0387167f7c8f7476d7c48fb598c2faeaa38296073548801f143f6a518170ba5d957ceb0487858860405180848152602001838152602001828152602001935050505060405180910390a3505050505050565b60015460c060020a900460ff1681565b600160a060020a03331660009081526020819052604090205460ff1615156001146110e857600080fd5b600160a060020a03909116600090815260106020526040902055565b60125481565b6000808080601a5460ff16600481111561112057fe5b1461112a57600080fd5b600160a060020a03331660009081526020819052604090205460ff16151560011461115457600080fd5b6008541561116157600080fd5b600185511161116f57600080fd5b845184511461117d57600080fd5b60009250600091505b845182101561121c578285838151811061119c57fe5b9060200190602002015110156111b157600080fd5b8482815181106111bd57fe5b906020019060200201519250600780548060010182816111dd91906132a5565b5060009182526020909120018390558382815181106111f857fe5b90602001906020020151600084815260066020526040902055600190910190611186565b5050600754600855505050565b6000806000806000806000809150601154891080611248575060125489115b1561125c576000965086955085945061163d565b600154760100000000000000000000000000000000000000000000900460ff16156113925761129a61128d8b6120aa565b839063ffffffff6130a616565b915033600160a060020a03166000805160206135d783398151915261131b606060405190810160405280602381526020017f43616c63756c6174656420616d6f756e7420646570656e64656e7420626f6e7581526020017f733a20000000000000000000000000000000000000000000000000000000000081525085612680565b60405160208082528190810183818151815260200191508051906020019080838360005b8381101561135757808201518382015260200161133f565b50505050905090810190601f1680156113845780820380516001836020036101000a031916815260200191505b509250505060405180910390a25b60015477010000000000000000000000000000000000000000000000900460ff161561159f5733600160a060020a03166000805160206135d783398151915261142160408051908101604052601981527f43616c63756c6174652074696d6520626f6e75732061743a2000000000000000602082015260115461141c908e9063ffffffff6130bc16565b612680565b60405160208082528190810183818151815260200191508051906020019080838360005b8381101561145d578082015183820152602001611445565b50505050905090810190601f16801561148a5780820380516001836020036101000a031916815260200191505b509250505060405180910390a26114a761128d6011548b03611f90565b915033600160a060020a03166000805160206135d7833981519152611528606060405190810160405280602181526020017f43616c63756c617465642074696d6520646570656e64656e7420626f6e75733a81526020017f200000000000000000000000000000000000000000000000000000000000000081525085612680565b60405160208082528190810183818151815260200191508051906020019080838360005b8381101561156457808201518382015260200161154c565b50505050905090810190601f1680156115915780820380516001836020036101000a031916815260200191505b509250505060405180910390a25b6115c96014546115bd600e54600a0a8d6130ce90919063ffffffff16565b9063ffffffff6130f916565b93506115f16115e46127106115bd878663ffffffff6130ce16565b859063ffffffff6130a616565b60015490945060d860020a900460ff1615611624576116216127106115bd601854876130ce90919063ffffffff16565b90505b611634848263ffffffff6130a616565b84829650965096505b505050509450945094915050565b600e5481565b600380548290811061165f57fe5b600091825260209091200154600160a060020a0316905081565b60195481565b601e60209081526000928352604080842090915290825290205481565b600080601a5460ff1660048111156116b057fe5b146116ba57600080fd5b600160a060020a03331660009081526020819052604090205460ff1615156001146116e457600080fd5b8b600160146101000a81548160ff0219169083151502179055508a600160156101000a81548160ff02191690831515021790555089600160166101000a81548160ff02191690831515021790555088600160176101000a81548160ff02191690831515021790555087600160186101000a81548160ff02191690831515021790555086600160196101000a81548160ff021916908315150217905550856001601a6101000a81548160ff021916908315150217905550846001601b6101000a81548160ff021916908315150217905550836001601c6101000a81548160ff021916908315150217905550826001601d6101000a81548160ff021916908315150217905550600160189054906101000a900460ff16806118005750815b6001805491151560f060020a027fff00ffffffffffffffffffffffffffffffffffffffffffffffffffffffffffff909216919091179055505050505050505050505050565b601354600160a060020a031681565b6001547a010000000000000000000000000000000000000000000000000000900460ff1681565b6001547d010000000000000000000000000000000000000000000000000000000000900460ff1681565b600080600080600160159054906101000a900460ff1680156119385750600554600160a060020a031663a75df8148a60006040516020015260405160e060020a63ffffffff8416028152600160a060020a039091166004820152602401602060405180830381600087803b151561191b57600080fd5b6102c65a03f1151561192c57600080fd5b50505060405180519050155b156119465760009350611b72565b600160a060020a0389166000908152601b602052604090205461196f908863ffffffff6130a616565b601c54909350611985908663ffffffff6130a616565b60015490925074010000000000000000000000000000000000000000900460ff1615611b045750600160a060020a038089166000908152600260205260408082205490921691829163b1b3d3f69151602001526040518163ffffffff1660e060020a028152600401602060405180830381600087803b1515611a0657600080fd5b6102c65a03f11515611a1757600080fd5b505050604051805190501580611a8c57508281600160a060020a031663f88979456000604051602001526040518163ffffffff1660e060020a028152600401602060405180830381600087803b1515611a6f57600080fd5b6102c65a03f11515611a8057600080fd5b50505060405180519050115b80611af657508281600160a060020a0316636ac5db196000604051602001526040518163ffffffff1660e060020a028152600401602060405180830381600087803b1515611ad957600080fd5b6102c65a03f11515611aea57600080fd5b50505060405180519050105b15611b045760009350611b72565b6001547d010000000000000000000000000000000000000000000000000000000000900460ff1615611b5a57601554601954611b46908a63ffffffff6130a616565b1115611b555760009350611b72565b611b6d565b601554821115611b6d5760009350611b72565b600193505b50505095945050505050565b600554600160a060020a031681565b6007805482908110610eab57fe5b60015474010000000000000000000000000000000000000000900460ff1681565b600160a060020a03331660009081526020819052604090205460ff161515600114611be657600080fd5b600160a060020a03811660008181526020819052604090819020805460ff191660011790557f1350a997c6c86bcc51dd7e51f7ef618d620e6a85d8fdabb82a980c149ad88d47905160405180910390a250565b600160a060020a03331660009081526020819052604090205460ff161515600114611c6357600080fd5b600154600160a060020a0382811691161415611c7e57600080fd5b80600160a060020a031633600160a060020a031614151515611c9f57600080fd5b600160a060020a03811660008181526020819052604090819020805460ff191690557f1d1eff42eefbeecfca7e39f8adb5d7f19a7ebbb4c3e82c51f2500d7d76ab2468905160405180910390a250565b600b5481565b600080601a5460ff166004811115611d0957fe5b14611d1357600080fd5b600160a060020a03331660009081526020819052604090205460ff161515600114611d3d57600080fd5b60115442901115611d4d57600080fd5b601254429011611d5c57600080fd5b60145460009011611d6c57600080fd5b601354600160a060020a03161515611d8357600080fd5b600d54600160a060020a03161515611d9a57600080fd5b6001547501000000000000000000000000000000000000000000900460ff1615611dd557600554600160a060020a03161515611dd557600080fd5b600154760100000000000000000000000000000000000000000000900460ff1615611e0a5760085460009011611e0a57600080fd5b60015477010000000000000000000000000000000000000000000000900460ff1615611e4057600b5460009011611e4057600080fd5b60015460d860020a900460ff1615611e6957601754600160a060020a03161515611e6957600080fd5b60015460e060020a900460ff1615611efc57600d54600160a060020a033081169116638da5cb5b6000604051602001526040518163ffffffff1660e060020a028152600401602060405180830381600087803b1515611ec757600080fd5b6102c65a03f11515611ed857600080fd5b50505060405180519050600160a060020a0316141515611ef757600080fd5b611f80565b601554600d54600160a060020a03166370a082313060006040516020015260405160e060020a63ffffffff8416028152600160a060020a039091166004820152602401602060405180830381600087803b1515611f5857600080fd5b6102c65a03f11515611f6957600080fd5b5050506040518051905010151515611f8057600080fd5b50601a805460ff19166001179055565b600080805b600a54811015611ffe5760096000600a83815481101515611fb257fe5b906000526020600020900154815260200190815260200160002054915083600a82815481101515611fdf57fe5b9060005260206000209001541115611ff657611ffe565b600101611f95565b5092915050565b60115481565b600c60205260009081526040902054600160a060020a031681565b600080601a5460ff16600481111561203a57fe5b1461204457600080fd5b600160a060020a03331660009081526020819052604090205460ff16151560011461206e57600080fd5b600160a060020a038316151561208357600080fd5b5060178054600160a060020a031916600160a060020a039390931692909217909155601855565b600080805b600754811015611ffe57836007828154811015156120c957fe5b90600052602060002090015411156120e057611ffe565b600660006007838154811015156120f357fe5b6000918252602080832090910154835282019290925260400190205491506001016120af565b600154600160a060020a031681565b600160a060020a03331660009081526020819052604081205460ff1661214f576000612152565b60015b90505b90565b600160a060020a038281166000908152600f60205260408120549091829116151561218257600080fd5b600160a060020a038085166000908152600f60205260408082205461222793169163313ce5679151602001526040518163ffffffff1660e060020a028152600401602060405180830381600087803b15156121dc57600080fd5b6102c65a03f115156121ed57600080fd5b5050506040518051600160a060020a038716600090815260106020526040902054600a9190910a91506115bd90889063ffffffff6130ce16565b91506122338683612c25565b90506000811161224257600080fd5b83600160a060020a031686600160a060020a03167f8f9e1c6f80a0fd25dc246f3b0a51422fce2a5f211d4f9877c7ec20b6499c939f87858560405180848152602001838152602001828152602001935050505060405180910390a3505050505050565b60165481565b600080601a5460ff1660048111156122bf57fe5b146122c957600080fd5b600160a060020a03331660009081526020819052604090205460ff1615156001146122f357600080fd5b50601455565b600154760100000000000000000000000000000000000000000000900460ff1681565b600260205260009081526040902054600160a060020a031681565b600080601a5460ff16600481111561234b57fe5b1461235557600080fd5b600160a060020a03331660009081526020819052604090205460ff16151560011461237f57600080fd5b81831061238b57600080fd5b42821161239757600080fd5b50601191909155601255565b60145481565b600080601a5460ff1660048111156123bd57fe5b146123c757600080fd5b600160a060020a03331660009081526020819052604090205460ff1615156001146123f157600080fd5b600554600160a060020a03161561240757600080fd5b5060058054600160a060020a031916600160a060020a0392909216919091179055565b60045481565b600160a060020a038316151561244557600080fd5b8082111561245257600080fd5b80151561246d5750701d6329f1c35ca4bfabb9f56100000000005b81816124776132c9565b918252602082015260409081019051809103906000f080151561249957600080fd5b600160a060020a0384811660009081526002602052604090208054600160a060020a0319169290911691909117905560038054600181016124da83826132a5565b5060009182526020909120018054600160a060020a031916600160a060020a0394909416939093179092555050600480546001019055565b601b6020526000908152604090205481565b600154790100000000000000000000000000000000000000000000000000900460ff1681565b60015460009060c060020a900460ff16151561256557600080fd5b600160a060020a0382166000908152601f602052604090205460ff168061259c57506003601a5460ff16600481111561259a57fe5b145b15156125a757600080fd5b600160a060020a0382166000818152601d6020526040908190205480156108fc029151600060405180830381858888f1935050505015156125e757600080fd5b919050565b601a5460ff1681565b60015460d860020a900460ff1681565b600080601a5460ff16600481111561261957fe5b1461262357600080fd5b600160a060020a03331660009081526020819052604090205460ff16151560011461264d57600080fd5b600160a060020a0383166000818152600f602052604090208054600160a060020a0319169091179055610da783836110be565b6126886132d9565b60006126926132d9565b60008061269d6132d9565b6126a56132d9565b600060649650866040518059106126b95750595b818152601f19601f830116810160200160405290509550600094505b881561272057600a89069350600a890498508360300160f860020a0286868060010197508151811061270357fe5b906020010190600160f860020a031916908160001a9053506126d5565b899250848351016040518059106127345750595b818152601f19601f830116810160200160405290509150600090505b82518110156127a35782818151811061276557fe5b016020015160f860020a900460f860020a0282828151811061278357fe5b906020010190600160f860020a031916908160001a905350600101612750565b5060005b848110156128015785816001870303815181106127c057fe5b016020015160f860020a900460f860020a028284518301815181106127e157fe5b906020010190600160f860020a031916908160001a9053506001016127a7565b5098975050505050505050565b600080601a5460ff16600481111561282257fe5b1461282c57600080fd5b600160a060020a03331660009081526020819052604090205460ff16151560011461285657600080fd5b50601555601655565b60066020526000908152604090205481565b601d6020526000908152604090205481565b60185481565b60096020526000908152604090205481565b600080601a5460ff1660048111156128af57fe5b146128b957600080fd5b600160a060020a03331660009081526020819052604090205460ff1615156001146128e357600080fd5b601354600160a060020a0316156128f957600080fd5b5060138054600160a060020a031916600160a060020a0392909216919091179055565b600160a060020a03811660009081526020819052604081205460ff16612943576000612946565b60015b92915050565b60015460f060020a900460ff1681565b60085481565b6001547501000000000000000000000000000000000000000000900460ff1681565b600f60205260009081526040902054600160a060020a031681565b601754600160a060020a031681565b6129b66132d9565b60006129c06132d9565b6000806129cb6132d9565b600060649550856040518059106129df5750595b818152601f19601f830116810160200160405290509450600093505b8715612a4657600a88069250600a880497508260300160f860020a02858580600101965081518110612a2957fe5b906020010190600160f860020a031916908160001a9053506129fb565b83604051805910612a545750595b818152601f19601f830116810160200160405290509150600090505b83811015612ac7578481600186030381518110612a8957fe5b016020015160f860020a900460f860020a02828281518110612aa757fe5b906020010190600160f860020a031916908160001a905350600101612a70565b509695505050505050565b60015477010000000000000000000000000000000000000000000000900460ff1681565b600160a060020a03331660009081526020819052604090205460ff161515600114612b2057600080fd5b828282612b2b6132eb565b928352600160a060020a03909116602083015260408083019190915260609091019051809103906000f0801515612b6157600080fd5b600160a060020a039485166000908152600c602052604090208054600160a060020a0319169190951617909355505050565b60106020526000908152604090205481565b600160a060020a03331660009081526020819052604090205460ff161515600114612bcf57600080fd5b60015460c060020a900460ff161515612be757600080fd5b600160a060020a03166000908152601f60205260409020805460ff19166001179055565b60155481565b600d54600160a060020a031681565b600181565b6000808080600180601a5460ff166004811115612c3e57fe5b14612c4857600080fd5b33600160a060020a03166000805160206135d783398151915260405160208082526011908201527f53746172742073656c6c20746f6b656e730000000000000000000000000000006040808301919091526060909101905180910390a2600d54612d1790889088904290600160a060020a03166318160ddd6000604051602001526040518163ffffffff1660e060020a028152600401602060405180830381600087803b1515612cf757600080fd5b6102c65a03f11515612d0857600080fd5b50505060405180519050611229565b90955093509150600160a060020a0333166000805160206135d783398151915260405160208082526010908201527f43616c63756c61746520616d6f756e74000000000000000000000000000000006040808301919091526060909101905180910390a233600160a060020a03166000805160206135d7833981519152612dd160408051908101604052600781527f546f74616c3a2000000000000000000000000000000000000000000000000000602082015285612680565b60405160208082528190810183818151815260200191508051906020019080838360005b83811015612e0d578082015183820152602001612df5565b50505050905090810190601f168015612e3a5780820380516001836020036101000a031916815260200191505b509250505060405180910390a233600160a060020a03166000805160206135d7833981519152612e9d60408051908101604052600d81527f42656e65666963696172793a2000000000000000000000000000000000000000602082015287612680565b60405160208082528190810183818151815260200191508051906020019080838360005b83811015612ed9578082015183820152602001612ec1565b50505050905090810190601f168015612f065780820380516001836020036101000a031916815260200191505b509250505060405180910390a2612f2087878686866118a5565b1515612f2b57600080fd5b601954612f3e908763ffffffff6130a616565b601955612f4b8785613110565b86600160a060020a031633600160a060020a03167f623b3804fa71d67900d064613da8f94b9617215ee90799290593e1745087ad18888760405191825260208201526040908101905180910390a38387600160a060020a03167f67066453570687eaa7bbfb5d6a5a6d901a7473f72563021e81204001241e7af760405160405180910390a360015460d860020a900460ff161561303357601754612ff890600160a060020a031684613110565b6017548390600160a060020a03167f67066453570687eaa7bbfb5d6a5a6d901a7473f72563021e81204001241e7af760405160405180910390a35b509195945050505050565b60015460c060020a900460ff161561307057600160a060020a0333166000908152601d602052604090203490556130a4565b601354600160a060020a03163480156108fc0290604051600060405180830381858888f1935050505015156130a457600080fd5b565b6000828201838110156130b557fe5b9392505050565b6000828211156130c857fe5b50900390565b6000808315156130e15760009150611ffe565b508282028284828115156130f157fe5b04146130b557fe5b600080828481151561310757fe5b04949350505050565b600180601a5460ff16600481111561312457fe5b1461312e57600080fd5b60015460f060020a900460ff16151561325b5760015460e060020a900460ff16156131d357600d54600160a060020a03166340c10f19848460006040516020015260405160e060020a63ffffffff8516028152600160a060020a0390921660048301526024820152604401602060405180830381600087803b15156131b257600080fd5b6102c65a03f115156131c357600080fd5b505050604051805190505061325b565b600d54600160a060020a03166323b872dd30858560006040516020015260405160e060020a63ffffffff8616028152600160a060020a0393841660048201529190921660248201526044810191909152606401602060405180830381600087803b151561323f57600080fd5b6102c65a03f1151561325057600080fd5b505050604051805150505b600160a060020a0383166000908152601b6020526040902054613284908363ffffffff6130a616565b600160a060020a039093166000908152601b60205260409020929092555050565b815481835581811511610da757600083815260209020610da79181019083016132fb565b60405161013e8061331a83390190565b60206040519081016040526000815290565b60405161017f8061345883390190565b61215591905b808211156133155760008155600101613301565b509056006060604052341561000f57600080fd5b60405160408061013e83398101604052808051919060200180516000805460ff1916600190811790915593909355505060025560ee806100506000396000f30060606040526004361060525763ffffffff7c01000000000000000000000000000000000000000000000000000000006000350416636ac5db1981146057578063b1b3d3f6146079578063f889794514609d575b600080fd5b3415606157600080fd5b606760ad565b60405190815260200160405180910390f35b3415608357600080fd5b608960b3565b604051901515815260200160405180910390f35b341560a757600080fd5b606760bc565b60025481565b60005460ff1681565b600154815600a165627a7a7230582035bf58cfe32a05022aed81f6f50b60e0262b0fcde1f7bff978e3c76cb1c9cd6200296060604052341561000f57600080fd5b60405160608061017f83398101604052808051919060200180519190602001805160008054600160a060020a03909516600160a060020a0319909516949094179093555050600255600155610116806100696000396000f30060606040526004361060525763ffffffff7c010000000000000000000000000000000000000000000000000000000060003504166329176e638114605757806363e0f8c714609057806375b4d78c1460b2575b600080fd5b3415606157600080fd5b606760c2565b60405173ffffffffffffffffffffffffffffffffffffffff909116815260200160405180910390f35b3415609a57600080fd5b60a060de565b60405190815260200160405180910390f35b341560bc57600080fd5b60a060e4565b60005473ffffffffffffffffffffffffffffffffffffffff1681565b60025481565b600154815600a165627a7a7230582091d82b4da3da688d748f74da85de03789263f4fc5e8511f0def93b0375bf47620029043dde8a406bae2ac5a8f7a1abfb5836a348f2563d30428c735f5c2cc64ee7d6a165627a7a72305820063b15ea9ca307ca9c4e5ba680a96d2f4051e5901937d727d2719fe0cd3dc03f0029",
  "source": "pragma solidity ^0.4.15;\n\nimport './base/Crowdsale.sol';\n\ncontract AltCrowdsalePhaseOne is Crowdsale {\n  function AltCrowdsalePhaseOne(\n    address _registry,\n    address _token,\n    address _extraTokensHolder,\n    uint _extraTokensPart,\n    uint[] _timeSlices,\n    uint[] _timePrices\n  ) public\n  {\n    setFlags(\n      // Should be whitelisted to buy tokens\n      // _isWhitelisted,\n      true,\n      // Should be known user to buy tokens\n      // _isKnownOnly,\n      true,\n      // Enable amount bonuses in crowdsale? \n      // _isAmountBonus,\n      false,\n      // Enable early bird bonus in crowdsale?\n      // _isEarlyBonus,\n      true,\n      // Allow to refund money?\n      // _isRefundable,\n      false,\n      // Allow to buy tokens for another tokens?\n      // _isTokenExcange,\n      false,\n      // Allow to issue tokens with tx hash (ex bitcoin)\n      // _isAllowToIssue,\n      true,\n      // Should mint extra tokens for future distribution?\n      // _isExtraDistribution,\n      false,\n      // Will ship token via minting? \n      // _isMintingShipment,\n      true,\n      // Should be capped in ether\n      // bool _isCappedInEther,\n      true,\n      // Should beneficiaries pull their tokens? \n      // _isPullingTokens\n      false\n    );\n\n    setToken(_token); \n \n    setTime(block.timestamp - 1 seconds, block.timestamp + 30 days);\n\n    setRegistry(_registry);\n    setWallet(msg.sender);\n    setExtraDistribution(_extraTokensHolder, _extraTokensPart);\n\n    setSoftHardCaps(\n      5 ether, // soft\n      10 ether  // hard\n    );\n\n    // 200 ALT per 1 ETH\n    setPrice(uint(1 ether).div(100));\n\n    setTimeBonuses(_timeSlices, _timePrices);\n  }  \n} ",
  "sourcePath": "/Users/aler/crypto/altestate-3/contracts/AltCrowdsale.sol",
  "compiler": {
    "name": "solc",
    "version": "0.4.18+commit.9cf6e910.Emscripten.clang"
  },
  "schemaVersion": "1.0.1",
  "updatedAt": "2017-12-01T13:39:55.195Z"
}