{
  "contractName": "AltCrowdsalePhaseOne",
  "abi": [
    {
      "constant": false,
      "inputs": [
        {
          "name": "_tokenAddress",
          "type": "address"
        }
      ],
      "name": "setToken",
      "outputs": [],
      "payable": false,
      "stateMutability": "nonpayable",
      "type": "function"
    },
    {
      "constant": true,
      "inputs": [
        {
          "name": "",
          "type": "address"
        }
      ],
      "name": "claimRefundAllowance",
      "outputs": [
        {
          "name": "",
          "type": "bool"
        }
      ],
      "payable": false,
      "stateMutability": "view",
      "type": "function"
    },
    {
      "constant": true,
      "inputs": [
        {
          "name": "",
          "type": "uint256"
        }
      ],
      "name": "timeSlices",
      "outputs": [
        {
          "name": "",
          "type": "uint256"
        }
      ],
      "payable": false,
      "stateMutability": "view",
      "type": "function"
    },
    {
      "constant": false,
      "inputs": [
        {
          "name": "_timeSlices",
          "type": "uint256[]"
        },
        {
          "name": "_prices",
          "type": "uint256[]"
        }
      ],
      "name": "setTimeBonuses",
      "outputs": [],
      "payable": false,
      "stateMutability": "nonpayable",
      "type": "function"
    },
    {
      "constant": true,
      "inputs": [],
      "name": "temporalTotalSupply",
      "outputs": [
        {
          "name": "",
          "type": "uint256"
        }
      ],
      "payable": false,
      "stateMutability": "view",
      "type": "function"
    },
    {
      "constant": false,
      "inputs": [
        {
          "name": "_beneficiary",
          "type": "address"
        },
        {
          "name": "_value",
          "type": "uint256"
        },
        {
          "name": "_timestamp",
          "type": "uint256"
        },
        {
          "name": "_hash",
          "type": "bytes32"
        }
      ],
      "name": "buyWithHash",
      "outputs": [],
      "payable": false,
      "stateMutability": "nonpayable",
      "type": "function"
    },
    {
      "constant": true,
      "inputs": [],
      "name": "isRefundable",
      "outputs": [
        {
          "name": "",
          "type": "bool"
        }
      ],
      "payable": false,
      "stateMutability": "view",
      "type": "function"
    },
    {
      "constant": false,
      "inputs": [
        {
          "name": "_token",
          "type": "address"
        },
        {
          "name": "_value",
          "type": "uint256"
        }
      ],
      "name": "updateTokenValue",
      "outputs": [],
      "payable": false,
      "stateMutability": "nonpayable",
      "type": "function"
    },
    {
      "constant": true,
      "inputs": [],
      "name": "endTime",
      "outputs": [
        {
          "name": "",
          "type": "uint256"
        }
      ],
      "payable": false,
      "stateMutability": "view",
      "type": "function"
    },
    {
      "constant": false,
      "inputs": [
        {
          "name": "_amountSlices",
          "type": "uint256[]"
        },
        {
          "name": "_prices",
          "type": "uint256[]"
        }
      ],
      "name": "setAmountBonuses",
      "outputs": [],
      "payable": false,
      "stateMutability": "nonpayable",
      "type": "function"
    },
    {
      "constant": false,
      "inputs": [
        {
          "name": "_beneficiary",
          "type": "address"
        },
        {
          "name": "_weiAmount",
          "type": "uint256"
        },
        {
          "name": "_time",
          "type": "uint256"
        },
        {
          "name": "_totalSupply",
          "type": "uint256"
        }
      ],
      "name": "calculateEthAmount",
      "outputs": [
        {
          "name": "",
          "type": "uint256"
        },
        {
          "name": "",
          "type": "uint256"
        },
        {
          "name": "",
          "type": "uint256"
        }
      ],
      "payable": false,
      "stateMutability": "nonpayable",
      "type": "function"
    },
    {
      "constant": true,
      "inputs": [],
      "name": "tokenDecimals",
      "outputs": [
        {
          "name": "",
          "type": "uint256"
        }
      ],
      "payable": false,
      "stateMutability": "view",
      "type": "function"
    },
    {
      "constant": true,
      "inputs": [
        {
          "name": "",
          "type": "uint256"
        }
      ],
      "name": "whitelisted",
      "outputs": [
        {
          "name": "",
          "type": "address"
        }
      ],
      "payable": false,
      "stateMutability": "view",
      "type": "function"
    },
    {
      "constant": true,
      "inputs": [],
      "name": "weiRaised",
      "outputs": [
        {
          "name": "",
          "type": "uint256"
        }
      ],
      "payable": false,
      "stateMutability": "view",
      "type": "function"
    },
    {
      "constant": true,
      "inputs": [
        {
          "name": "",
          "type": "address"
        },
        {
          "name": "",
          "type": "address"
        }
      ],
      "name": "altDeposit",
      "outputs": [
        {
          "name": "",
          "type": "uint256"
        }
      ],
      "payable": false,
      "stateMutability": "view",
      "type": "function"
    },
    {
      "constant": false,
      "inputs": [
        {
          "name": "_isWhitelisted",
          "type": "bool"
        },
        {
          "name": "_isKnownOnly",
          "type": "bool"
        },
        {
          "name": "_isAmountBonus",
          "type": "bool"
        },
        {
          "name": "_isEarlyBonus",
          "type": "bool"
        },
        {
          "name": "_isRefundable",
          "type": "bool"
        },
        {
          "name": "_isTokenExcange",
          "type": "bool"
        },
        {
          "name": "_isAllowToIssue",
          "type": "bool"
        },
        {
          "name": "_isExtraDistribution",
          "type": "bool"
        },
        {
          "name": "_isMintingShipment",
          "type": "bool"
        },
        {
          "name": "_isCappedInEther",
          "type": "bool"
        },
        {
          "name": "_isPullingTokens",
          "type": "bool"
        }
      ],
      "name": "setFlags",
      "outputs": [],
      "payable": false,
      "stateMutability": "nonpayable",
      "type": "function"
    },
    {
      "constant": true,
      "inputs": [],
      "name": "wallet",
      "outputs": [
        {
          "name": "",
          "type": "address"
        }
      ],
      "payable": false,
      "stateMutability": "view",
      "type": "function"
    },
    {
      "constant": true,
      "inputs": [],
      "name": "isAllowToIssue",
      "outputs": [
        {
          "name": "",
          "type": "bool"
        }
      ],
      "payable": false,
      "stateMutability": "view",
      "type": "function"
    },
    {
      "constant": true,
      "inputs": [],
      "name": "isCappedInEther",
      "outputs": [
        {
          "name": "",
          "type": "bool"
        }
      ],
      "payable": false,
      "stateMutability": "view",
      "type": "function"
    },
    {
      "constant": true,
      "inputs": [
        {
          "name": "_beneficiary",
          "type": "address"
        },
        {
          "name": "_weiAmount",
          "type": "uint256"
        },
        {
          "name": "_tokenAmount",
          "type": "uint256"
        },
        {
          "name": "_extraAmount",
          "type": "uint256"
        },
        {
          "name": "_totalAmount",
          "type": "uint256"
        }
      ],
      "name": "validPurchase",
      "outputs": [
        {
          "name": "",
          "type": "bool"
        }
      ],
      "payable": false,
      "stateMutability": "view",
      "type": "function"
    },
    {
      "constant": true,
      "inputs": [],
      "name": "userRegistry",
      "outputs": [
        {
          "name": "",
          "type": "address"
        }
      ],
      "payable": false,
      "stateMutability": "view",
      "type": "function"
    },
    {
      "constant": true,
      "inputs": [
        {
          "name": "",
          "type": "uint256"
        }
      ],
      "name": "amountSlices",
      "outputs": [
        {
          "name": "",
          "type": "uint256"
        }
      ],
      "payable": false,
      "stateMutability": "view",
      "type": "function"
    },
    {
      "constant": false,
      "inputs": [
        {
          "name": "x",
          "type": "address"
        }
      ],
      "name": "addressToString",
      "outputs": [
        {
          "name": "",
          "type": "string"
        }
      ],
      "payable": false,
      "stateMutability": "nonpayable",
      "type": "function"
    },
    {
      "constant": true,
      "inputs": [],
      "name": "isWhitelisted",
      "outputs": [
        {
          "name": "",
          "type": "bool"
        }
      ],
      "payable": false,
      "stateMutability": "view",
      "type": "function"
    },
    {
      "constant": false,
      "inputs": [
        {
          "name": "b",
          "type": "bytes1"
        }
      ],
      "name": "char",
      "outputs": [
        {
          "name": "c",
          "type": "bytes1"
        }
      ],
      "payable": false,
      "stateMutability": "nonpayable",
      "type": "function"
    },
    {
      "constant": false,
      "inputs": [
        {
          "name": "_owner",
          "type": "address"
        }
      ],
      "name": "grant",
      "outputs": [],
      "payable": false,
      "stateMutability": "nonpayable",
      "type": "function"
    },
    {
      "constant": false,
      "inputs": [
        {
          "name": "_owner",
          "type": "address"
        }
      ],
      "name": "revoke",
      "outputs": [],
      "payable": false,
      "stateMutability": "nonpayable",
      "type": "function"
    },
    {
      "constant": true,
      "inputs": [],
      "name": "timeSlicesCount",
      "outputs": [
        {
          "name": "",
          "type": "uint256"
        }
      ],
      "payable": false,
      "stateMutability": "view",
      "type": "function"
    },
    {
      "constant": false,
      "inputs": [],
      "name": "saneIt",
      "outputs": [],
      "payable": false,
      "stateMutability": "nonpayable",
      "type": "function"
    },
    {
      "constant": true,
      "inputs": [
        {
          "name": "_at",
          "type": "uint256"
        }
      ],
      "name": "calculateTimeBonus",
      "outputs": [
        {
          "name": "",
          "type": "uint256"
        }
      ],
      "payable": false,
      "stateMutability": "view",
      "type": "function"
    },
    {
      "constant": true,
      "inputs": [],
      "name": "startTime",
      "outputs": [
        {
          "name": "",
          "type": "uint256"
        }
      ],
      "payable": false,
      "stateMutability": "view",
      "type": "function"
    },
    {
      "constant": true,
      "inputs": [
        {
          "name": "",
          "type": "address"
        }
      ],
      "name": "personalBonuses",
      "outputs": [
        {
          "name": "",
          "type": "address"
        }
      ],
      "payable": false,
      "stateMutability": "view",
      "type": "function"
    },
    {
      "constant": false,
      "inputs": [
        {
          "name": "_holder",
          "type": "address"
        },
        {
          "name": "_extraPart",
          "type": "uint256"
        }
      ],
      "name": "setExtraDistribution",
      "outputs": [],
      "payable": false,
      "stateMutability": "nonpayable",
      "type": "function"
    },
    {
      "constant": true,
      "inputs": [
        {
          "name": "_changeAmount",
          "type": "uint256"
        }
      ],
      "name": "calculateAmountBonus",
      "outputs": [
        {
          "name": "",
          "type": "uint256"
        }
      ],
      "payable": false,
      "stateMutability": "view",
      "type": "function"
    },
    {
      "constant": true,
      "inputs": [],
      "name": "publisher",
      "outputs": [
        {
          "name": "",
          "type": "address"
        }
      ],
      "payable": false,
      "stateMutability": "view",
      "type": "function"
    },
    {
      "constant": true,
      "inputs": [],
      "name": "isOwner",
      "outputs": [
        {
          "name": "",
          "type": "bool"
        }
      ],
      "payable": false,
      "stateMutability": "view",
      "type": "function"
    },
    {
      "constant": false,
      "inputs": [
        {
          "name": "_from",
          "type": "address"
        },
        {
          "name": "_value",
          "type": "uint256"
        },
        {
          "name": "_token",
          "type": "address"
        },
        {
          "name": "_extraData",
          "type": "bytes"
        }
      ],
      "name": "receiveApproval",
      "outputs": [],
      "payable": false,
      "stateMutability": "nonpayable",
      "type": "function"
    },
    {
      "constant": true,
      "inputs": [],
      "name": "softCap",
      "outputs": [
        {
          "name": "",
          "type": "uint256"
        }
      ],
      "payable": false,
      "stateMutability": "view",
      "type": "function"
    },
    {
      "constant": false,
      "inputs": [
        {
          "name": "_price",
          "type": "uint256"
        }
      ],
      "name": "setPrice",
      "outputs": [],
      "payable": false,
      "stateMutability": "nonpayable",
      "type": "function"
    },
    {
      "constant": true,
      "inputs": [],
      "name": "isAmountBonus",
      "outputs": [
        {
          "name": "",
          "type": "bool"
        }
      ],
      "payable": false,
      "stateMutability": "view",
      "type": "function"
    },
    {
      "constant": true,
      "inputs": [
        {
          "name": "",
          "type": "address"
        }
      ],
      "name": "whitelist",
      "outputs": [
        {
          "name": "",
          "type": "address"
        }
      ],
      "payable": false,
      "stateMutability": "view",
      "type": "function"
    },
    {
      "constant": false,
      "inputs": [
        {
          "name": "_start",
          "type": "uint256"
        },
        {
          "name": "_end",
          "type": "uint256"
        }
      ],
      "name": "setTime",
      "outputs": [],
      "payable": false,
      "stateMutability": "nonpayable",
      "type": "function"
    },
    {
      "constant": true,
      "inputs": [],
      "name": "price",
      "outputs": [
        {
          "name": "",
          "type": "uint256"
        }
      ],
      "payable": false,
      "stateMutability": "view",
      "type": "function"
    },
    {
      "constant": false,
      "inputs": [
        {
          "name": "_registry",
          "type": "address"
        }
      ],
      "name": "setRegistry",
      "outputs": [],
      "payable": false,
      "stateMutability": "nonpayable",
      "type": "function"
    },
    {
      "constant": true,
      "inputs": [],
      "name": "whitelistedCount",
      "outputs": [
        {
          "name": "",
          "type": "uint256"
        }
      ],
      "payable": false,
      "stateMutability": "view",
      "type": "function"
    },
    {
      "constant": false,
      "inputs": [
        {
          "name": "_beneficiary",
          "type": "address"
        },
        {
          "name": "_min",
          "type": "uint256"
        },
        {
          "name": "_max",
          "type": "uint256"
        }
      ],
      "name": "addToWhitelist",
      "outputs": [],
      "payable": false,
      "stateMutability": "nonpayable",
      "type": "function"
    },
    {
      "constant": true,
      "inputs": [
        {
          "name": "",
          "type": "address"
        }
      ],
      "name": "temporalBalances",
      "outputs": [
        {
          "name": "",
          "type": "uint256"
        }
      ],
      "payable": false,
      "stateMutability": "view",
      "type": "function"
    },
    {
      "constant": true,
      "inputs": [],
      "name": "isTokenExcange",
      "outputs": [
        {
          "name": "",
          "type": "bool"
        }
      ],
      "payable": false,
      "stateMutability": "view",
      "type": "function"
    },
    {
      "constant": true,
      "inputs": [],
      "name": "isTransferShipment",
      "outputs": [
        {
          "name": "",
          "type": "bool"
        }
      ],
      "payable": false,
      "stateMutability": "view",
      "type": "function"
    },
    {
      "constant": false,
      "inputs": [
        {
          "name": "_beneficiary",
          "type": "address"
        }
      ],
      "name": "claimRefund",
      "outputs": [
        {
          "name": "",
          "type": "bool"
        }
      ],
      "payable": false,
      "stateMutability": "nonpayable",
      "type": "function"
    },
    {
      "constant": true,
      "inputs": [],
      "name": "state",
      "outputs": [
        {
          "name": "",
          "type": "uint8"
        }
      ],
      "payable": false,
      "stateMutability": "view",
      "type": "function"
    },
    {
      "constant": true,
      "inputs": [],
      "name": "isExtraDistribution",
      "outputs": [
        {
          "name": "",
          "type": "bool"
        }
      ],
      "payable": false,
      "stateMutability": "view",
      "type": "function"
    },
    {
      "constant": false,
      "inputs": [
        {
          "name": "_token",
          "type": "address"
        },
        {
          "name": "_value",
          "type": "uint256"
        }
      ],
      "name": "setTokenExcange",
      "outputs": [],
      "payable": false,
      "stateMutability": "nonpayable",
      "type": "function"
    },
    {
      "constant": true,
      "inputs": [
        {
          "name": "inStr",
          "type": "string"
        },
        {
          "name": "v",
          "type": "uint256"
        }
      ],
      "name": "appendUintToString",
      "outputs": [
        {
          "name": "str",
          "type": "string"
        }
      ],
      "payable": false,
      "stateMutability": "pure",
      "type": "function"
    },
    {
      "constant": false,
      "inputs": [
        {
          "name": "_softCap",
          "type": "uint256"
        },
        {
          "name": "_hardCap",
          "type": "uint256"
        }
      ],
      "name": "setSoftHardCaps",
      "outputs": [],
      "payable": false,
      "stateMutability": "nonpayable",
      "type": "function"
    },
    {
      "constant": true,
      "inputs": [
        {
          "name": "",
          "type": "uint256"
        }
      ],
      "name": "amountBonuses",
      "outputs": [
        {
          "name": "",
          "type": "uint256"
        }
      ],
      "payable": false,
      "stateMutability": "view",
      "type": "function"
    },
    {
      "constant": true,
      "inputs": [
        {
          "name": "",
          "type": "address"
        }
      ],
      "name": "weiDeposit",
      "outputs": [
        {
          "name": "",
          "type": "uint256"
        }
      ],
      "payable": false,
      "stateMutability": "view",
      "type": "function"
    },
    {
      "constant": true,
      "inputs": [],
      "name": "extraDistributionPart",
      "outputs": [
        {
          "name": "",
          "type": "uint256"
        }
      ],
      "payable": false,
      "stateMutability": "view",
      "type": "function"
    },
    {
      "constant": true,
      "inputs": [
        {
          "name": "",
          "type": "uint256"
        }
      ],
      "name": "timeBonuses",
      "outputs": [
        {
          "name": "",
          "type": "uint256"
        }
      ],
      "payable": false,
      "stateMutability": "view",
      "type": "function"
    },
    {
      "constant": false,
      "inputs": [
        {
          "name": "_wallet",
          "type": "address"
        }
      ],
      "name": "setWallet",
      "outputs": [],
      "payable": false,
      "stateMutability": "nonpayable",
      "type": "function"
    },
    {
      "constant": true,
      "inputs": [
        {
          "name": "maybe_owner",
          "type": "address"
        }
      ],
      "name": "checkOwner",
      "outputs": [
        {
          "name": "",
          "type": "bool"
        }
      ],
      "payable": false,
      "stateMutability": "view",
      "type": "function"
    },
    {
      "constant": true,
      "inputs": [],
      "name": "isPullingTokens",
      "outputs": [
        {
          "name": "",
          "type": "bool"
        }
      ],
      "payable": false,
      "stateMutability": "view",
      "type": "function"
    },
    {
      "constant": true,
      "inputs": [],
      "name": "amountSlicesCount",
      "outputs": [
        {
          "name": "",
          "type": "uint256"
        }
      ],
      "payable": false,
      "stateMutability": "view",
      "type": "function"
    },
    {
      "constant": true,
      "inputs": [],
      "name": "isKnownOnly",
      "outputs": [
        {
          "name": "",
          "type": "bool"
        }
      ],
      "payable": false,
      "stateMutability": "view",
      "type": "function"
    },
    {
      "constant": true,
      "inputs": [
        {
          "name": "",
          "type": "address"
        }
      ],
      "name": "allowedTokens",
      "outputs": [
        {
          "name": "",
          "type": "address"
        }
      ],
      "payable": false,
      "stateMutability": "view",
      "type": "function"
    },
    {
      "constant": true,
      "inputs": [],
      "name": "extraTokensHolder",
      "outputs": [
        {
          "name": "",
          "type": "address"
        }
      ],
      "payable": false,
      "stateMutability": "view",
      "type": "function"
    },
    {
      "constant": true,
      "inputs": [
        {
          "name": "v",
          "type": "uint256"
        }
      ],
      "name": "uintToString",
      "outputs": [
        {
          "name": "str",
          "type": "string"
        }
      ],
      "payable": false,
      "stateMutability": "pure",
      "type": "function"
    },
    {
      "constant": false,
      "inputs": [
        {
          "name": "_beneficiary",
          "type": "address"
        }
      ],
      "name": "buyTokens",
      "outputs": [],
      "payable": true,
      "stateMutability": "payable",
      "type": "function"
    },
    {
      "constant": true,
      "inputs": [],
      "name": "isEarlyBonus",
      "outputs": [
        {
          "name": "",
          "type": "bool"
        }
      ],
      "payable": false,
      "stateMutability": "view",
      "type": "function"
    },
    {
      "constant": false,
      "inputs": [
        {
          "name": "_beneficiary",
          "type": "address"
        },
        {
          "name": "_bonus",
          "type": "uint256"
        },
        {
          "name": "_referalAddress",
          "type": "address"
        },
        {
          "name": "_referalBonus",
          "type": "uint256"
        }
      ],
      "name": "setPersonalBonus",
      "outputs": [],
      "payable": false,
      "stateMutability": "nonpayable",
      "type": "function"
    },
    {
      "constant": true,
      "inputs": [
        {
          "name": "",
          "type": "address"
        }
      ],
      "name": "tokensValues",
      "outputs": [
        {
          "name": "",
          "type": "uint256"
        }
      ],
      "payable": false,
      "stateMutability": "view",
      "type": "function"
    },
    {
      "constant": false,
      "inputs": [
        {
          "name": "_beneficiary",
          "type": "address"
        }
      ],
      "name": "refund",
      "outputs": [],
      "payable": false,
      "stateMutability": "nonpayable",
      "type": "function"
    },
    {
      "constant": true,
      "inputs": [],
      "name": "hardCap",
      "outputs": [
        {
          "name": "",
          "type": "uint256"
        }
      ],
      "payable": false,
      "stateMutability": "view",
      "type": "function"
    },
    {
      "constant": true,
      "inputs": [],
      "name": "token",
      "outputs": [
        {
          "name": "",
          "type": "address"
        }
      ],
      "payable": false,
      "stateMutability": "view",
      "type": "function"
    },
    {
      "constant": true,
      "inputs": [],
      "name": "VERSION",
      "outputs": [
        {
          "name": "",
          "type": "uint256"
        }
      ],
      "payable": false,
      "stateMutability": "view",
      "type": "function"
    },
    {
      "inputs": [
        {
          "name": "_registry",
          "type": "address"
        },
        {
          "name": "_token",
          "type": "address"
        },
        {
          "name": "_extraTokensHolder",
          "type": "address"
        },
        {
          "name": "_extraTokensPart",
          "type": "uint256"
        },
        {
          "name": "_timeSlices",
          "type": "uint256[]"
        },
        {
          "name": "_timePrices",
          "type": "uint256[]"
        }
      ],
      "payable": false,
      "stateMutability": "nonpayable",
      "type": "constructor"
    },
    {
      "payable": true,
      "stateMutability": "payable",
      "type": "fallback"
    },
    {
      "anonymous": false,
      "inputs": [
        {
          "indexed": true,
          "name": "purchaser",
          "type": "address"
        },
        {
          "indexed": true,
          "name": "beneficiary",
          "type": "address"
        },
        {
          "indexed": false,
          "name": "value",
          "type": "uint256"
        },
        {
          "indexed": false,
          "name": "amount",
          "type": "uint256"
        }
      ],
      "name": "TokenPurchase",
      "type": "event"
    },
    {
      "anonymous": false,
      "inputs": [
        {
          "indexed": true,
          "name": "beneficiary",
          "type": "address"
        },
        {
          "indexed": false,
          "name": "value",
          "type": "uint256"
        },
        {
          "indexed": false,
          "name": "amount",
          "type": "uint256"
        },
        {
          "indexed": false,
          "name": "timestamp",
          "type": "uint256"
        },
        {
          "indexed": true,
          "name": "bitcoinHash",
          "type": "bytes32"
        }
      ],
      "name": "HashSale",
      "type": "event"
    },
    {
      "anonymous": false,
      "inputs": [
        {
          "indexed": true,
          "name": "beneficiary",
          "type": "address"
        },
        {
          "indexed": true,
          "name": "allowedToken",
          "type": "address"
        },
        {
          "indexed": false,
          "name": "allowedTokenValue",
          "type": "uint256"
        },
        {
          "indexed": false,
          "name": "ethValue",
          "type": "uint256"
        },
        {
          "indexed": false,
          "name": "shipAmount",
          "type": "uint256"
        }
      ],
      "name": "TokenSell",
      "type": "event"
    },
    {
      "anonymous": false,
      "inputs": [
        {
          "indexed": true,
          "name": "owner",
          "type": "address"
        },
        {
          "indexed": false,
          "name": "amount",
          "type": "uint256"
        }
      ],
      "name": "ShipTokens",
      "type": "event"
    },
    {
      "anonymous": false,
      "inputs": [
        {
          "indexed": true,
          "name": "sender",
          "type": "address"
        },
        {
          "indexed": false,
          "name": "message",
          "type": "string"
        }
      ],
      "name": "Debug",
      "type": "event"
    },
    {
      "anonymous": false,
      "inputs": [
        {
          "indexed": true,
          "name": "owner",
          "type": "address"
        }
      ],
      "name": "AccessGrant",
      "type": "event"
    },
    {
      "anonymous": false,
      "inputs": [
        {
          "indexed": true,
          "name": "owner",
          "type": "address"
        }
      ],
      "name": "AccessRevoke",
      "type": "event"
    }
  ],
  "bytecode": "0x606060405234156200001057600080fd5b604051620058a7380380620058a78339810160405280805191906020018051919060200180519190602001805191906020018051820191906020018051600160a060020a0333166000818152602081905260408120805460ff191660019081179091558054600160a060020a03191690921782559190930192620000ae9250908190818180828181808264010000000062001b68620001c682021704565b620000c78564010000000062000e4e6200037682021704565b620000ef600142034262278d0001620005656401000000000262002c1f176401000000009004565b620001088664010000000062002db16200079982021704565b620001213364010000000062003444620008a382021704565b6200013b8484640100000000620026f0620009ad82021704565b62000165674563918244f40000678ac7230489e800006401000000006200329462000b9c82021704565b620001a06200018c670de0b6b3a7640000606464010000000062003d2062000d3882021704565b64010000000062002b3162000d5082021704565b620001ba82826401000000006200103e62000e1582021704565b5050505050506200162e565b600080601a5460ff166004811115620001db57fe5b14620001e657600080fd5b600160a060020a03331660009081526020819052604090205460ff1615156001146200021157600080fd5b8b600160146101000a81548160ff0219169083151502179055508a600160156101000a81548160ff02191690831515021790555089600160166101000a81548160ff02191690831515021790555088600160176101000a81548160ff02191690831515021790555087600160186101000a81548160ff02191690831515021790555086600160196101000a81548160ff021916908315150217905550856001601a6101000a81548160ff021916908315150217905550846001601b6101000a81548160ff021916908315150217905550836001601c6101000a81548160ff021916908315150217905550826001601d6101000a81548160ff021916908315150217905550600160189054906101000a900460ff16806200032e5750815b600180549115157e010000000000000000000000000000000000000000000000000000000000000260f060020a60ff0219909216919091179055505050505050505050505050565b600080601a5460ff1660048111156200038b57fe5b146200039657600080fd5b600160a060020a03331660009081526020819052604090205460ff161515600114620003c157600080fd5b600d8054600160a060020a031916600160a060020a0384811691909117918290551663313ce5676000604051602001526040518163ffffffff167c0100000000000000000000000000000000000000000000000000000000028152600401602060405180830381600087803b15156200043957600080fd5b6102c65a03f115156200044b57600080fd5b5050506040518051600e5550600160a060020a0333166000805160206200588783398151915260405160208082526009908201527f4e657720546f6b656e00000000000000000000000000000000000000000000006040808301919091526060909101905180910390a2600160a060020a03331660008051602062005887833981519152620004e884640100000000620020676200111882021704565b60405160208082528190810183818151815260200191508051906020019080838360005b83811015620005265780820151838201526020016200050c565b50505050905090810190601f168015620005545780820380516001836020036101000a031916815260200191505b509250505060405180910390a25050565b600080601a5460ff1660048111156200057a57fe5b146200058557600080fd5b600160a060020a03331660009081526020819052604090205460ff161515600114620005b057600080fd5b818310620005bd57600080fd5b428211620005ca57600080fd5b60118390556012829055600160a060020a033316600080516020620058878339815191526200063b60408051908101604052600c81527f53746172742054696d653a20000000000000000000000000000000000000000060208201528664010000000062003106620012ae82021704565b60405160208082528190810183818151815260200191508051906020019080838360005b83811015620006795780820151838201526020016200065f565b50505050905090810190601f168015620006a75780820380516001836020036101000a031916815260200191505b509250505060405180910390a233600160a060020a0316600080516020620058878339815191526200071b60408051908101604052600a81527f456e642054696d653a200000000000000000000000000000000000000000000060208201528564010000000062003106620012ae82021704565b60405160208082528190810183818151815260200191508051906020019080838360005b83811015620007595780820151838201526020016200073f565b50505050905090810190601f168015620007875780820380516001836020036101000a031916815260200191505b509250505060405180910390a2505050565b600080601a5460ff166004811115620007ae57fe5b14620007b957600080fd5b600160a060020a03331660009081526020819052604090205460ff161515600114620007e457600080fd5b600160a060020a0382161515620007fa57600080fd5b60058054600160a060020a031916600160a060020a03848116919091179091553316600080516020620058878339815191526040516020808252600c908201527f4e657720526567697374727900000000000000000000000000000000000000006040808301919091526060909101905180910390a2600160a060020a03331660008051602062005887833981519152620004e884640100000000620020676200111882021704565b600080601a5460ff166004811115620008b857fe5b14620008c357600080fd5b600160a060020a03331660009081526020819052604090205460ff161515600114620008ee57600080fd5b600160a060020a03821615156200090457600080fd5b60138054600160a060020a031916600160a060020a03848116919091179091553316600080516020620058878339815191526040516020808252600a908201527f4e65772057616c6c6574000000000000000000000000000000000000000000006040808301919091526060909101905180910390a2600160a060020a03331660008051602062005887833981519152620004e884640100000000620020676200111882021704565b600080601a5460ff166004811115620009c257fe5b14620009cd57600080fd5b600160a060020a03331660009081526020819052604090205460ff161515600114620009f857600080fd5b600160a060020a038316151562000a0e57600080fd5b60178054600160a060020a031916600160a060020a0385811691909117909155601883905533166000805160206200588783398151915260405160208082526017908201527f4e657720457874726120546f6b656e7320486f6c6465720000000000000000006040808301919091526060909101905180910390a2600160a060020a0333166000805160206200588783398151915262000abc85640100000000620020676200111882021704565b60405160208082528190810183818151815260200191508051906020019080838360005b8381101562000afa57808201518382015260200162000ae0565b50505050905090810190601f16801562000b285780820380516001836020036101000a031916815260200191505b509250505060405180910390a233600160a060020a0316600080516020620058878339815191526200071b60408051908101604052601781527f4e657720457874726120546f6b656e7320506172743a2000000000000000000060208201528564010000000062003106620012ae82021704565b600080601a5460ff16600481111562000bb157fe5b1462000bbc57600080fd5b600160a060020a03331660009081526020819052604090205460ff16151560011462000be757600080fd5b60158290556016839055600160a060020a0333166000805160206200588783398151915262000c5860408051908101604052600a81527f536f6674204361703a200000000000000000000000000000000000000000000060208201528664010000000062003106620012ae82021704565b60405160208082528190810183818151815260200191508051906020019080838360005b8381101562000c9657808201518382015260200162000c7c565b50505050905090810190601f16801562000cc45780820380516001836020036101000a031916815260200191505b509250505060405180910390a233600160a060020a0316600080516020620058878339815191526200071b60408051908101604052600a81527f48617264204361703a200000000000000000000000000000000000000000000060208201528564010000000062003106620012ae82021704565b600080828481151562000d4757fe5b04949350505050565b600080601a5460ff16600481111562000d6557fe5b1462000d7057600080fd5b600160a060020a03331660009081526020819052604090205460ff16151560011462000d9b57600080fd5b6000821162000da957600080fd5b6014829055600160a060020a03331660008051602062005887833981519152620004e860408051908101604052600b81527f4e65772050726963653a2000000000000000000000000000000000000000000060208201528564010000000062003106620012ae82021704565b6000808080601a5460ff16600481111562000e2c57fe5b1462000e3757600080fd5b600160a060020a03331660009081526020819052604090205460ff16151560011462000e6257600080fd5b600b541562000e7057600080fd5b600185511162000e7f57600080fd5b845184511462000e8e57600080fd5b60009250600091505b84518210156200110b578285838151811062000eaf57fe5b90602001906020020151101562000ec557600080fd5b84828151811062000ed257fe5b906020019060200201519250600a805480600101828162000ef49190620015cc565b50600091825260209091200183905583828151811062000f1057fe5b90602001906020020151600960008581526020019081526020016000208190555033600160a060020a03166000805160206200588783398151915262000fae60408051908101604052601081527f4164642074696d6520626f6e75733a2000000000000000000000000000000000602082015287868151811062000f9057fe5b9060200190602002015164010000000062003106620012ae82021704565b60405160208082528190810183818151815260200191508051906020019080838360005b8381101562000fec57808201518382015260200162000fd2565b50505050905090810190601f1680156200101a5780820380516001836020036101000a031916815260200191505b509250505060405180910390a233600160a060020a0316600080516020620058878339815191526200108660408051908101604052600a81527f417420736c6963653a2000000000000000000000000000000000000000000000602082015288868151811062000f9057fe5b60405160208082528190810183818151815260200191508051906020019080838360005b83811015620010c4578082015183820152602001620010aa565b50505050905090810190601f168015620010f25780820380516001836020036101000a031916815260200191505b509250505060405180910390a260019091019062000e97565b5050600a54600b55505050565b62001122620015f8565b6200112c620015f8565b6000806000806028604051805910620011425750595b818152601f19601f830116810160200160405290509450600093505b6014841015620012a3578360130360080260020a87600160a060020a03168115156200118657fe5b047f01000000000000000000000000000000000000000000000000000000000000000292506010837f0100000000000000000000000000000000000000000000000000000000000000900460ff16811515620011de57fe5b047f01000000000000000000000000000000000000000000000000000000000000009081029250808304601002818504030290506200122b82640100000000620014dd8102620021ac1704565b8585600202815181106200123b57fe5b906020010190600160f860020a031916908160001a9053506200126c81640100000000620021ac620014dd82021704565b8585600202600101815181106200127f57fe5b906020010190600160f860020a031916908160001a9053506001909301926200115e565b509295945050505050565b620012b8620015f8565b6000620012c4620015f8565b600080620012d1620015f8565b620012db620015f8565b60006064965086604051805910620012f05750595b818152601f19601f830116810160200160405290509550600094505b88156200137657600a89069350600a89049850836030017f0100000000000000000000000000000000000000000000000000000000000000028686806001019750815181106200135857fe5b906020010190600160f860020a031916908160001a9053506200130c565b899250848351016040518059106200138b5750595b818152601f19601f830116810160200160405290509150600090505b82518110156200143657828181518110620013be57fe5b01602001517f010000000000000000000000000000000000000000000000000000000000000090047f0100000000000000000000000000000000000000000000000000000000000000028282815181106200141557fe5b906020010190600160f860020a031916908160001a905350600101620013a7565b5060005b84811015620014d05785816001870303815181106200145557fe5b01602001517f010000000000000000000000000000000000000000000000000000000000000090047f010000000000000000000000000000000000000000000000000000000000000002828451830181518110620014af57fe5b906020010190600160f860020a031916908160001a9053506001016200143a565b5098975050505050505050565b60007f0a000000000000000000000000000000000000000000000000000000000000007fff00000000000000000000000000000000000000000000000000000000000000831610156200157b57817f010000000000000000000000000000000000000000000000000000000000000090046030017f0100000000000000000000000000000000000000000000000000000000000000029050620015c7565b817f010000000000000000000000000000000000000000000000000000000000000090046057017f01000000000000000000000000000000000000000000000000000000000000000290505b919050565b815481835581811511620015f357600083815260209020620015f39181019083016200160a565b505050565b60206040519081016040526000815290565b6200162b91905b8082111562001627576000815560010162001611565b5090565b90565b614249806200163e6000396000f3006060604052600436106103555763ffffffff60e060020a600035041663144fa6d7811461036057806317d861441461037f578063205513f3146103b257806321309ae3146103da57806327937160146104695780632a37eaea1461047c5780632c1fecfe146104a45780632cdb8eec146104b75780633197cbb6146104d95780633647b084146104ec57806338a1187d1461057b5780633b97e856146105c75780633d4efe09146105da5780634042b66f1461060c57806341593ae91461061f5780634b77156214610644578063521eb273146106915780635551d1b7146106a45780635581800c146106b757806355e22956146106ca5780635c7460d6146106f55780635ce8ec24146107085780635e57966d1461071e578063611b4095146107b457806369f9ad2f146107c757806370284d191461083457806374a8f10314610853578063756abb981461087257806375f7e6f0146108855780637862affa1461089857806378e97925146108ae57806380c2cc38146108c1578063852a7d6c146108e05780638727b7fc146109025780638c72c54e146109185780638f32d59b1461092b5780638f4ffcb11461093e578063906a26e0146109aa57806391b7f5ed146109bd57806393545a79146109d35780639b19251a146109e6578063a0355eca14610a05578063a035b1fe14610a1e578063a91ee0dc14610a31578063b2a1de2214610a50578063b47be3e414610a63578063b761abf314610a88578063b8dd488e14610aa7578063bf7f10fe14610aba578063bffa55d514610acd578063c19d93fb14610aec578063c448fa8514610b23578063c6a7d3af14610b36578063c80667e314610b58578063c82829e014610bab578063d036261f14610bc4578063d256630314610bda578063d69c927514610bf9578063de7682a814610c0c578063deaa59df14610c22578063e0e3671c14610c41578063e17c3a0814610c60578063e3b6040e14610c73578063e56f381514610c86578063e744092e14610c99578063e75bf82014610cb8578063e939567914610ccb578063ec8ac4d814610ce1578063ef11e55b14610cf5578063f45b4fba14610d08578063f967c9eb14610d34578063fa89401a14610d53578063fb86a40414610d72578063fc0c546a14610d85578063ffa1ad7414610d98575b61035e33610dab565b005b341561036b57600080fd5b61035e600160a060020a0360043516610e4e565b341561038a57600080fd5b61039e600160a060020a036004351661100a565b604051901515815260200160405180910390f35b34156103bd57600080fd5b6103c860043561101f565b60405190815260200160405180910390f35b34156103e557600080fd5b61035e60046024813581810190830135806020818102016040519081016040528093929190818152602001838360200280828437820191505050505050919080359060200190820180359060200190808060200260200160405190810160405280939291908181526020018383602002808284375094965061103e95505050505050565b341561047457600080fd5b6103c8611318565b341561048757600080fd5b61035e600160a060020a036004351660243560443560643561131e565b34156104af57600080fd5b61039e6113db565b34156104c257600080fd5b61035e600160a060020a03600435166024356113eb565b34156104e457600080fd5b6103c8611431565b34156104f757600080fd5b61035e60046024813581810190830135806020818102016040519081016040528093929190818152602001838360200280828437820191505050505050919080359060200190820180359060200190808060200260200160405190810160405280939291908181526020018383602002808284375094965061143795505050505050565b341561058657600080fd5b6105a3600160a060020a03600435166024356044356064356116f5565b60405180848152602001838152602001828152602001935050505060405180910390f35b34156105d257600080fd5b6103c8611b17565b34156105e557600080fd5b6105f0600435611b1d565b604051600160a060020a03909116815260200160405180910390f35b341561061757600080fd5b6103c8611b45565b341561062a57600080fd5b6103c8600160a060020a0360043581169060243516611b4b565b341561064f57600080fd5b61035e6004351515602435151560443515156064351515608435151560a435151560c435151560e4351515610104351515610124351515610144351515611b68565b341561069c57600080fd5b6105f0611d11565b34156106af57600080fd5b61039e611d20565b34156106c257600080fd5b61039e611d47565b34156106d557600080fd5b61039e600160a060020a0360043516602435604435606435608435611d71565b341561070057600080fd5b6105f061204a565b341561071357600080fd5b6103c8600435612059565b341561072957600080fd5b61073d600160a060020a0360043516612067565b60405160208082528190810183818151815260200191508051906020019080838360005b83811015610779578082015183820152602001610761565b50505050905090810190601f1680156107a65780820380516001836020036101000a031916815260200191505b509250505060405180910390f35b34156107bf57600080fd5b61039e61218b565b34156107d257600080fd5b6107ff7fff00000000000000000000000000000000000000000000000000000000000000600435166121ac565b6040517fff00000000000000000000000000000000000000000000000000000000000000909116815260200160405180910390f35b341561083f57600080fd5b61035e600160a060020a0360043516612229565b341561085e57600080fd5b61035e600160a060020a03600435166122a6565b341561087d57600080fd5b6103c861235c565b341561089057600080fd5b61035e612362565b34156108a357600080fd5b6103c860043561265a565b34156108b957600080fd5b6103c86126cf565b34156108cc57600080fd5b6105f0600160a060020a03600435166126d5565b34156108eb57600080fd5b61035e600160a060020a03600435166024356126f0565b341561090d57600080fd5b6103c8600435612930565b341561092357600080fd5b6105f061299f565b341561093657600080fd5b61039e6129ae565b341561094957600080fd5b61035e60048035600160a060020a0390811691602480359260443516919060849060643590810190830135806020601f820181900481020160405190810160405281815292919060208401838380828437509496506129de95505050505050565b34156109b557600080fd5b6103c8612b2b565b34156109c857600080fd5b61035e600435612b31565b34156109de57600080fd5b61039e612be1565b34156109f157600080fd5b6105f0600160a060020a0360043516612c04565b3415610a1057600080fd5b61035e600435602435612c1f565b3415610a2957600080fd5b6103c8612dab565b3415610a3c57600080fd5b61035e600160a060020a0360043516612db1565b3415610a5b57600080fd5b6103c8612ea5565b3415610a6e57600080fd5b61035e600160a060020a0360043516602435604435612eab565b3415610a9357600080fd5b6103c8600160a060020a0360043516612f8d565b3415610ab257600080fd5b61039e612f9f565b3415610ac557600080fd5b61039e612fc5565b3415610ad857600080fd5b61039e600160a060020a0360043516612fd5565b3415610af757600080fd5b610aff613072565b60405180826004811115610b0f57fe5b60ff16815260200191505060405180910390f35b3415610b2e57600080fd5b61039e61307b565b3415610b4157600080fd5b61035e600160a060020a036004351660243561308b565b3415610b6357600080fd5b61073d60046024813581810190830135806020601f82018190048102016040519081016040528181529291906020840183838082843750949650509335935061310692505050565b3415610bb657600080fd5b61035e600435602435613294565b3415610bcf57600080fd5b6103c8600435613408565b3415610be557600080fd5b6103c8600160a060020a036004351661341a565b3415610c0457600080fd5b6103c861342c565b3415610c1757600080fd5b6103c8600435613432565b3415610c2d57600080fd5b61035e600160a060020a0360043516613444565b3415610c4c57600080fd5b61039e600160a060020a0360043516613538565b3415610c6b57600080fd5b61039e613568565b3415610c7e57600080fd5b6103c8613578565b3415610c9157600080fd5b61039e61357e565b3415610ca457600080fd5b6105f0600160a060020a03600435166135a0565b3415610cc357600080fd5b6105f06135bb565b3415610cd657600080fd5b61073d6004356135ca565b61035e600160a060020a0360043516610dab565b3415610d0057600080fd5b61039e6136ee565b3415610d1357600080fd5b61035e600160a060020a036004358116906024359060443516606435613712565b3415610d3f57600080fd5b6103c8600160a060020a03600435166137af565b3415610d5e57600080fd5b61035e600160a060020a03600435166137c1565b3415610d7d57600080fd5b6103c8613827565b3415610d9057600080fd5b6105f061382d565b3415610da357600080fd5b6103c861383c565b6000600180601a5460ff166004811115610dc157fe5b14610dcb57600080fd5b33600160a060020a03166000805160206141fe83398151915260405160208082526010908201527f53746172742062757920746f6b656e73000000000000000000000000000000006040808301919091526060909101905180910390a2610e328334613841565b915060008211610e4157600080fd5b610e49613c65565b505050565b600080601a5460ff166004811115610e6257fe5b14610e6c57600080fd5b600160a060020a03331660009081526020819052604090205460ff161515600114610e9657600080fd5b600d8054600160a060020a031916600160a060020a0384811691909117918290551663313ce5676000604051602001526040518163ffffffff1660e060020a028152600401602060405180830381600087803b1515610ef457600080fd5b6102c65a03f11515610f0557600080fd5b5050506040518051600e5550600160a060020a0333166000805160206141fe83398151915260405160208082526009908201527f4e657720546f6b656e00000000000000000000000000000000000000000000006040808301919091526060909101905180910390a233600160a060020a03166000805160206141fe833981519152610f9084612067565b60405160208082528190810183818151815260200191508051906020019080838360005b83811015610fcc578082015183820152602001610fb4565b50505050905090810190601f168015610ff95780820380516001836020036101000a031916815260200191505b509250505060405180910390a25050565b601f6020526000908152604090205460ff1681565b600a80548290811061102d57fe5b600091825260209091200154905081565b6000808080601a5460ff16600481111561105457fe5b1461105e57600080fd5b600160a060020a03331660009081526020819052604090205460ff16151560011461108857600080fd5b600b541561109557600080fd5b60018551116110a357600080fd5b84518451146110b157600080fd5b60009250600091505b845182101561130b57828583815181106110d057fe5b9060200190602002015110156110e557600080fd5b8482815181106110f157fe5b906020019060200201519250600a80548060010182816111119190613ecc565b50600091825260209091200183905583828151811061112c57fe5b90602001906020020151600960008581526020019081526020016000208190555033600160a060020a03166000805160206141fe8339815191526111b860408051908101604052601081527f4164642074696d6520626f6e75733a200000000000000000000000000000000060208201528786815181106111a957fe5b90602001906020020151613106565b60405160208082528190810183818151815260200191508051906020019080838360005b838110156111f45780820151838201526020016111dc565b50505050905090810190601f1680156112215780820380516001836020036101000a031916815260200191505b509250505060405180910390a233600160a060020a03166000805160206141fe83398151915261128a60408051908101604052600a81527f417420736c6963653a200000000000000000000000000000000000000000000060208201528886815181106111a957fe5b60405160208082528190810183818151815260200191508051906020019080838360005b838110156112c65780820151838201526020016112ae565b50505050905090810190601f1680156112f35780820380516001836020036101000a031916815260200191505b509250505060405180910390a26001909101906110ba565b5050600a54600b55505050565b601c5481565b6000600180601a5460ff16600481111561133457fe5b1461133e57600080fd5b600160a060020a03331660009081526020819052604090205460ff16151560011461136857600080fd5b6113728686613841565b91506000821161138157600080fd5b82600160a060020a0387167f7c8f7476d7c48fb598c2faeaa38296073548801f143f6a518170ba5d957ceb0487858860405180848152602001838152602001828152602001935050505060405180910390a3505050505050565b60015460c060020a900460ff1681565b600160a060020a03331660009081526020819052604090205460ff16151560011461141557600080fd5b600160a060020a03909116600090815260106020526040902055565b60125481565b6000808080601a5460ff16600481111561144d57fe5b1461145757600080fd5b600160a060020a03331660009081526020819052604090205460ff16151560011461148157600080fd5b600185511161148f57600080fd5b845184511461149d57600080fd5b60009250600091505b84518210156116e857828583815181106114bc57fe5b9060200190602002015110156114d157600080fd5b8482815181106114dd57fe5b906020019060200201519250600780548060010182816114fd9190613ecc565b50600091825260209091200183905583828151811061151857fe5b90602001906020020151600660008581526020019081526020016000208190555033600160a060020a03166000805160206141fe83398151915261159560408051908101604052601281527f41646420616d6f756e7420626f6e75733a20000000000000000000000000000060208201528786815181106111a957fe5b60405160208082528190810183818151815260200191508051906020019080838360005b838110156115d15780820151838201526020016115b9565b50505050905090810190601f1680156115fe5780820380516001836020036101000a031916815260200191505b509250505060405180910390a233600160a060020a03166000805160206141fe83398151915261166760408051908101604052600a81527f417420736c6963653a200000000000000000000000000000000000000000000060208201528886815181106111a957fe5b60405160208082528190810183818151815260200191508051906020019080838360005b838110156116a357808201518382015260200161168b565b50505050905090810190601f1680156116d05780820380516001836020036101000a031916815260200191505b509250505060405180910390a26001909101906114a6565b5050600754600855505050565b6000806000806000806000809150601154891080611714575060125489115b156117285760009650869550859450611b09565b600154760100000000000000000000000000000000000000000000900460ff161561185e576117666117598b612930565b839063ffffffff613ccd16565b915033600160a060020a03166000805160206141fe8339815191526117e7606060405190810160405280602381526020017f43616c63756c6174656420616d6f756e7420646570656e64656e7420626f6e7581526020017f733a20000000000000000000000000000000000000000000000000000000000081525085613106565b60405160208082528190810183818151815260200191508051906020019080838360005b8381101561182357808201518382015260200161180b565b50505050905090810190601f1680156118505780820380516001836020036101000a031916815260200191505b509250505060405180910390a25b60015477010000000000000000000000000000000000000000000000900460ff1615611a6b5733600160a060020a03166000805160206141fe8339815191526118ed60408051908101604052601981527f43616c63756c6174652074696d6520626f6e75732061743a200000000000000060208201526011546118e8908e9063ffffffff613ce316565b613106565b60405160208082528190810183818151815260200191508051906020019080838360005b83811015611929578082015183820152602001611911565b50505050905090810190601f1680156119565780820380516001836020036101000a031916815260200191505b509250505060405180910390a26119736117596011548b0361265a565b915033600160a060020a03166000805160206141fe8339815191526119f4606060405190810160405280602181526020017f43616c63756c617465642074696d6520646570656e64656e7420626f6e75733a81526020017f200000000000000000000000000000000000000000000000000000000000000081525085613106565b60405160208082528190810183818151815260200191508051906020019080838360005b83811015611a30578082015183820152602001611a18565b50505050905090810190601f168015611a5d5780820380516001836020036101000a031916815260200191505b509250505060405180910390a25b611a95601454611a89600e54600a0a8d613cf590919063ffffffff16565b9063ffffffff613d2016565b9350611abd611ab0612710611a89878663ffffffff613cf516565b859063ffffffff613ccd16565b60015490945060d860020a900460ff1615611af057611aed612710611a8960185487613cf590919063ffffffff16565b90505b611b00848263ffffffff613ccd16565b84829650965096505b505050509450945094915050565b600e5481565b6003805482908110611b2b57fe5b600091825260209091200154600160a060020a0316905081565b60195481565b601e60209081526000928352604080842090915290825290205481565b600080601a5460ff166004811115611b7c57fe5b14611b8657600080fd5b600160a060020a03331660009081526020819052604090205460ff161515600114611bb057600080fd5b8b600160146101000a81548160ff0219169083151502179055508a600160156101000a81548160ff02191690831515021790555089600160166101000a81548160ff02191690831515021790555088600160176101000a81548160ff02191690831515021790555087600160186101000a81548160ff02191690831515021790555086600160196101000a81548160ff021916908315150217905550856001601a6101000a81548160ff021916908315150217905550846001601b6101000a81548160ff021916908315150217905550836001601c6101000a81548160ff021916908315150217905550826001601d6101000a81548160ff021916908315150217905550600160189054906101000a900460ff1680611ccc5750815b6001805491151560f060020a027fff00ffffffffffffffffffffffffffffffffffffffffffffffffffffffffffff909216919091179055505050505050505050505050565b601354600160a060020a031681565b6001547a010000000000000000000000000000000000000000000000000000900460ff1681565b6001547d010000000000000000000000000000000000000000000000000000000000900460ff1681565b600080600080600160159054906101000a900460ff168015611e045750600554600160a060020a031663a75df8148a60006040516020015260405160e060020a63ffffffff8416028152600160a060020a039091166004820152602401602060405180830381600087803b1515611de757600080fd5b6102c65a03f11515611df857600080fd5b50505060405180519050155b15611e12576000935061203e565b600160a060020a0389166000908152601b6020526040902054611e3b908863ffffffff613ccd16565b601c54909350611e51908663ffffffff613ccd16565b60015490925074010000000000000000000000000000000000000000900460ff1615611fd05750600160a060020a038089166000908152600260205260408082205490921691829163b1b3d3f69151602001526040518163ffffffff1660e060020a028152600401602060405180830381600087803b1515611ed257600080fd5b6102c65a03f11515611ee357600080fd5b505050604051805190501580611f5857508281600160a060020a031663f88979456000604051602001526040518163ffffffff1660e060020a028152600401602060405180830381600087803b1515611f3b57600080fd5b6102c65a03f11515611f4c57600080fd5b50505060405180519050115b80611fc257508281600160a060020a0316636ac5db196000604051602001526040518163ffffffff1660e060020a028152600401602060405180830381600087803b1515611fa557600080fd5b6102c65a03f11515611fb657600080fd5b50505060405180519050105b15611fd0576000935061203e565b6001547d010000000000000000000000000000000000000000000000000000000000900460ff161561202657601554601954612012908a63ffffffff613ccd16565b1115612021576000935061203e565b612039565b601554821115612039576000935061203e565b600193505b50505095945050505050565b600554600160a060020a031681565b600780548290811061102d57fe5b61206f613ef0565b612077613ef0565b600080600080602860405180591061208c5750595b818152601f19601f830116810160200160405290509450600093505b6014841015612180578360130360080260020a87600160a060020a03168115156120ce57fe5b0460f860020a02925060108360f860020a900460ff168115156120ed57fe5b0460f860020a0291508160f860020a90046010028360f860020a90040360f860020a02905061211b826121ac565b85856002028151811061212a57fe5b906020010190600160f860020a031916908160001a90535061214b816121ac565b85856002026001018151811061215d57fe5b906020010190600160f860020a031916908160001a9053506001909301926120a8565b509295945050505050565b60015474010000000000000000000000000000000000000000900460ff1681565b60007f0a000000000000000000000000000000000000000000000000000000000000007fff0000000000000000000000000000000000000000000000000000000000000083161015612210578160f860020a900460300160f860020a029050612224565b8160f860020a900460570160f860020a0290505b919050565b600160a060020a03331660009081526020819052604090205460ff16151560011461225357600080fd5b600160a060020a03811660008181526020819052604090819020805460ff191660011790557f1350a997c6c86bcc51dd7e51f7ef618d620e6a85d8fdabb82a980c149ad88d47905160405180910390a250565b600160a060020a03331660009081526020819052604090205460ff1615156001146122d057600080fd5b600154600160a060020a03828116911614156122eb57600080fd5b80600160a060020a031633600160a060020a03161415151561230c57600080fd5b600160a060020a03811660008181526020819052604090819020805460ff191690557f1d1eff42eefbeecfca7e39f8adb5d7f19a7ebbb4c3e82c51f2500d7d76ab2468905160405180910390a250565b600b5481565b600080601a5460ff16600481111561237657fe5b1461238057600080fd5b600160a060020a03331660009081526020819052604090205460ff1615156001146123aa57600080fd5b601254601154106123ba57600080fd5b6012544290116123c957600080fd5b601454600090116123d957600080fd5b601354600160a060020a031615156123f057600080fd5b600d54600160a060020a0316151561240757600080fd5b6001547501000000000000000000000000000000000000000000900460ff161561244257600554600160a060020a0316151561244257600080fd5b600154760100000000000000000000000000000000000000000000900460ff1615612477576008546000901161247757600080fd5b60015477010000000000000000000000000000000000000000000000900460ff16156124ad57600b54600090116124ad57600080fd5b60015460d860020a900460ff16156124d657601754600160a060020a031615156124d657600080fd5b60015460e060020a900460ff161561257157601554600d54600160a060020a03166370a082313060006040516020015260405160e060020a63ffffffff8416028152600160a060020a039091166004820152602401602060405180830381600087803b151561254457600080fd5b6102c65a03f1151561255557600080fd5b505050604051805190501015151561256c57600080fd5b6125ed565b600d54600160a060020a033081169116638da5cb5b6000604051602001526040518163ffffffff1660e060020a028152600401602060405180830381600087803b15156125bd57600080fd5b6102c65a03f115156125ce57600080fd5b50505060405180519050600160a060020a03161415156125ed57600080fd5b601a805460ff19166001179055600160a060020a0333166000805160206141fe83398151915260405160208082526007908201527f53616e65206974000000000000000000000000000000000000000000000000006040808301919091526060909101905180910390a250565b600080805b600a548110156126c85760096000600a8381548110151561267c57fe5b906000526020600020900154815260200190815260200160002054915083600a828154811015156126a957fe5b90600052602060002090015411156126c0576126c8565b60010161265f565b5092915050565b60115481565b600c60205260009081526040902054600160a060020a031681565b600080601a5460ff16600481111561270457fe5b1461270e57600080fd5b600160a060020a03331660009081526020819052604090205460ff16151560011461273857600080fd5b600160a060020a038316151561274d57600080fd5b60178054600160a060020a031916600160a060020a0385811691909117909155601883905533166000805160206141fe83398151915260405160208082526017908201527f4e657720457874726120546f6b656e7320486f6c6465720000000000000000006040808301919091526060909101905180910390a233600160a060020a03166000805160206141fe8339815191526127e985612067565b60405160208082528190810183818151815260200191508051906020019080838360005b8381101561282557808201518382015260200161280d565b50505050905090810190601f1680156128525780820380516001836020036101000a031916815260200191505b509250505060405180910390a233600160a060020a03166000805160206141fe8339815191526128b560408051908101604052601781527f4e657720457874726120546f6b656e7320506172743a20000000000000000000602082015285613106565b60405160208082528190810183818151815260200191508051906020019080838360005b838110156128f15780820151838201526020016128d9565b50505050905090810190601f16801561291e5780820380516001836020036101000a031916815260200191505b509250505060405180910390a2505050565b600080805b6007548110156126c8578360078281548110151561294f57fe5b9060005260206000209001541115612966576126c8565b6006600060078381548110151561297957fe5b600091825260208083209091015483528201929092526040019020549150600101612935565b600154600160a060020a031681565b600160a060020a03331660009081526020819052604081205460ff166129d55760006129d8565b60015b90505b90565b600160a060020a038281166000908152600f602052604081205490918291161515612a0857600080fd5b600160a060020a038085166000908152600f602052604080822054612aad93169163313ce5679151602001526040518163ffffffff1660e060020a028152600401602060405180830381600087803b1515612a6257600080fd5b6102c65a03f11515612a7357600080fd5b5050506040518051600160a060020a038716600090815260106020526040902054600a9190910a9150611a8990889063ffffffff613cf516565b9150612ab98683613841565b905060008111612ac857600080fd5b83600160a060020a031686600160a060020a03167f8f9e1c6f80a0fd25dc246f3b0a51422fce2a5f211d4f9877c7ec20b6499c939f87858560405180848152602001838152602001828152602001935050505060405180910390a3505050505050565b60165481565b600080601a5460ff166004811115612b4557fe5b14612b4f57600080fd5b600160a060020a03331660009081526020819052604090205460ff161515600114612b7957600080fd5b60008211612b8657600080fd5b6014829055600160a060020a0333166000805160206141fe833981519152610f9060408051908101604052600b81527f4e65772050726963653a20000000000000000000000000000000000000000000602082015285613106565b600154760100000000000000000000000000000000000000000000900460ff1681565b600260205260009081526040902054600160a060020a031681565b600080601a5460ff166004811115612c3357fe5b14612c3d57600080fd5b600160a060020a03331660009081526020819052604090205460ff161515600114612c6757600080fd5b818310612c7357600080fd5b428211612c7f57600080fd5b60118390556012829055600160a060020a0333166000805160206141fe833981519152612cdf60408051908101604052600c81527f53746172742054696d653a200000000000000000000000000000000000000000602082015286613106565b60405160208082528190810183818151815260200191508051906020019080838360005b83811015612d1b578082015183820152602001612d03565b50505050905090810190601f168015612d485780820380516001836020036101000a031916815260200191505b509250505060405180910390a233600160a060020a03166000805160206141fe8339815191526128b560408051908101604052600a81527f456e642054696d653a2000000000000000000000000000000000000000000000602082015285613106565b60145481565b600080601a5460ff166004811115612dc557fe5b14612dcf57600080fd5b600160a060020a03331660009081526020819052604090205460ff161515600114612df957600080fd5b600160a060020a0382161515612e0e57600080fd5b60058054600160a060020a031916600160a060020a038481169190911790915533166000805160206141fe8339815191526040516020808252600c908201527f4e657720526567697374727900000000000000000000000000000000000000006040808301919091526060909101905180910390a233600160a060020a03166000805160206141fe833981519152610f9084612067565b60045481565b600160a060020a0383161515612ec057600080fd5b80821115612ecd57600080fd5b801515612ee85750701d6329f1c35ca4bfabb9f56100000000005b8181612ef2613f02565b918252602082015260409081019051809103906000f0801515612f1457600080fd5b600160a060020a0384811660009081526002602052604090208054600160a060020a031916929091169190911790556003805460018101612f558382613ecc565b5060009182526020909120018054600160a060020a031916600160a060020a0394909416939093179092555050600480546001019055565b601b6020526000908152604090205481565b600154790100000000000000000000000000000000000000000000000000900460ff1681565b60015460e060020a900460ff1681565b60015460009060c060020a900460ff161515612ff057600080fd5b600160a060020a0382166000908152601f602052604090205460ff168061302757506003601a5460ff16600481111561302557fe5b145b151561303257600080fd5b600160a060020a0382166000818152601d6020526040908190205480156108fc029151600060405180830381858888f19350505050151561222457600080fd5b601a5460ff1681565b60015460d860020a900460ff1681565b600080601a5460ff16600481111561309f57fe5b146130a957600080fd5b600160a060020a03331660009081526020819052604090205460ff1615156001146130d357600080fd5b600160a060020a0383166000818152600f602052604090208054600160a060020a0319169091179055610e4983836113eb565b61310e613ef0565b6000613118613ef0565b600080613123613ef0565b61312b613ef0565b6000606496508660405180591061313f5750595b818152601f19601f830116810160200160405290509550600094505b88156131a657600a89069350600a890498508360300160f860020a0286868060010197508151811061318957fe5b906020010190600160f860020a031916908160001a90535061315b565b899250848351016040518059106131ba5750595b818152601f19601f830116810160200160405290509150600090505b8251811015613229578281815181106131eb57fe5b016020015160f860020a900460f860020a0282828151811061320957fe5b906020010190600160f860020a031916908160001a9053506001016131d6565b5060005b8481101561328757858160018703038151811061324657fe5b016020015160f860020a900460f860020a0282845183018151811061326757fe5b906020010190600160f860020a031916908160001a90535060010161322d565b5098975050505050505050565b600080601a5460ff1660048111156132a857fe5b146132b257600080fd5b600160a060020a03331660009081526020819052604090205460ff1615156001146132dc57600080fd5b60158290556016839055600160a060020a0333166000805160206141fe83398151915261333c60408051908101604052600a81527f536f6674204361703a2000000000000000000000000000000000000000000000602082015286613106565b60405160208082528190810183818151815260200191508051906020019080838360005b83811015613378578082015183820152602001613360565b50505050905090810190601f1680156133a55780820380516001836020036101000a031916815260200191505b509250505060405180910390a233600160a060020a03166000805160206141fe8339815191526128b560408051908101604052600a81527f48617264204361703a2000000000000000000000000000000000000000000000602082015285613106565b60066020526000908152604090205481565b601d6020526000908152604090205481565b60185481565b60096020526000908152604090205481565b600080601a5460ff16600481111561345857fe5b1461346257600080fd5b600160a060020a03331660009081526020819052604090205460ff16151560011461348c57600080fd5b600160a060020a03821615156134a157600080fd5b60138054600160a060020a031916600160a060020a038481169190911790915533166000805160206141fe8339815191526040516020808252600a908201527f4e65772057616c6c6574000000000000000000000000000000000000000000006040808301919091526060909101905180910390a233600160a060020a03166000805160206141fe833981519152610f9084612067565b600160a060020a03811660009081526020819052604081205460ff1661355f576000613562565b60015b92915050565b60015460f060020a900460ff1681565b60085481565b6001547501000000000000000000000000000000000000000000900460ff1681565b600f60205260009081526040902054600160a060020a031681565b601754600160a060020a031681565b6135d2613ef0565b60006135dc613ef0565b6000806135e7613ef0565b600060649550856040518059106135fb5750595b818152601f19601f830116810160200160405290509450600093505b871561366257600a88069250600a880497508260300160f860020a0285858060010196508151811061364557fe5b906020010190600160f860020a031916908160001a905350613617565b836040518059106136705750595b818152601f19601f830116810160200160405290509150600090505b838110156136e35784816001860303815181106136a557fe5b016020015160f860020a900460f860020a028282815181106136c357fe5b906020010190600160f860020a031916908160001a90535060010161368c565b509695505050505050565b60015477010000000000000000000000000000000000000000000000900460ff1681565b600160a060020a03331660009081526020819052604090205460ff16151560011461373c57600080fd5b828282613747613f12565b928352600160a060020a03909116602083015260408083019190915260609091019051809103906000f080151561377d57600080fd5b600160a060020a039485166000908152600c602052604090208054600160a060020a0319169190951617909355505050565b60106020526000908152604090205481565b600160a060020a03331660009081526020819052604090205460ff1615156001146137eb57600080fd5b60015460c060020a900460ff16151561380357600080fd5b600160a060020a03166000908152601f60205260409020805460ff19166001179055565b60155481565b600d54600160a060020a031681565b600181565b6000808080600180601a5460ff16600481111561385a57fe5b1461386457600080fd5b33600160a060020a03166000805160206141fe83398151915260405160208082526011908201527f53746172742073656c6c20746f6b656e730000000000000000000000000000006040808301919091526060909101905180910390a2600d5461393390889088904290600160a060020a03166318160ddd6000604051602001526040518163ffffffff1660e060020a028152600401602060405180830381600087803b151561391357600080fd5b6102c65a03f1151561392457600080fd5b505050604051805190506116f5565b90955093509150600160a060020a0333166000805160206141fe83398151915260405160208082526010908201527f43616c63756c61746520616d6f756e74000000000000000000000000000000006040808301919091526060909101905180910390a233600160a060020a03166000805160206141fe8339815191526139ed60408051908101604052600781527f546f74616c3a2000000000000000000000000000000000000000000000000000602082015285613106565b60405160208082528190810183818151815260200191508051906020019080838360005b83811015613a29578082015183820152602001613a11565b50505050905090810190601f168015613a565780820380516001836020036101000a031916815260200191505b509250505060405180910390a233600160a060020a03166000805160206141fe833981519152613ab960408051908101604052600d81527f42656e65666963696172793a2000000000000000000000000000000000000000602082015287613106565b60405160208082528190810183818151815260200191508051906020019080838360005b83811015613af5578082015183820152602001613add565b50505050905090810190601f168015613b225780820380516001836020036101000a031916815260200191505b509250505060405180910390a2613b3c8787868686611d71565b1515613b4757600080fd5b601954613b5a908763ffffffff613ccd16565b601955613b678785613d37565b86600160a060020a031633600160a060020a03167f623b3804fa71d67900d064613da8f94b9617215ee90799290593e1745087ad18888760405191825260208201526040908101905180910390a386600160a060020a03167f67066453570687eaa7bbfb5d6a5a6d901a7473f72563021e81204001241e7af78560405190815260200160405180910390a260015460d860020a900460ff1615613c5a57601754613c1a90600160a060020a031684613d37565b601754600160a060020a03167f67066453570687eaa7bbfb5d6a5a6d901a7473f72563021e81204001241e7af78460405190815260200160405180910390a25b509195945050505050565b60015460c060020a900460ff1615613c9757600160a060020a0333166000908152601d60205260409020349055613ccb565b601354600160a060020a03163480156108fc0290604051600060405180830381858888f193505050501515613ccb57600080fd5b565b600082820183811015613cdc57fe5b9392505050565b600082821115613cef57fe5b50900390565b600080831515613d0857600091506126c8565b50828202828482811515613d1857fe5b0414613cdc57fe5b6000808284811515613d2e57fe5b04949350505050565b600180601a5460ff166004811115613d4b57fe5b14613d5557600080fd5b60015460f060020a900460ff161515613e825760015460e060020a900460ff1615613e0757600d54600160a060020a03166323b872dd30858560006040516020015260405160e060020a63ffffffff8616028152600160a060020a0393841660048201529190921660248201526044810191909152606401602060405180830381600087803b1515613de657600080fd5b6102c65a03f11515613df757600080fd5b5050506040518051905050613e82565b600d54600160a060020a03166340c10f19848460006040516020015260405160e060020a63ffffffff8516028152600160a060020a0390921660048301526024820152604401602060405180830381600087803b1515613e6657600080fd5b6102c65a03f11515613e7757600080fd5b505050604051805150505b600160a060020a0383166000908152601b6020526040902054613eab908363ffffffff613ccd16565b600160a060020a039093166000908152601b60205260409020929092555050565b815481835581811511610e4957600083815260209020610e49918101908301613f22565b60206040519081016040526000815290565b60405161013e80613f4183390190565b60405161017f8061407f83390190565b6129db91905b80821115613f3c5760008155600101613f28565b509056006060604052341561000f57600080fd5b60405160408061013e83398101604052808051919060200180516000805460ff1916600190811790915593909355505060025560ee806100506000396000f30060606040526004361060525763ffffffff7c01000000000000000000000000000000000000000000000000000000006000350416636ac5db1981146057578063b1b3d3f6146079578063f889794514609d575b600080fd5b3415606157600080fd5b606760ad565b60405190815260200160405180910390f35b3415608357600080fd5b608960b3565b604051901515815260200160405180910390f35b341560a757600080fd5b606760bc565b60025481565b60005460ff1681565b600154815600a165627a7a72305820f6ad31b4a887df8cd0cf79807237c50d7784bb90f5bffea4ac3d86aca06b180000296060604052341561000f57600080fd5b60405160608061017f83398101604052808051919060200180519190602001805160008054600160a060020a03909516600160a060020a0319909516949094179093555050600255600155610116806100696000396000f30060606040526004361060525763ffffffff7c010000000000000000000000000000000000000000000000000000000060003504166329176e638114605757806363e0f8c714609057806375b4d78c1460b2575b600080fd5b3415606157600080fd5b606760c2565b60405173ffffffffffffffffffffffffffffffffffffffff909116815260200160405180910390f35b3415609a57600080fd5b60a060de565b60405190815260200160405180910390f35b341560bc57600080fd5b60a060e4565b60005473ffffffffffffffffffffffffffffffffffffffff1681565b60025481565b600154815600a165627a7a72305820f6d968fa833e6e429b912900ece02d833088aa78a0af218144142fcf08c70f820029043dde8a406bae2ac5a8f7a1abfb5836a348f2563d30428c735f5c2cc64ee7d6a165627a7a72305820de1f245045198cb203390d0efe41bc1cb11e8289b54304f1ae53cef7f5c241c30029043dde8a406bae2ac5a8f7a1abfb5836a348f2563d30428c735f5c2cc64ee7d6",
  "source": "pragma solidity ^0.4.15;\n\nimport './base/Crowdsale.sol';\n\ncontract AltCrowdsalePhaseOne is Crowdsale {\n  function AltCrowdsalePhaseOne(\n    address _registry,\n    address _token,\n    address _extraTokensHolder,\n    uint _extraTokensPart,\n    uint[] _timeSlices,\n    uint[] _timePrices\n  ) public\n  {\n    setFlags(\n      // Should be whitelisted to buy tokens\n      // _isWhitelisted,\n      true,\n      // Should be known user to buy tokens\n      // _isKnownOnly,\n      true,\n      // Enable amount bonuses in crowdsale? \n      // _isAmountBonus,\n      false,\n      // Enable early bird bonus in crowdsale?\n      // _isEarlyBonus,\n      true,\n      // Allow to refund money?\n      // _isRefundable,\n      false,\n      // Allow to buy tokens for another tokens?\n      // _isTokenExcange,\n      false,\n      // Allow to issue tokens with tx hash (ex bitcoin)\n      // _isAllowToIssue,\n      true,\n      // Should mint extra tokens for future distribution?\n      // _isExtraDistribution,\n      false,\n      // Will ship token via minting? \n      // _isMintingShipment,\n      true,\n      // Should be capped in ether\n      // bool _isCappedInEther,\n      true,\n      // Should beneficiaries pull their tokens? \n      // _isPullingTokens\n      false\n    );\n\n    setToken(_token); \n \n    setTime(block.timestamp - 1 seconds, block.timestamp + 30 days);\n\n    setRegistry(_registry);\n    setWallet(msg.sender);\n    setExtraDistribution(_extraTokensHolder, _extraTokensPart);\n\n    setSoftHardCaps(\n      5 ether, // soft\n      10 ether  // hard\n    );\n\n    // 200 ALT per 1 ETH\n    setPrice(uint(1 ether).div(100));\n\n    setTimeBonuses(_timeSlices, _timePrices);\n  }  \n} ",
  "sourcePath": "/Users/aler/crypto/altestate-3/contracts/AltCrowdsale.sol",
  "compiler": {
    "name": "solc",
    "version": "0.4.18+commit.9cf6e910.Emscripten.clang"
  },
  "schemaVersion": "1.0.1",
  "updatedAt": "2017-12-03T15:14:34.306Z"
}