{
  "contractName": "AltCrowdsalePhaseTwo",
  "abi": [
    {
      "constant": false,
      "inputs": [
        {
          "name": "_tokenAddress",
          "type": "address"
        }
      ],
      "name": "setToken",
      "outputs": [],
      "payable": false,
      "stateMutability": "nonpayable",
      "type": "function"
    },
    {
      "constant": true,
      "inputs": [
        {
          "name": "",
          "type": "address"
        }
      ],
      "name": "claimRefundAllowance",
      "outputs": [
        {
          "name": "",
          "type": "bool"
        }
      ],
      "payable": false,
      "stateMutability": "view",
      "type": "function"
    },
    {
      "constant": true,
      "inputs": [
        {
          "name": "",
          "type": "uint256"
        }
      ],
      "name": "timeSlices",
      "outputs": [
        {
          "name": "",
          "type": "uint256"
        }
      ],
      "payable": false,
      "stateMutability": "view",
      "type": "function"
    },
    {
      "constant": false,
      "inputs": [
        {
          "name": "_timeSlices",
          "type": "uint256[]"
        },
        {
          "name": "_prices",
          "type": "uint256[]"
        }
      ],
      "name": "setTimeBonuses",
      "outputs": [],
      "payable": false,
      "stateMutability": "nonpayable",
      "type": "function"
    },
    {
      "constant": true,
      "inputs": [],
      "name": "temporalTotalSupply",
      "outputs": [
        {
          "name": "",
          "type": "uint256"
        }
      ],
      "payable": false,
      "stateMutability": "view",
      "type": "function"
    },
    {
      "constant": false,
      "inputs": [
        {
          "name": "_beneficiary",
          "type": "address"
        },
        {
          "name": "_value",
          "type": "uint256"
        },
        {
          "name": "_timestamp",
          "type": "uint256"
        },
        {
          "name": "_hash",
          "type": "bytes32"
        }
      ],
      "name": "buyWithHash",
      "outputs": [],
      "payable": false,
      "stateMutability": "nonpayable",
      "type": "function"
    },
    {
      "constant": true,
      "inputs": [],
      "name": "isRefundable",
      "outputs": [
        {
          "name": "",
          "type": "bool"
        }
      ],
      "payable": false,
      "stateMutability": "view",
      "type": "function"
    },
    {
      "constant": false,
      "inputs": [
        {
          "name": "_token",
          "type": "address"
        },
        {
          "name": "_value",
          "type": "uint256"
        }
      ],
      "name": "updateTokenValue",
      "outputs": [],
      "payable": false,
      "stateMutability": "nonpayable",
      "type": "function"
    },
    {
      "constant": true,
      "inputs": [],
      "name": "endTime",
      "outputs": [
        {
          "name": "",
          "type": "uint256"
        }
      ],
      "payable": false,
      "stateMutability": "view",
      "type": "function"
    },
    {
      "constant": false,
      "inputs": [
        {
          "name": "_amountSlices",
          "type": "uint256[]"
        },
        {
          "name": "_prices",
          "type": "uint256[]"
        }
      ],
      "name": "setAmountBonuses",
      "outputs": [],
      "payable": false,
      "stateMutability": "nonpayable",
      "type": "function"
    },
    {
      "constant": false,
      "inputs": [
        {
          "name": "_beneficiary",
          "type": "address"
        },
        {
          "name": "_weiAmount",
          "type": "uint256"
        },
        {
          "name": "_time",
          "type": "uint256"
        },
        {
          "name": "_totalSupply",
          "type": "uint256"
        }
      ],
      "name": "calculateEthAmount",
      "outputs": [
        {
          "name": "calculatedTotal",
          "type": "uint256"
        },
        {
          "name": "calculatedBeneficiary",
          "type": "uint256"
        },
        {
          "name": "calculatedExtra",
          "type": "uint256"
        },
        {
          "name": "calculatedReferal",
          "type": "uint256"
        },
        {
          "name": "referalAddress",
          "type": "address"
        }
      ],
      "payable": false,
      "stateMutability": "nonpayable",
      "type": "function"
    },
    {
      "constant": true,
      "inputs": [],
      "name": "tokenDecimals",
      "outputs": [
        {
          "name": "",
          "type": "uint256"
        }
      ],
      "payable": false,
      "stateMutability": "view",
      "type": "function"
    },
    {
      "constant": true,
      "inputs": [
        {
          "name": "",
          "type": "uint256"
        }
      ],
      "name": "whitelisted",
      "outputs": [
        {
          "name": "",
          "type": "address"
        }
      ],
      "payable": false,
      "stateMutability": "view",
      "type": "function"
    },
    {
      "constant": true,
      "inputs": [],
      "name": "weiRaised",
      "outputs": [
        {
          "name": "",
          "type": "uint256"
        }
      ],
      "payable": false,
      "stateMutability": "view",
      "type": "function"
    },
    {
      "constant": true,
      "inputs": [
        {
          "name": "",
          "type": "address"
        },
        {
          "name": "",
          "type": "address"
        }
      ],
      "name": "altDeposit",
      "outputs": [
        {
          "name": "",
          "type": "uint256"
        }
      ],
      "payable": false,
      "stateMutability": "view",
      "type": "function"
    },
    {
      "constant": true,
      "inputs": [],
      "name": "wallet",
      "outputs": [
        {
          "name": "",
          "type": "address"
        }
      ],
      "payable": false,
      "stateMutability": "view",
      "type": "function"
    },
    {
      "constant": true,
      "inputs": [],
      "name": "isAllowToIssue",
      "outputs": [
        {
          "name": "",
          "type": "bool"
        }
      ],
      "payable": false,
      "stateMutability": "view",
      "type": "function"
    },
    {
      "constant": true,
      "inputs": [],
      "name": "isCappedInEther",
      "outputs": [
        {
          "name": "",
          "type": "bool"
        }
      ],
      "payable": false,
      "stateMutability": "view",
      "type": "function"
    },
    {
      "constant": true,
      "inputs": [
        {
          "name": "_beneficiary",
          "type": "address"
        },
        {
          "name": "_weiAmount",
          "type": "uint256"
        },
        {
          "name": "_tokenAmount",
          "type": "uint256"
        },
        {
          "name": "_extraAmount",
          "type": "uint256"
        },
        {
          "name": "_totalAmount",
          "type": "uint256"
        }
      ],
      "name": "validPurchase",
      "outputs": [
        {
          "name": "",
          "type": "bool"
        }
      ],
      "payable": false,
      "stateMutability": "view",
      "type": "function"
    },
    {
      "constant": true,
      "inputs": [],
      "name": "userRegistry",
      "outputs": [
        {
          "name": "",
          "type": "address"
        }
      ],
      "payable": false,
      "stateMutability": "view",
      "type": "function"
    },
    {
      "constant": true,
      "inputs": [
        {
          "name": "",
          "type": "uint256"
        }
      ],
      "name": "amountSlices",
      "outputs": [
        {
          "name": "",
          "type": "uint256"
        }
      ],
      "payable": false,
      "stateMutability": "view",
      "type": "function"
    },
    {
      "constant": false,
      "inputs": [
        {
          "name": "x",
          "type": "address"
        }
      ],
      "name": "addressToString",
      "outputs": [
        {
          "name": "",
          "type": "string"
        }
      ],
      "payable": false,
      "stateMutability": "nonpayable",
      "type": "function"
    },
    {
      "constant": true,
      "inputs": [],
      "name": "isWhitelisted",
      "outputs": [
        {
          "name": "",
          "type": "bool"
        }
      ],
      "payable": false,
      "stateMutability": "view",
      "type": "function"
    },
    {
      "constant": true,
      "inputs": [],
      "name": "isTokenExchange",
      "outputs": [
        {
          "name": "",
          "type": "bool"
        }
      ],
      "payable": false,
      "stateMutability": "view",
      "type": "function"
    },
    {
      "constant": false,
      "inputs": [
        {
          "name": "b",
          "type": "bytes1"
        }
      ],
      "name": "char",
      "outputs": [
        {
          "name": "c",
          "type": "bytes1"
        }
      ],
      "payable": false,
      "stateMutability": "nonpayable",
      "type": "function"
    },
    {
      "constant": false,
      "inputs": [
        {
          "name": "_owner",
          "type": "address"
        }
      ],
      "name": "grant",
      "outputs": [],
      "payable": false,
      "stateMutability": "nonpayable",
      "type": "function"
    },
    {
      "constant": false,
      "inputs": [
        {
          "name": "_owner",
          "type": "address"
        }
      ],
      "name": "revoke",
      "outputs": [],
      "payable": false,
      "stateMutability": "nonpayable",
      "type": "function"
    },
    {
      "constant": true,
      "inputs": [],
      "name": "timeSlicesCount",
      "outputs": [
        {
          "name": "",
          "type": "uint256"
        }
      ],
      "payable": false,
      "stateMutability": "view",
      "type": "function"
    },
    {
      "constant": false,
      "inputs": [],
      "name": "saneIt",
      "outputs": [],
      "payable": false,
      "stateMutability": "nonpayable",
      "type": "function"
    },
    {
      "constant": false,
      "inputs": [
        {
          "name": "_at",
          "type": "uint256"
        }
      ],
      "name": "calculateTimeBonus",
      "outputs": [
        {
          "name": "",
          "type": "uint256"
        }
      ],
      "payable": false,
      "stateMutability": "nonpayable",
      "type": "function"
    },
    {
      "constant": true,
      "inputs": [],
      "name": "startTime",
      "outputs": [
        {
          "name": "",
          "type": "uint256"
        }
      ],
      "payable": false,
      "stateMutability": "view",
      "type": "function"
    },
    {
      "constant": true,
      "inputs": [
        {
          "name": "",
          "type": "address"
        }
      ],
      "name": "personalBonuses",
      "outputs": [
        {
          "name": "",
          "type": "address"
        }
      ],
      "payable": false,
      "stateMutability": "view",
      "type": "function"
    },
    {
      "constant": true,
      "inputs": [],
      "name": "isPersonalBonuses",
      "outputs": [
        {
          "name": "",
          "type": "bool"
        }
      ],
      "payable": false,
      "stateMutability": "view",
      "type": "function"
    },
    {
      "constant": true,
      "inputs": [
        {
          "name": "",
          "type": "address"
        }
      ],
      "name": "beneficiaryInvest",
      "outputs": [
        {
          "name": "",
          "type": "uint256"
        }
      ],
      "payable": false,
      "stateMutability": "view",
      "type": "function"
    },
    {
      "constant": false,
      "inputs": [
        {
          "name": "_holder",
          "type": "address"
        },
        {
          "name": "_extraPart",
          "type": "uint256"
        }
      ],
      "name": "setExtraDistribution",
      "outputs": [],
      "payable": false,
      "stateMutability": "nonpayable",
      "type": "function"
    },
    {
      "constant": true,
      "inputs": [
        {
          "name": "_changeAmount",
          "type": "uint256"
        }
      ],
      "name": "calculateAmountBonus",
      "outputs": [
        {
          "name": "",
          "type": "uint256"
        }
      ],
      "payable": false,
      "stateMutability": "view",
      "type": "function"
    },
    {
      "constant": true,
      "inputs": [],
      "name": "publisher",
      "outputs": [
        {
          "name": "",
          "type": "address"
        }
      ],
      "payable": false,
      "stateMutability": "view",
      "type": "function"
    },
    {
      "constant": true,
      "inputs": [],
      "name": "isOwner",
      "outputs": [
        {
          "name": "",
          "type": "bool"
        }
      ],
      "payable": false,
      "stateMutability": "view",
      "type": "function"
    },
    {
      "constant": false,
      "inputs": [
        {
          "name": "_from",
          "type": "address"
        },
        {
          "name": "_value",
          "type": "uint256"
        },
        {
          "name": "_token",
          "type": "address"
        },
        {
          "name": "_extraData",
          "type": "bytes"
        }
      ],
      "name": "receiveApproval",
      "outputs": [],
      "payable": false,
      "stateMutability": "nonpayable",
      "type": "function"
    },
    {
      "constant": true,
      "inputs": [],
      "name": "softCap",
      "outputs": [
        {
          "name": "",
          "type": "uint256"
        }
      ],
      "payable": false,
      "stateMutability": "view",
      "type": "function"
    },
    {
      "constant": false,
      "inputs": [
        {
          "name": "_price",
          "type": "uint256"
        }
      ],
      "name": "setPrice",
      "outputs": [],
      "payable": false,
      "stateMutability": "nonpayable",
      "type": "function"
    },
    {
      "constant": true,
      "inputs": [],
      "name": "isAmountBonus",
      "outputs": [
        {
          "name": "",
          "type": "bool"
        }
      ],
      "payable": false,
      "stateMutability": "view",
      "type": "function"
    },
    {
      "constant": true,
      "inputs": [
        {
          "name": "",
          "type": "address"
        }
      ],
      "name": "whitelist",
      "outputs": [
        {
          "name": "",
          "type": "address"
        }
      ],
      "payable": false,
      "stateMutability": "view",
      "type": "function"
    },
    {
      "constant": false,
      "inputs": [
        {
          "name": "_start",
          "type": "uint256"
        },
        {
          "name": "_end",
          "type": "uint256"
        }
      ],
      "name": "setTime",
      "outputs": [],
      "payable": false,
      "stateMutability": "nonpayable",
      "type": "function"
    },
    {
      "constant": true,
      "inputs": [],
      "name": "price",
      "outputs": [
        {
          "name": "",
          "type": "uint256"
        }
      ],
      "payable": false,
      "stateMutability": "view",
      "type": "function"
    },
    {
      "constant": false,
      "inputs": [
        {
          "name": "_registry",
          "type": "address"
        }
      ],
      "name": "setRegistry",
      "outputs": [],
      "payable": false,
      "stateMutability": "nonpayable",
      "type": "function"
    },
    {
      "constant": true,
      "inputs": [],
      "name": "whitelistedCount",
      "outputs": [
        {
          "name": "",
          "type": "uint256"
        }
      ],
      "payable": false,
      "stateMutability": "view",
      "type": "function"
    },
    {
      "constant": false,
      "inputs": [
        {
          "name": "_beneficiary",
          "type": "address"
        },
        {
          "name": "_min",
          "type": "uint256"
        },
        {
          "name": "_max",
          "type": "uint256"
        }
      ],
      "name": "addToWhitelist",
      "outputs": [],
      "payable": false,
      "stateMutability": "nonpayable",
      "type": "function"
    },
    {
      "constant": true,
      "inputs": [],
      "name": "isTransferShipment",
      "outputs": [
        {
          "name": "",
          "type": "bool"
        }
      ],
      "payable": false,
      "stateMutability": "view",
      "type": "function"
    },
    {
      "constant": false,
      "inputs": [
        {
          "name": "_beneficiary",
          "type": "address"
        }
      ],
      "name": "claimRefund",
      "outputs": [
        {
          "name": "",
          "type": "bool"
        }
      ],
      "payable": false,
      "stateMutability": "nonpayable",
      "type": "function"
    },
    {
      "constant": true,
      "inputs": [],
      "name": "state",
      "outputs": [
        {
          "name": "",
          "type": "uint8"
        }
      ],
      "payable": false,
      "stateMutability": "view",
      "type": "function"
    },
    {
      "constant": true,
      "inputs": [],
      "name": "isExtraDistribution",
      "outputs": [
        {
          "name": "",
          "type": "bool"
        }
      ],
      "payable": false,
      "stateMutability": "view",
      "type": "function"
    },
    {
      "constant": false,
      "inputs": [
        {
          "name": "_token",
          "type": "address"
        },
        {
          "name": "_value",
          "type": "uint256"
        }
      ],
      "name": "setTokenExcange",
      "outputs": [],
      "payable": false,
      "stateMutability": "nonpayable",
      "type": "function"
    },
    {
      "constant": true,
      "inputs": [
        {
          "name": "inStr",
          "type": "string"
        },
        {
          "name": "v",
          "type": "uint256"
        }
      ],
      "name": "appendUintToString",
      "outputs": [
        {
          "name": "str",
          "type": "string"
        }
      ],
      "payable": false,
      "stateMutability": "pure",
      "type": "function"
    },
    {
      "constant": false,
      "inputs": [
        {
          "name": "_softCap",
          "type": "uint256"
        },
        {
          "name": "_hardCap",
          "type": "uint256"
        }
      ],
      "name": "setSoftHardCaps",
      "outputs": [],
      "payable": false,
      "stateMutability": "nonpayable",
      "type": "function"
    },
    {
      "constant": false,
      "inputs": [
        {
          "name": "_isWhitelisted",
          "type": "bool"
        },
        {
          "name": "_isKnownOnly",
          "type": "bool"
        },
        {
          "name": "_isAmountBonus",
          "type": "bool"
        },
        {
          "name": "_isEarlyBonus",
          "type": "bool"
        },
        {
          "name": "_isRefundable",
          "type": "bool"
        },
        {
          "name": "_isTokenExchange",
          "type": "bool"
        },
        {
          "name": "_isAllowToIssue",
          "type": "bool"
        },
        {
          "name": "_isExtraDistribution",
          "type": "bool"
        },
        {
          "name": "_isMintingShipment",
          "type": "bool"
        },
        {
          "name": "_isCappedInEther",
          "type": "bool"
        },
        {
          "name": "_isPullingTokens",
          "type": "bool"
        },
        {
          "name": "_isPersonalBonuses",
          "type": "bool"
        }
      ],
      "name": "setFlags",
      "outputs": [],
      "payable": false,
      "stateMutability": "nonpayable",
      "type": "function"
    },
    {
      "constant": true,
      "inputs": [
        {
          "name": "",
          "type": "uint256"
        }
      ],
      "name": "amountBonuses",
      "outputs": [
        {
          "name": "",
          "type": "uint256"
        }
      ],
      "payable": false,
      "stateMutability": "view",
      "type": "function"
    },
    {
      "constant": true,
      "inputs": [
        {
          "name": "",
          "type": "address"
        }
      ],
      "name": "weiDeposit",
      "outputs": [
        {
          "name": "",
          "type": "uint256"
        }
      ],
      "payable": false,
      "stateMutability": "view",
      "type": "function"
    },
    {
      "constant": true,
      "inputs": [],
      "name": "extraDistributionPart",
      "outputs": [
        {
          "name": "",
          "type": "uint256"
        }
      ],
      "payable": false,
      "stateMutability": "view",
      "type": "function"
    },
    {
      "constant": true,
      "inputs": [
        {
          "name": "",
          "type": "uint256"
        }
      ],
      "name": "timeBonuses",
      "outputs": [
        {
          "name": "",
          "type": "uint256"
        }
      ],
      "payable": false,
      "stateMutability": "view",
      "type": "function"
    },
    {
      "constant": false,
      "inputs": [
        {
          "name": "_wallet",
          "type": "address"
        }
      ],
      "name": "setWallet",
      "outputs": [],
      "payable": false,
      "stateMutability": "nonpayable",
      "type": "function"
    },
    {
      "constant": true,
      "inputs": [
        {
          "name": "maybe_owner",
          "type": "address"
        }
      ],
      "name": "checkOwner",
      "outputs": [
        {
          "name": "",
          "type": "bool"
        }
      ],
      "payable": false,
      "stateMutability": "view",
      "type": "function"
    },
    {
      "constant": true,
      "inputs": [],
      "name": "isPullingTokens",
      "outputs": [
        {
          "name": "",
          "type": "bool"
        }
      ],
      "payable": false,
      "stateMutability": "view",
      "type": "function"
    },
    {
      "constant": true,
      "inputs": [],
      "name": "amountSlicesCount",
      "outputs": [
        {
          "name": "",
          "type": "uint256"
        }
      ],
      "payable": false,
      "stateMutability": "view",
      "type": "function"
    },
    {
      "constant": true,
      "inputs": [],
      "name": "isKnownOnly",
      "outputs": [
        {
          "name": "",
          "type": "bool"
        }
      ],
      "payable": false,
      "stateMutability": "view",
      "type": "function"
    },
    {
      "constant": true,
      "inputs": [
        {
          "name": "",
          "type": "address"
        }
      ],
      "name": "allowedTokens",
      "outputs": [
        {
          "name": "",
          "type": "address"
        }
      ],
      "payable": false,
      "stateMutability": "view",
      "type": "function"
    },
    {
      "constant": true,
      "inputs": [],
      "name": "extraTokensHolder",
      "outputs": [
        {
          "name": "",
          "type": "address"
        }
      ],
      "payable": false,
      "stateMutability": "view",
      "type": "function"
    },
    {
      "constant": true,
      "inputs": [
        {
          "name": "v",
          "type": "uint256"
        }
      ],
      "name": "uintToString",
      "outputs": [
        {
          "name": "str",
          "type": "string"
        }
      ],
      "payable": false,
      "stateMutability": "pure",
      "type": "function"
    },
    {
      "constant": false,
      "inputs": [
        {
          "name": "_beneficiary",
          "type": "address"
        }
      ],
      "name": "buyTokens",
      "outputs": [],
      "payable": true,
      "stateMutability": "payable",
      "type": "function"
    },
    {
      "constant": true,
      "inputs": [],
      "name": "isEarlyBonus",
      "outputs": [
        {
          "name": "",
          "type": "bool"
        }
      ],
      "payable": false,
      "stateMutability": "view",
      "type": "function"
    },
    {
      "constant": false,
      "inputs": [
        {
          "name": "_beneficiary",
          "type": "address"
        },
        {
          "name": "_bonus",
          "type": "uint256"
        },
        {
          "name": "_referalAddress",
          "type": "address"
        },
        {
          "name": "_referalBonus",
          "type": "uint256"
        }
      ],
      "name": "setPersonalBonus",
      "outputs": [],
      "payable": false,
      "stateMutability": "nonpayable",
      "type": "function"
    },
    {
      "constant": true,
      "inputs": [
        {
          "name": "",
          "type": "address"
        }
      ],
      "name": "tokensValues",
      "outputs": [
        {
          "name": "",
          "type": "uint256"
        }
      ],
      "payable": false,
      "stateMutability": "view",
      "type": "function"
    },
    {
      "constant": false,
      "inputs": [
        {
          "name": "_beneficiary",
          "type": "address"
        }
      ],
      "name": "refund",
      "outputs": [],
      "payable": false,
      "stateMutability": "nonpayable",
      "type": "function"
    },
    {
      "constant": true,
      "inputs": [],
      "name": "hardCap",
      "outputs": [
        {
          "name": "",
          "type": "uint256"
        }
      ],
      "payable": false,
      "stateMutability": "view",
      "type": "function"
    },
    {
      "constant": true,
      "inputs": [],
      "name": "token",
      "outputs": [
        {
          "name": "",
          "type": "address"
        }
      ],
      "payable": false,
      "stateMutability": "view",
      "type": "function"
    },
    {
      "constant": true,
      "inputs": [],
      "name": "VERSION",
      "outputs": [
        {
          "name": "",
          "type": "uint256"
        }
      ],
      "payable": false,
      "stateMutability": "view",
      "type": "function"
    },
    {
      "inputs": [
        {
          "name": "_registry",
          "type": "address"
        },
        {
          "name": "_token",
          "type": "address"
        },
        {
          "name": "_extraTokensHolder",
          "type": "address"
        },
        {
          "name": "_wallet",
          "type": "address"
        }
      ],
      "payable": false,
      "stateMutability": "nonpayable",
      "type": "constructor"
    },
    {
      "payable": true,
      "stateMutability": "payable",
      "type": "fallback"
    },
    {
      "anonymous": false,
      "inputs": [
        {
          "indexed": true,
          "name": "purchaser",
          "type": "address"
        },
        {
          "indexed": true,
          "name": "beneficiary",
          "type": "address"
        },
        {
          "indexed": false,
          "name": "value",
          "type": "uint256"
        },
        {
          "indexed": false,
          "name": "amount",
          "type": "uint256"
        }
      ],
      "name": "TokenPurchase",
      "type": "event"
    },
    {
      "anonymous": false,
      "inputs": [
        {
          "indexed": true,
          "name": "beneficiary",
          "type": "address"
        },
        {
          "indexed": false,
          "name": "value",
          "type": "uint256"
        },
        {
          "indexed": false,
          "name": "amount",
          "type": "uint256"
        },
        {
          "indexed": false,
          "name": "timestamp",
          "type": "uint256"
        },
        {
          "indexed": true,
          "name": "bitcoinHash",
          "type": "bytes32"
        }
      ],
      "name": "HashSale",
      "type": "event"
    },
    {
      "anonymous": false,
      "inputs": [
        {
          "indexed": true,
          "name": "beneficiary",
          "type": "address"
        },
        {
          "indexed": true,
          "name": "allowedToken",
          "type": "address"
        },
        {
          "indexed": false,
          "name": "allowedTokenValue",
          "type": "uint256"
        },
        {
          "indexed": false,
          "name": "ethValue",
          "type": "uint256"
        },
        {
          "indexed": false,
          "name": "shipAmount",
          "type": "uint256"
        }
      ],
      "name": "TokenSell",
      "type": "event"
    },
    {
      "anonymous": false,
      "inputs": [
        {
          "indexed": true,
          "name": "owner",
          "type": "address"
        },
        {
          "indexed": false,
          "name": "amount",
          "type": "uint256"
        }
      ],
      "name": "ShipTokens",
      "type": "event"
    },
    {
      "anonymous": false,
      "inputs": [
        {
          "indexed": true,
          "name": "sender",
          "type": "address"
        },
        {
          "indexed": false,
          "name": "message",
          "type": "string"
        }
      ],
      "name": "Debug",
      "type": "event"
    },
    {
      "anonymous": false,
      "inputs": [
        {
          "indexed": true,
          "name": "owner",
          "type": "address"
        }
      ],
      "name": "AccessGrant",
      "type": "event"
    },
    {
      "anonymous": false,
      "inputs": [
        {
          "indexed": true,
          "name": "owner",
          "type": "address"
        }
      ],
      "name": "AccessRevoke",
      "type": "event"
    }
  ],
  "bytecode": "0x606060405234156200001057600080fd5b60405160808062005a80833981016040528080519190602001805191906020018051919060200180519150849050838383600062000066670de0b6b3a7640000606464010000000062004263620001a882021704565b600160a060020a0333166000818152602081905260408120805460ff191660019081179091558054600160a060020a0319169092178255624f1a0042908101926276a700909101919069032d26d12e980b60000090620000e090879084818180828181808281640100000000620035da620001c082021704565b620000f98964010000000062000e87620003a682021704565b62000113848464010000000062002dff6200059582021704565b6200012c8a64010000000062002f91620007c982021704565b6200014587640100000000620037d9620008d382021704565b6200016188610bb8640100000000620028d0620009dd82021704565b6200017b82826401000000006200346662000bcc82021704565b620001948564010000000062002d1162000d6882021704565b5050505050505050505050505050620012f3565b6000808284811515620001b757fe5b04949350505050565b600080601a5460ff166004811115620001d557fe5b14620001e057600080fd5b600160a060020a03331660009081526020819052604090205460ff1615156001146200020b57600080fd5b8c600160146101000a81548160ff0219169083151502179055508b600160156101000a81548160ff0219169083151502179055508a600160166101000a81548160ff02191690831515021790555089600160176101000a81548160ff02191690831515021790555088600160186101000a81548160ff02191690831515021790555087600160196101000a81548160ff021916908315150217905550866001601a6101000a81548160ff021916908315150217905550856001601b6101000a81548160ff021916908315150217905550846001601c6101000a81548160ff021916908315150217905550836001601d6101000a81548160ff021916908315150217905550600160189054906101000a900460ff1680620003285750825b600180549315157f010000000000000000000000000000000000000000000000000000000000000002600160f860020a039215157e010000000000000000000000000000000000000000000000000000000000000260f060020a60ff0219909516949094179190911692909217909155505050505050505050505050565b600080601a5460ff166004811115620003bb57fe5b14620003c657600080fd5b600160a060020a03331660009081526020819052604090205460ff161515600114620003f157600080fd5b600d8054600160a060020a031916600160a060020a0384811691909117918290551663313ce5676000604051602001526040518163ffffffff167c0100000000000000000000000000000000000000000000000000000000028152600401602060405180830381600087803b15156200046957600080fd5b6102c65a03f115156200047b57600080fd5b5050506040518051600e5550600160a060020a03331660008051602062005a6083398151915260405160208082526009908201527f4e657720546f6b656e00000000000000000000000000000000000000000000006040808301919091526060909101905180910390a2600160a060020a03331660008051602062005a60833981519152620005188464010000000062001f7f62000e2d82021704565b60405160208082528190810183818151815260200191508051906020019080838360005b83811015620005565780820151838201526020016200053c565b50505050905090810190601f168015620005845780820380516001836020036101000a031916815260200191505b509250505060405180910390a25050565b600080601a5460ff166004811115620005aa57fe5b14620005b557600080fd5b600160a060020a03331660009081526020819052604090205460ff161515600114620005e057600080fd5b818310620005ed57600080fd5b428211620005fa57600080fd5b60118390556012829055600160a060020a03331660008051602062005a608339815191526200066b60408051908101604052600c81527f53746172742054696d653a200000000000000000000000000000000000000000602082015286640100000000620032d862000fc382021704565b60405160208082528190810183818151815260200191508051906020019080838360005b83811015620006a95780820151838201526020016200068f565b50505050905090810190601f168015620006d75780820380516001836020036101000a031916815260200191505b509250505060405180910390a233600160a060020a031660008051602062005a608339815191526200074b60408051908101604052600a81527f456e642054696d653a2000000000000000000000000000000000000000000000602082015285640100000000620032d862000fc382021704565b60405160208082528190810183818151815260200191508051906020019080838360005b83811015620007895780820151838201526020016200076f565b50505050905090810190601f168015620007b75780820380516001836020036101000a031916815260200191505b509250505060405180910390a2505050565b600080601a5460ff166004811115620007de57fe5b14620007e957600080fd5b600160a060020a03331660009081526020819052604090205460ff1615156001146200081457600080fd5b600160a060020a03821615156200082a57600080fd5b60058054600160a060020a031916600160a060020a0384811691909117909155331660008051602062005a608339815191526040516020808252600c908201527f4e657720526567697374727900000000000000000000000000000000000000006040808301919091526060909101905180910390a2600160a060020a03331660008051602062005a60833981519152620005188464010000000062001f7f62000e2d82021704565b600080601a5460ff166004811115620008e857fe5b14620008f357600080fd5b600160a060020a03331660009081526020819052604090205460ff1615156001146200091e57600080fd5b600160a060020a03821615156200093457600080fd5b60138054600160a060020a031916600160a060020a0384811691909117909155331660008051602062005a608339815191526040516020808252600a908201527f4e65772057616c6c6574000000000000000000000000000000000000000000006040808301919091526060909101905180910390a2600160a060020a03331660008051602062005a60833981519152620005188464010000000062001f7f62000e2d82021704565b600080601a5460ff166004811115620009f257fe5b14620009fd57600080fd5b600160a060020a03331660009081526020819052604090205460ff16151560011462000a2857600080fd5b600160a060020a038316151562000a3e57600080fd5b60178054600160a060020a031916600160a060020a03858116919091179091556018839055331660008051602062005a6083398151915260405160208082526017908201527f4e657720457874726120546f6b656e7320486f6c6465720000000000000000006040808301919091526060909101905180910390a2600160a060020a03331660008051602062005a6083398151915262000aec8564010000000062001f7f62000e2d82021704565b60405160208082528190810183818151815260200191508051906020019080838360005b8381101562000b2a57808201518382015260200162000b10565b50505050905090810190601f16801562000b585780820380516001836020036101000a031916815260200191505b509250505060405180910390a233600160a060020a031660008051602062005a608339815191526200074b60408051908101604052601781527f4e657720457874726120546f6b656e7320506172743a20000000000000000000602082015285640100000000620032d862000fc382021704565b600080601a5460ff16600481111562000be157fe5b1462000bec57600080fd5b600160a060020a03331660009081526020819052604090205460ff16151560011462000c1757600080fd5b60158290556016839055600160a060020a03331660008051602062005a6083398151915262000c8860408051908101604052600a81527f536f6674204361703a2000000000000000000000000000000000000000000000602082015286640100000000620032d862000fc382021704565b60405160208082528190810183818151815260200191508051906020019080838360005b8381101562000cc657808201518382015260200162000cac565b50505050905090810190601f16801562000cf45780820380516001836020036101000a031916815260200191505b509250505060405180910390a233600160a060020a031660008051602062005a608339815191526200074b60408051908101604052600a81527f48617264204361703a2000000000000000000000000000000000000000000000602082015285640100000000620032d862000fc382021704565b600080601a5460ff16600481111562000d7d57fe5b1462000d8857600080fd5b600160a060020a03331660009081526020819052604090205460ff16151560011462000db357600080fd5b6000821162000dc157600080fd5b6014829055600160a060020a03331660008051602062005a608339815191526200051860408051908101604052600b81527f4e65772050726963653a20000000000000000000000000000000000000000000602082015285640100000000620032d862000fc382021704565b62000e37620012e1565b62000e41620012e1565b600080600080602860405180591062000e575750595b818152601f19601f830116810160200160405290509450600093505b601484101562000fb8578360130360080260020a87600160a060020a031681151562000e9b57fe5b047f01000000000000000000000000000000000000000000000000000000000000000292506010837f0100000000000000000000000000000000000000000000000000000000000000900460ff1681151562000ef357fe5b047f010000000000000000000000000000000000000000000000000000000000000090810292508083046010028185040302905062000f4082640100000000620011f28102620020ea1704565b85856002028151811062000f5057fe5b906020010190600160f860020a031916908160001a90535062000f8181640100000000620020ea620011f282021704565b85856002026001018151811062000f9457fe5b906020010190600160f860020a031916908160001a90535060019093019262000e73565b509295945050505050565b62000fcd620012e1565b600062000fd9620012e1565b60008062000fe6620012e1565b62000ff0620012e1565b60006064965086604051805910620010055750595b818152601f19601f830116810160200160405290509550600094505b88156200108b57600a89069350600a89049850836030017f0100000000000000000000000000000000000000000000000000000000000000028686806001019750815181106200106d57fe5b906020010190600160f860020a031916908160001a90535062001021565b89925084835101604051805910620010a05750595b818152601f19601f830116810160200160405290509150600090505b82518110156200114b57828181518110620010d357fe5b01602001517f010000000000000000000000000000000000000000000000000000000000000090047f0100000000000000000000000000000000000000000000000000000000000000028282815181106200112a57fe5b906020010190600160f860020a031916908160001a905350600101620010bc565b5060005b84811015620011e55785816001870303815181106200116a57fe5b01602001517f010000000000000000000000000000000000000000000000000000000000000090047f010000000000000000000000000000000000000000000000000000000000000002828451830181518110620011c457fe5b906020010190600160f860020a031916908160001a9053506001016200114f565b5098975050505050505050565b60007f0a000000000000000000000000000000000000000000000000000000000000007fff00000000000000000000000000000000000000000000000000000000000000831610156200129057817f010000000000000000000000000000000000000000000000000000000000000090046030017f0100000000000000000000000000000000000000000000000000000000000000029050620012dc565b817f010000000000000000000000000000000000000000000000000000000000000090046057017f01000000000000000000000000000000000000000000000000000000000000000290505b919050565b60206040519081016040526000815290565b61475d80620013036000396000f3006060604052600436106103605763ffffffff60e060020a600035041663144fa6d7811461036b57806317d861441461038a578063205513f3146103bd57806321309ae3146103e557806327937160146104745780632a37eaea146104875780632c1fecfe146104af5780632cdb8eec146104c25780633197cbb6146104e45780633647b084146104f757806338a1187d146105865780633b97e856146105e75780633d4efe09146105fa5780634042b66f1461062c57806341593ae91461063f578063521eb273146106645780635551d1b7146106775780635581800c1461068a57806355e229561461069d5780635c7460d6146106c85780635ce8ec24146106db5780635e57966d146106f1578063611b409514610787578063641f3b461461079a57806369f9ad2f146107ad57806370284d191461081a57806374a8f10314610839578063756abb981461085857806375f7e6f01461086b5780637862affa1461087e57806378e979251461089457806380c2cc38146108a757806382fa9c0d146108c657806384b9bc2f146108d9578063852a7d6c146108f85780638727b7fc1461091a5780638c72c54e146109305780638f32d59b146109435780638f4ffcb114610956578063906a26e0146109c257806391b7f5ed146109d557806393545a79146109eb5780639b19251a146109fe578063a0355eca14610a1d578063a035b1fe14610a36578063a91ee0dc14610a49578063b2a1de2214610a68578063b47be3e414610a7b578063bf7f10fe14610aa0578063bffa55d514610ab3578063c19d93fb14610ad2578063c448fa8514610b09578063c6a7d3af14610b1c578063c80667e314610b3e578063c82829e014610b91578063ca30e67d14610baa578063d036261f14610bfd578063d256630314610c13578063d69c927514610c32578063de7682a814610c45578063deaa59df14610c5b578063e0e3671c14610c7a578063e17c3a0814610c99578063e3b6040e14610cac578063e56f381514610cbf578063e744092e14610cd2578063e75bf82014610cf1578063e939567914610d04578063ec8ac4d814610d1a578063ef11e55b14610d2e578063f45b4fba14610d41578063f967c9eb14610d6d578063fa89401a14610d8c578063fb86a40414610dab578063fc0c546a14610dbe578063ffa1ad7414610dd1575b61036933610de4565b005b341561037657600080fd5b610369600160a060020a0360043516610e87565b341561039557600080fd5b6103a9600160a060020a0360043516611043565b604051901515815260200160405180910390f35b34156103c857600080fd5b6103d3600435611058565b60405190815260200160405180910390f35b34156103f057600080fd5b61036960046024813581810190830135806020818102016040519081016040528093929190818152602001838360200280828437820191505050505050919080359060200190820180359060200190808060200260200160405190810160405280939291908181526020018383602002808284375094965061107795505050505050565b341561047f57600080fd5b6103d3611350565b341561049257600080fd5b610369600160a060020a0360043516602435604435606435611356565b34156104ba57600080fd5b6103a9611413565b34156104cd57600080fd5b610369600160a060020a0360043516602435611423565b34156104ef57600080fd5b6103d3611469565b341561050257600080fd5b61036960046024813581810190830135806020818102016040519081016040528093929190818152602001838360200280828437820191505050505050919080359060200190820180359060200190808060200260200160405190810160405280939291908181526020018383602002808284375094965061146f95505050505050565b341561059157600080fd5b6105ae600160a060020a036004351660243560443560643561172d565b60405194855260208501939093526040808501929092526060840152600160a060020a03909116608083015260a0909101905180910390f35b34156105f257600080fd5b6103d3611bd8565b341561060557600080fd5b610610600435611bde565b604051600160a060020a03909116815260200160405180910390f35b341561063757600080fd5b6103d3611c06565b341561064a57600080fd5b6103d3600160a060020a0360043581169060243516611c0c565b341561066f57600080fd5b610610611c29565b341561068257600080fd5b6103a9611c38565b341561069557600080fd5b6103a9611c5f565b34156106a857600080fd5b6103a9600160a060020a0360043516602435604435606435608435611c89565b34156106d357600080fd5b610610611f62565b34156106e657600080fd5b6103d3600435611f71565b34156106fc57600080fd5b610710600160a060020a0360043516611f7f565b60405160208082528190810183818151815260200191508051906020019080838360005b8381101561074c578082015183820152602001610734565b50505050905090810190601f1680156107795780820380516001836020036101000a031916815260200191505b509250505060405180910390f35b341561079257600080fd5b6103a96120a3565b34156107a557600080fd5b6103a96120c4565b34156107b857600080fd5b6107e57fff00000000000000000000000000000000000000000000000000000000000000600435166120ea565b6040517fff00000000000000000000000000000000000000000000000000000000000000909116815260200160405180910390f35b341561082557600080fd5b610369600160a060020a0360043516612167565b341561084457600080fd5b610369600160a060020a03600435166121e4565b341561086357600080fd5b6103d361229a565b341561087657600080fd5b6103696122a0565b341561088957600080fd5b6103d3600435612598565b341561089f57600080fd5b6103d361288d565b34156108b257600080fd5b610610600160a060020a0360043516612893565b34156108d157600080fd5b6103a96128ae565b34156108e457600080fd5b6103d3600160a060020a03600435166128be565b341561090357600080fd5b610369600160a060020a03600435166024356128d0565b341561092557600080fd5b6103d3600435612b10565b341561093b57600080fd5b610610612b7f565b341561094e57600080fd5b6103a9612b8e565b341561096157600080fd5b61036960048035600160a060020a0390811691602480359260443516919060849060643590810190830135806020601f82018190048102016040519081016040528181529291906020840183838082843750949650612bbe95505050505050565b34156109cd57600080fd5b6103d3612d0b565b34156109e057600080fd5b610369600435612d11565b34156109f657600080fd5b6103a9612dc1565b3415610a0957600080fd5b610610600160a060020a0360043516612de4565b3415610a2857600080fd5b610369600435602435612dff565b3415610a4157600080fd5b6103d3612f8b565b3415610a5457600080fd5b610369600160a060020a0360043516612f91565b3415610a7357600080fd5b6103d3613085565b3415610a8657600080fd5b610369600160a060020a036004351660243560443561308b565b3415610aab57600080fd5b6103a9613197565b3415610abe57600080fd5b6103a9600160a060020a03600435166131a7565b3415610add57600080fd5b610ae5613244565b60405180826004811115610af557fe5b60ff16815260200191505060405180910390f35b3415610b1457600080fd5b6103a961324d565b3415610b2757600080fd5b610369600160a060020a036004351660243561325d565b3415610b4957600080fd5b61071060046024813581810190830135806020601f8201819004810201604051908101604052818152929190602084018383808284375094965050933593506132d892505050565b3415610b9c57600080fd5b610369600435602435613466565b3415610bb557600080fd5b6103696004351515602435151560443515156064351515608435151560a435151560c435151560e43515156101043515156101243515156101443515156101643515156135da565b3415610c0857600080fd5b6103d360043561379d565b3415610c1e57600080fd5b6103d3600160a060020a03600435166137af565b3415610c3d57600080fd5b6103d36137c1565b3415610c5057600080fd5b6103d36004356137c7565b3415610c6657600080fd5b610369600160a060020a03600435166137d9565b3415610c8557600080fd5b6103a9600160a060020a03600435166138cd565b3415610ca457600080fd5b6103a96138fd565b3415610cb757600080fd5b6103d361390d565b3415610cca57600080fd5b6103a9613913565b3415610cdd57600080fd5b610610600160a060020a0360043516613935565b3415610cfc57600080fd5b610610613950565b3415610d0f57600080fd5b61071060043561395f565b610369600160a060020a0360043516610de4565b3415610d3957600080fd5b6103a9613a83565b3415610d4c57600080fd5b610369600160a060020a036004358116906024359060443516606435613aa7565b3415610d7857600080fd5b6103d3600160a060020a0360043516613b44565b3415610d9757600080fd5b610369600160a060020a0360043516613b56565b3415610db657600080fd5b6103d3613bbc565b3415610dc957600080fd5b610610613bc2565b3415610ddc57600080fd5b6103d3613bd1565b6000600180601a5460ff166004811115610dfa57fe5b14610e0457600080fd5b33600160a060020a031660008051602061471283398151915260405160208082526010908201527f53746172742062757920746f6b656e73000000000000000000000000000000006040808301919091526060909101905180910390a2610e6b8334613bd6565b915060008211610e7a57600080fd5b610e826141ba565b505050565b600080601a5460ff166004811115610e9b57fe5b14610ea557600080fd5b600160a060020a03331660009081526020819052604090205460ff161515600114610ecf57600080fd5b600d8054600160a060020a031916600160a060020a0384811691909117918290551663313ce5676000604051602001526040518163ffffffff1660e060020a028152600401602060405180830381600087803b1515610f2d57600080fd5b6102c65a03f11515610f3e57600080fd5b5050506040518051600e5550600160a060020a03331660008051602061471283398151915260405160208082526009908201527f4e657720546f6b656e00000000000000000000000000000000000000000000006040808301919091526060909101905180910390a233600160a060020a0316600080516020614712833981519152610fc984611f7f565b60405160208082528190810183818151815260200191508051906020019080838360005b83811015611005578082015183820152602001610fed565b50505050905090810190601f1680156110325780820380516001836020036101000a031916815260200191505b509250505060405180910390a25050565b601f6020526000908152604090205460ff1681565b600a80548290811061106657fe5b600091825260209091200154905081565b6000808080601a5460ff16600481111561108d57fe5b1461109757600080fd5b600160a060020a03331660009081526020819052604090205460ff1615156001146110c157600080fd5b600b54156110ce57600080fd5b60018551116110dc57600080fd5b84518451146110ea57600080fd5b60009250600091505b8451821015611343578285838151811061110957fe5b906020019060200201511161111d57600080fd5b84828151811061112957fe5b906020019060200201519250600a805480600101828161114991906143e0565b50600091825260209091200183905583828151811061116457fe5b90602001906020020151600960008581526020019081526020016000208190555033600160a060020a03166000805160206147128339815191526111f060408051908101604052601081527f4164642074696d6520626f6e75733a200000000000000000000000000000000060208201528786815181106111e157fe5b906020019060200201516132d8565b60405160208082528190810183818151815260200191508051906020019080838360005b8381101561122c578082015183820152602001611214565b50505050905090810190601f1680156112595780820380516001836020036101000a031916815260200191505b509250505060405180910390a233600160a060020a03166000805160206147128339815191526112c260408051908101604052600a81527f417420736c6963653a200000000000000000000000000000000000000000000060208201528886815181106111e157fe5b60405160208082528190810183818151815260200191508051906020019080838360005b838110156112fe5780820151838201526020016112e6565b50505050905090810190601f16801561132b5780820380516001836020036101000a031916815260200191505b509250505060405180910390a26001909101906110f3565b5050600a54600b55505050565b601c5481565b6000600180601a5460ff16600481111561136c57fe5b1461137657600080fd5b600160a060020a03331660009081526020819052604090205460ff1615156001146113a057600080fd5b6113aa8686613bd6565b9150600082116113b957600080fd5b82600160a060020a0387167f7c8f7476d7c48fb598c2faeaa38296073548801f143f6a518170ba5d957ceb0487858860405180848152602001838152602001828152602001935050505060405180910390a3505050505050565b60015460c060020a900460ff1681565b600160a060020a03331660009081526020819052604090205460ff16151560011461144d57600080fd5b600160a060020a03909116600090815260106020526040902055565b60125481565b6000808080601a5460ff16600481111561148557fe5b1461148f57600080fd5b600160a060020a03331660009081526020819052604090205460ff1615156001146114b957600080fd5b60018551116114c757600080fd5b84518451146114d557600080fd5b60009250600091505b845182101561172057828583815181106114f457fe5b90602001906020020151101561150957600080fd5b84828151811061151557fe5b9060200190602002015192506007805480600101828161153591906143e0565b50600091825260209091200183905583828151811061155057fe5b90602001906020020151600660008581526020019081526020016000208190555033600160a060020a03166000805160206147128339815191526115cd60408051908101604052601281527f41646420616d6f756e7420626f6e75733a20000000000000000000000000000060208201528786815181106111e157fe5b60405160208082528190810183818151815260200191508051906020019080838360005b838110156116095780820151838201526020016115f1565b50505050905090810190601f1680156116365780820380516001836020036101000a031916815260200191505b509250505060405180910390a233600160a060020a031660008051602061471283398151915261169f60408051908101604052600a81527f417420736c6963653a200000000000000000000000000000000000000000000060208201528886815181106111e157fe5b60405160208082528190810183818151815260200191508051906020019080838360005b838110156116db5780820151838201526020016116c3565b50505050905090810190601f1680156117085780820380516001836020036101000a031916815260200191505b509250505060405180910390a26001909101906114de565b5050600754600855505050565b6000806000806000806000905060115488108061174b575060125488115b156117655760009550859450849350839250829150611bcc565b600154760100000000000000000000000000000000000000000000900460ff16156117a6576117a36117968a612b10565b829063ffffffff61422216565b90505b60015477010000000000000000000000000000000000000000000000900460ff16156117df576117dc6117966011548a03612598565b90505b60015460f860020a900460ff16801561186d5750600160a060020a03808b166000908152600c602052604080822054919291909116906375b4d78c90839051602001526040518163ffffffff1660e060020a028152600401602060405180830381600087803b151561185057600080fd5b6102c65a03f1151561186157600080fd5b50505060405180519050115b156118f657600160a060020a03808b166000908152600c6020526040808220546118f39316916375b4d78c9151602001526040518163ffffffff1660e060020a028152600401602060405180830381600087803b15156118cc57600080fd5b6102c65a03f115156118dd57600080fd5b505050604051805183915063ffffffff61422216565b90505b611920601454611914600e54600a0a8c61423890919063ffffffff16565b9063ffffffff61426316565b9450600081111561195457611951611944612710611914888563ffffffff61423816565b869063ffffffff61422216565b94505b60015460d860020a900460ff1615611984576119816127106119146018548861423890919063ffffffff16565b93505b60015460f860020a900460ff168015611a1c5750600160a060020a038a81166000908152600c602052604080822054919291909116906329176e6390839051602001526040518163ffffffff1660e060020a028152600401602060405180830381600087803b15156119f557600080fd5b6102c65a03f11515611a0657600080fd5b50505060405180519050600160a060020a031614155b8015611a9d5750600160a060020a03808b166000908152600c602052604080822054919291909116906363e0f8c790839051602001526040518163ffffffff1660e060020a028152600401602060405180830381600087803b1515611a8057600080fd5b6102c65a03f11515611a9157600080fd5b50505060405180519050115b15611ba957600160a060020a03808b166000908152600c602052604080822054611b2f93612710936119149392909116916363e0f8c7919051602001526040518163ffffffff1660e060020a028152600401602060405180830381600087803b1515611b0857600080fd5b6102c65a03f11515611b1957600080fd5b505050604051805189915063ffffffff61423816565b600160a060020a03808c166000908152600c60205260408082205493965092909116916329176e63919051602001526040518163ffffffff1660e060020a028152600401602060405180830381600087803b1515611b8c57600080fd5b6102c65a03f11515611b9d57600080fd5b50505060405180519250505b611bc983611bbd878763ffffffff61422216565b9063ffffffff61422216565b95505b50945094509450945094565b600e5481565b6003805482908110611bec57fe5b600091825260209091200154600160a060020a0316905081565b60195481565b601e60209081526000928352604080842090915290825290205481565b601354600160a060020a031681565b6001547a010000000000000000000000000000000000000000000000000000900460ff1681565b6001547d010000000000000000000000000000000000000000000000000000000000900460ff1681565b600080600080600160159054906101000a900460ff168015611d1c5750600554600160a060020a031663a75df8148a60006040516020015260405160e060020a63ffffffff8416028152600160a060020a039091166004820152602401602060405180830381600087803b1515611cff57600080fd5b6102c65a03f11515611d1057600080fd5b50505060405180519050155b15611d2a5760009350611f56565b600160a060020a0389166000908152601b6020526040902054611d53908963ffffffff61422216565b601c54909350611d69908663ffffffff61422216565b60015490925074010000000000000000000000000000000000000000900460ff1615611ee85750600160a060020a038089166000908152600260205260408082205490921691829163b1b3d3f69151602001526040518163ffffffff1660e060020a028152600401602060405180830381600087803b1515611dea57600080fd5b6102c65a03f11515611dfb57600080fd5b505050604051805190501580611e7057508281600160a060020a031663f88979456000604051602001526040518163ffffffff1660e060020a028152600401602060405180830381600087803b1515611e5357600080fd5b6102c65a03f11515611e6457600080fd5b50505060405180519050115b80611eda57508281600160a060020a0316636ac5db196000604051602001526040518163ffffffff1660e060020a028152600401602060405180830381600087803b1515611ebd57600080fd5b6102c65a03f11515611ece57600080fd5b50505060405180519050105b15611ee85760009350611f56565b6001547d010000000000000000000000000000000000000000000000000000000000900460ff1615611f3e57601554601954611f2a908a63ffffffff61422216565b1115611f395760009350611f56565b611f51565b601554821115611f515760009350611f56565b600193505b50505095945050505050565b600554600160a060020a031681565b600780548290811061106657fe5b611f87614404565b611f8f614404565b6000806000806028604051805910611fa45750595b818152601f19601f830116810160200160405290509450600093505b6014841015612098578360130360080260020a87600160a060020a0316811515611fe657fe5b0460f860020a02925060108360f860020a900460ff1681151561200557fe5b0460f860020a0291508160f860020a90046010028360f860020a90040360f860020a029050612033826120ea565b85856002028151811061204257fe5b906020010190600160f860020a031916908160001a905350612063816120ea565b85856002026001018151811061207557fe5b906020010190600160f860020a031916908160001a905350600190930192611fc0565b509295945050505050565b60015474010000000000000000000000000000000000000000900460ff1681565b600154790100000000000000000000000000000000000000000000000000900460ff1681565b60007f0a000000000000000000000000000000000000000000000000000000000000007fff000000000000000000000000000000000000000000000000000000000000008316101561214e578160f860020a900460300160f860020a029050612162565b8160f860020a900460570160f860020a0290505b919050565b600160a060020a03331660009081526020819052604090205460ff16151560011461219157600080fd5b600160a060020a03811660008181526020819052604090819020805460ff191660011790557f1350a997c6c86bcc51dd7e51f7ef618d620e6a85d8fdabb82a980c149ad88d47905160405180910390a250565b600160a060020a03331660009081526020819052604090205460ff16151560011461220e57600080fd5b600154600160a060020a038281169116141561222957600080fd5b80600160a060020a031633600160a060020a03161415151561224a57600080fd5b600160a060020a03811660008181526020819052604090819020805460ff191690557f1d1eff42eefbeecfca7e39f8adb5d7f19a7ebbb4c3e82c51f2500d7d76ab2468905160405180910390a250565b600b5481565b600080601a5460ff1660048111156122b457fe5b146122be57600080fd5b600160a060020a03331660009081526020819052604090205460ff1615156001146122e857600080fd5b601254601154106122f857600080fd5b60125442901161230757600080fd5b6014546000901161231757600080fd5b601354600160a060020a0316151561232e57600080fd5b600d54600160a060020a0316151561234557600080fd5b6001547501000000000000000000000000000000000000000000900460ff161561238057600554600160a060020a0316151561238057600080fd5b600154760100000000000000000000000000000000000000000000900460ff16156123b557600854600090116123b557600080fd5b60015477010000000000000000000000000000000000000000000000900460ff16156123eb57600b54600090116123eb57600080fd5b60015460d860020a900460ff161561241457601754600160a060020a0316151561241457600080fd5b60015460e060020a900460ff16156124af57601554600d54600160a060020a03166370a082313060006040516020015260405160e060020a63ffffffff8416028152600160a060020a039091166004820152602401602060405180830381600087803b151561248257600080fd5b6102c65a03f1151561249357600080fd5b50505060405180519050101515156124aa57600080fd5b61252b565b600d54600160a060020a033081169116638da5cb5b6000604051602001526040518163ffffffff1660e060020a028152600401602060405180830381600087803b15156124fb57600080fd5b6102c65a03f1151561250c57600080fd5b50505060405180519050600160a060020a031614151561252b57600080fd5b601a805460ff19166001179055600160a060020a03331660008051602061471283398151915260405160208082526007908201527f53616e65206974000000000000000000000000000000000000000000000000006040808301919091526060909101905180910390a250565b60008080600160a060020a0333166000805160206147128339815191526125f260408051908101604052601481527f43616c63756c61746520626f6e75732061743a200000000000000000000000006020820152876132d8565b60405160208082528190810183818151815260200191508051906020019080838360005b8381101561262e578082015183820152602001612616565b50505050905090810190601f16801561265b5780820380516001836020036101000a031916815260200191505b509250505060405180910390a25060005b600a548110156128865733600160a060020a03166000805160206147128339815191526126e560408051908101604052600c81527f54696d6520536c6963653a2000000000000000000000000000000000000000006020820152600a8054869081106126d457fe5b9060005260206000209001546132d8565b60405160208082528190810183818151815260200191508051906020019080838360005b83811015612721578082015183820152602001612709565b50505050905090810190601f16801561274e5780820380516001836020036101000a031916815260200191505b509250505060405180910390a283600a8281548110151561276b57fe5b906000526020600020900154101561278257612886565b60096000600a8381548110151561279557fe5b906000526020600020900154815260200190815260200160002054915033600160a060020a031660008051602061471283398151915261280860408051908101604052600e81527f46697420746f20626f6e75733a200000000000000000000000000000000000006020820152856132d8565b60405160208082528190810183818151815260200191508051906020019080838360005b8381101561284457808201518382015260200161282c565b50505050905090810190601f1680156128715780820380516001836020036101000a031916815260200191505b509250505060405180910390a260010161266c565b5092915050565b60115481565b600c60205260009081526040902054600160a060020a031681565b60015460f860020a900460ff1681565b601b6020526000908152604090205481565b600080601a5460ff1660048111156128e457fe5b146128ee57600080fd5b600160a060020a03331660009081526020819052604090205460ff16151560011461291857600080fd5b600160a060020a038316151561292d57600080fd5b60178054600160a060020a031916600160a060020a03858116919091179091556018839055331660008051602061471283398151915260405160208082526017908201527f4e657720457874726120546f6b656e7320486f6c6465720000000000000000006040808301919091526060909101905180910390a233600160a060020a03166000805160206147128339815191526129c985611f7f565b60405160208082528190810183818151815260200191508051906020019080838360005b83811015612a055780820151838201526020016129ed565b50505050905090810190601f168015612a325780820380516001836020036101000a031916815260200191505b509250505060405180910390a233600160a060020a0316600080516020614712833981519152612a9560408051908101604052601781527f4e657720457874726120546f6b656e7320506172743a200000000000000000006020820152856132d8565b60405160208082528190810183818151815260200191508051906020019080838360005b83811015612ad1578082015183820152602001612ab9565b50505050905090810190601f168015612afe5780820380516001836020036101000a031916815260200191505b509250505060405180910390a2505050565b600080805b6007548110156128865783600782815481101515612b2f57fe5b9060005260206000209001541115612b4657612886565b60066000600783815481101515612b5957fe5b600091825260208083209091015483528201929092526040019020549150600101612b15565b600154600160a060020a031681565b600160a060020a03331660009081526020819052604081205460ff16612bb5576000612bb8565b60015b90505b90565b600160a060020a038281166000908152600f602052604081205490918291161515612be857600080fd5b600160a060020a038085166000908152600f602052604080822054612c8d93169163313ce5679151602001526040518163ffffffff1660e060020a028152600401602060405180830381600087803b1515612c4257600080fd5b6102c65a03f11515612c5357600080fd5b5050506040518051600160a060020a038716600090815260106020526040902054600a9190910a915061191490889063ffffffff61423816565b9150612c998683613bd6565b905060008111612ca857600080fd5b83600160a060020a031686600160a060020a03167f8f9e1c6f80a0fd25dc246f3b0a51422fce2a5f211d4f9877c7ec20b6499c939f87858560405180848152602001838152602001828152602001935050505060405180910390a3505050505050565b60165481565b600080601a5460ff166004811115612d2557fe5b14612d2f57600080fd5b600160a060020a03331660009081526020819052604090205460ff161515600114612d5957600080fd5b60008211612d6657600080fd5b6014829055600160a060020a033316600080516020614712833981519152610fc960408051908101604052600b81527f4e65772050726963653a200000000000000000000000000000000000000000006020820152856132d8565b600154760100000000000000000000000000000000000000000000900460ff1681565b600260205260009081526040902054600160a060020a031681565b600080601a5460ff166004811115612e1357fe5b14612e1d57600080fd5b600160a060020a03331660009081526020819052604090205460ff161515600114612e4757600080fd5b818310612e5357600080fd5b428211612e5f57600080fd5b60118390556012829055600160a060020a033316600080516020614712833981519152612ebf60408051908101604052600c81527f53746172742054696d653a2000000000000000000000000000000000000000006020820152866132d8565b60405160208082528190810183818151815260200191508051906020019080838360005b83811015612efb578082015183820152602001612ee3565b50505050905090810190601f168015612f285780820380516001836020036101000a031916815260200191505b509250505060405180910390a233600160a060020a0316600080516020614712833981519152612a9560408051908101604052600a81527f456e642054696d653a20000000000000000000000000000000000000000000006020820152856132d8565b60145481565b600080601a5460ff166004811115612fa557fe5b14612faf57600080fd5b600160a060020a03331660009081526020819052604090205460ff161515600114612fd957600080fd5b600160a060020a0382161515612fee57600080fd5b60058054600160a060020a031916600160a060020a038481169190911790915533166000805160206147128339815191526040516020808252600c908201527f4e657720526567697374727900000000000000000000000000000000000000006040808301919091526060909101905180910390a233600160a060020a0316600080516020614712833981519152610fc984611f7f565b60045481565b600160a060020a03331660009081526020819052604090205460ff1615156001146130b557600080fd5b600160a060020a03831615156130ca57600080fd5b808211156130d757600080fd5b8015156130f25750701d6329f1c35ca4bfabb9f56100000000005b81816130fc614416565b918252602082015260409081019051809103906000f080151561311e57600080fd5b600160a060020a0384811660009081526002602052604090208054600160a060020a03191692909116919091179055600380546001810161315f83826143e0565b5060009182526020909120018054600160a060020a031916600160a060020a0394909416939093179092555050600480546001019055565b60015460e060020a900460ff1681565b60015460009060c060020a900460ff1615156131c257600080fd5b600160a060020a0382166000908152601f602052604090205460ff16806131f957506003601a5460ff1660048111156131f757fe5b145b151561320457600080fd5b600160a060020a0382166000818152601d6020526040908190205480156108fc029151600060405180830381858888f19350505050151561216257600080fd5b601a5460ff1681565b60015460d860020a900460ff1681565b600080601a5460ff16600481111561327157fe5b1461327b57600080fd5b600160a060020a03331660009081526020819052604090205460ff1615156001146132a557600080fd5b600160a060020a0383166000818152600f602052604090208054600160a060020a0319169091179055610e828383611423565b6132e0614404565b60006132ea614404565b6000806132f5614404565b6132fd614404565b600060649650866040518059106133115750595b818152601f19601f830116810160200160405290509550600094505b881561337857600a89069350600a890498508360300160f860020a0286868060010197508151811061335b57fe5b906020010190600160f860020a031916908160001a90535061332d565b8992508483510160405180591061338c5750595b818152601f19601f830116810160200160405290509150600090505b82518110156133fb578281815181106133bd57fe5b016020015160f860020a900460f860020a028282815181106133db57fe5b906020010190600160f860020a031916908160001a9053506001016133a8565b5060005b8481101561345957858160018703038151811061341857fe5b016020015160f860020a900460f860020a0282845183018151811061343957fe5b906020010190600160f860020a031916908160001a9053506001016133ff565b5098975050505050505050565b600080601a5460ff16600481111561347a57fe5b1461348457600080fd5b600160a060020a03331660009081526020819052604090205460ff1615156001146134ae57600080fd5b60158290556016839055600160a060020a03331660008051602061471283398151915261350e60408051908101604052600a81527f536f6674204361703a20000000000000000000000000000000000000000000006020820152866132d8565b60405160208082528190810183818151815260200191508051906020019080838360005b8381101561354a578082015183820152602001613532565b50505050905090810190601f1680156135775780820380516001836020036101000a031916815260200191505b509250505060405180910390a233600160a060020a0316600080516020614712833981519152612a9560408051908101604052600a81527f48617264204361703a20000000000000000000000000000000000000000000006020820152856132d8565b600080601a5460ff1660048111156135ee57fe5b146135f857600080fd5b600160a060020a03331660009081526020819052604090205460ff16151560011461362257600080fd5b8c600160146101000a81548160ff0219169083151502179055508b600160156101000a81548160ff0219169083151502179055508a600160166101000a81548160ff02191690831515021790555089600160176101000a81548160ff02191690831515021790555088600160186101000a81548160ff02191690831515021790555087600160196101000a81548160ff021916908315150217905550866001601a6101000a81548160ff021916908315150217905550856001601b6101000a81548160ff021916908315150217905550846001601c6101000a81548160ff021916908315150217905550836001601d6101000a81548160ff021916908315150217905550600160189054906101000a900460ff168061373e5750825b6001805493151560f860020a02600160f860020a0392151560f060020a027fff00ffffffffffffffffffffffffffffffffffffffffffffffffffffffffffff909516949094179190911692909217909155505050505050505050505050565b60066020526000908152604090205481565b601d6020526000908152604090205481565b60185481565b60096020526000908152604090205481565b600080601a5460ff1660048111156137ed57fe5b146137f757600080fd5b600160a060020a03331660009081526020819052604090205460ff16151560011461382157600080fd5b600160a060020a038216151561383657600080fd5b60138054600160a060020a031916600160a060020a038481169190911790915533166000805160206147128339815191526040516020808252600a908201527f4e65772057616c6c6574000000000000000000000000000000000000000000006040808301919091526060909101905180910390a233600160a060020a0316600080516020614712833981519152610fc984611f7f565b600160a060020a03811660009081526020819052604081205460ff166138f45760006138f7565b60015b92915050565b60015460f060020a900460ff1681565b60085481565b6001547501000000000000000000000000000000000000000000900460ff1681565b600f60205260009081526040902054600160a060020a031681565b601754600160a060020a031681565b613967614404565b6000613971614404565b60008061397c614404565b600060649550856040518059106139905750595b818152601f19601f830116810160200160405290509450600093505b87156139f757600a88069250600a880497508260300160f860020a028585806001019650815181106139da57fe5b906020010190600160f860020a031916908160001a9053506139ac565b83604051805910613a055750595b818152601f19601f830116810160200160405290509150600090505b83811015613a78578481600186030381518110613a3a57fe5b016020015160f860020a900460f860020a02828281518110613a5857fe5b906020010190600160f860020a031916908160001a905350600101613a21565b509695505050505050565b60015477010000000000000000000000000000000000000000000000900460ff1681565b600160a060020a03331660009081526020819052604090205460ff161515600114613ad157600080fd5b828282613adc614426565b928352600160a060020a03909116602083015260408083019190915260609091019051809103906000f0801515613b1257600080fd5b600160a060020a039485166000908152600c602052604090208054600160a060020a0319169190951617909355505050565b60106020526000908152604090205481565b600160a060020a03331660009081526020819052604090205460ff161515600114613b8057600080fd5b60015460c060020a900460ff161515613b9857600080fd5b600160a060020a03166000908152601f60205260409020805460ff19166001179055565b60155481565b600d54600160a060020a031681565b600181565b6000808080808080600180601a5460ff166004811115613bf257fe5b14613bfc57600080fd5b33600160a060020a031660008051602061471283398151915260405160208082526011908201527f53746172742073656c6c20746f6b656e730000000000000000000000000000006040808301919091526060909101905180910390a2600d54613ccb908b908b904290600160a060020a03166318160ddd6000604051602001526040518163ffffffff1660e060020a028152600401602060405180830381600087803b1515613cab57600080fd5b6102c65a03f11515613cbc57600080fd5b5050506040518051905061172d565b929a509098509196509094509250600160a060020a03331660008051602061471283398151915260405160208082526010908201527f43616c63756c61746520616d6f756e74000000000000000000000000000000006040808301919091526060909101905180910390a233600160a060020a0316600080516020614712833981519152613d8c60408051908101604052600781527f546f74616c3a20000000000000000000000000000000000000000000000000006020820152886132d8565b60405160208082528190810183818151815260200191508051906020019080838360005b83811015613dc8578082015183820152602001613db0565b50505050905090810190601f168015613df55780820380516001836020036101000a031916815260200191505b509250505060405180910390a233600160a060020a0316600080516020614712833981519152613e5860408051908101604052600d81527f42656e65666963696172793a200000000000000000000000000000000000000060208201528a6132d8565b60405160208082528190810183818151815260200191508051906020019080838360005b83811015613e94578082015183820152602001613e7c565b50505050905090810190601f168015613ec15780820380516001836020036101000a031916815260200191505b509250505060405180910390a2613edb8a8a898989611c89565b1515613ee657600080fd5b601954613ef9908a63ffffffff61422216565b601955600160a060020a038a166000908152601b6020526040902054613f25908a63ffffffff61422216565b600160a060020a038b166000908152601b6020526040902055613f488a8861427a565b89600160a060020a031633600160a060020a03167f623b3804fa71d67900d064613da8f94b9617215ee90799290593e1745087ad188b8a60405191825260208201526040908101905180910390a389600160a060020a03167f67066453570687eaa7bbfb5d6a5a6d901a7473f72563021e81204001241e7af78860405190815260200160405180910390a260015460d860020a900460ff161561403b57601754613ffb90600160a060020a03168761427a565b601754600160a060020a03167f67066453570687eaa7bbfb5d6a5a6d901a7473f72563021e81204001241e7af78760405190815260200160405180910390a25b60015460f860020a900460ff16156141ac57600160a060020a03808b166000908152600c60205260408082205490921693509083906329176e6390839051602001526040518163ffffffff1660e060020a028152600401602060405180830381600087803b15156140ab57600080fd5b6102c65a03f115156140bc57600080fd5b50505060405180519050600160a060020a03161415801561413d5750600082600160a060020a03166363e0f8c76000604051602001526040518163ffffffff1660e060020a028152600401602060405180830381600087803b151561412057600080fd5b6102c65a03f1151561413157600080fd5b50505060405180519050115b156141ac576141ac82600160a060020a03166329176e636000604051602001526040518163ffffffff1660e060020a028152600401602060405180830381600087803b151561418b57600080fd5b6102c65a03f1151561419c57600080fd5b505050604051805190508561427a565b509498975050505050505050565b60015460c060020a900460ff16156141ec57600160a060020a0333166000908152601d60205260409020349055614220565b601354600160a060020a03163480156108fc0290604051600060405180830381858888f19350505050151561422057600080fd5b565b60008282018381101561423157fe5b9392505050565b60008083151561424b5760009150612886565b5082820282848281151561425b57fe5b041461423157fe5b600080828481151561427157fe5b04949350505050565b600180601a5460ff16600481111561428e57fe5b1461429857600080fd5b60015460f060020a900460ff1615156143c55760015460e060020a900460ff161561434a57600d54600160a060020a03166323b872dd30858560006040516020015260405160e060020a63ffffffff8616028152600160a060020a0393841660048201529190921660248201526044810191909152606401602060405180830381600087803b151561432957600080fd5b6102c65a03f1151561433a57600080fd5b50505060405180519050506143c5565b600d54600160a060020a03166340c10f19848460006040516020015260405160e060020a63ffffffff8516028152600160a060020a0390921660048301526024820152604401602060405180830381600087803b15156143a957600080fd5b6102c65a03f115156143ba57600080fd5b505050604051805150505b601c546143d8908363ffffffff61422216565b601c55505050565b815481835581811511610e8257600083815260209020610e82918101908301614436565b60206040519081016040526000815290565b60405161013e8061445583390190565b60405161017f8061459383390190565b612bbb91905b80821115614450576000815560010161443c565b509056006060604052341561000f57600080fd5b60405160408061013e83398101604052808051919060200180516000805460ff1916600190811790915593909355505060025560ee806100506000396000f30060606040526004361060525763ffffffff7c01000000000000000000000000000000000000000000000000000000006000350416636ac5db1981146057578063b1b3d3f6146079578063f889794514609d575b600080fd5b3415606157600080fd5b606760ad565b60405190815260200160405180910390f35b3415608357600080fd5b608960b3565b604051901515815260200160405180910390f35b341560a757600080fd5b606760bc565b60025481565b60005460ff1681565b600154815600a165627a7a723058209f3c6ec82fb38fcd274d0f3b90793514c9719a881706002915e2ead8edcec40200296060604052341561000f57600080fd5b60405160608061017f83398101604052808051919060200180519190602001805160008054600160a060020a03909516600160a060020a0319909516949094179093555050600255600155610116806100696000396000f30060606040526004361060525763ffffffff7c010000000000000000000000000000000000000000000000000000000060003504166329176e638114605757806363e0f8c714609057806375b4d78c1460b2575b600080fd5b3415606157600080fd5b606760c2565b60405173ffffffffffffffffffffffffffffffffffffffff909116815260200160405180910390f35b3415609a57600080fd5b60a060de565b60405190815260200160405180910390f35b341560bc57600080fd5b60a060e4565b60005473ffffffffffffffffffffffffffffffffffffffff1681565b60025481565b600154815600a165627a7a7230582057f2c6461ae7c8bf9628309d3fb7895cf5a6362477c4151161e66dfd947d1d6b0029043dde8a406bae2ac5a8f7a1abfb5836a348f2563d30428c735f5c2cc64ee7d6a165627a7a723058203a7bd4730561112c37a41a07292442fbefe72b50660d4ba943c5885d75b604780029043dde8a406bae2ac5a8f7a1abfb5836a348f2563d30428c735f5c2cc64ee7d6",
  "source": "pragma solidity ^0.4.15;\n\nimport './base/Crowdsale.sol';\ncontract BaseAltCrowdsale is Crowdsale {\n  function BaseAltCrowdsale(\n    address _registry,\n    address _token,\n    address _extraTokensHolder,\n    address _wallet,\n    bool _isWhitelisted,\n    uint _price,\n    uint _start,\n    uint _end,\n    uint _softCap,\n    uint _hardCap\n  ) public {\n    setFlags(\n      // Should be whitelisted to buy tokens\n      // _isWhitelisted,\n      _isWhitelisted,\n      // Should be known user to buy tokens\n      // _isKnownOnly,\n      true,\n      // Enable amount bonuses in crowdsale? \n      // _isAmountBonus,\n      false,\n      // Enable early bird bonus in crowdsale?\n      // _isEarlyBonus,\n      true,\n      // Allow to refund money?\n      // _isRefundable,\n      false,\n      // Allow to buy tokens for another tokens?\n      // _isTokenExcange,\n      false,\n      // Allow to issue tokens with tx hash (ex bitcoin)\n      // _isAllowToIssue,\n      true,\n      // Should mint extra tokens for future distribution?\n      // _isExtraDistribution,\n      false,\n      // Will ship token via minting? \n      // _isMintingShipment,\n      true,\n      // Should be capped in ether\n      // bool _isCappedInEther,\n      true,\n      // Should beneficiaries pull their tokens? \n      // _isPullingTokens\n      false,\n      // Should check personal bonuses?\n      // _isPersonalBonuses\n      true\n    );\n\n    setToken(_token); \n    setTime(_start, _end);\n    setRegistry(_registry);\n    setWallet(_wallet);\n    setExtraDistribution(\n      _extraTokensHolder,\n      3000 // 30%\n    );\n\n    setSoftHardCaps(\n      _softCap, // soft\n      _hardCap  // hard\n    );\n\n    // 200 ALT per 1 ETH\n    setPrice(_price);\n  }\n}\n\ncontract AltCrowdsalePhaseTwo is BaseAltCrowdsale {\n  function AltCrowdsalePhaseTwo(\n    address _registry,\n    address _token,\n    address _extraTokensHolder,\n    address _wallet\n  )\n  BaseAltCrowdsale(\n    _registry,\n    _token,\n    _extraTokensHolder,\n    _wallet,\n\n    // Whitelisted\n    false,\n\n    // price 1 ETH -> 100 ALT\n    uint(1 ether).div(100), \n\n    // start\n    block.timestamp + 60 days,\n    // end \n    block.timestamp + 90 days,\n\n    // _softCap,\n    0,\n    // _hardCap\n    15000 ether\n  ) \n  public {\n\n  } \n}\n\ncontract AltCrowdsalePhaseOne is BaseAltCrowdsale {\n  function AltCrowdsalePhaseOne (\n    address _registry,\n    address _token,\n    address _extraTokensHolder,\n    address _wallet\n  )\n  BaseAltCrowdsale(\n    _registry,\n    _token,\n    _extraTokensHolder,\n    _wallet,\n\n    // Whitelisted\n    false,\n\n    // price 1 ETH -> 200 ALT\n    uint(1 ether).div(200), \n\n    // start\n    block.timestamp,\n    // end \n    block.timestamp + 10 days,\n\n    // _softCap,\n    0,\n    // _hardCap\n    1500 ether\n  ) \n  public {\n\n  } \n} ",
  "sourcePath": "/Users/aler/crypto/altestate-3/contracts/AltCrowdsale.sol",
  "compiler": {
    "name": "solc",
    "version": "0.4.18+commit.9cf6e910.Emscripten.clang"
  },
  "schemaVersion": "1.0.1",
  "updatedAt": "2017-12-07T00:15:07.502Z"
}