{
  "contractName": "AltToken",
  "abi": [
    {
      "constant": true,
      "inputs": [],
      "name": "mintingFinished",
      "outputs": [
        {
          "name": "",
          "type": "bool"
        }
      ],
      "payable": false,
      "stateMutability": "view",
      "type": "function"
    },
    {
      "constant": true,
      "inputs": [],
      "name": "name",
      "outputs": [
        {
          "name": "",
          "type": "string"
        }
      ],
      "payable": false,
      "stateMutability": "view",
      "type": "function"
    },
    {
      "constant": false,
      "inputs": [
        {
          "name": "_spender",
          "type": "address"
        },
        {
          "name": "_value",
          "type": "uint256"
        }
      ],
      "name": "approve",
      "outputs": [
        {
          "name": "",
          "type": "bool"
        }
      ],
      "payable": false,
      "stateMutability": "nonpayable",
      "type": "function"
    },
    {
      "constant": true,
      "inputs": [],
      "name": "totalSupply",
      "outputs": [
        {
          "name": "",
          "type": "uint256"
        }
      ],
      "payable": false,
      "stateMutability": "view",
      "type": "function"
    },
    {
      "constant": false,
      "inputs": [
        {
          "name": "_from",
          "type": "address"
        },
        {
          "name": "_to",
          "type": "address"
        },
        {
          "name": "_value",
          "type": "uint256"
        }
      ],
      "name": "transferFrom",
      "outputs": [
        {
          "name": "",
          "type": "bool"
        }
      ],
      "payable": false,
      "stateMutability": "nonpayable",
      "type": "function"
    },
    {
      "constant": true,
      "inputs": [],
      "name": "decimals",
      "outputs": [
        {
          "name": "",
          "type": "uint256"
        }
      ],
      "payable": false,
      "stateMutability": "view",
      "type": "function"
    },
    {
      "constant": false,
      "inputs": [
        {
          "name": "_to",
          "type": "address"
        },
        {
          "name": "_amount",
          "type": "uint256"
        }
      ],
      "name": "mint",
      "outputs": [
        {
          "name": "",
          "type": "bool"
        }
      ],
      "payable": false,
      "stateMutability": "nonpayable",
      "type": "function"
    },
    {
      "constant": true,
      "inputs": [],
      "name": "userRegistry",
      "outputs": [
        {
          "name": "",
          "type": "address"
        }
      ],
      "payable": false,
      "stateMutability": "view",
      "type": "function"
    },
    {
      "constant": false,
      "inputs": [
        {
          "name": "_spender",
          "type": "address"
        },
        {
          "name": "_subtractedValue",
          "type": "uint256"
        }
      ],
      "name": "decreaseApproval",
      "outputs": [
        {
          "name": "",
          "type": "bool"
        }
      ],
      "payable": false,
      "stateMutability": "nonpayable",
      "type": "function"
    },
    {
      "constant": true,
      "inputs": [
        {
          "name": "_owner",
          "type": "address"
        }
      ],
      "name": "balanceOf",
      "outputs": [
        {
          "name": "balance",
          "type": "uint256"
        }
      ],
      "payable": false,
      "stateMutability": "view",
      "type": "function"
    },
    {
      "constant": false,
      "inputs": [],
      "name": "finishMinting",
      "outputs": [
        {
          "name": "",
          "type": "bool"
        }
      ],
      "payable": false,
      "stateMutability": "nonpayable",
      "type": "function"
    },
    {
      "constant": true,
      "inputs": [],
      "name": "ticker",
      "outputs": [
        {
          "name": "",
          "type": "string"
        }
      ],
      "payable": false,
      "stateMutability": "view",
      "type": "function"
    },
    {
      "constant": true,
      "inputs": [],
      "name": "owner",
      "outputs": [
        {
          "name": "",
          "type": "address"
        }
      ],
      "payable": false,
      "stateMutability": "view",
      "type": "function"
    },
    {
      "constant": false,
      "inputs": [
        {
          "name": "_to",
          "type": "address"
        },
        {
          "name": "_value",
          "type": "uint256"
        }
      ],
      "name": "transfer",
      "outputs": [
        {
          "name": "",
          "type": "bool"
        }
      ],
      "payable": false,
      "stateMutability": "nonpayable",
      "type": "function"
    },
    {
      "constant": false,
      "inputs": [
        {
          "name": "_spender",
          "type": "address"
        },
        {
          "name": "_value",
          "type": "uint256"
        },
        {
          "name": "_data",
          "type": "bytes"
        }
      ],
      "name": "approveAndCall",
      "outputs": [
        {
          "name": "",
          "type": "bool"
        }
      ],
      "payable": false,
      "stateMutability": "nonpayable",
      "type": "function"
    },
    {
      "constant": false,
      "inputs": [
        {
          "name": "_spender",
          "type": "address"
        },
        {
          "name": "_addedValue",
          "type": "uint256"
        }
      ],
      "name": "increaseApproval",
      "outputs": [
        {
          "name": "",
          "type": "bool"
        }
      ],
      "payable": false,
      "stateMutability": "nonpayable",
      "type": "function"
    },
    {
      "constant": true,
      "inputs": [
        {
          "name": "_owner",
          "type": "address"
        },
        {
          "name": "_spender",
          "type": "address"
        }
      ],
      "name": "allowance",
      "outputs": [
        {
          "name": "",
          "type": "uint256"
        }
      ],
      "payable": false,
      "stateMutability": "view",
      "type": "function"
    },
    {
      "constant": false,
      "inputs": [
        {
          "name": "newOwner",
          "type": "address"
        }
      ],
      "name": "transferOwnership",
      "outputs": [],
      "payable": false,
      "stateMutability": "nonpayable",
      "type": "function"
    },
    {
      "inputs": [
        {
          "name": "_registry",
          "type": "address"
        }
      ],
      "payable": false,
      "stateMutability": "nonpayable",
      "type": "constructor"
    },
    {
      "anonymous": false,
      "inputs": [
        {
          "indexed": true,
          "name": "to",
          "type": "address"
        },
        {
          "indexed": false,
          "name": "amount",
          "type": "uint256"
        }
      ],
      "name": "Mint",
      "type": "event"
    },
    {
      "anonymous": false,
      "inputs": [],
      "name": "MintFinished",
      "type": "event"
    },
    {
      "anonymous": false,
      "inputs": [
        {
          "indexed": true,
          "name": "previousOwner",
          "type": "address"
        },
        {
          "indexed": true,
          "name": "newOwner",
          "type": "address"
        }
      ],
      "name": "OwnershipTransferred",
      "type": "event"
    },
    {
      "anonymous": false,
      "inputs": [
        {
          "indexed": true,
          "name": "owner",
          "type": "address"
        },
        {
          "indexed": true,
          "name": "spender",
          "type": "address"
        },
        {
          "indexed": false,
          "name": "value",
          "type": "uint256"
        }
      ],
      "name": "Approval",
      "type": "event"
    },
    {
      "anonymous": false,
      "inputs": [
        {
          "indexed": true,
          "name": "from",
          "type": "address"
        },
        {
          "indexed": true,
          "name": "to",
          "type": "address"
        },
        {
          "indexed": false,
          "name": "value",
          "type": "uint256"
        }
      ],
      "name": "Transfer",
      "type": "event"
    }
  ],
  "bytecode": "0x60606040526007805460a060020a60ff021916905534156200002057600080fd5b60405160208062001187833981016040528080519150819050604080519081016040908152600a82527f416c7420457374617465000000000000000000000000000000000000000000006020830152805190810160405260038082527f414c5400000000000000000000000000000000000000000000000000000000006020830152600a90838051620000b892916020019062000121565b506004828051620000ce92916020019062000121565b506005555050600160a060020a0381161515620000ea57600080fd5b60068054600160a060020a0319908116600160a060020a0393841617909155600780549091163390921691909117905550620001c6565b828054600181600116156101000203166002900490600052602060002090601f016020900481019282601f106200016457805160ff191683800117855562000194565b8280016001018555821562000194579182015b828111156200019457825182559160200191906001019062000177565b50620001a2929150620001a6565b5090565b620001c391905b80821115620001a25760008155600101620001ad565b90565b610fb180620001d66000396000f3006060604052600436106100e25763ffffffff60e060020a60003504166305d2035b81146100e757806306fdde031461010e578063095ea7b31461019857806318160ddd146101ba57806323b872dd146101df578063313ce5671461020757806340c10f191461021a5780635c7460d61461023c578063661884631461026b57806370a082311461028d5780637d64bcb4146102ac5780638ba47bdd146102bf5780638da5cb5b146102d2578063a9059cbb146102e5578063cae9ca5114610307578063d73dd6231461036c578063dd62ed3e1461038e578063f2fde38b146103b3575b600080fd5b34156100f257600080fd5b6100fa6103d4565b604051901515815260200160405180910390f35b341561011957600080fd5b6101216103e4565b60405160208082528190810183818151815260200191508051906020019080838360005b8381101561015d578082015183820152602001610145565b50505050905090810190601f16801561018a5780820380516001836020036101000a031916815260200191505b509250505060405180910390f35b34156101a357600080fd5b6100fa600160a060020a0360043516602435610482565b34156101c557600080fd5b6101cd6104ee565b60405190815260200160405180910390f35b34156101ea57600080fd5b6100fa600160a060020a03600435811690602435166044356104f4565b341561021257600080fd5b6101cd610609565b341561022557600080fd5b6100fa600160a060020a036004351660243561060f565b341561024757600080fd5b61024f61071c565b604051600160a060020a03909116815260200160405180910390f35b341561027657600080fd5b6100fa600160a060020a036004351660243561072b565b341561029857600080fd5b6101cd600160a060020a0360043516610825565b34156102b757600080fd5b6100fa610840565b34156102ca57600080fd5b6101216108cb565b34156102dd57600080fd5b61024f610936565b34156102f057600080fd5b6100fa600160a060020a0360043516602435610945565b341561031257600080fd5b6100fa60048035600160a060020a03169060248035919060649060443590810190830135806020601f82018190048102016040519081016040528181529291906020840183838082843750949650610a5695505050505050565b341561037757600080fd5b6100fa600160a060020a0360043516602435610b76565b341561039957600080fd5b6101cd600160a060020a0360043581169060243516610c1a565b34156103be57600080fd5b6103d2600160a060020a0360043516610c45565b005b60075460a060020a900460ff1681565b60038054600181600116156101000203166002900480601f01602080910402602001604051908101604052809291908181526020018280546001816001161561010002031660029004801561047a5780601f1061044f5761010080835404028352916020019161047a565b820191906000526020600020905b81548152906001019060200180831161045d57829003601f168201915b505050505081565b600160a060020a03338116600081815260026020908152604080832094871680845294909152808220859055909291907f8c5be1e5ebec7d5bd14f71427d1e84f3dd0314c0f7b2291e5b200ac8c7c3b9259085905190815260200160405180910390a350600192915050565b60005481565b6006546000908490600160a060020a031663a75df81482846040516020015260405160e060020a63ffffffff8416028152600160a060020a039091166004820152602401602060405180830381600087803b151561055157600080fd5b6102c65a03f1151561056257600080fd5b5050506040518051905015806105e85750600654600160a060020a031663237f1a218260006040516020015260405160e060020a63ffffffff8416028152600160a060020a039091166004820152602401602060405180830381600087803b15156105cc57600080fd5b6102c65a03f115156105dd57600080fd5b505050604051805190505b15156105f357600080fd5b6105fe858585610ce0565b91505b509392505050565b60055481565b60075460009033600160a060020a0390811691161461062d57600080fd5b60075460a060020a900460ff161561064457600080fd5b600054610657908363ffffffff610e6216565b6000908155600160a060020a038416815260016020526040902054610682908363ffffffff610e6216565b600160a060020a0384166000818152600160205260409081902092909255907f0f6798a560793a54c3bcfe86a93cde1e73087d944c0ea20544137d41213968859084905190815260200160405180910390a2600160a060020a03831660007fddf252ad1be2c89b69c2b068fc378daa952ba7f163c4a11628f55a4df523b3ef8460405190815260200160405180910390a350600192915050565b600654600160a060020a031681565b600160a060020a0333811660009081526002602090815260408083209386168352929052908120548083111561078857600160a060020a0333811660009081526002602090815260408083209388168352929052908120556107bf565b610798818463ffffffff610e7816565b600160a060020a033381166000908152600260209081526040808320938916835292905220555b600160a060020a0333811660008181526002602090815260408083209489168084529490915290819020547f8c5be1e5ebec7d5bd14f71427d1e84f3dd0314c0f7b2291e5b200ac8c7c3b925915190815260200160405180910390a35060019392505050565b600160a060020a031660009081526001602052604090205490565b60075460009033600160a060020a0390811691161461085e57600080fd5b60075460a060020a900460ff161561087557600080fd5b6007805474ff0000000000000000000000000000000000000000191660a060020a1790557fae5184fba832cb2b1f702aca6117b8d265eaf03ad33eb133f19dde0f5920fa0860405160405180910390a150600190565b60048054600181600116156101000203166002900480601f01602080910402602001604051908101604052809291908181526020018280546001816001161561010002031660029004801561047a5780601f1061044f5761010080835404028352916020019161047a565b600754600160a060020a031681565b6006546000903390600160a060020a031663a75df81482846040516020015260405160e060020a63ffffffff8416028152600160a060020a039091166004820152602401602060405180830381600087803b15156109a257600080fd5b6102c65a03f115156109b357600080fd5b505050604051805190501580610a395750600654600160a060020a031663237f1a218260006040516020015260405160e060020a63ffffffff8416028152600160a060020a039091166004820152602401602060405180830381600087803b1515610a1d57600080fd5b6102c65a03f11515610a2e57600080fd5b505050604051805190505b1515610a4457600080fd5b610a4e8484610e8a565b949350505050565b600083610a638185610482565b15610b6b5780600160a060020a0316638f4ffcb1338630876040518563ffffffff1660e060020a0281526004018085600160a060020a0316600160a060020a0316815260200184815260200183600160a060020a0316600160a060020a0316815260200180602001828103825283818151815260200191508051906020019080838360005b83811015610b00578082015183820152602001610ae8565b50505050905090810190601f168015610b2d5780820380516001836020036101000a031916815260200191505b5095505050505050600060405180830381600087803b1515610b4e57600080fd5b6102c65a03f11515610b5f57600080fd5b50505060019150610601565b506000949350505050565b600160a060020a033381166000908152600260209081526040808320938616835292905290812054610bae908363ffffffff610e6216565b600160a060020a0333811660008181526002602090815260408083209489168084529490915290819020849055919290917f8c5be1e5ebec7d5bd14f71427d1e84f3dd0314c0f7b2291e5b200ac8c7c3b92591905190815260200160405180910390a350600192915050565b600160a060020a03918216600090815260026020908152604080832093909416825291909152205490565b60075433600160a060020a03908116911614610c6057600080fd5b600160a060020a0381161515610c7557600080fd5b600754600160a060020a0380831691167f8be0079c531659141344cd1fd0a4f28419497f9722a3daafe3b4186f6b6457e060405160405180910390a36007805473ffffffffffffffffffffffffffffffffffffffff1916600160a060020a0392909216919091179055565b6000600160a060020a0383161515610cf757600080fd5b600160a060020a038416600090815260016020526040902054821115610d1c57600080fd5b600160a060020a0380851660009081526002602090815260408083203390941683529290522054821115610d4f57600080fd5b600160a060020a038416600090815260016020526040902054610d78908363ffffffff610e7816565b600160a060020a038086166000908152600160205260408082209390935590851681522054610dad908363ffffffff610e6216565b600160a060020a03808516600090815260016020908152604080832094909455878316825260028152838220339093168252919091522054610df5908363ffffffff610e7816565b600160a060020a03808616600081815260026020908152604080832033861684529091529081902093909355908516917fddf252ad1be2c89b69c2b068fc378daa952ba7f163c4a11628f55a4df523b3ef9085905190815260200160405180910390a35060019392505050565b600082820183811015610e7157fe5b9392505050565b600082821115610e8457fe5b50900390565b6000600160a060020a0383161515610ea157600080fd5b600160a060020a033316600090815260016020526040902054821115610ec657600080fd5b600160a060020a033316600090815260016020526040902054610eef908363ffffffff610e7816565b600160a060020a033381166000908152600160205260408082209390935590851681522054610f24908363ffffffff610e6216565b600160a060020a0380851660008181526001602052604090819020939093559133909116907fddf252ad1be2c89b69c2b068fc378daa952ba7f163c4a11628f55a4df523b3ef9085905190815260200160405180910390a3506001929150505600a165627a7a72305820141534eedfd125a898f9250d0d960012716d552c24d843a5b7f4371fd9cd49a20029",
  "source": "pragma solidity ^0.4.15;\n\nimport './base/KnownHolderToken.sol';\nimport './base/ApproveAndCallToken.sol';\nimport './base/NamedToken.sol';\nimport 'zeppelin-solidity/contracts/token/MintableToken.sol';\n\ncontract AltToken is NamedToken, KnownHolderToken, ApproveAndCallToken, MintableToken {\n  function AltToken(address _registry) \n    NamedToken(\"Alt Estate\", \"ALT\", 10)\n    ApproveAndCallToken()\n    MintableToken()\n    KnownHolderToken(_registry) public {\n  }\n}",
  "sourcePath": "/Users/aler/crypto/altestate-3/contracts/AltToken.sol",
  "compiler": {
    "name": "solc",
    "version": "0.4.18+commit.9cf6e910.Emscripten.clang"
  },
  "schemaVersion": "1.0.1",
  "updatedAt": "2017-12-01T12:06:46.890Z"
}