{
  "contractName": "ApproveAndCallToken",
  "abi": [
    {
      "constant": false,
      "inputs": [
        {
          "name": "_spender",
          "type": "address"
        },
        {
          "name": "_value",
          "type": "uint256"
        }
      ],
      "name": "approve",
      "outputs": [
        {
          "name": "",
          "type": "bool"
        }
      ],
      "payable": false,
      "stateMutability": "nonpayable",
      "type": "function"
    },
    {
      "constant": true,
      "inputs": [],
      "name": "totalSupply",
      "outputs": [
        {
          "name": "",
          "type": "uint256"
        }
      ],
      "payable": false,
      "stateMutability": "view",
      "type": "function"
    },
    {
      "constant": false,
      "inputs": [
        {
          "name": "_from",
          "type": "address"
        },
        {
          "name": "_to",
          "type": "address"
        },
        {
          "name": "_value",
          "type": "uint256"
        }
      ],
      "name": "transferFrom",
      "outputs": [
        {
          "name": "",
          "type": "bool"
        }
      ],
      "payable": false,
      "stateMutability": "nonpayable",
      "type": "function"
    },
    {
      "constant": false,
      "inputs": [
        {
          "name": "_spender",
          "type": "address"
        },
        {
          "name": "_subtractedValue",
          "type": "uint256"
        }
      ],
      "name": "decreaseApproval",
      "outputs": [
        {
          "name": "",
          "type": "bool"
        }
      ],
      "payable": false,
      "stateMutability": "nonpayable",
      "type": "function"
    },
    {
      "constant": true,
      "inputs": [
        {
          "name": "_owner",
          "type": "address"
        }
      ],
      "name": "balanceOf",
      "outputs": [
        {
          "name": "balance",
          "type": "uint256"
        }
      ],
      "payable": false,
      "stateMutability": "view",
      "type": "function"
    },
    {
      "constant": false,
      "inputs": [
        {
          "name": "_to",
          "type": "address"
        },
        {
          "name": "_value",
          "type": "uint256"
        }
      ],
      "name": "transfer",
      "outputs": [
        {
          "name": "",
          "type": "bool"
        }
      ],
      "payable": false,
      "stateMutability": "nonpayable",
      "type": "function"
    },
    {
      "constant": false,
      "inputs": [
        {
          "name": "_spender",
          "type": "address"
        },
        {
          "name": "_value",
          "type": "uint256"
        },
        {
          "name": "_data",
          "type": "bytes"
        }
      ],
      "name": "approveAndCall",
      "outputs": [
        {
          "name": "",
          "type": "bool"
        }
      ],
      "payable": false,
      "stateMutability": "nonpayable",
      "type": "function"
    },
    {
      "constant": false,
      "inputs": [
        {
          "name": "_spender",
          "type": "address"
        },
        {
          "name": "_addedValue",
          "type": "uint256"
        }
      ],
      "name": "increaseApproval",
      "outputs": [
        {
          "name": "",
          "type": "bool"
        }
      ],
      "payable": false,
      "stateMutability": "nonpayable",
      "type": "function"
    },
    {
      "constant": true,
      "inputs": [
        {
          "name": "_owner",
          "type": "address"
        },
        {
          "name": "_spender",
          "type": "address"
        }
      ],
      "name": "allowance",
      "outputs": [
        {
          "name": "",
          "type": "uint256"
        }
      ],
      "payable": false,
      "stateMutability": "view",
      "type": "function"
    },
    {
      "anonymous": false,
      "inputs": [
        {
          "indexed": true,
          "name": "owner",
          "type": "address"
        },
        {
          "indexed": true,
          "name": "spender",
          "type": "address"
        },
        {
          "indexed": false,
          "name": "value",
          "type": "uint256"
        }
      ],
      "name": "Approval",
      "type": "event"
    },
    {
      "anonymous": false,
      "inputs": [
        {
          "indexed": true,
          "name": "from",
          "type": "address"
        },
        {
          "indexed": true,
          "name": "to",
          "type": "address"
        },
        {
          "indexed": false,
          "name": "value",
          "type": "uint256"
        }
      ],
      "name": "Transfer",
      "type": "event"
    }
  ],
  "bytecode": "0x6060604052341561000f57600080fd5b6108918061001e6000396000f3006060604052600436106100985763ffffffff7c0100000000000000000000000000000000000000000000000000000000600035041663095ea7b3811461009d57806318160ddd146100d357806323b872dd146100f8578063661884631461012057806370a0823114610142578063a9059cbb14610161578063cae9ca5114610183578063d73dd623146101e8578063dd62ed3e1461020a575b600080fd5b34156100a857600080fd5b6100bf600160a060020a036004351660243561022f565b604051901515815260200160405180910390f35b34156100de57600080fd5b6100e661029b565b60405190815260200160405180910390f35b341561010357600080fd5b6100bf600160a060020a03600435811690602435166044356102a1565b341561012b57600080fd5b6100bf600160a060020a0360043516602435610423565b341561014d57600080fd5b6100e6600160a060020a036004351661051d565b341561016c57600080fd5b6100bf600160a060020a0360043516602435610538565b341561018e57600080fd5b6100bf60048035600160a060020a03169060248035919060649060443590810190830135806020601f8201819004810201604051908101604052818152929190602084018383808284375094965061063395505050505050565b34156101f357600080fd5b6100bf600160a060020a036004351660243561076e565b341561021557600080fd5b6100e6600160a060020a0360043581169060243516610812565b600160a060020a03338116600081815260026020908152604080832094871680845294909152808220859055909291907f8c5be1e5ebec7d5bd14f71427d1e84f3dd0314c0f7b2291e5b200ac8c7c3b9259085905190815260200160405180910390a350600192915050565b60005481565b6000600160a060020a03831615156102b857600080fd5b600160a060020a0384166000908152600160205260409020548211156102dd57600080fd5b600160a060020a038085166000908152600260209081526040808320339094168352929052205482111561031057600080fd5b600160a060020a038416600090815260016020526040902054610339908363ffffffff61083d16565b600160a060020a03808616600090815260016020526040808220939093559085168152205461036e908363ffffffff61084f16565b600160a060020a038085166000908152600160209081526040808320949094558783168252600281528382203390931682529190915220546103b6908363ffffffff61083d16565b600160a060020a03808616600081815260026020908152604080832033861684529091529081902093909355908516917fddf252ad1be2c89b69c2b068fc378daa952ba7f163c4a11628f55a4df523b3ef9085905190815260200160405180910390a35060019392505050565b600160a060020a0333811660009081526002602090815260408083209386168352929052908120548083111561048057600160a060020a0333811660009081526002602090815260408083209388168352929052908120556104b7565b610490818463ffffffff61083d16565b600160a060020a033381166000908152600260209081526040808320938916835292905220555b600160a060020a0333811660008181526002602090815260408083209489168084529490915290819020547f8c5be1e5ebec7d5bd14f71427d1e84f3dd0314c0f7b2291e5b200ac8c7c3b925915190815260200160405180910390a35060019392505050565b600160a060020a031660009081526001602052604090205490565b6000600160a060020a038316151561054f57600080fd5b600160a060020a03331660009081526001602052604090205482111561057457600080fd5b600160a060020a03331660009081526001602052604090205461059d908363ffffffff61083d16565b600160a060020a0333811660009081526001602052604080822093909355908516815220546105d2908363ffffffff61084f16565b600160a060020a0380851660008181526001602052604090819020939093559133909116907fddf252ad1be2c89b69c2b068fc378daa952ba7f163c4a11628f55a4df523b3ef9085905190815260200160405180910390a350600192915050565b600083610640818561022f565b156107615780600160a060020a0316638f4ffcb1338630876040518563ffffffff167c01000000000000000000000000000000000000000000000000000000000281526004018085600160a060020a0316600160a060020a0316815260200184815260200183600160a060020a0316600160a060020a0316815260200180602001828103825283818151815260200191508051906020019080838360005b838110156106f65780820151838201526020016106de565b50505050905090810190601f1680156107235780820380516001836020036101000a031916815260200191505b5095505050505050600060405180830381600087803b151561074457600080fd5b6102c65a03f1151561075557600080fd5b50505060019150610766565b600091505b509392505050565b600160a060020a0333811660009081526002602090815260408083209386168352929052908120546107a6908363ffffffff61084f16565b600160a060020a0333811660008181526002602090815260408083209489168084529490915290819020849055919290917f8c5be1e5ebec7d5bd14f71427d1e84f3dd0314c0f7b2291e5b200ac8c7c3b92591905190815260200160405180910390a350600192915050565b600160a060020a03918216600090815260026020908152604080832093909416825291909152205490565b60008282111561084957fe5b50900390565b60008282018381101561085e57fe5b93925050505600a165627a7a72305820f23193badf82c22a309f611365fb26948129e91fabb197d4f778e7c34f7a88af0029",
  "source": "pragma solidity ^0.4.15;\nimport './TokenRecipient.sol';\nimport 'zeppelin-solidity/contracts/token/StandardToken.sol';\n\ncontract ApproveAndCallToken is StandardToken {\n  function approveAndCall(address _spender, uint _value, bytes _data) public returns (bool) {\n    TokenRecipient spender = TokenRecipient(_spender);\n    if (approve(_spender, _value)) {\n      spender.receiveApproval(msg.sender, _value, this, _data);\n      return true;\n    }\n    return false;\n  }\n}",
  "sourcePath": "/Users/aler/crypto/altestate-3/contracts/base/ApproveAndCallToken.sol",
  "compiler": {
    "name": "solc",
    "version": "0.4.18+commit.9cf6e910.Emscripten.clang"
  },
  "schemaVersion": "1.0.1",
  "updatedAt": "2017-12-07T00:14:58.614Z"
}