{
  "contractName": "BasicToken",
  "abi": [
    {
      "constant": true,
      "inputs": [],
      "name": "totalSupply",
      "outputs": [
        {
          "name": "",
          "type": "uint256"
        }
      ],
      "payable": false,
      "stateMutability": "view",
      "type": "function"
    },
    {
      "constant": true,
      "inputs": [
        {
          "name": "_owner",
          "type": "address"
        }
      ],
      "name": "balanceOf",
      "outputs": [
        {
          "name": "balance",
          "type": "uint256"
        }
      ],
      "payable": false,
      "stateMutability": "view",
      "type": "function"
    },
    {
      "constant": false,
      "inputs": [
        {
          "name": "_to",
          "type": "address"
        },
        {
          "name": "_value",
          "type": "uint256"
        }
      ],
      "name": "transfer",
      "outputs": [
        {
          "name": "",
          "type": "bool"
        }
      ],
      "payable": false,
      "stateMutability": "nonpayable",
      "type": "function"
    },
    {
      "anonymous": false,
      "inputs": [
        {
          "indexed": true,
          "name": "from",
          "type": "address"
        },
        {
          "indexed": true,
          "name": "to",
          "type": "address"
        },
        {
          "indexed": false,
          "name": "value",
          "type": "uint256"
        }
      ],
      "name": "Transfer",
      "type": "event"
    }
  ],
  "bytecode": "0x6060604052341561000f57600080fd5b6102458061001e6000396000f3006060604052600436106100565763ffffffff7c010000000000000000000000000000000000000000000000000000000060003504166318160ddd811461005b57806370a0823114610080578063a9059cbb1461009f575b600080fd5b341561006657600080fd5b61006e6100d5565b60405190815260200160405180910390f35b341561008b57600080fd5b61006e600160a060020a03600435166100db565b34156100aa57600080fd5b6100c1600160a060020a03600435166024356100f6565b604051901515815260200160405180910390f35b60005481565b600160a060020a031660009081526001602052604090205490565b6000600160a060020a038316151561010d57600080fd5b600160a060020a03331660009081526001602052604090205482111561013257600080fd5b600160a060020a03331660009081526001602052604090205461015b908363ffffffff6101f116565b600160a060020a033381166000908152600160205260408082209390935590851681522054610190908363ffffffff61020316565b600160a060020a0380851660008181526001602052604090819020939093559133909116907fddf252ad1be2c89b69c2b068fc378daa952ba7f163c4a11628f55a4df523b3ef9085905190815260200160405180910390a350600192915050565b6000828211156101fd57fe5b50900390565b60008282018381101561021257fe5b93925050505600a165627a7a72305820c4585e9aedf75c9bf074a04fcf475f8465bad2983729e0118f53094e59d8068d0029",
  "source": "pragma solidity ^0.4.18;\n\n\nimport './ERC20Basic.sol';\nimport '../math/SafeMath.sol';\n\n\n/**\n * @title Basic token\n * @dev Basic version of StandardToken, with no allowances.\n */\ncontract BasicToken is ERC20Basic {\n  using SafeMath for uint256;\n\n  mapping(address => uint256) balances;\n\n  /**\n  * @dev transfer token for a specified address\n  * @param _to The address to transfer to.\n  * @param _value The amount to be transferred.\n  */\n  function transfer(address _to, uint256 _value) public returns (bool) {\n    require(_to != address(0));\n    require(_value <= balances[msg.sender]);\n\n    // SafeMath.sub will throw if there is not enough balance.\n    balances[msg.sender] = balances[msg.sender].sub(_value);\n    balances[_to] = balances[_to].add(_value);\n    Transfer(msg.sender, _to, _value);\n    return true;\n  }\n\n  /**\n  * @dev Gets the balance of the specified address.\n  * @param _owner The address to query the the balance of.\n  * @return An uint256 representing the amount owned by the passed address.\n  */\n  function balanceOf(address _owner) public view returns (uint256 balance) {\n    return balances[_owner];\n  }\n\n}\n",
  "sourcePath": "zeppelin-solidity/contracts/token/BasicToken.sol",
  "compiler": {
    "name": "solc",
    "version": "0.4.18+commit.9cf6e910.Emscripten.clang"
  },
  "schemaVersion": "1.0.1",
  "updatedAt": "2017-12-07T00:14:58.654Z"
}