{
  "contractName": "Crowdsale",
  "abi": [
    {
      "constant": false,
      "inputs": [
        {
          "name": "_tokenAddress",
          "type": "address"
        }
      ],
      "name": "setToken",
      "outputs": [],
      "payable": false,
      "stateMutability": "nonpayable",
      "type": "function"
    },
    {
      "constant": true,
      "inputs": [
        {
          "name": "",
          "type": "address"
        }
      ],
      "name": "claimRefundAllowance",
      "outputs": [
        {
          "name": "",
          "type": "bool"
        }
      ],
      "payable": false,
      "stateMutability": "view",
      "type": "function"
    },
    {
      "constant": true,
      "inputs": [
        {
          "name": "",
          "type": "uint256"
        }
      ],
      "name": "timeSlices",
      "outputs": [
        {
          "name": "",
          "type": "uint256"
        }
      ],
      "payable": false,
      "stateMutability": "view",
      "type": "function"
    },
    {
      "constant": false,
      "inputs": [
        {
          "name": "_timeSlices",
          "type": "uint256[]"
        },
        {
          "name": "_prices",
          "type": "uint256[]"
        }
      ],
      "name": "setTimeBonuses",
      "outputs": [],
      "payable": false,
      "stateMutability": "nonpayable",
      "type": "function"
    },
    {
      "constant": true,
      "inputs": [],
      "name": "temporalTotalSupply",
      "outputs": [
        {
          "name": "",
          "type": "uint256"
        }
      ],
      "payable": false,
      "stateMutability": "view",
      "type": "function"
    },
    {
      "constant": false,
      "inputs": [
        {
          "name": "_beneficiary",
          "type": "address"
        },
        {
          "name": "_value",
          "type": "uint256"
        },
        {
          "name": "_timestamp",
          "type": "uint256"
        },
        {
          "name": "_hash",
          "type": "bytes32"
        }
      ],
      "name": "buyWithHash",
      "outputs": [],
      "payable": false,
      "stateMutability": "nonpayable",
      "type": "function"
    },
    {
      "constant": true,
      "inputs": [],
      "name": "isRefundable",
      "outputs": [
        {
          "name": "",
          "type": "bool"
        }
      ],
      "payable": false,
      "stateMutability": "view",
      "type": "function"
    },
    {
      "constant": false,
      "inputs": [
        {
          "name": "_token",
          "type": "address"
        },
        {
          "name": "_value",
          "type": "uint256"
        }
      ],
      "name": "updateTokenValue",
      "outputs": [],
      "payable": false,
      "stateMutability": "nonpayable",
      "type": "function"
    },
    {
      "constant": true,
      "inputs": [],
      "name": "endTime",
      "outputs": [
        {
          "name": "",
          "type": "uint256"
        }
      ],
      "payable": false,
      "stateMutability": "view",
      "type": "function"
    },
    {
      "constant": false,
      "inputs": [
        {
          "name": "_amountSlices",
          "type": "uint256[]"
        },
        {
          "name": "_prices",
          "type": "uint256[]"
        }
      ],
      "name": "setAmountBonuses",
      "outputs": [],
      "payable": false,
      "stateMutability": "nonpayable",
      "type": "function"
    },
    {
      "constant": false,
      "inputs": [
        {
          "name": "_beneficiary",
          "type": "address"
        },
        {
          "name": "_weiAmount",
          "type": "uint256"
        },
        {
          "name": "_time",
          "type": "uint256"
        },
        {
          "name": "_totalSupply",
          "type": "uint256"
        }
      ],
      "name": "calculateEthAmount",
      "outputs": [
        {
          "name": "",
          "type": "uint256"
        },
        {
          "name": "",
          "type": "uint256"
        },
        {
          "name": "",
          "type": "uint256"
        }
      ],
      "payable": false,
      "stateMutability": "nonpayable",
      "type": "function"
    },
    {
      "constant": true,
      "inputs": [],
      "name": "tokenDecimals",
      "outputs": [
        {
          "name": "",
          "type": "uint256"
        }
      ],
      "payable": false,
      "stateMutability": "view",
      "type": "function"
    },
    {
      "constant": true,
      "inputs": [
        {
          "name": "",
          "type": "uint256"
        }
      ],
      "name": "whitelisted",
      "outputs": [
        {
          "name": "",
          "type": "address"
        }
      ],
      "payable": false,
      "stateMutability": "view",
      "type": "function"
    },
    {
      "constant": true,
      "inputs": [],
      "name": "weiRaised",
      "outputs": [
        {
          "name": "",
          "type": "uint256"
        }
      ],
      "payable": false,
      "stateMutability": "view",
      "type": "function"
    },
    {
      "constant": true,
      "inputs": [
        {
          "name": "",
          "type": "address"
        },
        {
          "name": "",
          "type": "address"
        }
      ],
      "name": "altDeposit",
      "outputs": [
        {
          "name": "",
          "type": "uint256"
        }
      ],
      "payable": false,
      "stateMutability": "view",
      "type": "function"
    },
    {
      "constant": false,
      "inputs": [
        {
          "name": "_isWhitelisted",
          "type": "bool"
        },
        {
          "name": "_isKnownOnly",
          "type": "bool"
        },
        {
          "name": "_isAmountBonus",
          "type": "bool"
        },
        {
          "name": "_isEarlyBonus",
          "type": "bool"
        },
        {
          "name": "_isRefundable",
          "type": "bool"
        },
        {
          "name": "_isTokenExchange",
          "type": "bool"
        },
        {
          "name": "_isAllowToIssue",
          "type": "bool"
        },
        {
          "name": "_isExtraDistribution",
          "type": "bool"
        },
        {
          "name": "_isMintingShipment",
          "type": "bool"
        },
        {
          "name": "_isCappedInEther",
          "type": "bool"
        },
        {
          "name": "_isPullingTokens",
          "type": "bool"
        }
      ],
      "name": "setFlags",
      "outputs": [],
      "payable": false,
      "stateMutability": "nonpayable",
      "type": "function"
    },
    {
      "constant": true,
      "inputs": [],
      "name": "wallet",
      "outputs": [
        {
          "name": "",
          "type": "address"
        }
      ],
      "payable": false,
      "stateMutability": "view",
      "type": "function"
    },
    {
      "constant": true,
      "inputs": [],
      "name": "isAllowToIssue",
      "outputs": [
        {
          "name": "",
          "type": "bool"
        }
      ],
      "payable": false,
      "stateMutability": "view",
      "type": "function"
    },
    {
      "constant": true,
      "inputs": [],
      "name": "isCappedInEther",
      "outputs": [
        {
          "name": "",
          "type": "bool"
        }
      ],
      "payable": false,
      "stateMutability": "view",
      "type": "function"
    },
    {
      "constant": true,
      "inputs": [
        {
          "name": "_beneficiary",
          "type": "address"
        },
        {
          "name": "_weiAmount",
          "type": "uint256"
        },
        {
          "name": "_tokenAmount",
          "type": "uint256"
        },
        {
          "name": "_extraAmount",
          "type": "uint256"
        },
        {
          "name": "_totalAmount",
          "type": "uint256"
        }
      ],
      "name": "validPurchase",
      "outputs": [
        {
          "name": "",
          "type": "bool"
        }
      ],
      "payable": false,
      "stateMutability": "view",
      "type": "function"
    },
    {
      "constant": true,
      "inputs": [],
      "name": "userRegistry",
      "outputs": [
        {
          "name": "",
          "type": "address"
        }
      ],
      "payable": false,
      "stateMutability": "view",
      "type": "function"
    },
    {
      "constant": true,
      "inputs": [
        {
          "name": "",
          "type": "uint256"
        }
      ],
      "name": "amountSlices",
      "outputs": [
        {
          "name": "",
          "type": "uint256"
        }
      ],
      "payable": false,
      "stateMutability": "view",
      "type": "function"
    },
    {
      "constant": false,
      "inputs": [
        {
          "name": "x",
          "type": "address"
        }
      ],
      "name": "addressToString",
      "outputs": [
        {
          "name": "",
          "type": "string"
        }
      ],
      "payable": false,
      "stateMutability": "nonpayable",
      "type": "function"
    },
    {
      "constant": true,
      "inputs": [],
      "name": "isWhitelisted",
      "outputs": [
        {
          "name": "",
          "type": "bool"
        }
      ],
      "payable": false,
      "stateMutability": "view",
      "type": "function"
    },
    {
      "constant": true,
      "inputs": [],
      "name": "isTokenExchange",
      "outputs": [
        {
          "name": "",
          "type": "bool"
        }
      ],
      "payable": false,
      "stateMutability": "view",
      "type": "function"
    },
    {
      "constant": false,
      "inputs": [
        {
          "name": "b",
          "type": "bytes1"
        }
      ],
      "name": "char",
      "outputs": [
        {
          "name": "c",
          "type": "bytes1"
        }
      ],
      "payable": false,
      "stateMutability": "nonpayable",
      "type": "function"
    },
    {
      "constant": false,
      "inputs": [
        {
          "name": "_owner",
          "type": "address"
        }
      ],
      "name": "grant",
      "outputs": [],
      "payable": false,
      "stateMutability": "nonpayable",
      "type": "function"
    },
    {
      "constant": false,
      "inputs": [
        {
          "name": "_owner",
          "type": "address"
        }
      ],
      "name": "revoke",
      "outputs": [],
      "payable": false,
      "stateMutability": "nonpayable",
      "type": "function"
    },
    {
      "constant": true,
      "inputs": [],
      "name": "timeSlicesCount",
      "outputs": [
        {
          "name": "",
          "type": "uint256"
        }
      ],
      "payable": false,
      "stateMutability": "view",
      "type": "function"
    },
    {
      "constant": false,
      "inputs": [],
      "name": "saneIt",
      "outputs": [],
      "payable": false,
      "stateMutability": "nonpayable",
      "type": "function"
    },
    {
      "constant": true,
      "inputs": [
        {
          "name": "_at",
          "type": "uint256"
        }
      ],
      "name": "calculateTimeBonus",
      "outputs": [
        {
          "name": "",
          "type": "uint256"
        }
      ],
      "payable": false,
      "stateMutability": "view",
      "type": "function"
    },
    {
      "constant": true,
      "inputs": [],
      "name": "startTime",
      "outputs": [
        {
          "name": "",
          "type": "uint256"
        }
      ],
      "payable": false,
      "stateMutability": "view",
      "type": "function"
    },
    {
      "constant": true,
      "inputs": [
        {
          "name": "",
          "type": "address"
        }
      ],
      "name": "personalBonuses",
      "outputs": [
        {
          "name": "",
          "type": "address"
        }
      ],
      "payable": false,
      "stateMutability": "view",
      "type": "function"
    },
    {
      "constant": true,
      "inputs": [
        {
          "name": "",
          "type": "address"
        }
      ],
      "name": "beneficiaryInvest",
      "outputs": [
        {
          "name": "",
          "type": "uint256"
        }
      ],
      "payable": false,
      "stateMutability": "view",
      "type": "function"
    },
    {
      "constant": false,
      "inputs": [
        {
          "name": "_holder",
          "type": "address"
        },
        {
          "name": "_extraPart",
          "type": "uint256"
        }
      ],
      "name": "setExtraDistribution",
      "outputs": [],
      "payable": false,
      "stateMutability": "nonpayable",
      "type": "function"
    },
    {
      "constant": true,
      "inputs": [
        {
          "name": "_changeAmount",
          "type": "uint256"
        }
      ],
      "name": "calculateAmountBonus",
      "outputs": [
        {
          "name": "",
          "type": "uint256"
        }
      ],
      "payable": false,
      "stateMutability": "view",
      "type": "function"
    },
    {
      "constant": true,
      "inputs": [],
      "name": "publisher",
      "outputs": [
        {
          "name": "",
          "type": "address"
        }
      ],
      "payable": false,
      "stateMutability": "view",
      "type": "function"
    },
    {
      "constant": true,
      "inputs": [],
      "name": "isOwner",
      "outputs": [
        {
          "name": "",
          "type": "bool"
        }
      ],
      "payable": false,
      "stateMutability": "view",
      "type": "function"
    },
    {
      "constant": false,
      "inputs": [
        {
          "name": "_from",
          "type": "address"
        },
        {
          "name": "_value",
          "type": "uint256"
        },
        {
          "name": "_token",
          "type": "address"
        },
        {
          "name": "_extraData",
          "type": "bytes"
        }
      ],
      "name": "receiveApproval",
      "outputs": [],
      "payable": false,
      "stateMutability": "nonpayable",
      "type": "function"
    },
    {
      "constant": true,
      "inputs": [],
      "name": "softCap",
      "outputs": [
        {
          "name": "",
          "type": "uint256"
        }
      ],
      "payable": false,
      "stateMutability": "view",
      "type": "function"
    },
    {
      "constant": false,
      "inputs": [
        {
          "name": "_price",
          "type": "uint256"
        }
      ],
      "name": "setPrice",
      "outputs": [],
      "payable": false,
      "stateMutability": "nonpayable",
      "type": "function"
    },
    {
      "constant": true,
      "inputs": [],
      "name": "isAmountBonus",
      "outputs": [
        {
          "name": "",
          "type": "bool"
        }
      ],
      "payable": false,
      "stateMutability": "view",
      "type": "function"
    },
    {
      "constant": true,
      "inputs": [
        {
          "name": "",
          "type": "address"
        }
      ],
      "name": "whitelist",
      "outputs": [
        {
          "name": "",
          "type": "address"
        }
      ],
      "payable": false,
      "stateMutability": "view",
      "type": "function"
    },
    {
      "constant": false,
      "inputs": [
        {
          "name": "_start",
          "type": "uint256"
        },
        {
          "name": "_end",
          "type": "uint256"
        }
      ],
      "name": "setTime",
      "outputs": [],
      "payable": false,
      "stateMutability": "nonpayable",
      "type": "function"
    },
    {
      "constant": true,
      "inputs": [],
      "name": "price",
      "outputs": [
        {
          "name": "",
          "type": "uint256"
        }
      ],
      "payable": false,
      "stateMutability": "view",
      "type": "function"
    },
    {
      "constant": false,
      "inputs": [
        {
          "name": "_registry",
          "type": "address"
        }
      ],
      "name": "setRegistry",
      "outputs": [],
      "payable": false,
      "stateMutability": "nonpayable",
      "type": "function"
    },
    {
      "constant": true,
      "inputs": [],
      "name": "whitelistedCount",
      "outputs": [
        {
          "name": "",
          "type": "uint256"
        }
      ],
      "payable": false,
      "stateMutability": "view",
      "type": "function"
    },
    {
      "constant": false,
      "inputs": [
        {
          "name": "_beneficiary",
          "type": "address"
        },
        {
          "name": "_min",
          "type": "uint256"
        },
        {
          "name": "_max",
          "type": "uint256"
        }
      ],
      "name": "addToWhitelist",
      "outputs": [],
      "payable": false,
      "stateMutability": "nonpayable",
      "type": "function"
    },
    {
      "constant": true,
      "inputs": [],
      "name": "isTransferShipment",
      "outputs": [
        {
          "name": "",
          "type": "bool"
        }
      ],
      "payable": false,
      "stateMutability": "view",
      "type": "function"
    },
    {
      "constant": false,
      "inputs": [
        {
          "name": "_beneficiary",
          "type": "address"
        }
      ],
      "name": "claimRefund",
      "outputs": [
        {
          "name": "",
          "type": "bool"
        }
      ],
      "payable": false,
      "stateMutability": "nonpayable",
      "type": "function"
    },
    {
      "constant": true,
      "inputs": [],
      "name": "state",
      "outputs": [
        {
          "name": "",
          "type": "uint8"
        }
      ],
      "payable": false,
      "stateMutability": "view",
      "type": "function"
    },
    {
      "constant": true,
      "inputs": [],
      "name": "isExtraDistribution",
      "outputs": [
        {
          "name": "",
          "type": "bool"
        }
      ],
      "payable": false,
      "stateMutability": "view",
      "type": "function"
    },
    {
      "constant": false,
      "inputs": [
        {
          "name": "_token",
          "type": "address"
        },
        {
          "name": "_value",
          "type": "uint256"
        }
      ],
      "name": "setTokenExcange",
      "outputs": [],
      "payable": false,
      "stateMutability": "nonpayable",
      "type": "function"
    },
    {
      "constant": true,
      "inputs": [
        {
          "name": "inStr",
          "type": "string"
        },
        {
          "name": "v",
          "type": "uint256"
        }
      ],
      "name": "appendUintToString",
      "outputs": [
        {
          "name": "str",
          "type": "string"
        }
      ],
      "payable": false,
      "stateMutability": "pure",
      "type": "function"
    },
    {
      "constant": false,
      "inputs": [
        {
          "name": "_softCap",
          "type": "uint256"
        },
        {
          "name": "_hardCap",
          "type": "uint256"
        }
      ],
      "name": "setSoftHardCaps",
      "outputs": [],
      "payable": false,
      "stateMutability": "nonpayable",
      "type": "function"
    },
    {
      "constant": true,
      "inputs": [
        {
          "name": "",
          "type": "uint256"
        }
      ],
      "name": "amountBonuses",
      "outputs": [
        {
          "name": "",
          "type": "uint256"
        }
      ],
      "payable": false,
      "stateMutability": "view",
      "type": "function"
    },
    {
      "constant": true,
      "inputs": [
        {
          "name": "",
          "type": "address"
        }
      ],
      "name": "weiDeposit",
      "outputs": [
        {
          "name": "",
          "type": "uint256"
        }
      ],
      "payable": false,
      "stateMutability": "view",
      "type": "function"
    },
    {
      "constant": true,
      "inputs": [],
      "name": "extraDistributionPart",
      "outputs": [
        {
          "name": "",
          "type": "uint256"
        }
      ],
      "payable": false,
      "stateMutability": "view",
      "type": "function"
    },
    {
      "constant": true,
      "inputs": [
        {
          "name": "",
          "type": "uint256"
        }
      ],
      "name": "timeBonuses",
      "outputs": [
        {
          "name": "",
          "type": "uint256"
        }
      ],
      "payable": false,
      "stateMutability": "view",
      "type": "function"
    },
    {
      "constant": false,
      "inputs": [
        {
          "name": "_wallet",
          "type": "address"
        }
      ],
      "name": "setWallet",
      "outputs": [],
      "payable": false,
      "stateMutability": "nonpayable",
      "type": "function"
    },
    {
      "constant": true,
      "inputs": [
        {
          "name": "maybe_owner",
          "type": "address"
        }
      ],
      "name": "checkOwner",
      "outputs": [
        {
          "name": "",
          "type": "bool"
        }
      ],
      "payable": false,
      "stateMutability": "view",
      "type": "function"
    },
    {
      "constant": true,
      "inputs": [],
      "name": "isPullingTokens",
      "outputs": [
        {
          "name": "",
          "type": "bool"
        }
      ],
      "payable": false,
      "stateMutability": "view",
      "type": "function"
    },
    {
      "constant": true,
      "inputs": [],
      "name": "amountSlicesCount",
      "outputs": [
        {
          "name": "",
          "type": "uint256"
        }
      ],
      "payable": false,
      "stateMutability": "view",
      "type": "function"
    },
    {
      "constant": true,
      "inputs": [],
      "name": "isKnownOnly",
      "outputs": [
        {
          "name": "",
          "type": "bool"
        }
      ],
      "payable": false,
      "stateMutability": "view",
      "type": "function"
    },
    {
      "constant": true,
      "inputs": [
        {
          "name": "",
          "type": "address"
        }
      ],
      "name": "allowedTokens",
      "outputs": [
        {
          "name": "",
          "type": "address"
        }
      ],
      "payable": false,
      "stateMutability": "view",
      "type": "function"
    },
    {
      "constant": true,
      "inputs": [],
      "name": "extraTokensHolder",
      "outputs": [
        {
          "name": "",
          "type": "address"
        }
      ],
      "payable": false,
      "stateMutability": "view",
      "type": "function"
    },
    {
      "constant": true,
      "inputs": [
        {
          "name": "v",
          "type": "uint256"
        }
      ],
      "name": "uintToString",
      "outputs": [
        {
          "name": "str",
          "type": "string"
        }
      ],
      "payable": false,
      "stateMutability": "pure",
      "type": "function"
    },
    {
      "constant": false,
      "inputs": [
        {
          "name": "_beneficiary",
          "type": "address"
        }
      ],
      "name": "buyTokens",
      "outputs": [],
      "payable": true,
      "stateMutability": "payable",
      "type": "function"
    },
    {
      "constant": true,
      "inputs": [],
      "name": "isEarlyBonus",
      "outputs": [
        {
          "name": "",
          "type": "bool"
        }
      ],
      "payable": false,
      "stateMutability": "view",
      "type": "function"
    },
    {
      "constant": false,
      "inputs": [
        {
          "name": "_beneficiary",
          "type": "address"
        },
        {
          "name": "_bonus",
          "type": "uint256"
        },
        {
          "name": "_referalAddress",
          "type": "address"
        },
        {
          "name": "_referalBonus",
          "type": "uint256"
        }
      ],
      "name": "setPersonalBonus",
      "outputs": [],
      "payable": false,
      "stateMutability": "nonpayable",
      "type": "function"
    },
    {
      "constant": true,
      "inputs": [
        {
          "name": "",
          "type": "address"
        }
      ],
      "name": "tokensValues",
      "outputs": [
        {
          "name": "",
          "type": "uint256"
        }
      ],
      "payable": false,
      "stateMutability": "view",
      "type": "function"
    },
    {
      "constant": false,
      "inputs": [
        {
          "name": "_beneficiary",
          "type": "address"
        }
      ],
      "name": "refund",
      "outputs": [],
      "payable": false,
      "stateMutability": "nonpayable",
      "type": "function"
    },
    {
      "constant": true,
      "inputs": [],
      "name": "hardCap",
      "outputs": [
        {
          "name": "",
          "type": "uint256"
        }
      ],
      "payable": false,
      "stateMutability": "view",
      "type": "function"
    },
    {
      "constant": true,
      "inputs": [],
      "name": "token",
      "outputs": [
        {
          "name": "",
          "type": "address"
        }
      ],
      "payable": false,
      "stateMutability": "view",
      "type": "function"
    },
    {
      "constant": true,
      "inputs": [],
      "name": "VERSION",
      "outputs": [
        {
          "name": "",
          "type": "uint256"
        }
      ],
      "payable": false,
      "stateMutability": "view",
      "type": "function"
    },
    {
      "payable": true,
      "stateMutability": "payable",
      "type": "fallback"
    },
    {
      "anonymous": false,
      "inputs": [
        {
          "indexed": true,
          "name": "purchaser",
          "type": "address"
        },
        {
          "indexed": true,
          "name": "beneficiary",
          "type": "address"
        },
        {
          "indexed": false,
          "name": "value",
          "type": "uint256"
        },
        {
          "indexed": false,
          "name": "amount",
          "type": "uint256"
        }
      ],
      "name": "TokenPurchase",
      "type": "event"
    },
    {
      "anonymous": false,
      "inputs": [
        {
          "indexed": true,
          "name": "beneficiary",
          "type": "address"
        },
        {
          "indexed": false,
          "name": "value",
          "type": "uint256"
        },
        {
          "indexed": false,
          "name": "amount",
          "type": "uint256"
        },
        {
          "indexed": false,
          "name": "timestamp",
          "type": "uint256"
        },
        {
          "indexed": true,
          "name": "bitcoinHash",
          "type": "bytes32"
        }
      ],
      "name": "HashSale",
      "type": "event"
    },
    {
      "anonymous": false,
      "inputs": [
        {
          "indexed": true,
          "name": "beneficiary",
          "type": "address"
        },
        {
          "indexed": true,
          "name": "allowedToken",
          "type": "address"
        },
        {
          "indexed": false,
          "name": "allowedTokenValue",
          "type": "uint256"
        },
        {
          "indexed": false,
          "name": "ethValue",
          "type": "uint256"
        },
        {
          "indexed": false,
          "name": "shipAmount",
          "type": "uint256"
        }
      ],
      "name": "TokenSell",
      "type": "event"
    },
    {
      "anonymous": false,
      "inputs": [
        {
          "indexed": true,
          "name": "owner",
          "type": "address"
        },
        {
          "indexed": false,
          "name": "amount",
          "type": "uint256"
        }
      ],
      "name": "ShipTokens",
      "type": "event"
    },
    {
      "anonymous": false,
      "inputs": [
        {
          "indexed": true,
          "name": "sender",
          "type": "address"
        },
        {
          "indexed": false,
          "name": "message",
          "type": "string"
        }
      ],
      "name": "Debug",
      "type": "event"
    },
    {
      "anonymous": false,
      "inputs": [
        {
          "indexed": true,
          "name": "owner",
          "type": "address"
        }
      ],
      "name": "AccessGrant",
      "type": "event"
    },
    {
      "anonymous": false,
      "inputs": [
        {
          "indexed": true,
          "name": "owner",
          "type": "address"
        }
      ],
      "name": "AccessRevoke",
      "type": "event"
    }
  ],
  "bytecode": "0x60606040908152600160a060020a0333166000818152602081905291909120805460ff191660019081179091558054600160a060020a031916909117905561428f8061004c6000396000f3006060604052600436106103555763ffffffff60e060020a600035041663144fa6d7811461036057806317d861441461037f578063205513f3146103b257806321309ae3146103da57806327937160146104695780632a37eaea1461047c5780632c1fecfe146104a45780632cdb8eec146104b75780633197cbb6146104d95780633647b084146104ec57806338a1187d1461057b5780633b97e856146105c75780633d4efe09146105da5780634042b66f1461060c57806341593ae91461061f5780634b77156214610644578063521eb273146106915780635551d1b7146106a45780635581800c146106b757806355e22956146106ca5780635c7460d6146106f55780635ce8ec24146107085780635e57966d1461071e578063611b4095146107b4578063641f3b46146107c757806369f9ad2f146107da57806370284d191461084757806374a8f10314610866578063756abb981461088557806375f7e6f0146108985780637862affa146108ab57806378e97925146108c157806380c2cc38146108d457806384b9bc2f146108f3578063852a7d6c146109125780638727b7fc146109345780638c72c54e1461094a5780638f32d59b1461095d5780638f4ffcb114610970578063906a26e0146109dc57806391b7f5ed146109ef57806393545a7914610a055780639b19251a14610a18578063a0355eca14610a37578063a035b1fe14610a50578063a91ee0dc14610a63578063b2a1de2214610a82578063b47be3e414610a95578063bf7f10fe14610aba578063bffa55d514610acd578063c19d93fb14610aec578063c448fa8514610b23578063c6a7d3af14610b36578063c80667e314610b58578063c82829e014610bab578063d036261f14610bc4578063d256630314610bda578063d69c927514610bf9578063de7682a814610c0c578063deaa59df14610c22578063e0e3671c14610c41578063e17c3a0814610c60578063e3b6040e14610c73578063e56f381514610c86578063e744092e14610c99578063e75bf82014610cb8578063e939567914610ccb578063ec8ac4d814610ce1578063ef11e55b14610cf5578063f45b4fba14610d08578063f967c9eb14610d34578063fa89401a14610d53578063fb86a40414610d72578063fc0c546a14610d85578063ffa1ad7414610d98575b61035e33610dab565b005b341561036b57600080fd5b61035e600160a060020a0360043516610e4e565b341561038a57600080fd5b61039e600160a060020a036004351661100a565b604051901515815260200160405180910390f35b34156103bd57600080fd5b6103c860043561101f565b60405190815260200160405180910390f35b34156103e557600080fd5b61035e60046024813581810190830135806020818102016040519081016040528093929190818152602001838360200280828437820191505050505050919080359060200190820180359060200190808060200260200160405190810160405280939291908181526020018383602002808284375094965061103e95505050505050565b341561047457600080fd5b6103c8611318565b341561048757600080fd5b61035e600160a060020a036004351660243560443560643561131e565b34156104af57600080fd5b61039e6113db565b34156104c257600080fd5b61035e600160a060020a03600435166024356113eb565b34156104e457600080fd5b6103c8611431565b34156104f757600080fd5b61035e60046024813581810190830135806020818102016040519081016040528093929190818152602001838360200280828437820191505050505050919080359060200190820180359060200190808060200260200160405190810160405280939291908181526020018383602002808284375094965061143795505050505050565b341561058657600080fd5b6105a3600160a060020a03600435166024356044356064356116f5565b60405180848152602001838152602001828152602001935050505060405180910390f35b34156105d257600080fd5b6103c8611b20565b34156105e557600080fd5b6105f0600435611b26565b604051600160a060020a03909116815260200160405180910390f35b341561061757600080fd5b6103c8611b4e565b341561062a57600080fd5b6103c8600160a060020a0360043581169060243516611b54565b341561064f57600080fd5b61035e6004351515602435151560443515156064351515608435151560a435151560c435151560e4351515610104351515610124351515610144351515611b71565b341561069c57600080fd5b6105f0611d1a565b34156106af57600080fd5b61039e611d29565b34156106c257600080fd5b61039e611d50565b34156106d557600080fd5b61039e600160a060020a0360043516602435604435606435608435611d7a565b341561070057600080fd5b6105f0612053565b341561071357600080fd5b6103c8600435612062565b341561072957600080fd5b61073d600160a060020a0360043516612070565b60405160208082528190810183818151815260200191508051906020019080838360005b83811015610779578082015183820152602001610761565b50505050905090810190601f1680156107a65780820380516001836020036101000a031916815260200191505b509250505060405180910390f35b34156107bf57600080fd5b61039e612194565b34156107d257600080fd5b61039e6121b5565b34156107e557600080fd5b6108127fff00000000000000000000000000000000000000000000000000000000000000600435166121db565b6040517fff00000000000000000000000000000000000000000000000000000000000000909116815260200160405180910390f35b341561085257600080fd5b61035e600160a060020a0360043516612258565b341561087157600080fd5b61035e600160a060020a03600435166122d5565b341561089057600080fd5b6103c861238b565b34156108a357600080fd5b61035e612391565b34156108b657600080fd5b6103c8600435612689565b34156108cc57600080fd5b6103c86126fe565b34156108df57600080fd5b6105f0600160a060020a0360043516612704565b34156108fe57600080fd5b6103c8600160a060020a036004351661271f565b341561091d57600080fd5b61035e600160a060020a0360043516602435612731565b341561093f57600080fd5b6103c8600435612971565b341561095557600080fd5b6105f06129e0565b341561096857600080fd5b61039e6129ef565b341561097b57600080fd5b61035e60048035600160a060020a0390811691602480359260443516919060849060643590810190830135806020601f82018190048102016040519081016040528181529291906020840183838082843750949650612a1f95505050505050565b34156109e757600080fd5b6103c8612b6c565b34156109fa57600080fd5b61035e600435612b72565b3415610a1057600080fd5b61039e612c22565b3415610a2357600080fd5b6105f0600160a060020a0360043516612c45565b3415610a4257600080fd5b61035e600435602435612c60565b3415610a5b57600080fd5b6103c8612dec565b3415610a6e57600080fd5b61035e600160a060020a0360043516612df2565b3415610a8d57600080fd5b6103c8612ee6565b3415610aa057600080fd5b61035e600160a060020a0360043516602435604435612eec565b3415610ac557600080fd5b61039e612ff8565b3415610ad857600080fd5b61039e600160a060020a0360043516613008565b3415610af757600080fd5b610aff6130a5565b60405180826004811115610b0f57fe5b60ff16815260200191505060405180910390f35b3415610b2e57600080fd5b61039e6130ae565b3415610b4157600080fd5b61035e600160a060020a03600435166024356130be565b3415610b6357600080fd5b61073d60046024813581810190830135806020601f82018190048102016040519081016040528181529291906020840183838082843750949650509335935061313992505050565b3415610bb657600080fd5b61035e6004356024356132c7565b3415610bcf57600080fd5b6103c860043561343b565b3415610be557600080fd5b6103c8600160a060020a036004351661344d565b3415610c0457600080fd5b6103c861345f565b3415610c1757600080fd5b6103c8600435613465565b3415610c2d57600080fd5b61035e600160a060020a0360043516613477565b3415610c4c57600080fd5b61039e600160a060020a036004351661356b565b3415610c6b57600080fd5b61039e61359b565b3415610c7e57600080fd5b6103c86135ab565b3415610c9157600080fd5b61039e6135b1565b3415610ca457600080fd5b6105f0600160a060020a03600435166135d3565b3415610cc357600080fd5b6105f06135ee565b3415610cd657600080fd5b61073d6004356135fd565b61035e600160a060020a0360043516610dab565b3415610d0057600080fd5b61039e613721565b3415610d1357600080fd5b61035e600160a060020a036004358116906024359060443516606435613745565b3415610d3f57600080fd5b6103c8600160a060020a03600435166137e2565b3415610d5e57600080fd5b61035e600160a060020a03600435166137f4565b3415610d7d57600080fd5b6103c861385a565b3415610d9057600080fd5b6105f0613860565b3415610da357600080fd5b6103c861386f565b6000600180601a5460ff166004811115610dc157fe5b14610dcb57600080fd5b33600160a060020a031660008051602061424483398151915260405160208082526010908201527f53746172742062757920746f6b656e73000000000000000000000000000000006040808301919091526060909101905180910390a2610e328334613874565b915060008211610e4157600080fd5b610e49613cda565b505050565b600080601a5460ff166004811115610e6257fe5b14610e6c57600080fd5b600160a060020a03331660009081526020819052604090205460ff161515600114610e9657600080fd5b600d8054600160a060020a031916600160a060020a0384811691909117918290551663313ce5676000604051602001526040518163ffffffff1660e060020a028152600401602060405180830381600087803b1515610ef457600080fd5b6102c65a03f11515610f0557600080fd5b5050506040518051600e5550600160a060020a03331660008051602061424483398151915260405160208082526009908201527f4e657720546f6b656e00000000000000000000000000000000000000000000006040808301919091526060909101905180910390a233600160a060020a0316600080516020614244833981519152610f9084612070565b60405160208082528190810183818151815260200191508051906020019080838360005b83811015610fcc578082015183820152602001610fb4565b50505050905090810190601f168015610ff95780820380516001836020036101000a031916815260200191505b509250505060405180910390a25050565b601f6020526000908152604090205460ff1681565b600a80548290811061102d57fe5b600091825260209091200154905081565b6000808080601a5460ff16600481111561105457fe5b1461105e57600080fd5b600160a060020a03331660009081526020819052604090205460ff16151560011461108857600080fd5b600b541561109557600080fd5b60018551116110a357600080fd5b84518451146110b157600080fd5b60009250600091505b845182101561130b57828583815181106110d057fe5b9060200190602002015110156110e557600080fd5b8482815181106110f157fe5b906020019060200201519250600a80548060010182816111119190613f12565b50600091825260209091200183905583828151811061112c57fe5b90602001906020020151600960008581526020019081526020016000208190555033600160a060020a03166000805160206142448339815191526111b860408051908101604052601081527f4164642074696d6520626f6e75733a200000000000000000000000000000000060208201528786815181106111a957fe5b90602001906020020151613139565b60405160208082528190810183818151815260200191508051906020019080838360005b838110156111f45780820151838201526020016111dc565b50505050905090810190601f1680156112215780820380516001836020036101000a031916815260200191505b509250505060405180910390a233600160a060020a031660008051602061424483398151915261128a60408051908101604052600a81527f417420736c6963653a200000000000000000000000000000000000000000000060208201528886815181106111a957fe5b60405160208082528190810183818151815260200191508051906020019080838360005b838110156112c65780820151838201526020016112ae565b50505050905090810190601f1680156112f35780820380516001836020036101000a031916815260200191505b509250505060405180910390a26001909101906110ba565b5050600a54600b55505050565b601c5481565b6000600180601a5460ff16600481111561133457fe5b1461133e57600080fd5b600160a060020a03331660009081526020819052604090205460ff16151560011461136857600080fd5b6113728686613874565b91506000821161138157600080fd5b82600160a060020a0387167f7c8f7476d7c48fb598c2faeaa38296073548801f143f6a518170ba5d957ceb0487858860405180848152602001838152602001828152602001935050505060405180910390a3505050505050565b60015460c060020a900460ff1681565b600160a060020a03331660009081526020819052604090205460ff16151560011461141557600080fd5b600160a060020a03909116600090815260106020526040902055565b60125481565b6000808080601a5460ff16600481111561144d57fe5b1461145757600080fd5b600160a060020a03331660009081526020819052604090205460ff16151560011461148157600080fd5b600185511161148f57600080fd5b845184511461149d57600080fd5b60009250600091505b84518210156116e857828583815181106114bc57fe5b9060200190602002015110156114d157600080fd5b8482815181106114dd57fe5b906020019060200201519250600780548060010182816114fd9190613f12565b50600091825260209091200183905583828151811061151857fe5b90602001906020020151600660008581526020019081526020016000208190555033600160a060020a031660008051602061424483398151915261159560408051908101604052601281527f41646420616d6f756e7420626f6e75733a20000000000000000000000000000060208201528786815181106111a957fe5b60405160208082528190810183818151815260200191508051906020019080838360005b838110156115d15780820151838201526020016115b9565b50505050905090810190601f1680156115fe5780820380516001836020036101000a031916815260200191505b509250505060405180910390a233600160a060020a031660008051602061424483398151915261166760408051908101604052600a81527f417420736c6963653a200000000000000000000000000000000000000000000060208201528886815181106111a957fe5b60405160208082528190810183818151815260200191508051906020019080838360005b838110156116a357808201518382015260200161168b565b50505050905090810190601f1680156116d05780820380516001836020036101000a031916815260200191505b509250505060405180910390a26001909101906114a6565b5050600754600855505050565b6000806000806000806000809150601154891080611714575060125489115b156117285760009650869550859450611b12565b600154760100000000000000000000000000000000000000000000900460ff161561185e576117666117598b612971565b839063ffffffff613d4216565b915033600160a060020a03166000805160206142448339815191526117e7606060405190810160405280602381526020017f43616c63756c6174656420616d6f756e7420646570656e64656e7420626f6e7581526020017f733a20000000000000000000000000000000000000000000000000000000000081525085613139565b60405160208082528190810183818151815260200191508051906020019080838360005b8381101561182357808201518382015260200161180b565b50505050905090810190601f1680156118505780820380516001836020036101000a031916815260200191505b509250505060405180910390a25b60015477010000000000000000000000000000000000000000000000900460ff1615611a6b5733600160a060020a03166000805160206142448339815191526118ed60408051908101604052601981527f43616c63756c6174652074696d6520626f6e75732061743a200000000000000060208201526011546118e8908e9063ffffffff613d5816565b613139565b60405160208082528190810183818151815260200191508051906020019080838360005b83811015611929578082015183820152602001611911565b50505050905090810190601f1680156119565780820380516001836020036101000a031916815260200191505b509250505060405180910390a26119736117596011548b03612689565b915033600160a060020a03166000805160206142448339815191526119f4606060405190810160405280602181526020017f43616c63756c617465642074696d6520646570656e64656e7420626f6e75733a81526020017f200000000000000000000000000000000000000000000000000000000000000081525085613139565b60405160208082528190810183818151815260200191508051906020019080838360005b83811015611a30578082015183820152602001611a18565b50505050905090810190601f168015611a5d5780820380516001836020036101000a031916815260200191505b509250505060405180910390a25b611a95601454611a89600e54600a0a8d613d6a90919063ffffffff16565b9063ffffffff613d9516565b93506000821115611ac957611ac6611ab9612710611a89878663ffffffff613d6a16565b859063ffffffff613d4216565b93505b60015460d860020a900460ff1615611af957611af6612710611a8960185487613d6a90919063ffffffff16565b90505b611b09848263ffffffff613d4216565b84829650965096505b505050509450945094915050565b600e5481565b6003805482908110611b3457fe5b600091825260209091200154600160a060020a0316905081565b60195481565b601e60209081526000928352604080842090915290825290205481565b600080601a5460ff166004811115611b8557fe5b14611b8f57600080fd5b600160a060020a03331660009081526020819052604090205460ff161515600114611bb957600080fd5b8b600160146101000a81548160ff0219169083151502179055508a600160156101000a81548160ff02191690831515021790555089600160166101000a81548160ff02191690831515021790555088600160176101000a81548160ff02191690831515021790555087600160186101000a81548160ff02191690831515021790555086600160196101000a81548160ff021916908315150217905550856001601a6101000a81548160ff021916908315150217905550846001601b6101000a81548160ff021916908315150217905550836001601c6101000a81548160ff021916908315150217905550826001601d6101000a81548160ff021916908315150217905550600160189054906101000a900460ff1680611cd55750815b6001805491151560f060020a027fff00ffffffffffffffffffffffffffffffffffffffffffffffffffffffffffff909216919091179055505050505050505050505050565b601354600160a060020a031681565b6001547a010000000000000000000000000000000000000000000000000000900460ff1681565b6001547d010000000000000000000000000000000000000000000000000000000000900460ff1681565b600080600080600160159054906101000a900460ff168015611e0d5750600554600160a060020a031663a75df8148a60006040516020015260405160e060020a63ffffffff8416028152600160a060020a039091166004820152602401602060405180830381600087803b1515611df057600080fd5b6102c65a03f11515611e0157600080fd5b50505060405180519050155b15611e1b5760009350612047565b600160a060020a0389166000908152601b6020526040902054611e44908963ffffffff613d4216565b601c54909350611e5a908663ffffffff613d4216565b60015490925074010000000000000000000000000000000000000000900460ff1615611fd95750600160a060020a038089166000908152600260205260408082205490921691829163b1b3d3f69151602001526040518163ffffffff1660e060020a028152600401602060405180830381600087803b1515611edb57600080fd5b6102c65a03f11515611eec57600080fd5b505050604051805190501580611f6157508281600160a060020a031663f88979456000604051602001526040518163ffffffff1660e060020a028152600401602060405180830381600087803b1515611f4457600080fd5b6102c65a03f11515611f5557600080fd5b50505060405180519050115b80611fcb57508281600160a060020a0316636ac5db196000604051602001526040518163ffffffff1660e060020a028152600401602060405180830381600087803b1515611fae57600080fd5b6102c65a03f11515611fbf57600080fd5b50505060405180519050105b15611fd95760009350612047565b6001547d010000000000000000000000000000000000000000000000000000000000900460ff161561202f5760155460195461201b908a63ffffffff613d4216565b111561202a5760009350612047565b612042565b6015548211156120425760009350612047565b600193505b50505095945050505050565b600554600160a060020a031681565b600780548290811061102d57fe5b612078613f36565b612080613f36565b60008060008060286040518059106120955750595b818152601f19601f830116810160200160405290509450600093505b6014841015612189578360130360080260020a87600160a060020a03168115156120d757fe5b0460f860020a02925060108360f860020a900460ff168115156120f657fe5b0460f860020a0291508160f860020a90046010028360f860020a90040360f860020a029050612124826121db565b85856002028151811061213357fe5b906020010190600160f860020a031916908160001a905350612154816121db565b85856002026001018151811061216657fe5b906020010190600160f860020a031916908160001a9053506001909301926120b1565b509295945050505050565b60015474010000000000000000000000000000000000000000900460ff1681565b600154790100000000000000000000000000000000000000000000000000900460ff1681565b60007f0a000000000000000000000000000000000000000000000000000000000000007fff000000000000000000000000000000000000000000000000000000000000008316101561223f578160f860020a900460300160f860020a029050612253565b8160f860020a900460570160f860020a0290505b919050565b600160a060020a03331660009081526020819052604090205460ff16151560011461228257600080fd5b600160a060020a03811660008181526020819052604090819020805460ff191660011790557f1350a997c6c86bcc51dd7e51f7ef618d620e6a85d8fdabb82a980c149ad88d47905160405180910390a250565b600160a060020a03331660009081526020819052604090205460ff1615156001146122ff57600080fd5b600154600160a060020a038281169116141561231a57600080fd5b80600160a060020a031633600160a060020a03161415151561233b57600080fd5b600160a060020a03811660008181526020819052604090819020805460ff191690557f1d1eff42eefbeecfca7e39f8adb5d7f19a7ebbb4c3e82c51f2500d7d76ab2468905160405180910390a250565b600b5481565b600080601a5460ff1660048111156123a557fe5b146123af57600080fd5b600160a060020a03331660009081526020819052604090205460ff1615156001146123d957600080fd5b601254601154106123e957600080fd5b6012544290116123f857600080fd5b6014546000901161240857600080fd5b601354600160a060020a0316151561241f57600080fd5b600d54600160a060020a0316151561243657600080fd5b6001547501000000000000000000000000000000000000000000900460ff161561247157600554600160a060020a0316151561247157600080fd5b600154760100000000000000000000000000000000000000000000900460ff16156124a657600854600090116124a657600080fd5b60015477010000000000000000000000000000000000000000000000900460ff16156124dc57600b54600090116124dc57600080fd5b60015460d860020a900460ff161561250557601754600160a060020a0316151561250557600080fd5b60015460e060020a900460ff16156125a057601554600d54600160a060020a03166370a082313060006040516020015260405160e060020a63ffffffff8416028152600160a060020a039091166004820152602401602060405180830381600087803b151561257357600080fd5b6102c65a03f1151561258457600080fd5b505050604051805190501015151561259b57600080fd5b61261c565b600d54600160a060020a033081169116638da5cb5b6000604051602001526040518163ffffffff1660e060020a028152600401602060405180830381600087803b15156125ec57600080fd5b6102c65a03f115156125fd57600080fd5b50505060405180519050600160a060020a031614151561261c57600080fd5b601a805460ff19166001179055600160a060020a03331660008051602061424483398151915260405160208082526007908201527f53616e65206974000000000000000000000000000000000000000000000000006040808301919091526060909101905180910390a250565b600080805b600a548110156126f75760096000600a838154811015156126ab57fe5b906000526020600020900154815260200190815260200160002054915083600a828154811015156126d857fe5b90600052602060002090015411156126ef576126f7565b60010161268e565b5092915050565b60115481565b600c60205260009081526040902054600160a060020a031681565b601b6020526000908152604090205481565b600080601a5460ff16600481111561274557fe5b1461274f57600080fd5b600160a060020a03331660009081526020819052604090205460ff16151560011461277957600080fd5b600160a060020a038316151561278e57600080fd5b60178054600160a060020a031916600160a060020a03858116919091179091556018839055331660008051602061424483398151915260405160208082526017908201527f4e657720457874726120546f6b656e7320486f6c6465720000000000000000006040808301919091526060909101905180910390a233600160a060020a031660008051602061424483398151915261282a85612070565b60405160208082528190810183818151815260200191508051906020019080838360005b8381101561286657808201518382015260200161284e565b50505050905090810190601f1680156128935780820380516001836020036101000a031916815260200191505b509250505060405180910390a233600160a060020a03166000805160206142448339815191526128f660408051908101604052601781527f4e657720457874726120546f6b656e7320506172743a20000000000000000000602082015285613139565b60405160208082528190810183818151815260200191508051906020019080838360005b8381101561293257808201518382015260200161291a565b50505050905090810190601f16801561295f5780820380516001836020036101000a031916815260200191505b509250505060405180910390a2505050565b600080805b6007548110156126f7578360078281548110151561299057fe5b90600052602060002090015411156129a7576126f7565b600660006007838154811015156129ba57fe5b600091825260208083209091015483528201929092526040019020549150600101612976565b600154600160a060020a031681565b600160a060020a03331660009081526020819052604081205460ff16612a16576000612a19565b60015b90505b90565b600160a060020a038281166000908152600f602052604081205490918291161515612a4957600080fd5b600160a060020a038085166000908152600f602052604080822054612aee93169163313ce5679151602001526040518163ffffffff1660e060020a028152600401602060405180830381600087803b1515612aa357600080fd5b6102c65a03f11515612ab457600080fd5b5050506040518051600160a060020a038716600090815260106020526040902054600a9190910a9150611a8990889063ffffffff613d6a16565b9150612afa8683613874565b905060008111612b0957600080fd5b83600160a060020a031686600160a060020a03167f8f9e1c6f80a0fd25dc246f3b0a51422fce2a5f211d4f9877c7ec20b6499c939f87858560405180848152602001838152602001828152602001935050505060405180910390a3505050505050565b60165481565b600080601a5460ff166004811115612b8657fe5b14612b9057600080fd5b600160a060020a03331660009081526020819052604090205460ff161515600114612bba57600080fd5b60008211612bc757600080fd5b6014829055600160a060020a033316600080516020614244833981519152610f9060408051908101604052600b81527f4e65772050726963653a20000000000000000000000000000000000000000000602082015285613139565b600154760100000000000000000000000000000000000000000000900460ff1681565b600260205260009081526040902054600160a060020a031681565b600080601a5460ff166004811115612c7457fe5b14612c7e57600080fd5b600160a060020a03331660009081526020819052604090205460ff161515600114612ca857600080fd5b818310612cb457600080fd5b428211612cc057600080fd5b60118390556012829055600160a060020a033316600080516020614244833981519152612d2060408051908101604052600c81527f53746172742054696d653a200000000000000000000000000000000000000000602082015286613139565b60405160208082528190810183818151815260200191508051906020019080838360005b83811015612d5c578082015183820152602001612d44565b50505050905090810190601f168015612d895780820380516001836020036101000a031916815260200191505b509250505060405180910390a233600160a060020a03166000805160206142448339815191526128f660408051908101604052600a81527f456e642054696d653a2000000000000000000000000000000000000000000000602082015285613139565b60145481565b600080601a5460ff166004811115612e0657fe5b14612e1057600080fd5b600160a060020a03331660009081526020819052604090205460ff161515600114612e3a57600080fd5b600160a060020a0382161515612e4f57600080fd5b60058054600160a060020a031916600160a060020a038481169190911790915533166000805160206142448339815191526040516020808252600c908201527f4e657720526567697374727900000000000000000000000000000000000000006040808301919091526060909101905180910390a233600160a060020a0316600080516020614244833981519152610f9084612070565b60045481565b600160a060020a03331660009081526020819052604090205460ff161515600114612f1657600080fd5b600160a060020a0383161515612f2b57600080fd5b80821115612f3857600080fd5b801515612f535750701d6329f1c35ca4bfabb9f56100000000005b8181612f5d613f48565b918252602082015260409081019051809103906000f0801515612f7f57600080fd5b600160a060020a0384811660009081526002602052604090208054600160a060020a031916929091169190911790556003805460018101612fc08382613f12565b5060009182526020909120018054600160a060020a031916600160a060020a0394909416939093179092555050600480546001019055565b60015460e060020a900460ff1681565b60015460009060c060020a900460ff16151561302357600080fd5b600160a060020a0382166000908152601f602052604090205460ff168061305a57506003601a5460ff16600481111561305857fe5b145b151561306557600080fd5b600160a060020a0382166000818152601d6020526040908190205480156108fc029151600060405180830381858888f19350505050151561225357600080fd5b601a5460ff1681565b60015460d860020a900460ff1681565b600080601a5460ff1660048111156130d257fe5b146130dc57600080fd5b600160a060020a03331660009081526020819052604090205460ff16151560011461310657600080fd5b600160a060020a0383166000818152600f602052604090208054600160a060020a0319169091179055610e4983836113eb565b613141613f36565b600061314b613f36565b600080613156613f36565b61315e613f36565b600060649650866040518059106131725750595b818152601f19601f830116810160200160405290509550600094505b88156131d957600a89069350600a890498508360300160f860020a028686806001019750815181106131bc57fe5b906020010190600160f860020a031916908160001a90535061318e565b899250848351016040518059106131ed5750595b818152601f19601f830116810160200160405290509150600090505b825181101561325c5782818151811061321e57fe5b016020015160f860020a900460f860020a0282828151811061323c57fe5b906020010190600160f860020a031916908160001a905350600101613209565b5060005b848110156132ba57858160018703038151811061327957fe5b016020015160f860020a900460f860020a0282845183018151811061329a57fe5b906020010190600160f860020a031916908160001a905350600101613260565b5098975050505050505050565b600080601a5460ff1660048111156132db57fe5b146132e557600080fd5b600160a060020a03331660009081526020819052604090205460ff16151560011461330f57600080fd5b60158290556016839055600160a060020a03331660008051602061424483398151915261336f60408051908101604052600a81527f536f6674204361703a2000000000000000000000000000000000000000000000602082015286613139565b60405160208082528190810183818151815260200191508051906020019080838360005b838110156133ab578082015183820152602001613393565b50505050905090810190601f1680156133d85780820380516001836020036101000a031916815260200191505b509250505060405180910390a233600160a060020a03166000805160206142448339815191526128f660408051908101604052600a81527f48617264204361703a2000000000000000000000000000000000000000000000602082015285613139565b60066020526000908152604090205481565b601d6020526000908152604090205481565b60185481565b60096020526000908152604090205481565b600080601a5460ff16600481111561348b57fe5b1461349557600080fd5b600160a060020a03331660009081526020819052604090205460ff1615156001146134bf57600080fd5b600160a060020a03821615156134d457600080fd5b60138054600160a060020a031916600160a060020a038481169190911790915533166000805160206142448339815191526040516020808252600a908201527f4e65772057616c6c6574000000000000000000000000000000000000000000006040808301919091526060909101905180910390a233600160a060020a0316600080516020614244833981519152610f9084612070565b600160a060020a03811660009081526020819052604081205460ff16613592576000613595565b60015b92915050565b60015460f060020a900460ff1681565b60085481565b6001547501000000000000000000000000000000000000000000900460ff1681565b600f60205260009081526040902054600160a060020a031681565b601754600160a060020a031681565b613605613f36565b600061360f613f36565b60008061361a613f36565b6000606495508560405180591061362e5750595b818152601f19601f830116810160200160405290509450600093505b871561369557600a88069250600a880497508260300160f860020a0285858060010196508151811061367857fe5b906020010190600160f860020a031916908160001a90535061364a565b836040518059106136a35750595b818152601f19601f830116810160200160405290509150600090505b838110156137165784816001860303815181106136d857fe5b016020015160f860020a900460f860020a028282815181106136f657fe5b906020010190600160f860020a031916908160001a9053506001016136bf565b509695505050505050565b60015477010000000000000000000000000000000000000000000000900460ff1681565b600160a060020a03331660009081526020819052604090205460ff16151560011461376f57600080fd5b82828261377a613f58565b928352600160a060020a03909116602083015260408083019190915260609091019051809103906000f08015156137b057600080fd5b600160a060020a039485166000908152600c602052604090208054600160a060020a0319169190951617909355505050565b60106020526000908152604090205481565b600160a060020a03331660009081526020819052604090205460ff16151560011461381e57600080fd5b60015460c060020a900460ff16151561383657600080fd5b600160a060020a03166000908152601f60205260409020805460ff19166001179055565b60155481565b600d54600160a060020a031681565b600181565b6000808080600180601a5460ff16600481111561388d57fe5b1461389757600080fd5b33600160a060020a031660008051602061424483398151915260405160208082526011908201527f53746172742073656c6c20746f6b656e730000000000000000000000000000006040808301919091526060909101905180910390a2600d5461396690889088904290600160a060020a03166318160ddd6000604051602001526040518163ffffffff1660e060020a028152600401602060405180830381600087803b151561394657600080fd5b6102c65a03f1151561395757600080fd5b505050604051805190506116f5565b90955093509150600160a060020a03331660008051602061424483398151915260405160208082526010908201527f43616c63756c61746520616d6f756e74000000000000000000000000000000006040808301919091526060909101905180910390a233600160a060020a0316600080516020614244833981519152613a2060408051908101604052600781527f546f74616c3a2000000000000000000000000000000000000000000000000000602082015285613139565b60405160208082528190810183818151815260200191508051906020019080838360005b83811015613a5c578082015183820152602001613a44565b50505050905090810190601f168015613a895780820380516001836020036101000a031916815260200191505b509250505060405180910390a233600160a060020a0316600080516020614244833981519152613aec60408051908101604052600d81527f42656e65666963696172793a2000000000000000000000000000000000000000602082015287613139565b60405160208082528190810183818151815260200191508051906020019080838360005b83811015613b28578082015183820152602001613b10565b50505050905090810190601f168015613b555780820380516001836020036101000a031916815260200191505b509250505060405180910390a2613b6f8787868686611d7a565b1515613b7a57600080fd5b601954613b8d908763ffffffff613d4216565b601955600160a060020a0387166000908152601b6020526040902054613bb9908763ffffffff613d4216565b600160a060020a0388166000908152601b6020526040902055613bdc8785613dac565b86600160a060020a031633600160a060020a03167f623b3804fa71d67900d064613da8f94b9617215ee90799290593e1745087ad18888760405191825260208201526040908101905180910390a386600160a060020a03167f67066453570687eaa7bbfb5d6a5a6d901a7473f72563021e81204001241e7af78560405190815260200160405180910390a260015460d860020a900460ff1615613ccf57601754613c8f90600160a060020a031684613dac565b601754600160a060020a03167f67066453570687eaa7bbfb5d6a5a6d901a7473f72563021e81204001241e7af78460405190815260200160405180910390a25b509195945050505050565b60015460c060020a900460ff1615613d0c57600160a060020a0333166000908152601d60205260409020349055613d40565b601354600160a060020a03163480156108fc0290604051600060405180830381858888f193505050501515613d4057600080fd5b565b600082820183811015613d5157fe5b9392505050565b600082821115613d6457fe5b50900390565b600080831515613d7d57600091506126f7565b50828202828482811515613d8d57fe5b0414613d5157fe5b6000808284811515613da357fe5b04949350505050565b600180601a5460ff166004811115613dc057fe5b14613dca57600080fd5b60015460f060020a900460ff161515613ef75760015460e060020a900460ff1615613e7c57600d54600160a060020a03166323b872dd30858560006040516020015260405160e060020a63ffffffff8616028152600160a060020a0393841660048201529190921660248201526044810191909152606401602060405180830381600087803b1515613e5b57600080fd5b6102c65a03f11515613e6c57600080fd5b5050506040518051905050613ef7565b600d54600160a060020a03166340c10f19848460006040516020015260405160e060020a63ffffffff8516028152600160a060020a0390921660048301526024820152604401602060405180830381600087803b1515613edb57600080fd5b6102c65a03f11515613eec57600080fd5b505050604051805150505b601c54613f0a908363ffffffff613d4216565b601c55505050565b815481835581811511610e4957600083815260209020610e49918101908301613f68565b60206040519081016040526000815290565b60405161013e80613f8783390190565b60405161017f806140c583390190565b612a1c91905b80821115613f825760008155600101613f6e565b509056006060604052341561000f57600080fd5b60405160408061013e83398101604052808051919060200180516000805460ff1916600190811790915593909355505060025560ee806100506000396000f30060606040526004361060525763ffffffff7c01000000000000000000000000000000000000000000000000000000006000350416636ac5db1981146057578063b1b3d3f6146079578063f889794514609d575b600080fd5b3415606157600080fd5b606760ad565b60405190815260200160405180910390f35b3415608357600080fd5b608960b3565b604051901515815260200160405180910390f35b341560a757600080fd5b606760bc565b60025481565b60005460ff1681565b600154815600a165627a7a72305820f2d20058e8095158b400c49637337141d88136d39f9e839837bfd66f965e957300296060604052341561000f57600080fd5b60405160608061017f83398101604052808051919060200180519190602001805160008054600160a060020a03909516600160a060020a0319909516949094179093555050600255600155610116806100696000396000f30060606040526004361060525763ffffffff7c010000000000000000000000000000000000000000000000000000000060003504166329176e638114605757806363e0f8c714609057806375b4d78c1460b2575b600080fd5b3415606157600080fd5b606760c2565b60405173ffffffffffffffffffffffffffffffffffffffff909116815260200160405180910390f35b3415609a57600080fd5b60a060de565b60405190815260200160405180910390f35b341560bc57600080fd5b60a060e4565b60005473ffffffffffffffffffffffffffffffffffffffff1681565b60025481565b600154815600a165627a7a7230582052d1c707e6209f32b1dcf5c9c752e820ab3f60403b0debd3703decd4d87339790029043dde8a406bae2ac5a8f7a1abfb5836a348f2563d30428c735f5c2cc64ee7d6a165627a7a72305820694873fe057b463844e746d296dd8aaae89a66a7a947405af72c89a3082da7c70029",
  "source": "pragma solidity ^0.4.15;\n\nimport 'zeppelin-solidity/contracts/math/SafeMath.sol';\nimport 'zeppelin-solidity/contracts/token/ERC20.sol';\nimport './UserRegistryInterface.sol';\nimport './MultiOwners.sol';\nimport './TokenRecipient.sol';\n\ncontract TokenInterface is ERC20 {\n  string public name;\n  string public symbol;\n  uint public decimals;\n}\n\ncontract MintableTokenInterface is TokenInterface {\n  address public owner;\n  function mint(address beneficiary, uint amount) public returns(bool);\n}\n\ncontract PersonalBonusRecord {\n  address public referalAddress;\n  uint public bonus;\n  uint public referalBonus;\n\n  function PersonalBonusRecord(uint _bonus, address _referal, uint _referalBonus) public {\n    referalAddress = _referal;\n    referalBonus = _referalBonus;\n    bonus = _bonus;\n  }\n}\n\ncontract WhitelistRecord {\n  bool public allow;\n  uint public min;\n  uint public max;\n\n  function WhitelistRecord(uint _minAmount, uint _maxAmount) public {\n    allow = true;\n    min = _minAmount;\n    max = _maxAmount;\n  }\n}\n\n/**\n * Complex crowdsale with huge posibilities\n * Core features:\n * - Whitelisting\n *  - Min\\max invest amounts\n * - Only known users\n * - Buy with allowed tokens\n *  - Oraclize based pairs (ETH to TOKEN)\n * - Pulling tokens (temporal balance inside sale)\n * - Revert\\refund\n * - Personal bonuses\n * - Amount bonuses\n * - Total supply bonuses\n * - Early birds bonuses\n * - Extra distribution (team, foundation and also)\n * - Soft and hard caps\n * - Finalization logics\n**/\ncontract Crowdsale is MultiOwners, TokenRecipient {\n  using SafeMath for uint;\n\n  //       \n  //   \n  //                \n  //               \n  //        \n  //            \n  uint public constant VERSION = 0x1;\n  enum State {\n    Setup,          // Non active yet (require to be setuped)\n    Active,         // Crowdsale in a live\n    Success,        // Finalization state (forward funds, transfer tokens (if not yet), refunding via owner if it requires (KYC))\n    Refund,         // Unsucceseful crowdsale (refund ether)\n    History         // Close and store only historical fact of existence\n  }\n\n\n  //            \n  //      \n  //               \n  //              \n  //        \n  //               \n                                                           \n  bool public isWhitelisted;            // Should be whitelisted to buy tokens\n  bool public isKnownOnly;              // Should be known user to buy tokens\n  bool public isAmountBonus;            // Enable amount bonuses in crowdsale?\n  bool public isEarlyBonus;             // Enable early bird bonus in crowdsale?\n  bool public isRefundable;             // Allow to refund money?\n  bool public isTokenExchange;           // Allow to buy tokens for another tokens?\n  bool public isAllowToIssue;           // Allow to issue tokens with tx hash (ex bitcoin)\n  bool public isExtraDistribution;      // Should distribute extra tokens to special contract?\n  bool public isTransferShipment;        // Will ship token via minting?\n  bool public isCappedInEther;          // Should be capped in Ether \n  bool public isPullingTokens;          // Should beneficiaries pull their tokens?\n\n  // List of allowed beneficiaries\n  mapping (address => WhitelistRecord) public whitelist;\n  address[] public whitelisted;\n  uint public whitelistedCount;\n\n  // Known users registry (required to known rules)\n  UserRegistryInterface public userRegistry;\n\n  mapping (uint => uint) public amountBonuses; // Amount bonuses\n  uint[] public amountSlices;           // Key is min amount of buy\n  uint public amountSlicesCount;        // 10000 - totaly free\n                                        //  5000 - 50% sale\n                                        //     0 - 100% (no bonus)\n  mapping (uint => uint) public timeBonuses; // Time bonuses\n  uint[] public timeSlices;             // Same as amount but key is seconds after start\n  uint public timeSlicesCount;\n\n  mapping (address => PersonalBonusRecord) public personalBonuses; \n                                        // personal bonuses\n  MintableTokenInterface public token;  // The token being sold\n  uint public tokenDecimals;            // Token decimals\n\n  mapping (address => TokenInterface) public allowedTokens;\n                                        // allowed tokens list\n  mapping (address => uint) public tokensValues;\n                                        // TOKEN to ETH conversion rate (oraclized)\n  uint public startTime;                // start and end timestamps where \n  uint public endTime;                  // investments are allowed (both inclusive)\n  address public wallet;                // address where funds are collected\n  uint public price;                    // how many token (1 * 10 ** decimals) a buyer gets per wei\n  uint public hardCap;\n  uint public softCap;\n\n  address public extraTokensHolder;     // address to mint/transfer extra tokens (0  0%, 1000 - 100.0%)\n  uint public extraDistributionPart;    // % of extra distribution\n\n  //   \n  // \n  //               \n  //               \n  //               \n  //               \n  // amount of raised money in wei\n  uint public weiRaised;\n  // Current crowdsale state\n  State public state;\n  // Temporal balances to pull tokens after token sale\n  // requires to ship required balance to smart contract\n  mapping (address => uint) public beneficiaryInvest;\n  uint public temporalTotalSupply;\n\n  mapping (address => uint) public weiDeposit;\n  mapping (address => mapping(address => uint)) public altDeposit;\n\n  mapping (address => bool) public claimRefundAllowance;\n\n  modifier inState(State _target) {\n    require(state == _target);\n    _;\n  }\n\n  //       \n  //      \n  //               \n  //            \n  //          \n  //             \n  \n  event TokenPurchase(address indexed purchaser, address indexed beneficiary, uint value, uint amount);\n  event HashSale(address indexed beneficiary, uint value, uint amount, uint timestamp, bytes32 indexed bitcoinHash);\n  event TokenSell(address indexed beneficiary, address indexed allowedToken, uint allowedTokenValue, uint ethValue, uint shipAmount);\n  event ShipTokens(address indexed owner, uint amount);\n\n  // event SetToken(address indexed owner, address previousToken, address indexed nextToken);\n  // event SetStartTime(address indexed owner, uint previousStartTime, uint nextStartTime);\n  // event SetEndTime(address indexed owner, uint previousEndTime, uint nextEndTime);\n  // event SetExtraTokensHolder(address indexed owner, address previousExtraTokensHolder, address nextExtraTokensHolder);\n  // event SetExtraTokensPart(address indexed owner, uint previousExtraTokensPart, uint nextExtraTokensPart);\n  // event SetHardCap(address indexed owner, uint previousHardCap, uint nextHardCap);\n  // event SetSoftCap(address indexed owner, uint previousSoftCap, uint nextSoftCap);\n  // event SetPrice(address indexed owner, uint previousPrice, uint nextPrice);\n  // event SetWallet(address indexed owner, address previousWallet, address nextWallet);\n  // event SetRegistry(address indexed owner, address previousRegistry, address nextRegistry);\n  // event AddAmountSlice(address indexed owner, uint slice, uint bonus);\n  // event AddTimeSlice(address indexed owner, uint slice, uint bonus);\n\n\n  //                 \n  //           \n  //                             \n  //                              \n  //                          \n  //                                  \n\n  function setFlags(\n    // Should be whitelisted to buy tokens\n    bool _isWhitelisted,\n    // Should be known user to buy tokens\n    bool _isKnownOnly,\n    // Enable amount bonuses in crowdsale?\n    bool _isAmountBonus,\n    // Enable early bird bonus in crowdsale?\n    bool _isEarlyBonus,\n    // Allow to refund money?\n    bool _isRefundable,\n    // Allow to buy tokens for another tokens?\n    bool _isTokenExchange,\n    // Allow to issue tokens with tx hash (ex bitcoin)\n    bool _isAllowToIssue,\n    // Should mint extra tokens for future distribution?\n    bool _isExtraDistribution,\n    // Will ship token via minting? \n    bool _isMintingShipment,\n    // Should be capped in ether\n    bool _isCappedInEther,\n    // Should beneficiaries pull their tokens? \n    bool _isPullingTokens)\n    inState(State.Setup) onlyOwner public \n  {\n    isWhitelisted = _isWhitelisted;\n    isKnownOnly = _isKnownOnly;\n    isAmountBonus = _isAmountBonus;\n    isEarlyBonus = _isEarlyBonus;\n    isRefundable = _isRefundable;\n    isTokenExchange = _isTokenExchange;\n    isAllowToIssue = _isAllowToIssue;\n    isExtraDistribution = _isExtraDistribution;\n    isTransferShipment = _isMintingShipment;\n    isCappedInEther = _isCappedInEther;\n    isPullingTokens = isRefundable || _isPullingTokens;\n  }\n\n  function setPrice(uint _price)\n    inState(State.Setup) onlyOwner public\n  {\n    require(_price > 0);\n    // SetPrice(msg.sender, price, _price);\n    price = _price;\n    Debug(msg.sender, appendUintToString(\"New Price: \", _price));\n  }\n\n  function setSoftHardCaps(uint _softCap, uint _hardCap)\n    inState(State.Setup) onlyOwner public\n  {\n    // SetSoftCap(msg.sender, softCap, _softCap);\n    // SetHardCap(msg.sender, hardCap, _hardCap);\n    hardCap = _hardCap;\n    softCap = _softCap;\n    Debug(msg.sender, appendUintToString(\"Soft Cap: \", _softCap));\n    Debug(msg.sender, appendUintToString(\"Hard Cap: \", _hardCap));\n  }\n\n  function setTime(uint _start, uint _end)\n    inState(State.Setup) onlyOwner public \n  {\n    require(_start < _end);\n    require(_end > block.timestamp);\n\n    // SetStartTime(msg.sender, startTime, _start);\n    // SetEndTime(msg.sender, endTime, _end);\n    startTime = _start;\n    endTime = _end;\n    Debug(msg.sender, appendUintToString(\"Start Time: \", _start));\n    Debug(msg.sender, appendUintToString(\"End Time: \", _end));\n  }\n\n  function setToken(address _tokenAddress) \n    inState(State.Setup) onlyOwner public\n  {\n    // SetToken(msg.sender, token, _tokenAddress);\n    token = MintableTokenInterface(_tokenAddress);\n    tokenDecimals = token.decimals();\n    Debug(msg.sender, \"New Token\");\n    Debug(msg.sender, addressToString(_tokenAddress));\n  }\n\n  function setWallet(address _wallet) \n    inState(State.Setup) onlyOwner public \n  {\n    require(_wallet != address(0));\n    // SetWallet(msg.sender, wallet, _wallet);\n    wallet = _wallet;\n    Debug(msg.sender, \"New Wallet\");\n    Debug(msg.sender, addressToString(_wallet));\n  }\n  \n  function setRegistry(address _registry) \n    inState(State.Setup) onlyOwner public \n  {\n    require(_registry != address(0));\n    // SetRegistry(msg.sender, userRegistry, _registry);\n    userRegistry = UserRegistryInterface(_registry);\n    Debug(msg.sender, \"New Registry\");\n    Debug(msg.sender, addressToString(_registry));\n  }\n\n  function setExtraDistribution(address _holder, uint _extraPart) \n    inState(State.Setup) onlyOwner public\n  {\n    require(_holder != address(0));\n    // SetExtraTokensHolder(msg.sender, extraTokensHolder, _holder);\n    // SetExtraTokensPart(msg.sender, extraDistributionPart, _extraPart);\n    extraTokensHolder = _holder;\n    extraDistributionPart = _extraPart;\n    Debug(msg.sender, \"New Extra Tokens Holder\");\n    Debug(msg.sender, addressToString(_holder));\n    Debug(msg.sender, appendUintToString(\"New Extra Tokens Part: \", _extraPart));\n  }\n\n  function setAmountBonuses(uint[] _amountSlices, uint[] _prices) \n    inState(State.Setup) onlyOwner public \n  {\n    require(_amountSlices.length > 1);\n    require(_prices.length == _amountSlices.length);\n    uint lastSlice = 0;\n    for (uint index = 0; index < _amountSlices.length; index++) {\n      require(_amountSlices[index] >= lastSlice);\n      lastSlice = _amountSlices[index];\n      amountSlices.push(lastSlice);\n      amountBonuses[lastSlice] = _prices[index];\n\n      // AddAmountSlice(msg.sender, _amountSlices[index], _prices[index]);\n      Debug(msg.sender, appendUintToString(\"Add amount bonus: \", _prices[index]));\n      Debug(msg.sender, appendUintToString(\"At slice: \", _amountSlices[index]));\n    }\n\n    amountSlicesCount = amountSlices.length;\n  }\n\n  function setTimeBonuses(uint[] _timeSlices, uint[] _prices) \n    inState(State.Setup) onlyOwner public \n  {\n    // Only once in life time\n    require(timeSlicesCount == 0);\n    require(_timeSlices.length > 1);\n    require(_prices.length == _timeSlices.length);\n    uint lastSlice = 0;\n    for (uint index = 0; index < _timeSlices.length; index++) {\n      require(_timeSlices[index] >= lastSlice);\n      lastSlice = _timeSlices[index];\n      timeSlices.push(lastSlice);\n      timeBonuses[lastSlice] = _prices[index];\n      // AddTimeSlice(msg.sender, _timeSlices[index], _prices[index]);\n      Debug(msg.sender, appendUintToString(\"Add time bonus: \", _prices[index]));\n      Debug(msg.sender, appendUintToString(\"At slice: \", _timeSlices[index]));\n    }\n    timeSlicesCount = timeSlices.length;\n  }\n  \n  function setTokenExcange(address _token, uint _value)\n    inState(State.Setup) onlyOwner public\n  {\n    allowedTokens[_token] = TokenInterface(_token);\n    updateTokenValue(_token, _value); \n  }\n\n  function saneIt() \n    inState(State.Setup) onlyOwner public \n  {\n    require(startTime < endTime);\n    require(endTime > now);\n\n    require(price > 0);\n\n    require(wallet != address(0));\n    require(token != address(0));\n\n    if (isKnownOnly) {\n      require(userRegistry != address(0));\n    }\n\n    if (isAmountBonus) {\n      require(amountSlicesCount > 0);\n    }\n\n    if (isEarlyBonus) {\n      require(timeSlicesCount > 0);\n    }\n\n    if (isExtraDistribution) {\n      require(extraTokensHolder != address(0));\n    }\n\n    if (isTransferShipment) {\n      require(token.balanceOf(address(this)) >= hardCap);\n    } else {\n      require(token.owner() == address(this));\n    }\n\n    state = State.Active;\n\n    Debug(msg.sender, \"Sane it\");\n  }\n\n  //       \n  //    \n  //                       \n  //                       \n  //        \n  //            \n\n  function calculateEthAmount(\n    address _beneficiary,\n    uint _weiAmount,\n    uint _time,\n    uint _totalSupply\n  ) public returns(uint, uint, uint) \n  {\n    _totalSupply;\n\n    uint beneficiaryTokens;\n    uint priceWithBonus;\n    uint bonus = 0;\n    uint extraTokens;\n\n    if (_time < startTime || _time > endTime) {\n      return (0, 0, 0);\n    } else {\n      if (isAmountBonus) {\n        bonus = bonus.add(calculateAmountBonus(_weiAmount));\n        Debug(msg.sender, appendUintToString(\"Calculated amount dependent bonus: \", bonus));\n      }\n\n      if (isEarlyBonus) {\n        Debug(msg.sender, appendUintToString(\"Calculate time bonus at: \", _time.sub(startTime)));\n        bonus = bonus.add(calculateTimeBonus(_time - startTime));\n        Debug(msg.sender, appendUintToString(\"Calculated time dependent bonus: \", bonus));\n      }\n    }\n\n    // tokenBonus = price.mul(bonus).div(10000);\n    beneficiaryTokens = _weiAmount.mul(10 ** tokenDecimals).div(price);\n    if (bonus > 0) {\n      beneficiaryTokens = beneficiaryTokens.add(beneficiaryTokens.mul(bonus).div(10000));\n    }\n\n    if (isExtraDistribution) {\n      extraTokens = beneficiaryTokens.mul(extraDistributionPart).div(10000);\n    }\n\n    return (beneficiaryTokens.add(extraTokens), beneficiaryTokens, extraTokens);\n  }\n\n  function calculateAmountBonus(uint _changeAmount) public constant returns(uint) {\n    uint bonus = 0;\n    for (uint index = 0; index < amountSlices.length; index++) {\n      if(amountSlices[index] > _changeAmount) {\n        break;\n      }\n\n      bonus = amountBonuses[amountSlices[index]];\n    }\n    return bonus;\n  }\n\n  function calculateTimeBonus(uint _at) public constant returns(uint) {\n    uint bonus = 0;\n    for (uint index = 0; index < timeSlices.length; index++) {\n      bonus = timeBonuses[timeSlices[index]];\n      if(timeSlices[index] > _at) {\n        break;\n      }\n    }\n\n    return bonus;\n  }\n\n  function validPurchase(\n    address _beneficiary, \n    uint _weiAmount, \n    uint _tokenAmount,\n    uint _extraAmount,\n    uint _totalAmount) \n  public constant returns(bool) \n  {\n    _extraAmount;\n    _weiAmount;\n\n    if (isKnownOnly && !userRegistry.knownAddress(_beneficiary)) {\n      return false;\n    }\n\n    uint finalBeneficiaryInvest = beneficiaryInvest[_beneficiary].add(_weiAmount);\n    uint finalTotalSupply = temporalTotalSupply.add(_totalAmount);\n\n    if (isWhitelisted) {\n      WhitelistRecord record = whitelist[_beneficiary];\n      if (!record.allow() || \n          record.min() > finalBeneficiaryInvest ||\n          record.max() < finalBeneficiaryInvest) {\n        return false;\n      }\n    }\n\n    if (isCappedInEther) {\n      if (weiRaised.add(_weiAmount) > hardCap) {\n        return false;\n      }\n    } else {\n      if (finalTotalSupply > hardCap) {\n        return false;\n      }\n    }\n\n    return true;\n  }\n\n                                                                                        \n  function updateTokenValue(address _token, uint _value) onlyOwner public {\n    tokensValues[_token] = _value;\n  }\n\n  //       \n  //    \n  //                 \n  //                 \n  //       \n  //            \n  // fallback function can be used to buy tokens\n  function () external payable {\n    buyTokens(msg.sender);\n  }\n\n  function buyTokens(address _beneficiary) inState(State.Active) public payable {\n    Debug(msg.sender, \"Start buy tokens\");\n\n    uint shipAmount = sellTokens(_beneficiary, msg.value);\n    require(shipAmount > 0);\n    forwardEther();\n  }\n\n  function buyWithHash(address _beneficiary, uint _value, uint _timestamp, bytes32 _hash) \n    inState(State.Active) onlyOwner public \n  {\n    uint shipAmount = sellTokens(_beneficiary, _value);\n    require(shipAmount > 0);\n    HashSale(_beneficiary, _value, shipAmount, _timestamp, _hash);\n  }\n\n  function receiveApproval(address _from, \n                           uint256 _value, \n                           address _token, \n                           bytes _extraData) public {\n    _extraData;\n    require(address(allowedTokens[_token]) != address(0));\n    uint weiValue = _value.mul(tokensValues[_token]).div(10 ** allowedTokens[_token].decimals());\n    uint shipAmount = sellTokens(_from, weiValue);\n    require(shipAmount > 0);\n    TokenSell(_from, _token, _value, weiValue, shipAmount);\n  }\n\n  function refund(address _beneficiary) onlyOwner public {\n    require(isRefundable);\n    claimRefundAllowance[_beneficiary] = true;\n  }\n\n  // if crowdsale is unsuccessful, investors can claim refunds here\n  function claimRefund(address _beneficiary) public returns(bool) {\n    require(isRefundable);\n    require(claimRefundAllowance[_beneficiary] || state == State.Refund);\n\n    // refund all deposited wei\n    _beneficiary.transfer(weiDeposit[_beneficiary]);\n\n    // refund all deposited alt tokens\n    if (isTokenExchange) {\n      // token.transfer(_beneficiary, altDeposit[_beneficiary]);\n    }\n  }\n\n  function addToWhitelist(address _beneficiary, uint _min, uint _max) onlyOwner public\n  {\n    require(_beneficiary != address(0));\n    require(_min <= _max);\n\n    if (_max == 0) {\n      _max = 10 ** 40; // should be huge enough? :0\n    }\n\n    whitelist[_beneficiary] = new WhitelistRecord(_min, _max);\n    whitelisted.push(_beneficiary);\n    whitelistedCount++;\n  }\n  \n  function setPersonalBonus(\n    address _beneficiary, \n    uint _bonus, \n    address _referalAddress, \n    uint _referalBonus) onlyOwner public {\n    personalBonuses[_beneficiary] = new PersonalBonusRecord(\n      _bonus,\n      _referalAddress,\n      _referalBonus\n    ); \n  }\n\n  //               \n  //          \n  //                \n  //              \n  //             \n  //               \n  // low level token purchase function\n  function sellTokens(address _beneficiary, uint _weiAmount) \n    inState(State.Active) internal returns(uint)\n  {\n    Debug(msg.sender, \"Start sell tokens\");\n    uint beneficiaryTokens;\n    uint extraTokens;\n    uint totalTokens;\n    (totalTokens, beneficiaryTokens, extraTokens) = calculateEthAmount(\n      _beneficiary, \n      _weiAmount, \n      block.timestamp, \n      token.totalSupply());\n      \n    Debug(msg.sender, \"Calculate amount\");\n    Debug(msg.sender, appendUintToString(\"Total: \", totalTokens));\n    Debug(msg.sender, appendUintToString(\"Beneficiary: \", beneficiaryTokens));\n\n    require(validPurchase(_beneficiary,   // Check if current purchase is valid\n                          _weiAmount, \n                          beneficiaryTokens,\n                          extraTokens,\n                          totalTokens));\n\n    weiRaised = weiRaised.add(_weiAmount); // update state (wei amount)\n    beneficiaryInvest[_beneficiary] = beneficiaryInvest[_beneficiary].add(_weiAmount);\n    shipTokens(_beneficiary, beneficiaryTokens);     // ship tokens to beneficiary\n    TokenPurchase(msg.sender,             // Fire purchase event\n                  _beneficiary, \n                  _weiAmount, \n                  beneficiaryTokens);\n    ShipTokens(_beneficiary, beneficiaryTokens);\n\n    if (isExtraDistribution) {            // calculate and\n      shipTokens(extraTokensHolder,       // ship extra tokens (team, foundation and etc)\n                 extraTokens);\n      ShipTokens(extraTokensHolder, extraTokens);\n    }\n\n    return beneficiaryTokens;\n  }\n\n  function shipTokens(address _beneficiary, uint _amount) \n    inState(State.Active) internal \n  {\n    if (!isPullingTokens) {\n      if (isTransferShipment) {\n        token.transferFrom(address(this), _beneficiary, _amount);\n      } else {\n        token.mint(_beneficiary, _amount);\n      }\n    }\n\n    temporalTotalSupply = temporalTotalSupply.add(_amount);\n  }\n\n  function forwardEther() internal {\n    if (isRefundable) {\n      weiDeposit[msg.sender] = msg.value;\n    } else {\n      wallet.transfer(msg.value);\n    }\n  }\n\n  function forwardTokens(address _beneficiary, address _tokenAddress, uint _amount) internal {\n    TokenInterface allowedToken = allowedTokens[_tokenAddress];\n\n    if (isRefundable) {\n      allowedToken.transferFrom(_beneficiary, address(this), _amount);\n      altDeposit[_tokenAddress][_beneficiary] = _amount;\n    } else {\n      allowedToken.transferFrom(_beneficiary, wallet, _amount);\n    }\n  }\n\n\n  //        \n  //     \n  //          \n  //           \n  // \n  //       \n  event Debug(address indexed sender, string message);\n  \n  function uintToString(uint v) public pure returns (string str) {\n    uint maxlength = 100;\n    bytes memory reversed = new bytes(maxlength);\n    uint i = 0;\n    while (v != 0) {\n      uint remainder = v % 10;\n      v = v / 10;\n      reversed[i++] = byte(48 + remainder);\n    }\n    bytes memory s = new bytes(i);\n    for (uint j = 0; j < i; j++) {\n      s[j] = reversed[i - 1 - j];\n    }\n    str = string(s);\n  }\n\n  function addressToString(address x) returns (string) {\n    bytes memory s = new bytes(40);\n    for (uint i = 0; i < 20; i++) {\n      byte b = byte(uint8(uint(x) / (2**(8*(19 - i)))));\n      byte hi = byte(uint8(b) / 16);\n      byte lo = byte(uint8(b) - 16 * uint8(hi));\n      s[2*i] = char(hi);\n      s[2*i+1] = char(lo);            \n    }\n    return string(s);\n  }\n\n  function char(byte b) returns (byte c) {\n    if (b < 10) return byte(uint8(b) + 0x30);\n    else return byte(uint8(b) + 0x57);\n  }\n\n  function appendUintToString(string inStr, uint v) public pure returns (string str) {\n    uint maxlength = 100;\n    bytes memory reversed = new bytes(maxlength);\n    uint i = 0;\n    while (v != 0) {\n      uint remainder = v % 10;\n      v = v / 10;\n      reversed[i++] = byte(48 + remainder);\n    }\n    bytes memory inStrb = bytes(inStr);\n    bytes memory s = new bytes(inStrb.length + i);\n    uint j;\n    for (j = 0; j < inStrb.length; j++) {\n      s[j] = inStrb[j];\n    }\n    for (j = 0; j < i; j++) {\n      s[j + inStrb.length] = reversed[i - 1 - j];\n    }\n    str = string(s);\n  }\n}",
  "sourcePath": "/Users/aler/crypto/altestate-3/contracts/base/Crowdsale.sol",
  "compiler": {
    "name": "solc",
    "version": "0.4.18+commit.9cf6e910.Emscripten.clang"
  },
  "schemaVersion": "1.0.1",
  "updatedAt": "2017-12-04T06:07:05.546Z"
}