{
  "contractName": "KnownHolderToken",
  "abi": [
    {
      "constant": false,
      "inputs": [
        {
          "name": "_spender",
          "type": "address"
        },
        {
          "name": "_value",
          "type": "uint256"
        }
      ],
      "name": "approve",
      "outputs": [
        {
          "name": "",
          "type": "bool"
        }
      ],
      "payable": false,
      "stateMutability": "nonpayable",
      "type": "function"
    },
    {
      "constant": true,
      "inputs": [],
      "name": "totalSupply",
      "outputs": [
        {
          "name": "",
          "type": "uint256"
        }
      ],
      "payable": false,
      "stateMutability": "view",
      "type": "function"
    },
    {
      "constant": false,
      "inputs": [
        {
          "name": "_from",
          "type": "address"
        },
        {
          "name": "_to",
          "type": "address"
        },
        {
          "name": "_value",
          "type": "uint256"
        }
      ],
      "name": "transferFrom",
      "outputs": [
        {
          "name": "",
          "type": "bool"
        }
      ],
      "payable": false,
      "stateMutability": "nonpayable",
      "type": "function"
    },
    {
      "constant": true,
      "inputs": [],
      "name": "userRegistry",
      "outputs": [
        {
          "name": "",
          "type": "address"
        }
      ],
      "payable": false,
      "stateMutability": "view",
      "type": "function"
    },
    {
      "constant": false,
      "inputs": [
        {
          "name": "_spender",
          "type": "address"
        },
        {
          "name": "_subtractedValue",
          "type": "uint256"
        }
      ],
      "name": "decreaseApproval",
      "outputs": [
        {
          "name": "",
          "type": "bool"
        }
      ],
      "payable": false,
      "stateMutability": "nonpayable",
      "type": "function"
    },
    {
      "constant": true,
      "inputs": [
        {
          "name": "_owner",
          "type": "address"
        }
      ],
      "name": "balanceOf",
      "outputs": [
        {
          "name": "balance",
          "type": "uint256"
        }
      ],
      "payable": false,
      "stateMutability": "view",
      "type": "function"
    },
    {
      "constant": false,
      "inputs": [
        {
          "name": "_to",
          "type": "address"
        },
        {
          "name": "_value",
          "type": "uint256"
        }
      ],
      "name": "transfer",
      "outputs": [
        {
          "name": "",
          "type": "bool"
        }
      ],
      "payable": false,
      "stateMutability": "nonpayable",
      "type": "function"
    },
    {
      "constant": false,
      "inputs": [
        {
          "name": "_spender",
          "type": "address"
        },
        {
          "name": "_addedValue",
          "type": "uint256"
        }
      ],
      "name": "increaseApproval",
      "outputs": [
        {
          "name": "",
          "type": "bool"
        }
      ],
      "payable": false,
      "stateMutability": "nonpayable",
      "type": "function"
    },
    {
      "constant": true,
      "inputs": [
        {
          "name": "_owner",
          "type": "address"
        },
        {
          "name": "_spender",
          "type": "address"
        }
      ],
      "name": "allowance",
      "outputs": [
        {
          "name": "",
          "type": "uint256"
        }
      ],
      "payable": false,
      "stateMutability": "view",
      "type": "function"
    },
    {
      "inputs": [
        {
          "name": "registry",
          "type": "address"
        }
      ],
      "payable": false,
      "stateMutability": "nonpayable",
      "type": "constructor"
    },
    {
      "anonymous": false,
      "inputs": [
        {
          "indexed": true,
          "name": "owner",
          "type": "address"
        },
        {
          "indexed": true,
          "name": "spender",
          "type": "address"
        },
        {
          "indexed": false,
          "name": "value",
          "type": "uint256"
        }
      ],
      "name": "Approval",
      "type": "event"
    },
    {
      "anonymous": false,
      "inputs": [
        {
          "indexed": true,
          "name": "from",
          "type": "address"
        },
        {
          "indexed": true,
          "name": "to",
          "type": "address"
        },
        {
          "indexed": false,
          "name": "value",
          "type": "uint256"
        }
      ],
      "name": "Transfer",
      "type": "event"
    }
  ],
  "bytecode": "0x6060604052341561000f57600080fd5b6040516020806109a383398101604052808051915050600160a060020a038116151561003a57600080fd5b60038054600160a060020a031916600160a060020a039290921691909117905561093a806100696000396000f30060606040526004361061007f5763ffffffff60e060020a600035041663095ea7b3811461008457806318160ddd146100ba57806323b872dd146100df5780635c7460d614610107578063661884631461013657806370a0823114610158578063a9059cbb14610177578063d73dd62314610199578063dd62ed3e146101bb575b600080fd5b341561008f57600080fd5b6100a6600160a060020a03600435166024356101e0565b604051901515815260200160405180910390f35b34156100c557600080fd5b6100cd61024c565b60405190815260200160405180910390f35b34156100ea57600080fd5b6100a6600160a060020a0360043581169060243516604435610252565b341561011257600080fd5b61011a610365565b604051600160a060020a03909116815260200160405180910390f35b341561014157600080fd5b6100a6600160a060020a0360043516602435610374565b341561016357600080fd5b6100cd600160a060020a036004351661046e565b341561018257600080fd5b6100a6600160a060020a0360043516602435610489565b34156101a457600080fd5b6100a6600160a060020a036004351660243561059a565b34156101c657600080fd5b6100cd600160a060020a036004358116906024351661063e565b600160a060020a03338116600081815260026020908152604080832094871680845294909152808220859055909291907f8c5be1e5ebec7d5bd14f71427d1e84f3dd0314c0f7b2291e5b200ac8c7c3b9259085905190815260200160405180910390a350600192915050565b60005481565b6003546000908490600160a060020a031663a75df81482846040516020015260405160e060020a63ffffffff8416028152600160a060020a039091166004820152602401602060405180830381600087803b15156102af57600080fd5b6102c65a03f115156102c057600080fd5b5050506040518051905015806103465750600354600160a060020a031663237f1a218260006040516020015260405160e060020a63ffffffff8416028152600160a060020a039091166004820152602401602060405180830381600087803b151561032a57600080fd5b6102c65a03f1151561033b57600080fd5b505050604051805190505b151561035157600080fd5b61035c858585610669565b95945050505050565b600354600160a060020a031681565b600160a060020a033381166000908152600260209081526040808320938616835292905290812054808311156103d157600160a060020a033381166000908152600260209081526040808320938816835292905290812055610408565b6103e1818463ffffffff6107eb16565b600160a060020a033381166000908152600260209081526040808320938916835292905220555b600160a060020a0333811660008181526002602090815260408083209489168084529490915290819020547f8c5be1e5ebec7d5bd14f71427d1e84f3dd0314c0f7b2291e5b200ac8c7c3b925915190815260200160405180910390a35060019392505050565b600160a060020a031660009081526001602052604090205490565b6003546000903390600160a060020a031663a75df81482846040516020015260405160e060020a63ffffffff8416028152600160a060020a039091166004820152602401602060405180830381600087803b15156104e657600080fd5b6102c65a03f115156104f757600080fd5b50505060405180519050158061057d5750600354600160a060020a031663237f1a218260006040516020015260405160e060020a63ffffffff8416028152600160a060020a039091166004820152602401602060405180830381600087803b151561056157600080fd5b6102c65a03f1151561057257600080fd5b505050604051805190505b151561058857600080fd5b61059284846107fd565b949350505050565b600160a060020a0333811660009081526002602090815260408083209386168352929052908120546105d2908363ffffffff6108f816565b600160a060020a0333811660008181526002602090815260408083209489168084529490915290819020849055919290917f8c5be1e5ebec7d5bd14f71427d1e84f3dd0314c0f7b2291e5b200ac8c7c3b92591905190815260200160405180910390a350600192915050565b600160a060020a03918216600090815260026020908152604080832093909416825291909152205490565b6000600160a060020a038316151561068057600080fd5b600160a060020a0384166000908152600160205260409020548211156106a557600080fd5b600160a060020a03808516600090815260026020908152604080832033909416835292905220548211156106d857600080fd5b600160a060020a038416600090815260016020526040902054610701908363ffffffff6107eb16565b600160a060020a038086166000908152600160205260408082209390935590851681522054610736908363ffffffff6108f816565b600160a060020a0380851660009081526001602090815260408083209490945587831682526002815283822033909316825291909152205461077e908363ffffffff6107eb16565b600160a060020a03808616600081815260026020908152604080832033861684529091529081902093909355908516917fddf252ad1be2c89b69c2b068fc378daa952ba7f163c4a11628f55a4df523b3ef9085905190815260200160405180910390a35060019392505050565b6000828211156107f757fe5b50900390565b6000600160a060020a038316151561081457600080fd5b600160a060020a03331660009081526001602052604090205482111561083957600080fd5b600160a060020a033316600090815260016020526040902054610862908363ffffffff6107eb16565b600160a060020a033381166000908152600160205260408082209390935590851681522054610897908363ffffffff6108f816565b600160a060020a0380851660008181526001602052604090819020939093559133909116907fddf252ad1be2c89b69c2b068fc378daa952ba7f163c4a11628f55a4df523b3ef9085905190815260200160405180910390a350600192915050565b60008282018381101561090757fe5b93925050505600a165627a7a72305820300d68c3dfaa145b95f854a7c9be2ac43c2d956b15389aac0f741b9da1a27a610029",
  "source": "pragma solidity ^0.4.15;\n\nimport './UserRegistryInterface.sol';\nimport 'zeppelin-solidity/contracts/token/StandardToken.sol';\n\ncontract KnownHolderToken is StandardToken {\n  UserRegistryInterface public userRegistry;\n\n  function KnownHolderToken(address registry) public {\n    require(registry != 0x0);\n    userRegistry = UserRegistryInterface(registry);\n  }\n\n  modifier shouldBeFamiliarToTransfer(address _from) {\n    require(!userRegistry.knownAddress(_from) || userRegistry.hasIdentity(_from));\n    _;\n  }\n  function transfer(address _to, uint256 _value) shouldBeFamiliarToTransfer(msg.sender) public returns (bool) {\n    return super.transfer(_to, _value);\n  }\n\n  function transferFrom(address _from, address _to, uint256 _value) shouldBeFamiliarToTransfer(_from) public returns (bool) {\n    return super.transferFrom(_from, _to, _value);\n  }\n}",
  "sourcePath": "/Users/aler/crypto/altestate-3/contracts/base/KnownHolderToken.sol",
  "compiler": {
    "name": "solc",
    "version": "0.4.18+commit.9cf6e910.Emscripten.clang"
  },
  "schemaVersion": "1.0.1",
  "updatedAt": "2017-11-26T15:54:35.411Z"
}