{
  "contractName": "MultiOwners",
  "abi": [
    {
      "constant": false,
      "inputs": [
        {
          "name": "_owner",
          "type": "address"
        }
      ],
      "name": "grant",
      "outputs": [],
      "payable": false,
      "stateMutability": "nonpayable",
      "type": "function"
    },
    {
      "constant": false,
      "inputs": [
        {
          "name": "_owner",
          "type": "address"
        }
      ],
      "name": "revoke",
      "outputs": [],
      "payable": false,
      "stateMutability": "nonpayable",
      "type": "function"
    },
    {
      "constant": true,
      "inputs": [],
      "name": "publisher",
      "outputs": [
        {
          "name": "",
          "type": "address"
        }
      ],
      "payable": false,
      "stateMutability": "view",
      "type": "function"
    },
    {
      "constant": true,
      "inputs": [],
      "name": "isOwner",
      "outputs": [
        {
          "name": "",
          "type": "bool"
        }
      ],
      "payable": false,
      "stateMutability": "view",
      "type": "function"
    },
    {
      "constant": true,
      "inputs": [
        {
          "name": "maybe_owner",
          "type": "address"
        }
      ],
      "name": "checkOwner",
      "outputs": [
        {
          "name": "",
          "type": "bool"
        }
      ],
      "payable": false,
      "stateMutability": "view",
      "type": "function"
    },
    {
      "inputs": [],
      "payable": false,
      "stateMutability": "nonpayable",
      "type": "constructor"
    },
    {
      "anonymous": false,
      "inputs": [
        {
          "indexed": true,
          "name": "owner",
          "type": "address"
        }
      ],
      "name": "AccessGrant",
      "type": "event"
    },
    {
      "anonymous": false,
      "inputs": [
        {
          "indexed": true,
          "name": "owner",
          "type": "address"
        }
      ],
      "name": "AccessRevoke",
      "type": "event"
    }
  ],
  "bytecode": "0x6060604052341561000f57600080fd5b600160a060020a0333166000818152602081905260409020805460ff191660019081179091558054600160a060020a03191690911790556102f3806100556000396000f30060606040526004361061006c5763ffffffff7c010000000000000000000000000000000000000000000000000000000060003504166370284d19811461007157806374a8f103146100925780638c72c54e146100b15780638f32d59b146100e0578063e0e3671c14610107575b600080fd5b341561007c57600080fd5b610090600160a060020a0360043516610126565b005b341561009d57600080fd5b610090600160a060020a03600435166101a3565b34156100bc57600080fd5b6100c4610259565b604051600160a060020a03909116815260200160405180910390f35b34156100eb57600080fd5b6100f3610268565b604051901515815260200160405180910390f35b341561011257600080fd5b6100f3600160a060020a0360043516610297565b600160a060020a03331660009081526020819052604090205460ff16151560011461015057600080fd5b600160a060020a03811660008181526020819052604090819020805460ff191660011790557f1350a997c6c86bcc51dd7e51f7ef618d620e6a85d8fdabb82a980c149ad88d47905160405180910390a250565b600160a060020a03331660009081526020819052604090205460ff1615156001146101cd57600080fd5b600154600160a060020a03828116911614156101e857600080fd5b80600160a060020a031633600160a060020a03161415151561020957600080fd5b600160a060020a03811660008181526020819052604090819020805460ff191690557f1d1eff42eefbeecfca7e39f8adb5d7f19a7ebbb4c3e82c51f2500d7d76ab2468905160405180910390a250565b600154600160a060020a031681565b600160a060020a03331660009081526020819052604081205460ff1661028f576000610292565b60015b905090565b600160a060020a03811660009081526020819052604081205460ff166102be5760006102c1565b60015b929150505600a165627a7a72305820ae4895e84e3317b62f73fcc0eeb51d3b93d3421390f0e4b7cd1c18796f8353920029",
  "source": "pragma solidity ^0.4.15;\n\ncontract MultiOwners {\n\n    event AccessGrant(address indexed owner);\n    event AccessRevoke(address indexed owner);\n    \n    mapping(address => bool) owners;\n    address public publisher;\n\n    function MultiOwners() public {\n        owners[msg.sender] = true;\n        publisher = msg.sender;\n    }\n\n    modifier onlyOwner() { \n        require(owners[msg.sender] == true);\n        _; \n    }\n\n    function isOwner() public constant returns (bool) {\n        return owners[msg.sender] ? true : false;\n    }\n\n    function checkOwner(address maybe_owner) public constant returns (bool) {\n        return owners[maybe_owner] ? true : false;\n    }\n\n    function grant(address _owner) onlyOwner public {\n        owners[_owner] = true;\n        AccessGrant(_owner);\n    }\n\n    function revoke(address _owner) onlyOwner public {\n        require(_owner != publisher);\n        require(msg.sender != _owner);\n\n        owners[_owner] = false;\n        AccessRevoke(_owner);\n    }\n}\n",
  "sourcePath": "/Users/aler/crypto/altestate-3/contracts/base/MultiOwners.sol",
  "compiler": {
    "name": "solc",
    "version": "0.4.18+commit.9cf6e910.Emscripten.clang"
  },
  "schemaVersion": "1.0.1",
  "updatedAt": "2017-12-04T00:54:20.452Z"
}