{
  "contractName": "NamedToken",
  "abi": [
    {
      "constant": true,
      "inputs": [],
      "name": "name",
      "outputs": [
        {
          "name": "",
          "type": "string"
        }
      ],
      "payable": false,
      "stateMutability": "view",
      "type": "function"
    },
    {
      "constant": false,
      "inputs": [
        {
          "name": "_spender",
          "type": "address"
        },
        {
          "name": "_value",
          "type": "uint256"
        }
      ],
      "name": "approve",
      "outputs": [
        {
          "name": "",
          "type": "bool"
        }
      ],
      "payable": false,
      "stateMutability": "nonpayable",
      "type": "function"
    },
    {
      "constant": true,
      "inputs": [],
      "name": "totalSupply",
      "outputs": [
        {
          "name": "",
          "type": "uint256"
        }
      ],
      "payable": false,
      "stateMutability": "view",
      "type": "function"
    },
    {
      "constant": false,
      "inputs": [
        {
          "name": "_from",
          "type": "address"
        },
        {
          "name": "_to",
          "type": "address"
        },
        {
          "name": "_value",
          "type": "uint256"
        }
      ],
      "name": "transferFrom",
      "outputs": [
        {
          "name": "",
          "type": "bool"
        }
      ],
      "payable": false,
      "stateMutability": "nonpayable",
      "type": "function"
    },
    {
      "constant": true,
      "inputs": [],
      "name": "decimals",
      "outputs": [
        {
          "name": "",
          "type": "uint256"
        }
      ],
      "payable": false,
      "stateMutability": "view",
      "type": "function"
    },
    {
      "constant": false,
      "inputs": [
        {
          "name": "_spender",
          "type": "address"
        },
        {
          "name": "_subtractedValue",
          "type": "uint256"
        }
      ],
      "name": "decreaseApproval",
      "outputs": [
        {
          "name": "",
          "type": "bool"
        }
      ],
      "payable": false,
      "stateMutability": "nonpayable",
      "type": "function"
    },
    {
      "constant": true,
      "inputs": [
        {
          "name": "_owner",
          "type": "address"
        }
      ],
      "name": "balanceOf",
      "outputs": [
        {
          "name": "balance",
          "type": "uint256"
        }
      ],
      "payable": false,
      "stateMutability": "view",
      "type": "function"
    },
    {
      "constant": true,
      "inputs": [],
      "name": "ticker",
      "outputs": [
        {
          "name": "",
          "type": "string"
        }
      ],
      "payable": false,
      "stateMutability": "view",
      "type": "function"
    },
    {
      "constant": false,
      "inputs": [
        {
          "name": "_to",
          "type": "address"
        },
        {
          "name": "_value",
          "type": "uint256"
        }
      ],
      "name": "transfer",
      "outputs": [
        {
          "name": "",
          "type": "bool"
        }
      ],
      "payable": false,
      "stateMutability": "nonpayable",
      "type": "function"
    },
    {
      "constant": false,
      "inputs": [
        {
          "name": "_spender",
          "type": "address"
        },
        {
          "name": "_addedValue",
          "type": "uint256"
        }
      ],
      "name": "increaseApproval",
      "outputs": [
        {
          "name": "",
          "type": "bool"
        }
      ],
      "payable": false,
      "stateMutability": "nonpayable",
      "type": "function"
    },
    {
      "constant": true,
      "inputs": [
        {
          "name": "_owner",
          "type": "address"
        },
        {
          "name": "_spender",
          "type": "address"
        }
      ],
      "name": "allowance",
      "outputs": [
        {
          "name": "",
          "type": "uint256"
        }
      ],
      "payable": false,
      "stateMutability": "view",
      "type": "function"
    },
    {
      "inputs": [
        {
          "name": "_name",
          "type": "string"
        },
        {
          "name": "_ticker",
          "type": "string"
        },
        {
          "name": "_decimals",
          "type": "uint256"
        }
      ],
      "payable": false,
      "stateMutability": "nonpayable",
      "type": "constructor"
    },
    {
      "anonymous": false,
      "inputs": [
        {
          "indexed": true,
          "name": "owner",
          "type": "address"
        },
        {
          "indexed": true,
          "name": "spender",
          "type": "address"
        },
        {
          "indexed": false,
          "name": "value",
          "type": "uint256"
        }
      ],
      "name": "Approval",
      "type": "event"
    },
    {
      "anonymous": false,
      "inputs": [
        {
          "indexed": true,
          "name": "from",
          "type": "address"
        },
        {
          "indexed": true,
          "name": "to",
          "type": "address"
        },
        {
          "indexed": false,
          "name": "value",
          "type": "uint256"
        }
      ],
      "name": "Transfer",
      "type": "event"
    }
  ],
  "bytecode": "0x6060604052341561000f57600080fd5b6040516109de3803806109de8339810160405280805182019190602001805182019190602001805191506003905083805161004e92916020019061006e565b50600482805161006292916020019061006e565b50600555506101099050565b828054600181600116156101000203166002900490600052602060002090601f016020900481019282601f106100af57805160ff19168380011785556100dc565b828001600101855582156100dc579182015b828111156100dc5782518255916020019190600101906100c1565b506100e89291506100ec565b5090565b61010691905b808211156100e857600081556001016100f2565b90565b6108c6806101186000396000f3006060604052600436106100ae5763ffffffff7c010000000000000000000000000000000000000000000000000000000060003504166306fdde0381146100b3578063095ea7b31461013d57806318160ddd1461017357806323b872dd14610198578063313ce567146101c057806366188463146101d357806370a08231146101f55780638ba47bdd14610214578063a9059cbb14610227578063d73dd62314610249578063dd62ed3e1461026b575b600080fd5b34156100be57600080fd5b6100c6610290565b60405160208082528190810183818151815260200191508051906020019080838360005b838110156101025780820151838201526020016100ea565b50505050905090810190601f16801561012f5780820380516001836020036101000a031916815260200191505b509250505060405180910390f35b341561014857600080fd5b61015f600160a060020a036004351660243561032e565b604051901515815260200160405180910390f35b341561017e57600080fd5b61018661039a565b60405190815260200160405180910390f35b34156101a357600080fd5b61015f600160a060020a03600435811690602435166044356103a0565b34156101cb57600080fd5b610186610522565b34156101de57600080fd5b61015f600160a060020a0360043516602435610528565b341561020057600080fd5b610186600160a060020a0360043516610622565b341561021f57600080fd5b6100c661063d565b341561023257600080fd5b61015f600160a060020a03600435166024356106a8565b341561025457600080fd5b61015f600160a060020a03600435166024356107a3565b341561027657600080fd5b610186600160a060020a0360043581169060243516610847565b60038054600181600116156101000203166002900480601f0160208091040260200160405190810160405280929190818152602001828054600181600116156101000203166002900480156103265780601f106102fb57610100808354040283529160200191610326565b820191906000526020600020905b81548152906001019060200180831161030957829003601f168201915b505050505081565b600160a060020a03338116600081815260026020908152604080832094871680845294909152808220859055909291907f8c5be1e5ebec7d5bd14f71427d1e84f3dd0314c0f7b2291e5b200ac8c7c3b9259085905190815260200160405180910390a350600192915050565b60005481565b6000600160a060020a03831615156103b757600080fd5b600160a060020a0384166000908152600160205260409020548211156103dc57600080fd5b600160a060020a038085166000908152600260209081526040808320339094168352929052205482111561040f57600080fd5b600160a060020a038416600090815260016020526040902054610438908363ffffffff61087216565b600160a060020a03808616600090815260016020526040808220939093559085168152205461046d908363ffffffff61088416565b600160a060020a038085166000908152600160209081526040808320949094558783168252600281528382203390931682529190915220546104b5908363ffffffff61087216565b600160a060020a03808616600081815260026020908152604080832033861684529091529081902093909355908516917fddf252ad1be2c89b69c2b068fc378daa952ba7f163c4a11628f55a4df523b3ef9085905190815260200160405180910390a35060019392505050565b60055481565b600160a060020a0333811660009081526002602090815260408083209386168352929052908120548083111561058557600160a060020a0333811660009081526002602090815260408083209388168352929052908120556105bc565b610595818463ffffffff61087216565b600160a060020a033381166000908152600260209081526040808320938916835292905220555b600160a060020a0333811660008181526002602090815260408083209489168084529490915290819020547f8c5be1e5ebec7d5bd14f71427d1e84f3dd0314c0f7b2291e5b200ac8c7c3b925915190815260200160405180910390a35060019392505050565b600160a060020a031660009081526001602052604090205490565b60048054600181600116156101000203166002900480601f0160208091040260200160405190810160405280929190818152602001828054600181600116156101000203166002900480156103265780601f106102fb57610100808354040283529160200191610326565b6000600160a060020a03831615156106bf57600080fd5b600160a060020a0333166000908152600160205260409020548211156106e457600080fd5b600160a060020a03331660009081526001602052604090205461070d908363ffffffff61087216565b600160a060020a033381166000908152600160205260408082209390935590851681522054610742908363ffffffff61088416565b600160a060020a0380851660008181526001602052604090819020939093559133909116907fddf252ad1be2c89b69c2b068fc378daa952ba7f163c4a11628f55a4df523b3ef9085905190815260200160405180910390a350600192915050565b600160a060020a0333811660009081526002602090815260408083209386168352929052908120546107db908363ffffffff61088416565b600160a060020a0333811660008181526002602090815260408083209489168084529490915290819020849055919290917f8c5be1e5ebec7d5bd14f71427d1e84f3dd0314c0f7b2291e5b200ac8c7c3b92591905190815260200160405180910390a350600192915050565b600160a060020a03918216600090815260026020908152604080832093909416825291909152205490565b60008282111561087e57fe5b50900390565b60008282018381101561089357fe5b93925050505600a165627a7a72305820842d1e29dc1c9410aeab39c4edee57eb77ddcdcc5447ddf723d5d39bb864370b0029",
  "source": "pragma solidity ^0.4.15;\n\nimport 'zeppelin-solidity/contracts/token/StandardToken.sol';\n\ncontract NamedToken is StandardToken {\n  string public name;\n  string public ticker;\n  uint public decimals;\n  \n  function NamedToken(string _name, string _ticker, uint _decimals) public {\n    name = _name;\n    ticker = _ticker;\n    decimals = _decimals;\n  }\n}",
  "sourcePath": "/Users/aler/crypto/altestate-3/contracts/base/NamedToken.sol",
  "compiler": {
    "name": "solc",
    "version": "0.4.18+commit.9cf6e910.Emscripten.clang"
  },
  "schemaVersion": "1.0.1",
  "updatedAt": "2017-11-26T15:54:35.412Z"
}