{
  "contractName": "SqmToken",
  "abi": [
    {
      "constant": true,
      "inputs": [],
      "name": "mintingFinished",
      "outputs": [
        {
          "name": "",
          "type": "bool"
        }
      ],
      "payable": false,
      "stateMutability": "view",
      "type": "function"
    },
    {
      "constant": true,
      "inputs": [],
      "name": "name",
      "outputs": [
        {
          "name": "",
          "type": "string"
        }
      ],
      "payable": false,
      "stateMutability": "view",
      "type": "function"
    },
    {
      "constant": false,
      "inputs": [
        {
          "name": "_spender",
          "type": "address"
        },
        {
          "name": "_value",
          "type": "uint256"
        }
      ],
      "name": "approve",
      "outputs": [
        {
          "name": "",
          "type": "bool"
        }
      ],
      "payable": false,
      "stateMutability": "nonpayable",
      "type": "function"
    },
    {
      "constant": true,
      "inputs": [],
      "name": "totalSupply",
      "outputs": [
        {
          "name": "",
          "type": "uint256"
        }
      ],
      "payable": false,
      "stateMutability": "view",
      "type": "function"
    },
    {
      "constant": false,
      "inputs": [
        {
          "name": "_from",
          "type": "address"
        },
        {
          "name": "_to",
          "type": "address"
        },
        {
          "name": "_value",
          "type": "uint256"
        }
      ],
      "name": "transferFrom",
      "outputs": [
        {
          "name": "",
          "type": "bool"
        }
      ],
      "payable": false,
      "stateMutability": "nonpayable",
      "type": "function"
    },
    {
      "constant": true,
      "inputs": [],
      "name": "decimals",
      "outputs": [
        {
          "name": "",
          "type": "uint256"
        }
      ],
      "payable": false,
      "stateMutability": "view",
      "type": "function"
    },
    {
      "constant": true,
      "inputs": [],
      "name": "cap",
      "outputs": [
        {
          "name": "",
          "type": "uint256"
        }
      ],
      "payable": false,
      "stateMutability": "view",
      "type": "function"
    },
    {
      "constant": false,
      "inputs": [
        {
          "name": "_to",
          "type": "address"
        },
        {
          "name": "_amount",
          "type": "uint256"
        }
      ],
      "name": "mint",
      "outputs": [
        {
          "name": "",
          "type": "bool"
        }
      ],
      "payable": false,
      "stateMutability": "nonpayable",
      "type": "function"
    },
    {
      "constant": true,
      "inputs": [],
      "name": "userRegistry",
      "outputs": [
        {
          "name": "",
          "type": "address"
        }
      ],
      "payable": false,
      "stateMutability": "view",
      "type": "function"
    },
    {
      "constant": false,
      "inputs": [
        {
          "name": "_spender",
          "type": "address"
        },
        {
          "name": "_subtractedValue",
          "type": "uint256"
        }
      ],
      "name": "decreaseApproval",
      "outputs": [
        {
          "name": "",
          "type": "bool"
        }
      ],
      "payable": false,
      "stateMutability": "nonpayable",
      "type": "function"
    },
    {
      "constant": true,
      "inputs": [
        {
          "name": "_owner",
          "type": "address"
        }
      ],
      "name": "balanceOf",
      "outputs": [
        {
          "name": "balance",
          "type": "uint256"
        }
      ],
      "payable": false,
      "stateMutability": "view",
      "type": "function"
    },
    {
      "constant": false,
      "inputs": [],
      "name": "finishMinting",
      "outputs": [
        {
          "name": "",
          "type": "bool"
        }
      ],
      "payable": false,
      "stateMutability": "nonpayable",
      "type": "function"
    },
    {
      "constant": true,
      "inputs": [],
      "name": "ticker",
      "outputs": [
        {
          "name": "",
          "type": "string"
        }
      ],
      "payable": false,
      "stateMutability": "view",
      "type": "function"
    },
    {
      "constant": true,
      "inputs": [],
      "name": "owner",
      "outputs": [
        {
          "name": "",
          "type": "address"
        }
      ],
      "payable": false,
      "stateMutability": "view",
      "type": "function"
    },
    {
      "constant": false,
      "inputs": [
        {
          "name": "_to",
          "type": "address"
        },
        {
          "name": "_value",
          "type": "uint256"
        }
      ],
      "name": "transfer",
      "outputs": [
        {
          "name": "",
          "type": "bool"
        }
      ],
      "payable": false,
      "stateMutability": "nonpayable",
      "type": "function"
    },
    {
      "constant": false,
      "inputs": [
        {
          "name": "_spender",
          "type": "address"
        },
        {
          "name": "_value",
          "type": "uint256"
        },
        {
          "name": "_data",
          "type": "bytes"
        }
      ],
      "name": "approveAndCall",
      "outputs": [
        {
          "name": "",
          "type": "bool"
        }
      ],
      "payable": false,
      "stateMutability": "nonpayable",
      "type": "function"
    },
    {
      "constant": false,
      "inputs": [
        {
          "name": "_spender",
          "type": "address"
        },
        {
          "name": "_addedValue",
          "type": "uint256"
        }
      ],
      "name": "increaseApproval",
      "outputs": [
        {
          "name": "",
          "type": "bool"
        }
      ],
      "payable": false,
      "stateMutability": "nonpayable",
      "type": "function"
    },
    {
      "constant": true,
      "inputs": [
        {
          "name": "_owner",
          "type": "address"
        },
        {
          "name": "_spender",
          "type": "address"
        }
      ],
      "name": "allowance",
      "outputs": [
        {
          "name": "",
          "type": "uint256"
        }
      ],
      "payable": false,
      "stateMutability": "view",
      "type": "function"
    },
    {
      "constant": false,
      "inputs": [
        {
          "name": "newOwner",
          "type": "address"
        }
      ],
      "name": "transferOwnership",
      "outputs": [],
      "payable": false,
      "stateMutability": "nonpayable",
      "type": "function"
    },
    {
      "inputs": [
        {
          "name": "_name",
          "type": "string"
        },
        {
          "name": "_ticker",
          "type": "string"
        },
        {
          "name": "_decimals",
          "type": "uint256"
        },
        {
          "name": "_cap",
          "type": "uint256"
        },
        {
          "name": "_registry",
          "type": "address"
        }
      ],
      "payable": false,
      "stateMutability": "nonpayable",
      "type": "constructor"
    },
    {
      "anonymous": false,
      "inputs": [
        {
          "indexed": true,
          "name": "to",
          "type": "address"
        },
        {
          "indexed": false,
          "name": "amount",
          "type": "uint256"
        }
      ],
      "name": "Mint",
      "type": "event"
    },
    {
      "anonymous": false,
      "inputs": [],
      "name": "MintFinished",
      "type": "event"
    },
    {
      "anonymous": false,
      "inputs": [
        {
          "indexed": true,
          "name": "previousOwner",
          "type": "address"
        },
        {
          "indexed": true,
          "name": "newOwner",
          "type": "address"
        }
      ],
      "name": "OwnershipTransferred",
      "type": "event"
    },
    {
      "anonymous": false,
      "inputs": [
        {
          "indexed": true,
          "name": "owner",
          "type": "address"
        },
        {
          "indexed": true,
          "name": "spender",
          "type": "address"
        },
        {
          "indexed": false,
          "name": "value",
          "type": "uint256"
        }
      ],
      "name": "Approval",
      "type": "event"
    },
    {
      "anonymous": false,
      "inputs": [
        {
          "indexed": true,
          "name": "from",
          "type": "address"
        },
        {
          "indexed": true,
          "name": "to",
          "type": "address"
        },
        {
          "indexed": false,
          "name": "value",
          "type": "uint256"
        }
      ],
      "name": "Transfer",
      "type": "event"
    }
  ],
  "bytecode": "0x60606040526007805460a060020a60ff021916905534156200002057600080fd5b604051620011df380380620011df833981016040528080518201919060200180518201919060200180519190602001805191906020018051915082905081868686600383805162000076929160200190620000f5565b5060048280516200008c929160200190620000f5565b506005555050600160a060020a0381161515620000a857600080fd5b60068054600160a060020a0319908116600160a060020a0393841617909155600780549091163390921691909117905560008111620000e657600080fd5b600855506200019a9350505050565b828054600181600116156101000203166002900490600052602060002090601f016020900481019282601f106200013857805160ff191683800117855562000168565b8280016001018555821562000168579182015b82811115620001685782518255916020019190600101906200014b565b50620001769291506200017a565b5090565b6200019791905b8082111562000176576000815560010162000181565b90565b61103580620001aa6000396000f3006060604052600436106100ed5763ffffffff60e060020a60003504166305d2035b81146100f257806306fdde0314610119578063095ea7b3146101a357806318160ddd146101c557806323b872dd146101ea578063313ce56714610212578063355274ea1461022557806340c10f19146102385780635c7460d61461025a578063661884631461028957806370a08231146102ab5780637d64bcb4146102ca5780638ba47bdd146102dd5780638da5cb5b146102f0578063a9059cbb14610303578063cae9ca5114610325578063d73dd6231461038a578063dd62ed3e146103ac578063f2fde38b146103d1575b600080fd5b34156100fd57600080fd5b6101056103f2565b604051901515815260200160405180910390f35b341561012457600080fd5b61012c610402565b60405160208082528190810183818151815260200191508051906020019080838360005b83811015610168578082015183820152602001610150565b50505050905090810190601f1680156101955780820380516001836020036101000a031916815260200191505b509250505060405180910390f35b34156101ae57600080fd5b610105600160a060020a03600435166024356104a0565b34156101d057600080fd5b6101d861050c565b60405190815260200160405180910390f35b34156101f557600080fd5b610105600160a060020a0360043581169060243516604435610512565b341561021d57600080fd5b6101d8610627565b341561023057600080fd5b6101d861062d565b341561024357600080fd5b610105600160a060020a0360043516602435610633565b341561026557600080fd5b61026d61069a565b604051600160a060020a03909116815260200160405180910390f35b341561029457600080fd5b610105600160a060020a03600435166024356106a9565b34156102b657600080fd5b6101d8600160a060020a03600435166107a3565b34156102d557600080fd5b6101056107be565b34156102e857600080fd5b61012c610849565b34156102fb57600080fd5b61026d6108b4565b341561030e57600080fd5b610105600160a060020a03600435166024356108c3565b341561033057600080fd5b61010560048035600160a060020a03169060248035919060649060443590810190830135806020601f820181900481020160405190810160405281815292919060208401838380828437509496506109d495505050505050565b341561039557600080fd5b610105600160a060020a0360043516602435610af4565b34156103b757600080fd5b6101d8600160a060020a0360043581169060243516610b98565b34156103dc57600080fd5b6103f0600160a060020a0360043516610bc3565b005b60075460a060020a900460ff1681565b60038054600181600116156101000203166002900480601f0160208091040260200160405190810160405280929190818152602001828054600181600116156101000203166002900480156104985780601f1061046d57610100808354040283529160200191610498565b820191906000526020600020905b81548152906001019060200180831161047b57829003601f168201915b505050505081565b600160a060020a03338116600081815260026020908152604080832094871680845294909152808220859055909291907f8c5be1e5ebec7d5bd14f71427d1e84f3dd0314c0f7b2291e5b200ac8c7c3b9259085905190815260200160405180910390a350600192915050565b60005481565b6006546000908490600160a060020a031663a75df81482846040516020015260405160e060020a63ffffffff8416028152600160a060020a039091166004820152602401602060405180830381600087803b151561056f57600080fd5b6102c65a03f1151561058057600080fd5b5050506040518051905015806106065750600654600160a060020a031663237f1a218260006040516020015260405160e060020a63ffffffff8416028152600160a060020a039091166004820152602401602060405180830381600087803b15156105ea57600080fd5b6102c65a03f115156105fb57600080fd5b505050604051805190505b151561061157600080fd5b61061c858585610c5e565b91505b509392505050565b60055481565b60085481565b60075460009033600160a060020a0390811691161461065157600080fd5b60075460a060020a900460ff161561066857600080fd5b60085460005461067e908463ffffffff610de016565b111561068957600080fd5b6106938383610def565b9392505050565b600654600160a060020a031681565b600160a060020a0333811660009081526002602090815260408083209386168352929052908120548083111561070657600160a060020a03338116600090815260026020908152604080832093881683529290529081205561073d565b610716818463ffffffff610efc16565b600160a060020a033381166000908152600260209081526040808320938916835292905220555b600160a060020a0333811660008181526002602090815260408083209489168084529490915290819020547f8c5be1e5ebec7d5bd14f71427d1e84f3dd0314c0f7b2291e5b200ac8c7c3b925915190815260200160405180910390a35060019392505050565b600160a060020a031660009081526001602052604090205490565b60075460009033600160a060020a039081169116146107dc57600080fd5b60075460a060020a900460ff16156107f357600080fd5b6007805474ff0000000000000000000000000000000000000000191660a060020a1790557fae5184fba832cb2b1f702aca6117b8d265eaf03ad33eb133f19dde0f5920fa0860405160405180910390a150600190565b60048054600181600116156101000203166002900480601f0160208091040260200160405190810160405280929190818152602001828054600181600116156101000203166002900480156104985780601f1061046d57610100808354040283529160200191610498565b600754600160a060020a031681565b6006546000903390600160a060020a031663a75df81482846040516020015260405160e060020a63ffffffff8416028152600160a060020a039091166004820152602401602060405180830381600087803b151561092057600080fd5b6102c65a03f1151561093157600080fd5b5050506040518051905015806109b75750600654600160a060020a031663237f1a218260006040516020015260405160e060020a63ffffffff8416028152600160a060020a039091166004820152602401602060405180830381600087803b151561099b57600080fd5b6102c65a03f115156109ac57600080fd5b505050604051805190505b15156109c257600080fd5b6109cc8484610f0e565b949350505050565b6000836109e181856104a0565b15610ae95780600160a060020a0316638f4ffcb1338630876040518563ffffffff1660e060020a0281526004018085600160a060020a0316600160a060020a0316815260200184815260200183600160a060020a0316600160a060020a0316815260200180602001828103825283818151815260200191508051906020019080838360005b83811015610a7e578082015183820152602001610a66565b50505050905090810190601f168015610aab5780820380516001836020036101000a031916815260200191505b5095505050505050600060405180830381600087803b1515610acc57600080fd5b6102c65a03f11515610add57600080fd5b5050506001915061061f565b506000949350505050565b600160a060020a033381166000908152600260209081526040808320938616835292905290812054610b2c908363ffffffff610de016565b600160a060020a0333811660008181526002602090815260408083209489168084529490915290819020849055919290917f8c5be1e5ebec7d5bd14f71427d1e84f3dd0314c0f7b2291e5b200ac8c7c3b92591905190815260200160405180910390a350600192915050565b600160a060020a03918216600090815260026020908152604080832093909416825291909152205490565b60075433600160a060020a03908116911614610bde57600080fd5b600160a060020a0381161515610bf357600080fd5b600754600160a060020a0380831691167f8be0079c531659141344cd1fd0a4f28419497f9722a3daafe3b4186f6b6457e060405160405180910390a36007805473ffffffffffffffffffffffffffffffffffffffff1916600160a060020a0392909216919091179055565b6000600160a060020a0383161515610c7557600080fd5b600160a060020a038416600090815260016020526040902054821115610c9a57600080fd5b600160a060020a0380851660009081526002602090815260408083203390941683529290522054821115610ccd57600080fd5b600160a060020a038416600090815260016020526040902054610cf6908363ffffffff610efc16565b600160a060020a038086166000908152600160205260408082209390935590851681522054610d2b908363ffffffff610de016565b600160a060020a03808516600090815260016020908152604080832094909455878316825260028152838220339093168252919091522054610d73908363ffffffff610efc16565b600160a060020a03808616600081815260026020908152604080832033861684529091529081902093909355908516917fddf252ad1be2c89b69c2b068fc378daa952ba7f163c4a11628f55a4df523b3ef9085905190815260200160405180910390a35060019392505050565b60008282018381101561069357fe5b60075460009033600160a060020a03908116911614610e0d57600080fd5b60075460a060020a900460ff1615610e2457600080fd5b600054610e37908363ffffffff610de016565b6000908155600160a060020a038416815260016020526040902054610e62908363ffffffff610de016565b600160a060020a0384166000818152600160205260409081902092909255907f0f6798a560793a54c3bcfe86a93cde1e73087d944c0ea20544137d41213968859084905190815260200160405180910390a2600160a060020a03831660007fddf252ad1be2c89b69c2b068fc378daa952ba7f163c4a11628f55a4df523b3ef8460405190815260200160405180910390a350600192915050565b600082821115610f0857fe5b50900390565b6000600160a060020a0383161515610f2557600080fd5b600160a060020a033316600090815260016020526040902054821115610f4a57600080fd5b600160a060020a033316600090815260016020526040902054610f73908363ffffffff610efc16565b600160a060020a033381166000908152600160205260408082209390935590851681522054610fa8908363ffffffff610de016565b600160a060020a0380851660008181526001602052604090819020939093559133909116907fddf252ad1be2c89b69c2b068fc378daa952ba7f163c4a11628f55a4df523b3ef9085905190815260200160405180910390a3506001929150505600a165627a7a7230582040b1518b3a70b5cc489b4a828539b9a6cd3b50905ba7a8d4b5145e4da43359a10029",
  "source": "pragma solidity ^0.4.15;\n\nimport './base/KnownHolderToken.sol';\nimport './base/ApproveAndCallToken.sol';\nimport './base/NamedToken.sol';\nimport 'zeppelin-solidity/contracts/token/CappedToken.sol';\n\ncontract SqmToken is NamedToken, KnownHolderToken, ApproveAndCallToken, CappedToken {\n  function SqmToken(string _name, string _ticker, uint _decimals, uint _cap, address _registry) \n    KnownHolderToken(_registry)\n    NamedToken(_name, _ticker, _decimals)\n    CappedToken(_cap) \n    public\n  {\n  }\n}",
  "sourcePath": "/Users/aler/crypto/altestate-3/contracts/SqmToken.sol",
  "compiler": {
    "name": "solc",
    "version": "0.4.18+commit.9cf6e910.Emscripten.clang"
  },
  "schemaVersion": "1.0.1",
  "updatedAt": "2017-12-04T00:54:20.422Z"
}