{
  "contractName": "UserRegistry",
  "abi": [
    {
      "constant": true,
      "inputs": [
        {
          "name": "_who",
          "type": "address"
        }
      ],
      "name": "hasIdentity",
      "outputs": [
        {
          "name": "",
          "type": "bool"
        }
      ],
      "payable": false,
      "stateMutability": "view",
      "type": "function"
    },
    {
      "constant": false,
      "inputs": [
        {
          "name": "_who",
          "type": "address"
        }
      ],
      "name": "addAddress",
      "outputs": [
        {
          "name": "",
          "type": "bool"
        }
      ],
      "payable": false,
      "stateMutability": "nonpayable",
      "type": "function"
    },
    {
      "constant": false,
      "inputs": [
        {
          "name": "_owner",
          "type": "address"
        }
      ],
      "name": "grant",
      "outputs": [],
      "payable": false,
      "stateMutability": "nonpayable",
      "type": "function"
    },
    {
      "constant": false,
      "inputs": [
        {
          "name": "_owner",
          "type": "address"
        }
      ],
      "name": "revoke",
      "outputs": [],
      "payable": false,
      "stateMutability": "nonpayable",
      "type": "function"
    },
    {
      "constant": true,
      "inputs": [
        {
          "name": "",
          "type": "address"
        }
      ],
      "name": "addresses",
      "outputs": [
        {
          "name": "",
          "type": "bool"
        }
      ],
      "payable": false,
      "stateMutability": "view",
      "type": "function"
    },
    {
      "constant": true,
      "inputs": [],
      "name": "publisher",
      "outputs": [
        {
          "name": "",
          "type": "address"
        }
      ],
      "payable": false,
      "stateMutability": "view",
      "type": "function"
    },
    {
      "constant": true,
      "inputs": [],
      "name": "isOwner",
      "outputs": [
        {
          "name": "",
          "type": "bool"
        }
      ],
      "payable": false,
      "stateMutability": "view",
      "type": "function"
    },
    {
      "constant": true,
      "inputs": [
        {
          "name": "_who",
          "type": "address"
        }
      ],
      "name": "knownAddress",
      "outputs": [
        {
          "name": "",
          "type": "bool"
        }
      ],
      "payable": false,
      "stateMutability": "view",
      "type": "function"
    },
    {
      "constant": false,
      "inputs": [
        {
          "name": "_who",
          "type": "address"
        }
      ],
      "name": "addIdentity",
      "outputs": [
        {
          "name": "",
          "type": "bool"
        }
      ],
      "payable": false,
      "stateMutability": "nonpayable",
      "type": "function"
    },
    {
      "constant": true,
      "inputs": [
        {
          "name": "maybe_owner",
          "type": "address"
        }
      ],
      "name": "checkOwner",
      "outputs": [
        {
          "name": "",
          "type": "bool"
        }
      ],
      "payable": false,
      "stateMutability": "view",
      "type": "function"
    },
    {
      "constant": true,
      "inputs": [
        {
          "name": "",
          "type": "address"
        }
      ],
      "name": "identities",
      "outputs": [
        {
          "name": "",
          "type": "bool"
        }
      ],
      "payable": false,
      "stateMutability": "view",
      "type": "function"
    },
    {
      "anonymous": false,
      "inputs": [
        {
          "indexed": true,
          "name": "who",
          "type": "address"
        }
      ],
      "name": "AddAddress",
      "type": "event"
    },
    {
      "anonymous": false,
      "inputs": [
        {
          "indexed": true,
          "name": "who",
          "type": "address"
        }
      ],
      "name": "AddIdentity",
      "type": "event"
    },
    {
      "anonymous": false,
      "inputs": [
        {
          "indexed": true,
          "name": "owner",
          "type": "address"
        }
      ],
      "name": "AccessGrant",
      "type": "event"
    },
    {
      "anonymous": false,
      "inputs": [
        {
          "indexed": true,
          "name": "owner",
          "type": "address"
        }
      ],
      "name": "AccessRevoke",
      "type": "event"
    }
  ],
  "bytecode": "0x60606040908152600160a060020a0333166000818152602081905291909120805460ff191660019081179091558054600160a060020a03191690911790556106088061004c6000396000f3006060604052600436106100ae5763ffffffff7c0100000000000000000000000000000000000000000000000000000000600035041663237f1a2181146100b357806338eada1c146100e657806370284d191461010557806374a8f1031461012657806382d38954146101455780638c72c54e146101645780638f32d59b14610193578063a75df814146101a6578063b9093fc6146101c5578063e0e3671c146101e4578063f653b81e14610203575b600080fd5b34156100be57600080fd5b6100d2600160a060020a0360043516610222565b604051901515815260200160405180910390f35b34156100f157600080fd5b6100d2600160a060020a0360043516610257565b341561011057600080fd5b610124600160a060020a03600435166102ec565b005b341561013157600080fd5b610124600160a060020a0360043516610369565b341561015057600080fd5b6100d2600160a060020a036004351661041f565b341561016f57600080fd5b610177610434565b604051600160a060020a03909116815260200160405180910390f35b341561019e57600080fd5b6100d2610443565b34156101b157600080fd5b6100d2600160a060020a0360043516610472565b34156101d057600080fd5b6100d2600160a060020a0360043516610490565b34156101ef57600080fd5b6100d2600160a060020a0360043516610598565b341561020e57600080fd5b6100d2600160a060020a03600435166105c7565b600061022d82610472565b80156102515750600160a060020a03821660009081526003602052604090205460ff165b92915050565b600160a060020a03331660009081526020819052604081205460ff16151560011461028157600080fd5b61028a82610472565b1561029457600080fd5b600160a060020a03821660008181526002602052604090819020805460ff191660011790557ff479aa03776602139ad8a1cdaad9e683aa9a395b18958e3a69c05efb0fdb9df3905160405180910390a2506001919050565b600160a060020a03331660009081526020819052604090205460ff16151560011461031657600080fd5b600160a060020a03811660008181526020819052604090819020805460ff191660011790557f1350a997c6c86bcc51dd7e51f7ef618d620e6a85d8fdabb82a980c149ad88d47905160405180910390a250565b600160a060020a03331660009081526020819052604090205460ff16151560011461039357600080fd5b600154600160a060020a03828116911614156103ae57600080fd5b80600160a060020a031633600160a060020a0316141515156103cf57600080fd5b600160a060020a03811660008181526020819052604090819020805460ff191690557f1d1eff42eefbeecfca7e39f8adb5d7f19a7ebbb4c3e82c51f2500d7d76ab2468905160405180910390a250565b60026020526000908152604090205460ff1681565b600154600160a060020a031681565b600160a060020a03331660009081526020819052604081205460ff1661046a57600061046d565b60015b905090565b600160a060020a031660009081526002602052604090205460ff1690565b600160a060020a03331660009081526020819052604081205460ff1615156001146104ba57600080fd5b6104c382610222565b156104cd57600080fd5b600160a060020a03821660009081526002602052604090205460ff16151561054057600160a060020a03821660008181526002602052604090819020805460ff191660011790557ff479aa03776602139ad8a1cdaad9e683aa9a395b18958e3a69c05efb0fdb9df3905160405180910390a25b600160a060020a03821660008181526003602052604090819020805460ff191660011790557f696f554bfa6e8597f6c7e15d57a6d19d4614c602bc21813b1769aebe5d7632e0905160405180910390a2506001919050565b600160a060020a03811660009081526020819052604081205460ff166105bf576000610251565b506001919050565b60036020526000908152604090205460ff16815600a165627a7a723058204c873f920d4419df94f9d77c5f875f8b78e03e0ce29497a2f2e7cec2eb46cdc40029",
  "source": "pragma solidity ^0.4.15;\n\nimport './base/UserRegistryInterface.sol';\nimport './base/MultiOwners.sol';\n\ncontract UserRegistry is MultiOwners, UserRegistryInterface {\n  function addAddress(address _who) onlyOwner public returns(bool) {\n    require(!knownAddress(_who));\n    addresses[_who] = true;\n    AddAddress(_who);\n    return true;\n  }\n\n  function addIdentity(address _who) onlyOwner public returns(bool) {\n    require(!hasIdentity(_who));\n    if(!addresses[_who]) {\n      addresses[_who] = true;\n      AddAddress(_who);\n    }\n    identities[_who] = true;\n    AddIdentity(_who);\n    return true;\n  }\n  \n  function knownAddress(address _who) public constant returns(bool) {\n    return addresses[_who];\n  }\n\n  function hasIdentity(address _who) public constant returns(bool) {\n    return knownAddress(_who) && identities[_who];\n  }\n}",
  "sourcePath": "/Users/aler/crypto/altestate-3/contracts/UserRegistry.sol",
  "compiler": {
    "name": "solc",
    "version": "0.4.18+commit.9cf6e910.Emscripten.clang"
  },
  "schemaVersion": "1.0.1",
  "updatedAt": "2017-11-26T09:45:03.101Z"
}