{
  "contractName": "WhitelistRecord",
  "abi": [
    {
      "constant": true,
      "inputs": [],
      "name": "max",
      "outputs": [
        {
          "name": "",
          "type": "uint256"
        }
      ],
      "payable": false,
      "stateMutability": "view",
      "type": "function"
    },
    {
      "constant": true,
      "inputs": [],
      "name": "allow",
      "outputs": [
        {
          "name": "",
          "type": "bool"
        }
      ],
      "payable": false,
      "stateMutability": "view",
      "type": "function"
    },
    {
      "constant": true,
      "inputs": [],
      "name": "min",
      "outputs": [
        {
          "name": "",
          "type": "uint256"
        }
      ],
      "payable": false,
      "stateMutability": "view",
      "type": "function"
    },
    {
      "inputs": [
        {
          "name": "_minAmount",
          "type": "uint256"
        },
        {
          "name": "_maxAmount",
          "type": "uint256"
        }
      ],
      "payable": false,
      "stateMutability": "nonpayable",
      "type": "constructor"
    }
  ],
  "bytecode": "0x6060604052341561000f57600080fd5b60405160408061013e83398101604052808051919060200180516000805460ff1916600190811790915593909355505060025560ee806100506000396000f30060606040526004361060525763ffffffff7c01000000000000000000000000000000000000000000000000000000006000350416636ac5db1981146057578063b1b3d3f6146079578063f889794514609d575b600080fd5b3415606157600080fd5b606760ad565b60405190815260200160405180910390f35b3415608357600080fd5b608960b3565b604051901515815260200160405180910390f35b341560a757600080fd5b606760bc565b60025481565b60005460ff1681565b600154815600a165627a7a72305820afc8f4507018f38962b94a576ee2c0b5657953606f9b88c3ab7c1742b67c2d430029",
  "source": "pragma solidity ^0.4.15;\n\nimport 'zeppelin-solidity/contracts/math/SafeMath.sol';\nimport 'zeppelin-solidity/contracts/token/ERC20.sol';\nimport './UserRegistryInterface.sol';\nimport './MultiOwners.sol';\nimport './TokenRecipient.sol';\n\ncontract TokenInterface is ERC20 {\n  string public name;\n  string public symbol;\n  uint public decimals;\n}\n\ncontract MintableTokenInterface is TokenInterface {\n  address public owner;\n  function mint(address beneficiary, uint amount) public returns(bool);\n}\n\ncontract PersonalBonusRecord {\n  address public referalAddress;\n  uint public bonus;\n  uint public referalBonus;\n\n  function PersonalBonusRecord(uint _bonus, address _referal, uint _referalBonus) public {\n    referalAddress = _referal;\n    referalBonus = _referalBonus;\n    bonus = _bonus;\n  }\n}\n\ncontract WhitelistRecord {\n  bool public allow;\n  uint public min;\n  uint public max;\n\n  function WhitelistRecord(uint _minAmount, uint _maxAmount) public {\n    allow = true;\n    min = _minAmount;\n    max = _maxAmount;\n  }\n}\n\n/**\n * Complex crowdsale with huge posibilities\n * Core features:\n * - Whitelisting\n *  - Min\\max invest amounts\n * - Only known users\n * - Buy with allowed tokens\n *  - Oraclize based pairs (ETH to TOKEN)\n * - Pulling tokens (temporal balance inside sale)\n * - Revert\\refund\n * - Personal bonuses\n * - Amount bonuses\n * - Total supply bonuses\n * - Early birds bonuses\n * - Extra distribution (team, foundation and also)\n * - Soft and hard caps\n * - Finalization logics\n**/\ncontract Crowdsale is MultiOwners, TokenRecipient {\n  using SafeMath for uint;\n\n  //  ██████╗ ██████╗ ███╗   ██╗███████╗████████╗███████╗\n  // ██╔════╝██╔═══██╗████╗  ██║██╔════╝╚══██╔══╝██╔════╝\n  // ██║     ██║   ██║██╔██╗ ██║███████╗   ██║   ███████╗\n  // ██║     ██║   ██║██║╚██╗██║╚════██║   ██║   ╚════██║\n  // ╚██████╗╚██████╔╝██║ ╚████║███████║   ██║   ███████║\n  //  ╚═════╝ ╚═════╝ ╚═╝  ╚═══╝╚══════╝   ╚═╝   ╚══════╝\n  uint public constant VERSION = 0x1;\n  enum State {\n    Setup,          // Non active yet (require to be setuped)\n    Active,         // Crowdsale in a live\n    Success,        // Finalization state (forward funds, transfer tokens (if not yet), refunding via owner if it requires (KYC))\n    Refund,         // Unsucceseful crowdsale (refund ether)\n    History         // Close and store only historical fact of existence\n  }\n\n\n  //  ██████╗ ██████╗ ███╗   ██╗███████╗██╗███╗   ██╗ ██████╗ \n  // ██╔════╝██╔═══██╗████╗  ██║██╔════╝██║████╗  ██║██╔════╝ \n  // ██║     ██║   ██║██╔██╗ ██║█████╗  ██║██╔██╗ ██║██║  ███╗\n  // ██║     ██║   ██║██║╚██╗██║██╔══╝  ██║██║╚██╗██║██║   ██║\n  // ╚██████╗╚██████╔╝██║ ╚████║██║     ██║██║ ╚████║╚██████╔╝\n  //  ╚═════╝ ╚═════╝ ╚═╝  ╚═══╝╚═╝     ╚═╝╚═╝  ╚═══╝ ╚═════╝ \n                                                           \n  bool public isWhitelisted;            // Should be whitelisted to buy tokens\n  bool public isKnownOnly;              // Should be known user to buy tokens\n  bool public isAmountBonus;            // Enable amount bonuses in crowdsale?\n  bool public isEarlyBonus;             // Enable early bird bonus in crowdsale?\n  bool public isRefundable;             // Allow to refund money?\n  bool public isTokenExchange;          // Allow to buy tokens for another tokens?\n  bool public isAllowToIssue;           // Allow to issue tokens with tx hash (ex bitcoin)\n  bool public isExtraDistribution;      // Should distribute extra tokens to special contract?\n  bool public isTransferShipment;       // Will ship token via minting?\n  bool public isCappedInEther;          // Should be capped in Ether \n  bool public isPullingTokens;          // Should beneficiaries pull their tokens?\n  bool public isPersonalBonuses;        // Should check personal beneficiary bonus?\n\n  // List of allowed beneficiaries\n  mapping (address => WhitelistRecord) public whitelist;\n  address[] public whitelisted;\n  uint public whitelistedCount;\n\n  // Known users registry (required to known rules)\n  UserRegistryInterface public userRegistry;\n\n  mapping (uint => uint) public amountBonuses; // Amount bonuses\n  uint[] public amountSlices;           // Key is min amount of buy\n  uint public amountSlicesCount;        // 10000 - totaly free\n                                        //  5000 - 50% sale\n                                        //     0 - 100% (no bonus)\n  mapping (uint => uint) public timeBonuses; // Time bonuses\n  uint[] public timeSlices;             // Same as amount but key is seconds after start\n  uint public timeSlicesCount;\n\n  mapping (address => PersonalBonusRecord) public personalBonuses; \n                                        // personal bonuses\n  MintableTokenInterface public token;  // The token being sold\n  uint public tokenDecimals;            // Token decimals\n\n  mapping (address => TokenInterface) public allowedTokens;\n                                        // allowed tokens list\n  mapping (address => uint) public tokensValues;\n                                        // TOKEN to ETH conversion rate (oraclized)\n  uint public startTime;                // start and end timestamps where \n  uint public endTime;                  // investments are allowed (both inclusive)\n  address public wallet;                // address where funds are collected\n  uint public price;                    // how many token (1 * 10 ** decimals) a buyer gets per wei\n  uint public hardCap;\n  uint public softCap;\n\n  address public extraTokensHolder;     // address to mint/transfer extra tokens (0 – 0%, 1000 - 100.0%)\n  uint public extraDistributionPart;    // % of extra distribution\n\n  // ███████╗████████╗ █████╗ ████████╗███████╗\n  // ██╔════╝╚══██╔══╝██╔══██╗╚══██╔══╝██╔════╝\n  // ███████╗   ██║   ███████║   ██║   █████╗  \n  // ╚════██║   ██║   ██╔══██║   ██║   ██╔══╝  \n  // ███████║   ██║   ██║  ██║   ██║   ███████╗\n  // ╚══════╝   ╚═╝   ╚═╝  ╚═╝   ╚═╝   ╚══════╝\n  // amount of raised money in wei\n  uint public weiRaised;\n  // Current crowdsale state\n  State public state;\n  // Temporal balances to pull tokens after token sale\n  // requires to ship required balance to smart contract\n  mapping (address => uint) public beneficiaryInvest;\n  uint public temporalTotalSupply;\n\n  mapping (address => uint) public weiDeposit;\n  mapping (address => mapping(address => uint)) public altDeposit;\n\n  mapping (address => bool) public claimRefundAllowance;\n\n  modifier inState(State _target) {\n    require(state == _target);\n    _;\n  }\n\n  // ███████╗██╗   ██╗███████╗███╗   ██╗████████╗███████╗\n  // ██╔════╝██║   ██║██╔════╝████╗  ██║╚══██╔══╝██╔════╝\n  // █████╗  ██║   ██║█████╗  ██╔██╗ ██║   ██║   ███████╗\n  // ██╔══╝  ╚██╗ ██╔╝██╔══╝  ██║╚██╗██║   ██║   ╚════██║\n  // ███████╗ ╚████╔╝ ███████╗██║ ╚████║   ██║   ███████║\n  // ╚══════╝  ╚═══╝  ╚══════╝╚═╝  ╚═══╝   ╚═╝   ╚══════╝\n  \n  event TokenPurchase(address indexed purchaser, address indexed beneficiary, uint value, uint amount);\n  event HashSale(address indexed beneficiary, uint value, uint amount, uint timestamp, bytes32 indexed bitcoinHash);\n  event TokenSell(address indexed beneficiary, address indexed allowedToken, uint allowedTokenValue, uint ethValue, uint shipAmount);\n  event ShipTokens(address indexed owner, uint amount);\n\n  // event SetToken(address indexed owner, address previousToken, address indexed nextToken);\n  // event SetStartTime(address indexed owner, uint previousStartTime, uint nextStartTime);\n  // event SetEndTime(address indexed owner, uint previousEndTime, uint nextEndTime);\n  // event SetExtraTokensHolder(address indexed owner, address previousExtraTokensHolder, address nextExtraTokensHolder);\n  // event SetExtraTokensPart(address indexed owner, uint previousExtraTokensPart, uint nextExtraTokensPart);\n  // event SetHardCap(address indexed owner, uint previousHardCap, uint nextHardCap);\n  // event SetSoftCap(address indexed owner, uint previousSoftCap, uint nextSoftCap);\n  // event SetPrice(address indexed owner, uint previousPrice, uint nextPrice);\n  // event SetWallet(address indexed owner, address previousWallet, address nextWallet);\n  // event SetRegistry(address indexed owner, address previousRegistry, address nextRegistry);\n  // event AddAmountSlice(address indexed owner, uint slice, uint bonus);\n  // event AddTimeSlice(address indexed owner, uint slice, uint bonus);\n\n\n  // ███████╗███████╗████████╗██╗   ██╗██████╗     ███╗   ███╗███████╗████████╗██╗  ██╗ ██████╗ ██████╗ ███████╗\n  // ██╔════╝██╔════╝╚══██╔══╝██║   ██║██╔══██╗    ████╗ ████║██╔════╝╚══██╔══╝██║  ██║██╔═══██╗██╔══██╗██╔════╝\n  // ███████╗█████╗     ██║   ██║   ██║██████╔╝    ██╔████╔██║█████╗     ██║   ███████║██║   ██║██║  ██║███████╗\n  // ╚════██║██╔══╝     ██║   ██║   ██║██╔═══╝     ██║╚██╔╝██║██╔══╝     ██║   ██╔══██║██║   ██║██║  ██║╚════██║\n  // ███████║███████╗   ██║   ╚██████╔╝██║         ██║ ╚═╝ ██║███████╗   ██║   ██║  ██║╚██████╔╝██████╔╝███████║\n  // ╚══════╝╚══════╝   ╚═╝    ╚═════╝ ╚═╝         ╚═╝     ╚═╝╚══════╝   ╚═╝   ╚═╝  ╚═╝ ╚═════╝ ╚═════╝ ╚══════╝\n\n  function setFlags(\n    // Should be whitelisted to buy tokens\n    bool _isWhitelisted,\n    // Should be known user to buy tokens\n    bool _isKnownOnly,\n    // Enable amount bonuses in crowdsale?\n    bool _isAmountBonus,\n    // Enable early bird bonus in crowdsale?\n    bool _isEarlyBonus,\n    // Allow to refund money?\n    bool _isRefundable,\n    // Allow to buy tokens for another tokens?\n    bool _isTokenExchange,\n    // Allow to issue tokens with tx hash (ex bitcoin)\n    bool _isAllowToIssue,\n    // Should mint extra tokens for future distribution?\n    bool _isExtraDistribution,\n    // Will ship token via minting? \n    bool _isMintingShipment,\n    // Should be capped in ether\n    bool _isCappedInEther,\n    // Should beneficiaries pull their tokens? \n    bool _isPullingTokens,\n    // Should check personal bonus?\n    bool _isPersonalBonuses)\n    inState(State.Setup) onlyOwner public \n  {\n    isWhitelisted = _isWhitelisted;\n    isKnownOnly = _isKnownOnly;\n    isAmountBonus = _isAmountBonus;\n    isEarlyBonus = _isEarlyBonus;\n    isRefundable = _isRefundable;\n    isTokenExchange = _isTokenExchange;\n    isAllowToIssue = _isAllowToIssue;\n    isExtraDistribution = _isExtraDistribution;\n    isTransferShipment = _isMintingShipment;\n    isCappedInEther = _isCappedInEther;\n    isPullingTokens = isRefundable || _isPullingTokens;\n    isPersonalBonuses = _isPersonalBonuses;\n  }\n\n  function setPrice(uint _price)\n    inState(State.Setup) onlyOwner public\n  {\n    require(_price > 0);\n    // SetPrice(msg.sender, price, _price);\n    price = _price;\n    Debug(msg.sender, appendUintToString(\"New Price: \", _price));\n  }\n\n  function setSoftHardCaps(uint _softCap, uint _hardCap)\n    inState(State.Setup) onlyOwner public\n  {\n    // SetSoftCap(msg.sender, softCap, _softCap);\n    // SetHardCap(msg.sender, hardCap, _hardCap);\n    hardCap = _hardCap;\n    softCap = _softCap;\n    Debug(msg.sender, appendUintToString(\"Soft Cap: \", _softCap));\n    Debug(msg.sender, appendUintToString(\"Hard Cap: \", _hardCap));\n  }\n\n  function setTime(uint _start, uint _end)\n    inState(State.Setup) onlyOwner public \n  {\n    require(_start < _end);\n    require(_end > block.timestamp);\n\n    // SetStartTime(msg.sender, startTime, _start);\n    // SetEndTime(msg.sender, endTime, _end);\n    startTime = _start;\n    endTime = _end;\n    Debug(msg.sender, appendUintToString(\"Start Time: \", _start));\n    Debug(msg.sender, appendUintToString(\"End Time: \", _end));\n  }\n\n  function setToken(address _tokenAddress) \n    inState(State.Setup) onlyOwner public\n  {\n    // SetToken(msg.sender, token, _tokenAddress);\n    token = MintableTokenInterface(_tokenAddress);\n    tokenDecimals = token.decimals();\n    Debug(msg.sender, \"New Token\");\n    Debug(msg.sender, addressToString(_tokenAddress));\n  }\n\n  function setWallet(address _wallet) \n    inState(State.Setup) onlyOwner public \n  {\n    require(_wallet != address(0));\n    // SetWallet(msg.sender, wallet, _wallet);\n    wallet = _wallet;\n    Debug(msg.sender, \"New Wallet\");\n    Debug(msg.sender, addressToString(_wallet));\n  }\n  \n  function setRegistry(address _registry) \n    inState(State.Setup) onlyOwner public \n  {\n    require(_registry != address(0));\n    // SetRegistry(msg.sender, userRegistry, _registry);\n    userRegistry = UserRegistryInterface(_registry);\n    Debug(msg.sender, \"New Registry\");\n    Debug(msg.sender, addressToString(_registry));\n  }\n\n  function setExtraDistribution(address _holder, uint _extraPart) \n    inState(State.Setup) onlyOwner public\n  {\n    require(_holder != address(0));\n    // SetExtraTokensHolder(msg.sender, extraTokensHolder, _holder);\n    // SetExtraTokensPart(msg.sender, extraDistributionPart, _extraPart);\n    extraTokensHolder = _holder;\n    extraDistributionPart = _extraPart;\n    Debug(msg.sender, \"New Extra Tokens Holder\");\n    Debug(msg.sender, addressToString(_holder));\n    Debug(msg.sender, appendUintToString(\"New Extra Tokens Part: \", _extraPart));\n  }\n\n  function setAmountBonuses(uint[] _amountSlices, uint[] _prices) \n    inState(State.Setup) onlyOwner public \n  {\n    require(_amountSlices.length > 1);\n    require(_prices.length == _amountSlices.length);\n    uint lastSlice = 0;\n    for (uint index = 0; index < _amountSlices.length; index++) {\n      require(_amountSlices[index] >= lastSlice);\n      lastSlice = _amountSlices[index];\n      amountSlices.push(lastSlice);\n      amountBonuses[lastSlice] = _prices[index];\n\n      // AddAmountSlice(msg.sender, _amountSlices[index], _prices[index]);\n      Debug(msg.sender, appendUintToString(\"Add amount bonus: \", _prices[index]));\n      Debug(msg.sender, appendUintToString(\"At slice: \", _amountSlices[index]));\n    }\n\n    amountSlicesCount = amountSlices.length;\n  }\n\n  function setTimeBonuses(uint[] _timeSlices, uint[] _prices) \n    inState(State.Setup) onlyOwner public \n  {\n    // Only once in life time\n    require(timeSlicesCount == 0);\n    require(_timeSlices.length > 1);\n    require(_prices.length == _timeSlices.length);\n    uint lastSlice = 0;\n    for (uint index = 0; index < _timeSlices.length; index++) {\n      require(_timeSlices[index] >= lastSlice);\n      lastSlice = _timeSlices[index];\n      timeSlices.push(lastSlice);\n      timeBonuses[lastSlice] = _prices[index];\n      // AddTimeSlice(msg.sender, _timeSlices[index], _prices[index]);\n      Debug(msg.sender, appendUintToString(\"Add time bonus: \", _prices[index]));\n      Debug(msg.sender, appendUintToString(\"At slice: \", _timeSlices[index]));\n    }\n    timeSlicesCount = timeSlices.length;\n  }\n  \n  function setTokenExcange(address _token, uint _value)\n    inState(State.Setup) onlyOwner public\n  {\n    allowedTokens[_token] = TokenInterface(_token);\n    updateTokenValue(_token, _value); \n  }\n\n  function saneIt() \n    inState(State.Setup) onlyOwner public \n  {\n    require(startTime < endTime);\n    require(endTime > now);\n\n    require(price > 0);\n\n    require(wallet != address(0));\n    require(token != address(0));\n\n    if (isKnownOnly) {\n      require(userRegistry != address(0));\n    }\n\n    if (isAmountBonus) {\n      require(amountSlicesCount > 0);\n    }\n\n    if (isEarlyBonus) {\n      require(timeSlicesCount > 0);\n    }\n\n    if (isExtraDistribution) {\n      require(extraTokensHolder != address(0));\n    }\n\n    if (isTransferShipment) {\n      require(token.balanceOf(address(this)) >= hardCap);\n    } else {\n      require(token.owner() == address(this));\n    }\n\n    state = State.Active;\n\n    Debug(msg.sender, \"Sane it\");\n  }\n\n  // ███████╗██╗  ██╗███████╗ ██████╗██╗   ██╗████████╗███████╗\n  // ██╔════╝╚██╗██╔╝██╔════╝██╔════╝██║   ██║╚══██╔══╝██╔════╝\n  // █████╗   ╚███╔╝ █████╗  ██║     ██║   ██║   ██║   █████╗  \n  // ██╔══╝   ██╔██╗ ██╔══╝  ██║     ██║   ██║   ██║   ██╔══╝  \n  // ███████╗██╔╝ ██╗███████╗╚██████╗╚██████╔╝   ██║   ███████╗\n  // ╚══════╝╚═╝  ╚═╝╚══════╝ ╚═════╝ ╚═════╝    ╚═╝   ╚══════╝\n\n  function calculateEthAmount(\n    address _beneficiary,\n    uint _weiAmount,\n    uint _time,\n    uint _totalSupply\n  ) public constant returns(\n    uint calculatedTotal, \n    uint calculatedBeneficiary, \n    uint calculatedExtra, \n    uint calculatedReferal, \n    address referalAddress) \n  {\n    _totalSupply;\n    uint bonus = 0;\n\n    if (_time < startTime || _time > endTime) {\n      return (0, 0, 0, 0, address(0));\n    } else {\n      if (isAmountBonus) {\n        bonus = bonus.add(calculateAmountBonus(_weiAmount));\n      }\n\n      if (isEarlyBonus) {\n        bonus = bonus.add(calculateTimeBonus(_time - startTime));\n      }\n\n      if (isPersonalBonuses && personalBonuses[_beneficiary].bonus() > 0) {\n        bonus = bonus.add(personalBonuses[_beneficiary].bonus());\n      }\n    }\n\n    calculatedBeneficiary = _weiAmount.mul(10 ** tokenDecimals).div(price);\n    if (bonus > 0) {\n      calculatedBeneficiary = calculatedBeneficiary.add(calculatedBeneficiary.mul(bonus).div(10000));\n    }\n\n    if (isExtraDistribution) {\n      calculatedExtra = calculatedBeneficiary.mul(extraDistributionPart).div(10000);\n    }\n\n    if (isPersonalBonuses && \n        personalBonuses[_beneficiary].referalAddress() != address(0) && \n        personalBonuses[_beneficiary].referalBonus() > 0) \n    {\n      calculatedReferal = calculatedBeneficiary.mul(personalBonuses[_beneficiary].referalBonus()).div(10000);\n      referalAddress = personalBonuses[_beneficiary].referalAddress();\n    }\n\n    calculatedTotal = calculatedBeneficiary.add(calculatedExtra).add(calculatedReferal);\n  }\n\n  function calculateAmountBonus(uint _changeAmount) public constant returns(uint) {\n    uint bonus = 0;\n    for (uint index = 0; index < amountSlices.length; index++) {\n      if(amountSlices[index] > _changeAmount) {\n        break;\n      }\n\n      bonus = amountBonuses[amountSlices[index]];\n    }\n    return bonus;\n  }\n\n  function calculateTimeBonus(uint _at) public constant returns(uint) {\n    uint bonus = 0;\n    for (uint index = 0; index < timeSlices.length; index++) {\n      bonus = timeBonuses[timeSlices[index]];\n      if(timeSlices[index] > _at) {\n        break;\n      }\n    }\n\n    return bonus;\n  }\n\n  function validPurchase(\n    address _beneficiary, \n    uint _weiAmount, \n    uint _tokenAmount,\n    uint _extraAmount,\n    uint _totalAmount) \n  public constant returns(bool) \n  {\n    _extraAmount;\n    _weiAmount;\n\n    if (isKnownOnly && !userRegistry.knownAddress(_beneficiary)) {\n      return false;\n    }\n\n    uint finalBeneficiaryInvest = beneficiaryInvest[_beneficiary].add(_weiAmount);\n    uint finalTotalSupply = temporalTotalSupply.add(_totalAmount);\n\n    if (isWhitelisted) {\n      WhitelistRecord record = whitelist[_beneficiary];\n      if (!record.allow() || \n          record.min() > finalBeneficiaryInvest ||\n          record.max() < finalBeneficiaryInvest) {\n        return false;\n      }\n    }\n\n    if (isCappedInEther) {\n      if (weiRaised.add(_weiAmount) > hardCap) {\n        return false;\n      }\n    } else {\n      if (finalTotalSupply > hardCap) {\n        return false;\n      }\n    }\n\n    return true;\n  }\n\n                                                                                        \n  function updateTokenValue(address _token, uint _value) onlyOwner public {\n    tokensValues[_token] = _value;\n  }\n\n  //  ██████╗ ██╗   ██╗████████╗███████╗██╗██████╗ ███████╗\n  // ██╔═══██╗██║   ██║╚══██╔══╝██╔════╝██║██╔══██╗██╔════╝\n  // ██║   ██║██║   ██║   ██║   ███████╗██║██║  ██║█████╗  \n  // ██║   ██║██║   ██║   ██║   ╚════██║██║██║  ██║██╔══╝  \n  // ╚██████╔╝╚██████╔╝   ██║   ███████║██║██████╔╝███████╗\n  //  ╚═════╝  ╚═════╝    ╚═╝   ╚══════╝╚═╝╚═════╝ ╚══════╝\n  // fallback function can be used to buy tokens\n  function () external payable {\n    buyTokens(msg.sender);\n  }\n\n  function buyTokens(address _beneficiary) inState(State.Active) public payable {\n    Debug(msg.sender, \"Start buy tokens\");\n\n    uint shipAmount = sellTokens(_beneficiary, msg.value);\n    require(shipAmount > 0);\n    forwardEther();\n  }\n\n  function buyWithHash(address _beneficiary, uint _value, uint _timestamp, bytes32 _hash) \n    inState(State.Active) onlyOwner public \n  {\n    uint shipAmount = sellTokens(_beneficiary, _value);\n    require(shipAmount > 0);\n    HashSale(_beneficiary, _value, shipAmount, _timestamp, _hash);\n  }\n\n  function receiveApproval(address _from, \n                           uint256 _value, \n                           address _token, \n                           bytes _extraData) public {\n    _extraData;\n    require(address(allowedTokens[_token]) != address(0));\n    uint weiValue = _value.mul(tokensValues[_token]).div(10 ** allowedTokens[_token].decimals());\n    uint shipAmount = sellTokens(_from, weiValue);\n    require(shipAmount > 0);\n    TokenSell(_from, _token, _value, weiValue, shipAmount);\n  }\n\n  function refund(address _beneficiary) onlyOwner public {\n    require(isRefundable);\n    claimRefundAllowance[_beneficiary] = true;\n  }\n\n  // if crowdsale is unsuccessful, investors can claim refunds here\n  function claimRefund(address _beneficiary) public returns(bool) {\n    require(isRefundable);\n    require(claimRefundAllowance[_beneficiary] || state == State.Refund);\n\n    // refund all deposited wei\n    _beneficiary.transfer(weiDeposit[_beneficiary]);\n\n    // refund all deposited alt tokens\n    if (isTokenExchange) {\n      // token.transfer(_beneficiary, altDeposit[_beneficiary]);\n    }\n  }\n\n  function addToWhitelist(address _beneficiary, uint _min, uint _max) onlyOwner public\n  {\n    require(_beneficiary != address(0));\n    require(_min <= _max);\n\n    if (_max == 0) {\n      _max = 10 ** 40; // should be huge enough? :0\n    }\n\n    whitelist[_beneficiary] = new WhitelistRecord(_min, _max);\n    whitelisted.push(_beneficiary);\n    whitelistedCount++;\n  }\n  \n  function setPersonalBonus(\n    address _beneficiary, \n    uint _bonus, \n    address _referalAddress, \n    uint _referalBonus) onlyOwner public {\n    personalBonuses[_beneficiary] = new PersonalBonusRecord(\n      _bonus,\n      _referalAddress,\n      _referalBonus\n    ); \n  }\n\n  // ██╗███╗   ██╗████████╗███████╗██████╗ ███╗   ██╗ █████╗ ██╗     ███████╗\n  // ██║████╗  ██║╚══██╔══╝██╔════╝██╔══██╗████╗  ██║██╔══██╗██║     ██╔════╝\n  // ██║██╔██╗ ██║   ██║   █████╗  ██████╔╝██╔██╗ ██║███████║██║     ███████╗\n  // ██║██║╚██╗██║   ██║   ██╔══╝  ██╔══██╗██║╚██╗██║██╔══██║██║     ╚════██║\n  // ██║██║ ╚████║   ██║   ███████╗██║  ██║██║ ╚████║██║  ██║███████╗███████║\n  // ╚═╝╚═╝  ╚═══╝   ╚═╝   ╚══════╝╚═╝  ╚═╝╚═╝  ╚═══╝╚═╝  ╚═╝╚══════╝╚══════╝\n  // low level token purchase function\n  function sellTokens(address _beneficiary, uint _weiAmount) \n    inState(State.Active) internal returns(uint)\n  {\n    Debug(msg.sender, \"Start sell tokens\");\n    uint beneficiaryTokens;\n    uint extraTokens;\n    uint totalTokens;\n    uint referalTokens;\n    address referalAddress;\n    (totalTokens, beneficiaryTokens, extraTokens, referalTokens, referalAddress) = calculateEthAmount(\n      _beneficiary, \n      _weiAmount, \n      block.timestamp, \n      token.totalSupply());\n      \n    Debug(msg.sender, \"Calculate amount\");\n    Debug(msg.sender, appendUintToString(\"Total: \", totalTokens));\n    Debug(msg.sender, appendUintToString(\"Beneficiary: \", beneficiaryTokens));\n\n    require(validPurchase(_beneficiary,   // Check if current purchase is valid\n                          _weiAmount, \n                          beneficiaryTokens,\n                          extraTokens,\n                          totalTokens));\n\n    weiRaised = weiRaised.add(_weiAmount); // update state (wei amount)\n    beneficiaryInvest[_beneficiary] = beneficiaryInvest[_beneficiary].add(_weiAmount);\n    shipTokens(_beneficiary, beneficiaryTokens);     // ship tokens to beneficiary\n    TokenPurchase(msg.sender,             // Fire purchase event\n                  _beneficiary, \n                  _weiAmount, \n                  beneficiaryTokens);\n    ShipTokens(_beneficiary, beneficiaryTokens);\n\n    if (isExtraDistribution) {            // calculate and\n      shipTokens(extraTokensHolder,       // ship extra tokens (team, foundation and etc)\n                 extraTokens);\n      ShipTokens(extraTokensHolder, extraTokens);\n    }\n\n    if (isPersonalBonuses) {\n      PersonalBonusRecord record = personalBonuses[_beneficiary];\n      if (record.referalAddress() != address(0) && record.referalBonus() > 0) {\n        shipTokens(record.referalAddress(), referalTokens);\n      }\n    }\n\n    return beneficiaryTokens;\n  }\n\n  function shipTokens(address _beneficiary, uint _amount) \n    inState(State.Active) internal \n  {\n    if (!isPullingTokens) {\n      if (isTransferShipment) {\n        token.transferFrom(address(this), _beneficiary, _amount);\n      } else {\n        token.mint(_beneficiary, _amount);\n      }\n    }\n\n    temporalTotalSupply = temporalTotalSupply.add(_amount);\n  }\n\n  function forwardEther() internal {\n    if (isRefundable) {\n      weiDeposit[msg.sender] = msg.value;\n    } else {\n      wallet.transfer(msg.value);\n    }\n  }\n\n  function forwardTokens(address _beneficiary, address _tokenAddress, uint _amount) internal {\n    TokenInterface allowedToken = allowedTokens[_tokenAddress];\n\n    if (isRefundable) {\n      allowedToken.transferFrom(_beneficiary, address(this), _amount);\n      altDeposit[_tokenAddress][_beneficiary] = _amount;\n    } else {\n      allowedToken.transferFrom(_beneficiary, wallet, _amount);\n    }\n  }\n\n\n  // ██████╗ ███████╗██████╗ ██╗   ██╗ ██████╗ \n  // ██╔══██╗██╔════╝██╔══██╗██║   ██║██╔════╝ \n  // ██║  ██║█████╗  ██████╔╝██║   ██║██║  ███╗\n  // ██║  ██║██╔══╝  ██╔══██╗██║   ██║██║   ██║\n  // ██████╔╝███████╗██████╔╝╚██████╔╝╚██████╔╝\n  // ╚═════╝ ╚══════╝╚═════╝  ╚═════╝  ╚═════╝ \n  event Debug(address indexed sender, string message);\n  \n  function uintToString(uint v) public pure returns (string str) {\n    uint maxlength = 100;\n    bytes memory reversed = new bytes(maxlength);\n    uint i = 0;\n    while (v != 0) {\n      uint remainder = v % 10;\n      v = v / 10;\n      reversed[i++] = byte(48 + remainder);\n    }\n    bytes memory s = new bytes(i);\n    for (uint j = 0; j < i; j++) {\n      s[j] = reversed[i - 1 - j];\n    }\n    str = string(s);\n  }\n\n  function addressToString(address x) returns (string) {\n    bytes memory s = new bytes(40);\n    for (uint i = 0; i < 20; i++) {\n      byte b = byte(uint8(uint(x) / (2**(8*(19 - i)))));\n      byte hi = byte(uint8(b) / 16);\n      byte lo = byte(uint8(b) - 16 * uint8(hi));\n      s[2*i] = char(hi);\n      s[2*i+1] = char(lo);            \n    }\n    return string(s);\n  }\n\n  function char(byte b) returns (byte c) {\n    if (b < 10) return byte(uint8(b) + 0x30);\n    else return byte(uint8(b) + 0x57);\n  }\n\n  function appendUintToString(string inStr, uint v) public pure returns (string str) {\n    uint maxlength = 100;\n    bytes memory reversed = new bytes(maxlength);\n    uint i = 0;\n    while (v != 0) {\n      uint remainder = v % 10;\n      v = v / 10;\n      reversed[i++] = byte(48 + remainder);\n    }\n    bytes memory inStrb = bytes(inStr);\n    bytes memory s = new bytes(inStrb.length + i);\n    uint j;\n    for (j = 0; j < inStrb.length; j++) {\n      s[j] = inStrb[j];\n    }\n    for (j = 0; j < i; j++) {\n      s[j + inStrb.length] = reversed[i - 1 - j];\n    }\n    str = string(s);\n  }\n}",
  "sourcePath": "/Users/aler/crypto/altestate-3/contracts/base/Crowdsale.sol",
  "compiler": {
    "name": "solc",
    "version": "0.4.18+commit.9cf6e910.Emscripten.clang"
  },
  "schemaVersion": "1.0.1",
  "updatedAt": "2017-12-05T03:18:14.158Z"
}